:020000040000FA
:0600000002011D021E3387
:03002B0002252F7C
:03005300021EA6E4
:03006B0002254E1D
:10008300021CE7E5C754F84401F5C77901220000D3
:100093000080FB120086B90003020107E47921788E
:1000A30008B800028004F709D8FCE479297802B87B
:1000B30000028004F709D8FCE490028178ED790707
:1000C3008002F0A3D8FCD9FA781A90014D7A01BACC
:1000D30000028007E493A3F608DAF990096DAA8277
:1000E300AB8390014E78F479038015E493A3AC823B
:1000F300AD838A828B83F0A3AA82AB838C828D83A8
:10010300D8E9D9E77582277583C2740312012F7565
:100113008291758300740012012F75D00075813FA1
:10012300751881751902759F00020096C09FF59F8F
:10013300E473D09F22D083D082C09FE493C0E07445
:100143000193C0E0740293F59F2201FF0000B40005
:100153000028002800283075A000A000A000A000FF
:1001630000080008E001F00010001000100010006B
:100173001000100050005000500010001000D00775
:100183000000000000000F000100050030750700AB
:100193001000010081FF0000FF390657063F06FFEC
:1001A30002020208025000A0000000E803022282BB
:1001B3000100000482021282010000C209021882B7
:1001C300010000B202021282010000C309021A8276
:1001D300010000C802021282010000C409021C824D
:1001E300010000CA02021282010000C509021E8238
:1001F300080000CB02021282010000C6090220821D
:10020300010000C709FF0100FF2002228201000054
:100213000A820212820100002B0A023C82000000C3
:1002230000000216820300001803090C090C090CD4
:10023300090C090C090C090C090C090C090C090C13
:10024300090C090C970EAF0E910EFFFF020202027A
:100253000202020202010D000000100102228201CB
:10026300000007820212820100006E0A0238820136
:10027300000077070212820100006F0A0236820132
:1002830000001581021282010000700A023482010B
:1002930000000781021282010000710A023282010A
:1002A3000000A580021282010000720A023082015E
:1002B30000009380021282010000730A022E820161
:1002C30000008180021282010000740A022C820164
:1002D3000000B780021282010000750A022A82011F
:1002E3000000F980021282010000760A024A8201AC
:1002F3000000770AEA59595F69426561636F6E00CE
:100303000000000000000000FDA50693A4E24FB129
:10031300AFCFC6EB07647825000A0007120001017E
:10032300E803053F10FF00013075030201060000DA
:1003330000000000000000000000000000000000BA
:1003430000000000000000000000FFFF0600800C1A
:10035300E803616161706C6520424C452050657211
:100363006970686572616C4D13000059130A61620C
:100373006364736565656565000000000000000047
:10038300004445565F4E414D4500000AFDA50693C6
:10039300A4E24FB1AFCFC6EB076478255555494466
:1003A30000000A00034D414A4F5200000A00044D69
:1003B300494E4F5200000A124D656120700002221F
:1003C300820100000D820212820100008F0B0240A5
:1003D30082030000900B021482010000A30B02129F
:1003E30082010000AD0B024282030000AE0B021437
:1003F30082010000BE0B021282010000C40B024402
:1004030082030000C50B021482010000C70B021215
:1004130082010000CE0B024682030000CF0B0214C0
:1004230082010000D10B021282010000D80B0248A6
:1004330082030000D90B021482010000DA0B1201BF
:10044300383BB70312013852B70312013881B7039F
:10045300120138BAB703120138E2B7031201381098
:10046300B80312013827B8031201383EB80312014A
:100473003854B8031201387BB8031201388EB8031D
:10048300120138A4B803120138CCB8031201380A98
:10049300BC0212013809BD021201383EBD0212012D
:1004A300385FBD021201386FBD0212013890BD02E0
:1004B3001201389CBE0212013869BF02120138DCF6
:1004C300BF0212013862C002120138A5C002120134
:1004D30038DCC00212013862C10212013834C20290
:1004E30012013892C202120138AAC2021201382440
:1004F300C30212013827C3021201382AC3021201B0
:1005030038D1C302120138E9C30212013819C402F7
:1005130012013839C40212013827C502120138DD2D
:10052300C502120138AA8403120138D284031201CE
:10053300380085031201383785031201389F85037C
:10054300120138E88503120138338603120138712A
:100553008603120138AE8603120138DC86031201CA
:10056300388387031201388D87031201389A870372
:10057300120138CD87031201388F88031201389B8B
:100583008803120138B38803120138BD88031201AE
:10059300386FBE031201387DBE0312013895BE03C6
:1005A300120138ADBE0312013873CD0112013811A7
:1005B300CE0112013889CE011201389ECF011201FA
:1005C30038D8CF0112013881D00112013856D10138
:1005D300120138BAD20112013811D301120138982D
:1005E300D3011201387FD401120138CCD401120196
:1005F300385AD5011201387ED50112013853D7017B
:1006030012013894D701120138B6D70112013837D5
:10061300D80112013821D901120138E7D901120199
:1006230038D3D502120138A5D6021201384ED702AB
:1006330012013891D7021201381ED802120138AACA
:10064300D8021201388BD902120138BAD902120129
:1006530038B6DA02120138FEDA0212013800DC027F
:1006630012013844DC021201386ADC02120138B587
:10067300C003120138DF9503120138F59503120107
:10068300381B96031201384397031201384D970321
:10069300120138A69803120138A699031201384EA5
:1006A300F00212013883F102120138B6F10212018D
:1006B3003800F202120138BEF30212013863BE01A0
:1006C300120138C6BE011201380BC0011201381BDA
:1006D300C0011201383EC00112013889C001120164
:1006E300382EC10112013824C201120138EEC201B1
:1006F30012013866C401120138A8C4011201384638
:10070300C5011201386CC5011201385AC701120123
:10071300385FC70112013840C90112013894C90179
:10072300120138F6C9011201381ECA01120138C27A
:10073300CA0112013884CB01120138B5CB01120171
:1007430038B8CB0112013800CC0112013842CC0178
:10075300120138A9CC0112013847B1031201385AEA
:10076300B10312013873B103120138BEB103120190
:100773003899B20312013828B30312013873B30353
:100783001201383441001201384041001201387916
:100793004100120138BE41001201387542001201B6
:1007A30038FB42001201382743001201386043002E
:1007B3001201387445001201385047001201383BCA
:1007C3004900120138724A00120138D24C0012015A
:1007D30038BE4D00120138044F0012013811500089
:1007E3001201382E50001201386650001201388071
:1007F3005000120138E850001201388255001201EE
:10080300382356001201387456001201389B5600E3
:10081300120138E956001201380757001201385BFC
:100823005700120138635800120138EB58001201C7
:10083300380080031201380A8003120138D580037F
:10084300120138F080031201381681031201385A5D
:100853008103120138928103120138BB8103120113
:10086300383482031201384982031201385E82034D
:10087300120138958203120138A98203120138DA72
:1008830082031201381483031201384083031201D7
:1008930038968303120138EA830312013833840341
:1008A3001201385D8403120138828403120138F384
:1008B3009103120138BD9203120138A09303120170
:1008C300381694031201385894031201388595039E
:1008D3001201388F8D02120138B88D02120138D1FE
:1008E3008D02120138168F02120138F48F021201A1
:1008F30038139002120138A09002120138E39002DB
:10090300120138309202120138CF92021201384E8E
:100913009502120138E59502120138B996021201C7
:10092300389B97021201380799021201389A9902EB
:100933001201386EBC03120138D7BC031201382BE5
:10094300BD0312013852BD0312013852890312014B
:1009530038BF89031201380A8A03120138FF8A0358
:10096300120138FB8B03120138E58C03120138485E
:10097300C6021201388AC60212013864C702120184
:10098300383DC80212013838C90212013817CA02A9
:1009930012013883CA021201384ACB02120138B558
:1009A300CB021201381CCC0212013847CC021201CF
:1009B30038B8CC021201384BCD02120138B4CD0243
:1009C300120138C9CD0212013811CE021201382AA0
:1009D300CE021201388FCE0212013892CE021201DA
:1009E30038BFA303120138E7A30312013825A40378
:1009F300120138E3A4031201384EA5031201386A29
:100A0300A50312013892A503120138C2A5031201EE
:100A130038D1A5031201384BA60312013871A6037E
:100A23001201381CDC01120138F9DD01120138F41E
:100A3300DF01120138C7E00112013812E10112018E
:100A4300385DE1011201386FE101120138AFE101B4
:100A5300120138E4E10112013830E2011201385F7A
:100A6300E20112013882E201120138CFE2011201E0
:100A73003858E30112013865E50112013850E701E6
:100A830012013893E701120138F8E80112013839ED
:100A9300E901120138ACE901120138F8E901120148
:100AA3003823EA01120138119A021201383C9A02E2
:100AB30012013823A10212013847A302120138029E
:100AC300A5021201385FA602120138525900120121
:100AD30038E95900120138165A001201385C5A00DD
:100AE3001201389B5B00120138325D00120138ACF1
:100AF3005D00120138C75D001201383C5E0012012F
:100B0300386B5F00120138C66000120138C86100FB
:100B13001201382563001201383E63001201389B2D
:100B230063001201387D6400120138B064001201C1
:100B3300382065001201389A6500120138E9650012
:100B4300120138B56600120138BA670012013899EC
:100B530068001201382469001201389269001201F9
:100B630038066A001201382F6A00120138EE6A0053
:100B7300120138686C00120138856C00120138A428
:100B83006C00120138356D001201385A6D001201E4
:100B930038826D00120138FD6D00120138576E0066
:100BA300120138AB6F001201386870001201383B34
:100BB30071001201384DEA011201389DEA01120158
:100BC30038A9EA0112013886EB01120138B6EB01AC
:100BD300120138EEEB011201386DEC01120138A558
:100BE300EC01120138F7EC0112013834ED01120166
:100BF3003859EF0112013885F10112013880F301F0
:100C03001201385BF501120138E77F0012013892B7
:100C13009801120138DC9801120138BB9E011201C0
:100C2300383CA0011201389BA60112013896A70196
:100C3300120138D3A701120138F6A701120138387F
:100C4300A80112013841A8011201384BA801120171
:100C53003837A9011201382BAA011201384D82013C
:100C6300120138C58C01120138CB8C01120138D71F
:100C73009301120138B09903120138469A03120105
:100C8300385C9A03120138D69A031201382C9B035D
:100C93001201386A9B03120138C79B0312013844BF
:100CA3009C031201384D9C03120138599C03120115
:100CB300386C9C03120138A89C03120138BE9C03B4
:100CC3001201381D9D03120138A78D03120138B498
:100CD3008D03120138CE8D031201380D8E031201DC
:100CE300384B8E03120138B08E03120138C58E03C0
:100CF300120138D08E03120138DD8E03120138F44D
:100D03008E03120138028F031201380D8F03120173
:100D130038198F03120138288F03120138338F03D8
:100D2300120138568F03120138FF8F031201380F57
:100D330090031201382990031201384690031201DF
:100D4300386290031201388790031201389190039F
:100D5300120138A59003120138C4900312013825FB
:100D630091031201382B91031201383191031201BF
:100D730038379103120138439103120138769103F6
:100D830012013805800212013887800212013830BF
:100D9300810212013878820212013886840212011C
:100DA300386C8502120138A18502120138C385020D
:100DB3001201386C86021201383C88021201386530
:100DC3008802120138DD88021201380F89021201EC
:100DD300381C89021201386789021201388B890293
:100DE300120138DC8B02120138E68C021201384200
:100DF3008D021201386971001201387A72001201F2
:100E0300385E73001201386873001201388A730068
:100E13001201389673001201383A750012013867CF
:100E230075001201387D7600120138D27600120166
:100E330038217800120138F678001201385279000F
:100E4300120138BD7900120138F2790012013835E8
:100E53007A00120138FF7C00120138177D0012015D
:100E630038A87D00120138B67D00120138037E00D8
:100E7300120138117E001201387D7E00120138F80C
:100E83007E001201384F7F0012013882A602120140
:100E930038A4A602120138B5A80212013874AB02B5
:100EA3001201389EAC021201385CAD0212013848BF
:100EB300AE0212013882B503120138A7B50312013D
:100EC300381DB603120138B6CE02120138BFCE0266
:100ED300120138C8CE02120138A0CF0212013851D4
:100EE300D10212013881D102120138ACD1021201B0
:100EF30038DCD10212013807D2021201383BD20288
:100F030012013867D202120138AAD202120138D56F
:100F1300D2021201381CD30212013871D30212011A
:100F230038B3D3021201380DD40212013838D40277
:100F330012013887D402120138B7D402120138E201
:100F4300D40212013810D50212013833D50212012E
:100F5300383EC1031201386AC10312013897C10335
:100F6300120138A1C103120138B1C1031201381CA7
:100F7300F80112013831F80112013889F801120120
:100F830038F0F80112013838F901120138AEF901CD
:100F9300120138DDF901120138EBF9011201384F62
:100FA300FA011201388DFA01120138A8FA0112016F
:100FB3003840FB01120138E7FB0112013868FC01DC
:100FC3001201389FFC0112013828FD011201387DFE
:100FD300FD01120138DAFD01120138ECFD011201A5
:100FE3003812FE011201381BFE0112013874FF0191
:100FF300120138DEB803120138BDB903120138EB10
:10100300AE0312013830AF0312013874AF0312017B
:101013003805B10312013846BF0312013861BF031B
:1010230012013871BF03120138C8BF03120138120D
:10103300C00312013831EA0212013848EA021201F0
:101043003842EB021201388EEB02120138AEEB028A
:10105300120138FFEB021201386AEC02120138AEBA
:10106300EC021201380CED02120138B4EF02120146
:10107300383DF002120138BBC103120138D7C10356
:1010830012013807C2031201386FFA0212013894B1
:10109300FA02120138CFFA021201384D9D031201F0
:1010A300387C9D03120138969D03120138A69D03D7
:1010B300120138D69D03120138FC9E031201381722
:1010C300A0031201385EA00312013885A0031201A8
:1010D3003865FF02120138A42500120138172800D1
:1010E300120138D72900120138822A00120138264A
:1010F3002B00120138BF2B00120138EE2B00120116
:10110300384F3100120138FA31001201386A3300C6
:10111300120138D233001201388634001201380626
:101123003600120138453600120138B93600120173
:1011330038183700120138773700120138E63700C4
:10114300120138D938001201381F390012013864EE
:101153003900120138873900120138D73A001201D9
:1011630038EA3A001201385C3B00120138933B0025
:10117300120138BF3B00120138123C001201383310
:101183003C00120138773C00120138C93E001201BD
:10119300380A3F00120138B53F00120138204000E1
:1011A30012013883BD0312013894BD031201384282
:1011B300AC03120138DDAE031201387FC203120102
:1011C3003819BA0312013829BA0312013843BA0392
:1011D3001201384BBB03120138B9A6031201385C64
:1011E300A70312013878A90312013851BB03120176
:1011F3003878BB0312013886BB03120138E2BB0304
:101203001201385DBC0312013860BC03120138744B
:10121300F50212013896F5021201382BF60212017B
:10122300381BF70212013888F902120138E8F90273
:1012330012013851FA02120138F87F001201389373
:10124300A9031201388CAB03120138F8AB03120166
:10125300383FAC031201389DB303120138FCB303CA
:10126300120138AAB40312013829B50312013899BF
:10127300A003120138CBA003120138D3A10312013A
:1012830038F8A203120138A0B10212013892B20257
:10129300120138D5B2021201380FB3021201388499
:1012A300B302120138E5B30212013862B40212012B
:1012B300383EB50212013849B602120138CAB602E5
:1012C30012013871B80212013807B9021201387AD3
:1012D300B902120138F6B9021201380DBA0212012D
:1012E3003844BB021201389EBB0212013843AC01E1
:1012F300120138B2B00112013877B301120138A0DC
:10130300B301120138C7B3011201386FB4011201DE
:101313003842B6011201387DB70112013814BC01FD
:101323001201384DBC0112013891BC01120138A3DE
:10133300BD01120138E7E3021201388BE602120104
:101343003872E7021201389DE702120138A0E70262
:1013530012013875E802120138B8E802120138DFC9
:10136300DC0212013827DD0212013844DD021201CA
:101373003858DE021201382EDF0212013808E1026A
:10138300120138B7E302120138ABFF01120138D85A
:10139300FF01E066701008A3E066700A08A3E06628
:1013A300700408A3E06622C3E7960809E7960809D4
:1013B300E7960809E79622C3E09608A3E09608A3F8
:1013C300E09608A3E09622C008C3E096F50808A3B8
:1013D300E096420808A3E096420808A3E096450871
:1013E3007001D3D00822080808EAC0E0EBC0E08609
:1013F300F0E7A4FA180986F0E7A42AFA180986F098
:10140300E7A42AFA180986F0E7A42AFA1986F0E76E
:10141300A4FBE5F02AFA190886F0E7A42BFBE5F014
:101423003AFA190886F0E7A42BFBE5F03AFA181804
:101433000986F0E7A4C5F02BFBE43AFA1908E7C5DF
:10144300F0C6A426F6E5F03BFBE43AFA1886F0E78B
:10145300A4F6E5F00826F6E43B08F6E43A08F6D0ED
:10146300E0FBD0E0FA22E4CFC0E0E4CEC0E0E4CD7C
:10147300C0E0E4CCC0E075F020C3E633F608E63301
:10148300F608E633F608E633F6181818EC33FCEDE5
:1014930033FDEE33FEEF33FFC3EC9709ED9709EE0F
:1014A3009709EF97191919400FFFEC97FC09ED976E
:1014B300FD09EE97FE191906D5F0BEECF709EDF715
:1014C30009EEF709EFF7191919D0E0FCD0E0FDD0C8
:1014D300E0FED0E0FF226016080808C6C313C61852
:1014E300C613C618C613C618C613C6D5E0EA2270BB
:1014F30009080808226016181818C6C333C608C698
:1015030033C608C633C608C633C6D5E0EA22E62783
:10151300F60809E637F60809E637F60809E637F666
:1015230022E026F608A3E036F608A3E036F608A381
:10153300E036F622E026F008A3E036F008A3E03612
:10154300F008A3E036F022C3E697F60809E697F61B
:101553000809E697F60809E697F622C3E096F0082D
:10156300A3E096F008A3E096F008A3E096F022E04B
:1015730056F608A3E056F608A3E056F608A3E0568D
:10158300F622E056F008A3E056F008A3E056F00870
:10159300A3E056F022E0F608A3E0F608A3E0F6087D
:1015A300A3E0F622E6F008A3E6F008A3E6F008A31A
:1015B300E6F022E0FAA3E0FBA3E0FCA3E0FD22EACD
:1015C300F0A3EBF0A3ECF0A3EDF022CAC0E0E6F049
:1015D300A308DAFAD0E0FA22CAC0E0E0A3C582CCBD
:1015E300C582C583CDC583F0A3C582CCC582C5831F
:1015F300CDC583DAE6D0E0CA22C3E498F8E499F9CA
:1016030012163D8026C3E49AFAE49BFBE920E7E93E
:1016130012163DE498F8E499F922C3E498F8E499A2
:10162300F912163DE498F8E499F9C3E49AFAE49BB5
:10163300FB22EB20E7CFE920E7E0B90010BB00086D
:10164300E88AF084F8AAF022E4FBC8FA22EB7022BD
:101653007B10C833C8C933C9335007C39AC3DBF2FD
:1016630080069A50012ADBEAC833F4C8C933F4C9A7
:10167300FA2275F008E4C833C8C933C933C99AC913
:101683009B5004C92AC93BD5F0ECFBC833F4C8E42A
:10169300C9FA22600D08C6A2E713C618C613C6D539
:1016A300E0F322600C08C6C313C618C613C6D5E000
:1016B300F422700422600D18C6C333C608C633C6AD
:1016C300D5E0F41822251810AF08F51840021519B3
:1016D3008008F51840021519D2AF22C0D025181082
:1016E300AF08F518500205198008F51850020519BE
:1016F300D2AFD0D0222518F58210AF08F5184002DA
:1017030015198008F51840021519D2AF85198322DF
:101713002518F582E43519F58322E4732518C5826B
:10172300C0E0E51934FFC583C0E0E518C395822402
:10173300F810AF0885831985821880088583198579
:101743008218D2AFCEF0A3E520F0A37808E608F024
:10175300A3DEFAEFF0A3E58124FAF8E608F0A3E6A6
:1017630008F0A3E608F0A30808E608F0A3E608F0EB
:10177300A315811581D0E0FED0E0F8158115811500
:1017830081E8C0E0EEC0E0222518C582C0E0E5197B
:1017930034FFC583C0E0E518C3958224F910AF0870
:1017A3008583198582188008858319858218D2AFAD
:1017B300CEF0A3E520F0A37808E608F0A3DEFAEF65
:1017C300F0A3E58124FBF8E608F0A3E608F0A308FC
:1017D30008E608F0A3E608F0A315811581D0E0FE22
:1017E300D0E0F815811581E8C0E0EEC0E02285194C
:1017F30083851882E0A3FEE0A3F5207808E0A3F632
:1018030008DFFAE0A3FFE0A3C0E0E0A3C0E0E0A3A9
:10181300C0E0E0A3C0E0E0A3C0E010AF08858218F9
:101823008583198008858218858319D2AFD083D028
:1018330082020135851983851882E0A3FEE0A3F5B2
:10184300207808E0A3F608DFFAE0A3FFE0A3C0E0F6
:10185300E0A3C0E0E0A3C0E0E0A3C0E010AF0885D0
:1018630082188583198008858218858319D2AFD0A1
:1018730083D08222C0D02518C582C0E0E51934FF89
:10188300C583C0E0E518C3958224F310AF088583B0
:10189300198582188008858319858218D2AFC8F00C
:1018A300A3E9F0A3EAF0A3EBF0A37908E709F0A317
:1018B300D8FAECF0A3EDF0A3EEF0A3EFF0A3D0E0A1
:1018C300F0A3D0E0F0A3D0E0F0A3E520F0A3E5F08F
:1018D300F0A322851983851882E0C0E0A3E0F9A371
:1018E300E0FAA3E0FBA37808E0F608A3DFFAE0FC44
:1018F300A3E0FDA3E0FEA3E0FFA3E0C0E0A3E0C0FC
:10190300E0A3E0F5D0A3E0F520A3E0A3F5F010AF4A
:10191300088583198582188008858319858218D2E2
:10192300AFD082D083D0E0F8D0E032740480067464
:101933000280027401C0E0F4041216F8D0E012151C
:10194300CE227404800474028000CCC0E0EDC0E0B9
:10195300E518C39CCCAD1950011D10AF068C188D32
:101963001980068C188D19D2AF1215DBD0E0FDD08B
:10197300E0FC22D083D082E9C0E0E493A3C386F0E5
:10198300C5F095F0F908E493A386F0C5F095F070DF
:101993000BE493A3C3994005E9048002A3E475F023
:1019A30002A42582F582E5F03583F583D0E0F9E4DE
:1019B30093A3C0E0E493C0E022D083D082ECC0E0E4
:1019C300EDC0E0E493A3FCE493A3FDED4C600D12A2
:1019D3001A08EC24FFFCED34FFFD80EFE493A3FC35
:1019E300E493A3FDED4C600D121A47EC24FFFCEDCC
:1019F30034FFFD80EFD0E0FDD0E0FCE493A3C0E032
:101A0300E493C0E022C0E0C3E49396087401939684
:101A130018400FE493667008087401936618700009
:101A23007019A3A3C3E49396087401939618A3A310
:101A3300400DD0E0D0E0D0E00219F8A3A3A3A3A304
:101A4300A3D0E022C0E0C0F088F0E49366700808F9
:101A530074019366187000A8F0A3A3700BD0F0D0A4
:0F1A6300E0D0E0D0E00219F8A3A3D0F0D0E02249
:101A740074F512178BEAFEEBFFEE2434F8EF340012
:101A8400F988088909EE2435F582EF3400F583E0FE
:101A9400F8EE2437F582EF3400F583E0F50AEC859F
:101AA4000AF0A4FCAAF0850AF0EDA42AFDE82CF8BB
:101AB400E43DF97A257B0012163DEA850882850902
:101AC40083F05407F87401B800028004C333D8FCCF
:101AD400C0E0E0131313541FF8EE28F8EF3400F9B4
:101AE400E8245DF582E93400F583D0E0F8E058603D
:101AF40008EE2434F582EF801EEE2436F582EF34AE
:101B040000F583E0F5F0EA84A8F0EE28F8EF34005D
:101B1400F9E82438F582E93400F583E0F97F04021A
:101B2400183774F512178BEAFEEBFFEE2434F582B6
:101B3400EF3400F583E0C0E0EE2435F582EF3400A5
:101B4400F583D0E0F08E828F83A3A3A3A3A3A3A3E2
:101B5400C082C0838E828F83A3A3A3A3A3E0F8A330
:101B6400E0F9D083D082E0C398F508A3E099F509A1
:101B7400EE2480F582EF3400F583E064017069EEB1
:101B84002481F582EF3400F583E0F8A3E0F98E8236
:101B94008F83A3A3A3A3A3A3A3E0FCA3E0FD8E824E
:101BA4008F83A3A3A3A3A3E0FAA3E0FBC3EA9CEB64
:101BB4009D5027C3EC98ED99402EC3EA98EB9950B9
:101BC400277CFD7D04EEFAEFFB120B67EE2480F513
:101BD40082EF3400F583E4F0800EC3EA98EB994079
:101BE400E0C3EC98ED9950D9EE2434F8EF3400F9C1
:101BF400E8FCE9FDEE2435F582EF3400F583E0F8E6
:101C0400EE2437F582EF3400F583E0F50AE5088524
:101C14000AF0A4F508AAF0850AF0E509A42AF50952
:101C2400E82508F8E43509F97A257B0012163DEA1F
:101C34008C828D83F05407F87401B800028004C3C9
:101C440033D8FCC0E0E0131313541FF8EE28F8EF68
:101C54003400F9E8245DF582E93400F583D0E0F836
:101C6400E0586008EE2434F582EF801EEE2436F549
:101C740082EF3400F583E0F5F0EA84A8F0EE28F86A
:101C8400EF3400F9E82438F582E93400F583E0F90B
:101C9400122521021B21C082C083851882851983E5
:101CA400E0F8A3E0F9C3EA9CEB9D5012C3EC98ED75
:101CB400994019C3EA98EB99501279018010C3EA4C
:101CC40098EB9940F5C3EC98ED9950EE7900D083E8
:101CD400D08222EAC39CFAEB9DFB220085218785F2
:101CE40022C622C0E0C0D0E8C0E0E9C0E0EAC0E01B
:101CF400EBC0E0ECC0E0EDC0E0C008C009C00AC021
:101D04000BC082C083C0F0759B00906182E0A2E6A4
:101D14004003021DC5E591A2E64003021DC575916D
:101D2400BF9003C2E064057008120C9F120CAB80D4
:101D340003120CA5752100120D05E99003C3F07977
:101D440000120CF9120ADD7A017B009003C1E0F95C
:101D5400120FC9907803E064426003021E0E9005DE
:101D64005FE014F06003021E0EC2AF121D72007811
:101D74002AD0E0F618D0E0F6E59F5407F9700590F4
:101D8400819080039081887808121598E9C4C0E096
:101D94007829E65508F50808E65509F509740B781D
:101DA400081216A6D0E02508F8906270E0A2E74079
:101DB400F8E8C333906272F0906270E0D2E0F08091
:101DC40049E0A2E55024E591A2E5501E7591DF900B
:101DD40003C2E0640D70139003E4E004F06428701F
:101DE40002E4F07A00E0F9120D77906181E0A2E359
:101DF4005009E5E9A2E3500375E9F7A3E0A2E7502F
:101E040009E591A2E7500375917FD0F0D083D08289
:101E1400D00BD00AD009D008D0E0FDD0E0FCD0E04F
:101E2400FBD0E0FAD0E0F9D0E0F8D0D0D0E032C076
:101E3400E0C0D0C082C083906183E0A2E05009E595
:101E4400BFA2E0500375BFFEE0A2E15009E5BFA2C6
:101E5400E1500375BFFDE0A2E25009E5BFA2E250E4
:101E64000375BFFBE0A2E35009E5BFA2E35003758D
:101E7400BFF7E0A2E45009E5BFA2E4500375BFEF49
:101E8400E0A2E55009E5BFA2E5500375BFDFE0A27B
:101E9400E65009E5BFA2E6500375BFBFD083D082E8
:101EA4008088C0E0C0D0E8C0E0E9C0E0EAC0E0EB70
:101EB400C0E0ECC0E0EDC0E0C0F0E5A7A2E6500F42
:101EC400E5A1A2E6500953A7BF75A1BF121F0BE5F8
:101ED400A7A2E5500CE5A1A2E5500653A7DF75A122
:101EE400DFE5A7A2E15009E5A1A2E1500375A1FD38
:101EF400E5A7A2E2500CE5A1A2E2500653A7FB75A8
:101F0400A1FBD0F0021E1C74F812178B75210190EE
:101F140003C2E064067015120C338A828B83A3A378
:101F2400A3A3A3A3E0FAA3E0FB120C8DA2AFE433B6
:101F3400FED2AF9003C8E0640170187A207B009051
:101F440003C1E0F91210597A207B009003C1E0F933
:101F5400120FCF906182E0D2E6F090055EE060213E
:101F640085C62280169003C7E064017008E5C65454
:101F7400F84405F5C653BEFC121CE07401652160EB
:101F8400E4EEA2E092AF7F01021837008E238F2483
:101F9400858228858327851882851983E0CEA3E06E
:101FA400CF852882852783EBC9EAC8EDCBECCA75B7
:101FB400F010C3E833C8E933C9EA33CAEB33CBC3FF
:101FC400EA9EF526EB9FF525B35004AB25AA26EC33
:101FD40033CCED33CDD5F0DAAE23AF242274EB123B
:101FE400178B74FA1216C88A088B098C148D1590F5
:101FF40003C2E024F7C39405500690819C02214358
:10200400120C338A0A8B0BAE0AAF0BEE4F7003022D
:102014002140AC08AD09851882851983AA82AB8357
:10202400120CBD8E828F83A3A37808121598908119
:10203400DC7808121572851882851983780C1215BC
:10204400989081DC780C1215727808790C1213AA16
:10205400501F7808790C12154A90816C7808121375
:10206400CA4047850810850911850A12850B13801B
:1020740041850C10850D11850E12850F137810798A
:102084000812154A90816C78101213CA501C7510EE
:10209400007511007512007513017810790C121572
:1020A4004A78107908121511800890819C781012D2
:1020B4001598740978101214F29081EC78081215AE
:1020C40098781079081214698E828F83A3A3A3A32E
:1020D400A3A3E0F8A3E0F97AD07B0312163D8808A5
:1020E4008909E4F50AF50B781079081215117404BE
:1020F400121713E0F8A3E0F97AD07B0312163DE837
:10210400FA8A08E4F509781079081213AA500778B6
:1021140010790812154A9003C2E06408600AE0646A
:10212400066005E06405701C90817078101213CA73
:102134005012908174781012152480089081987838
:102144001012159885148285158378101215A774BA
:10215400061216DE7F0E02183774F712178B120C54
:10216400CF90055CE064017010906245E4F0A3F048
:1021740053F4F343FE0C5390F3120C7BE5C65480E6
:102184004449F5C6E59E547F644970F890618574AE
:102194000FF090055AE0F47002A3E0604E90055BE6
:1021A400E0600814601B14602E80407508017509F6
:1021B4000090055AE078081216B5E508F4528080BC
:1021C4002A75080175090090055AE078081216B5B9
:1021D400E508F45290801475080175090090055AB9
:1021E400E078081216B5E508F452A079007F0202DF
:1021F400183774F712178BE9FEEAFF74016E700C3E
:102204007A807B009003C1E0F9120FC990259CE409
:1022140093F46008E493F9120AD1800953C680E567
:102224009E547F70FA120C8190055CE06401700387
:10223400120AE990055AE0F47002A3E0604B90059D
:102244005BE0600814601A14602C803D7508017509
:10225400090090055AE078081216B5E50842808016
:102264002875080175090090055AE078081216B51A
:10227400E5084290801375080175090090055AE03D
:1022840078081216B5E50842A0120CCF120C338A56
:10229400088B09A808A909E8496015E5E170FCE87C
:1022A4002414F582E93400F583E0F46003E0F5E1F9
:1022B40074016F700A7A019003C1E0F912102302CD
:1022C40021F174F112178B8A088B098C0A8D0B7417
:1022D4000F121713780C1215989081DC78081215D8
:1022E400729081DC780C1215727808790C1213AA9A
:1022F40050157808790C12154A90816C78081213DD
:10230400CA401579018013780C790812154A908116
:102314006C780C1213CA40EB79007F0802183774EA
:10232400ED12178B8A088B098C0A8D0B7413121704
:1023340013780C1215989081DC780812157290812C
:10234400DC780C121572780C79081213AA401178F3
:1023540008790C12154AAA08AB09AC0AAD0B802205
:102364007510007511007512007513017810790C41
:1023740012154A78107908121511AA10AB11AC1273
:10238400AD137F0C0218379081DC78081215988AF7
:10239400828B8378081215857F0402183774F5122E
:1023A400178B8C828D8378081215988A828B837898
:1023B4000812155EEA2404F8EB3400F98C828D834C
:1023C400A3A3A3A3E0FCA3E0FD88828983C3E09CCC
:1023D400F0A3E09DF088828983C3E09420A3E09475
:1023E4004E40229081F478081215988A828B837863
:1023F400081215378A828B83A3A3A3A3E02420F0B9
:10240400A3E0344EF0808074F512178BE9FE90053A
:1024140014E0FAA3E0FBEEC333F8E433F974E928DB
:10242400F582748039F583E02AF508A3E03BF509C9
:1024340078081219329082001215B6121F90740295
:102444001216DE8A088B098C0A8D0B741078081218
:1024540014D9AA08AB097F0402183774F112178B38
:102464008A0C8B0D8C0E8D0F740F121713E0FAA3C8
:10247400E0FB7411121713E0F508A3E0F5097413D7
:10248400121713E0FEA3E0FF7808121932EA2401C0
:10249400F508EB3400F509E4F50AF50B780C790836
:1024A4001213E99081807808121598780C79081233
:1024B40013E9AA0CAB0DAC0EAD0F121F90740212EF
:1024C40016DE8B09EA450960047A0180027A00EC81
:1024D4002AFCED3400FDECF8EDF97A717B0212165A
:1024E4003D88088909E4F50AF50B8E828F83780804
:1024F4001215A7ECF8EDF97A717B0212163D8A08E1
:102504008B09740578081216B58E828F83A3A3A352
:10251400A3E508F0A3E509F07F08021837C082C0DC
:1025240083E9906000F0D083D08222C0E0C0D0E87C
:10253400C0E0A2AFE433F8D2AFC2C7751A00A2E07C
:1025440092AFD0E0F8D0D0D0E032C0E074F21218EC
:10255400777A0F7B0012109BA2815032900B40E0DF
:10256400601879001210A1A28140FC7A087B0090C7
:10257400095FE0F9120FC9E9801479FF120FD5E958
:10258400A28140FCC2AF75C9AB75C95B80FE758979
:1025940000C2C57F010218D6FFFFFFFFFFFFFFFF48
:1025A40074F012171F8A0A8B0B8909ECFEEDFF7574
:1025B4000800850A0C850B0D780C12197600040DA1
:1025C400E727E22503262226432664268526B82605
:1025D400D926F0262627512772279227BC27740173
:1025E400650970158E828F83E0C39403500B8E822D
:1025F4008F83E0900B41F080037508180228107453
:1026040002650970138E828F83E0F8A3E0F9900BC2
:1026140042E8F0A3E9F08003750818022810740159
:10262400650970158E828F83E0C39402500B8E82ED
:102634008F83E09007ACF0800375081802281074AB
:1026440001650970158E828F83E0C39405500B8E4B
:10265400828F83E09007ADF080037508180228107C
:102664007401650970158E828F83E0C39402500B48
:102674008E828F83E09007AEF080037508180228DD
:1026840010741065097027750C10750D00780C1204
:102694001932EEFCEFFD7AAF7B07120F757402124C
:1026A40016DE8A0C8B0D850C82850D8380037508DC
:1026B400180228107401650970158E828F83E0C397
:1026C4009402500B8E828F83E09007BFF0800375D5
:1026D400081802281074016509700B8E828F83E03C
:1026E400900B45F0800375081802281074046509DE
:1026F400702A8E828F83C082C083908200780C12ED
:102704001598D083D082780C1213BA500F8E828F12
:10271400831215B69007C11215C2800375081802FA
:102724002810E5097021120687E9701312114FE988
:10273400F50C79501212E7E9F50D12113D800B905A
:1027440008547401F0800375081802281074016598
:102754000970158E828F83E0C39402500B8E828F92
:1027640083E09007C0F080037508180228107401F4
:10277400650970158E828F83E0C3940A500B8E8294
:102784008F83E0900B44F08003750818807E7401F9
:102794006509701F8E828F83E0C3940740158E8273
:1027A4008F83E0C39411500B8E828F83E0900B468D
:1027B400F0805975081880547401650970209008D8
:1027C40053E0F50C8E828F83E0900853F0E50C7093
:1027D4003B900853E06401703312113D802E75085C
:1027E400188029C3E50A9426E50B9400501B740253
:1027F400650970158E828F83E0FCA3E0FDAA0AAB05
:102804000B120525E9F5088003750802A9087F085D
:102814000217F174EC12171F74DA1216C8890D8AA4
:10282400128B138C0A8D0B743A121713E0F50C906B
:102834008148C082C083851882851983AC82AD83A8
:10284400D083D08274061215DB851882851983AC77
:1028540082AD83AA12AB13A90D1210E3E9FEEEC3F5
:10286400940A40030229B6EEF912111FE9FF900BF6
:1028740041E064027004740180027400F508780871
:10288400121936AD0CEFFCEEF9AA0AAB0B1211913A
:1028940074011216DE7C147D007900741212171371
:1028A400AA82AB83120F8D8A0E8B0F850E08850FBB
:1028B400097412121713AC82AD837A1075F006EE08
:1028C400A42424F91212E1E970437C1079FF7412F4
:1028D400121713AA82AB83120FEDE970307422121F
:1028E4001713AC82AD837A0475F006EEA42425F99F
:1028F4001212E1E9F5087412121713AC82AD83EFDA
:10290400A2E0E433F9AA0AAB0B1205AFE97406128C
:102914001713AC82AD837A0C74702EF91212E1E9AC
:10292400707E7406121713AA82AB83121113750EEC
:1029340000E50EC394045068E50EA80E7900E8750E
:10294400F003A4C8AAF075F000A42AFA75F003E90C
:10295400A42AF97406121713E58228F508E58339C9
:10296400F509850882850983E0F8A3E0F9E8496060
:102974002B850882850983A3A3E0F51075110078DF
:1029840010121932850882850983E0FCA3E0FDAAB0
:102994000AAB0B12080174021216DEE9050E8091CF
:1029A400EFA2E1500D9007ABE0F9AA0AAB0B1208B5
:1029B40007E97404650C700F900B41E06402700722
:1029C400AA0AAB0B12118B790074261216DE7F0C47
:1029D4000217F174F212171F890BEAFEEBFF8C0841
:1029E4008D09750A0AE50B600C146009146044141F
:1029F4006064022A7BEEFAEFFB121131E9F50AE575
:102A04000AC3940A5071E5084509606B750C067594
:102A14000D00780C121932EEFCEFFDAA08AB091276
:102A24000F7574021216DE8A0C8B0D850C82850DCF
:102A3400838044EEFAEFFB12112BE9F50AE50AC391
:102A4400940A5033E5084509602DAA08AB09A90A80
:102A5400121125E98021EEFAEFFB121137E9F50A8C
:102A6400E50AC3940A5010E5084509600AAA08ABB0
:102A740009A90A121125E9A90A7F060217F174F2BD
:102A840012171F8A0C8B0DE9FE7F1574FF650C70FD
:102A94000474FF650D702A750800E508C3940A5094
:102AA40014EEFC7A027B00A908121101E960027F8E
:102AB40000050880E5EE60637A797B11120A1780BD
:102AC4005AAA0CAB0D1209F98A0A8B0B850A0885E0
:102AD4000B09E508450960417C007D00E5082405F3
:102AE400FAE5093400FB850882850983A3A3A3A31F
:102AF400E0F91210E3E9F50AE50AC3940A500EEE70
:102B0400FC7A027B00A90A121101E97F00EE600B36
:102B1400AA08AB0912117980027F14EFF97F06022B
:102B240017F174EE12171F8A0E8B0F8C0A8D0B741B
:102B340012121713E0F50CA3E0F50D75081574FFD8
:102B4400650E700474FF650F701E7E00EEC3940A58
:102B54005062AC0CAD0DAA0AAB0BEEF9121107E9E9
:102B640060037508000E80E4AA0EAB0F1209F98AFF
:102B7400108B11AE10AF11EE4F60367C007D00EE6D
:102B84002405FAEF3400FB8E828F83A3A3A3A3E072
:102B9400F91210E3E9F509E509C3940A5016AC0CDF
:102BA400AD0DAA0AAB0BA909121107E9750800803B
:102BB40003750814A9087F0A0217F174F712171F86
:102BC400EAFEEBFF9007C5EEF0A3EFF09007ABE051
:102BD400FC7D007A257B00120525E9F5089007ABFA
:102BE400E0F91207837F010217F174EE12171F74C4
:102BF400EC1216C88A0A8B0B850A82850B83A3A361
:102C0400E024FA700302312224FD7003022F981489
:102C14007003022CE114601024FD7003022F401491
:102C24007003022FD8023145AE0AAF0B9007C5E0FE
:102C3400F8A3E0F9E84960699007C5E0F8A3E0F576
:102C4400838882E0F8A3E0F9E8496055EE240CF5A6
:102C540082EF3400F583E0F5087808121936EE2483
:102C64000BF582EF3400F583E0F98E828F83A3A302
:102C7400A3A3A3A3A3A3A3E0FCA3E0FDEE2403FA70
:102C8400EF3400FB9007C5E0F8A3E0F5838882E009
:102C9400F8A3E0F583888212171D74011216DE80F2
:102CA400398E828F83A3A3A3A3A3A3A3A3A31219DF
:102CB400499007C11215B61205C174021216DEE955
:102CC400601879018E828F83A3A3A3A3A3A3A3A3D4
:102CD400A3E0FAA3E0FB1205BBE9023145AE0AAF5B
:102CE4000B8E828F83A3E06003022EEE8E828F838D
:102CF400A3A3A3A3A3E0A2E04003022EEE7C0E7DD7
:102D0400007900851882851983AA82AB83120F8DFE
:102D14008A088B09AA08AB098E828F83A3A3A3A375
:102D2400A3A3A3A3E0F8A3E0F9E849603D7508066E
:102D340075090078081219328E828F83A3A3A3A386
:102D4400A3A3A3A3E02410FCA3E03400FD740212A7
:102D54001713AA82AB83120F7574021216DE8A0847
:102D64008B0985088285098380548E828F83A3A36F
:102D7400A3E0FAA3E0FB1209F98A0C8B0D850C0879
:102D8400850D09E50845096032750C06750D007856
:102D94000C121932E5082405FCE5093400FD74021F
:102DA400121713AA82AB83120F7574021216DE8AED
:102DB4000C8B0D850C82850D8380030231458E8238
:102DC4008F83A3A3A3A3A3E0A2E25004D2F08002C2
:102DD400C2F0A2F0E433F87900740C121713E0483F
:102DE400F0A3E049F08E828F83A3A3A3A3A3A3A39C
:102DF400A3A3A3E0F8A3E0F9E84960228E828F83BD
:102E0400A3A3A3A3A3A3A3A3A3A3E02410F8A3E0D1
:102E14003400F988828983780C121598800890818F
:102E2400F4780C1215988E828F83A3A3A3A3A3A373
:102E3400A3A3A3A3E0F8A3E0F9E84960178E828F67
:102E440083A3A3A3A3A3A3A3A3A3A3E0F508A3E03D
:102E5400F50980067508007509008E828F83A3A387
:102E6400A3A3A3A3A3A3E0F8A3E0F9E84960158E04
:102E7400828F83A3A3A3A3A3A3A3A3E0F510A3E03A
:102E8400F5118006751000751100780C12192E7852
:102E9400081219327810121932EE240CF582EF342C
:102EA40000F5831219498E828F83A3A3A3A3A3A33E
:102EB400E0FCA3E0FD740A121713AA82AB8312117B
:102EC40019740A1216DEE9F5088E828F83A3A3A370
:102ED400E0F8A3E0F9900855E8F0A3E9F07A017B63
:102EE400009007ABE0F9120FC9E99007C5E0F8A319
:102EF400E0F9E84960439007C5E0F8A3E0F583886A
:102F040082A3A3E0F8A3E0F9E849602D8E828F83C1
:102F1400A3E0FC79018E828F83A3A3A3E0FAA3E04C
:102F2400FB9007C5E0F8A3E0F5838882A3A3E0F84B
:102F3400A3E0F583888212171D023145AE0AAF0B58
:102F44009007C5E0F8A3E0F9E84960459007C5E0BB
:102F5400F8A3E0F5838882A3A3E0F8A3E0F9E849A5
:102F6400602F850A82850B83A3E0FC79028E828F11
:102F740083A3A3A3E0FAA3E0FB9007C5E0F8A3E0D2
:102F8400F5838882A3A3E0F8A3E0F583888212176F
:102F94001D023145AE0AAF0B7C007D00EE2404FA1D
:102FA400EF3400FB8E828F83A3A3A3E0F91210E316
:102FB400E9F508E508C3940A5017EE240AFCEF3437
:102FC40000FD7A0475F006E508A42425F91212DB45
:102FD400E9023145AE0AAF0B9007C0E06018900BD0
:102FE40044E0F98E828F83A3A3A3E0FAA3E0FB124B
:102FF40005BBE9023145900B41E0701579058E82DD
:103004008F83A3A3A3E0FAA3E0FB1205BBE902317B
:10301400458E828F83A3A3A3E0FAA3E0FB1209F9F0
:103024008A0C8B0D850C08850D098E828F83A3A3D2
:10303400A3A3A3A3A3E0A2E05075E5084509606C2F
:10304400850882850983A3A3A3A3E060628E828F8F
:1030540083A3A3A3A3A3A3A3A3A3E0F8A3E0F9E8F2
:10306400C4540FF879005401F8E95400F9E8A2E0D7
:10307400403D740E121713AC82AD83E5082405FAA3
:10308400E5093400FB850882850983A3A3A3A3E093
:10309400F91210E3E9701879038E828F83A3A3A336
:1030A400E0FAA3E0FB1205BBE9023145023145EE2B
:1030B4002405FCEF3400FD850882850983A3A3A3BE
:1030C400A3E0F98E828F83A3A3A3E0FAA3E0FB120B
:1030D40011859007C5E0F8A3E0F9E849606390071B
:1030E400C5E0F8A3E0F5838882A3A3E0F8A3E0F9A0
:1030F400E849604D7C0079008E828F83A3A3A3E00E
:10310400FAA3E0FB9007C5E0F8A3E0F5838882A367
:10311400A3E0F8A3E0F583888212171D802312062A
:1031240087E9701D900854E06401700B12114FE997
:10313400F89008547400F079501212E7E9FE121165
:103144003D74141216DE7F0A0217F174F312171F6E
:1031540074F21216C88909EAFEEBFF8C0C851882FA
:10316400851983AC82AD837A0E75F006E509A42433
:1031740020F91212E1E970727C0679FF85188285C4
:103184001983AA82AB83120FEDE9705E740C1217D7
:1031940013E0F8A3E0F9E8F508E50C6005EE420851
:1031A4008004EEF4520885080A750B00740C12179B
:1031B40013E0650A7004A3E0650B602AE508A8081B
:1031C4007900740C121713E508F0A3E9F08518824E
:1031D400851983AC82AD837A0E75F006E509A424C3
:1031E40020F91212DBE9790180027900740E1216BB
:1031F400DE7F050217F174F012171F74E61216C869
:10320400890B8A0C8B0DECFEEDFF740C121713ACBA
:1032140082AD837A0E75F006E50BA42420F9121210
:10322400E1E9600302335E7C0679FF740C12171324
:10323400AA82AB83120FEDE9600302335E85188224
:10324400851983AC82AD837A0C7470250BF9121244
:10325400E1E9600302335A750A00851882851983EF
:10326400AA82AB83121113E50C450D703A7C0C79DC
:1032740000851882851983AA82AB83120FEDE96059
:10328400030233347C0C7D00790085188285198310
:10329400AA82AB83120F8D8A088B0985088285095F
:1032A40083750A01023334851882851983AC82AD93
:1032B40083AA0CAB0D12110D8A0E8B0F850E088597
:1032C4000F09E50845097036EE4F6021851882859F
:1032D4001983AC82AD837A007B0012110D8A0E8BA8
:1032E4000FA80EA90F88088909E84970047900809D
:1032F4006B850882850983E50CF0A3E50DF085084C
:1033040082850983A3A3E0F87900EE687002EF696F
:10331400601EEE850882850983A3A3F0EE4F700D2D
:103324008508828509837400F0A37400F0750A018E
:10333400E50A6022851882851983AA82AB8312115B
:1033440013851882851983AC82AD837A0C74702539
:103354000BF91212DBE9790180027900741A121652
:10336400DE7F080217F174F712171FEAFEEBFF7BEA
:1033740000EBC39404504EEBF87900E875F003A415
:10338400C8AAF075F000A42AFA75F003E9A42AF992
:10339400EC28F582ED39F583E06E7003A3E06F70DD
:1033A40021EBF87900E875F003A4C8AAF075F000E1
:1033B400A42AFA75F003E9A42AF9EC28FAED39FBFA
:1033C40080070B80AC7A007B007F010217F174F751
:1033D40012171F7F00EFC394044003023481EFF8F7
:1033E4007900E875F003A4C8ACF075F000A42CFCD7
:1033F40075F003E9A42CF9EA28F582EB39F583E0AA
:10340400F4FCA3E0F4FDEFF87900E875F003A4C838
:10341400AEF075F000A42EFE75F003E9A42EF9EACF
:1034240028F582EB39F583ECF0A3EDF0EFF87900A1
:10343400E875F003A4C8ACF075F000A42CFC75F09A
:1034440003E9A42CF9EA28F582EB39F583A3A3E078
:10345400F4C0E0EFF87900E875F003A4C8ACF075A7
:10346400F000A42CFC75F003E9A42CF9EA28F582F9
:10347400EB39F583A3A3D0E0F00F0233D97F010227
:1034840017F174EA12171F74F41216C8EAFEEBFF60
:103494008C108D117422121713E0F50EA3E0F50FB2
:1034A4007424121713E0F50CA3E0F50D742612171B
:1034B40013E0F50AA3E0F50BEE4F7005790A023527
:1034C400FCEEFAEFFB121131E9F508E508C3940AA2
:1034D4004006121143E9F508E508C3940A400302C3
:1034E40035FAEEFCEFFD7A0E75F006E508A424200B
:1034F400F91212DBE9F8E51045116013AC10AD11B7
:103504007A1B75F006E508A42421F91212DBE9E51B
:103514000E450F6013AC0EAD0F7A1B75F006E5086F
:10352400A42422F91212DBE9E50C450D6013AC0C5E
:10353400AD0D7A1075F006E508A42423F91212DB08
:10354400E9E50A450B602DAC0AAD0B7A1075F0065F
:10355400E508A42424F91212DBE9F50974281217EA
:1035640013AC82AD837A0475F006E508A42425F92A
:103574001212DBE97C0C7D0079FF851882851983A2
:10358400AA82AB83120F8D8A128B138512148513B2
:1035940015851882851983AC82AD837A0C747025E5
:1035A40008F91212DBE9F50975120E751300781289
:1035B400121932EEFCEFFDE508A8087900E875F071
:1035C4000EA4C8AAF075F000A42AFA75F00EE9A4B6
:1035D4002AF974C728FA740739FB120F757402129A
:1035E40016DE8A128B13A812A913900853E0600305
:1035F40012119712117FA908740C1216DE7F0E02A5
:1036040017F174F712171F74F21216C8E9FE851821
:1036140082851983AC82AD837A0E75F006A42420CA
:10362400F91212E1E9700E740C121713E0F8A3E01A
:10363400F9E8F980027900740E1216DE7F01021790
:10364400F174F412171F74F21216C88909EAFEEB1A
:10365400FFE509C3940A5004EE4F70047902804BCD
:10366400851882851983AC82AD837A0E75F006E5E0
:1036740009A42420F91212E1E9F508E508702A7575
:103684000A06750B00780A1219327402121713AC69
:1036940082AD83EEFAEFFB120F7574021216DE8A06
:1036A4000A8B0B850A82850B83A908740E1216DE19
:1036B4007F040217F174F412171FEAFEEBFF75087A
:1036C40000E508C3940A5045750A06750B00780A8C
:1036D400121932EEFCEFFDE508A8087900E875F050
:1036E4000EA4C8AAF075F000A42AFA75F00EE9A495
:1036F4002AF974CD28FA740739FB120F8774021261
:1037040016DEE96004A9088006050880B4790A7FFA
:10371400040217F174F412171FEAFEEBFF75080098
:10372400E508C3940A5045750A06750B00780A1219
:103734001932EEFCEFFDE508A8087900E875F00EF3
:10374400A4C8AAF075F000A42AFA75F00EE9A42A18
:10375400F974C728FA740739FB120F87740212161A
:10376400DEE96004A9088006050880B4790A7F04AC
:103774000217F174F712171F74F01216C8EAFEEB61
:10378400FF750800E508C3940A504B851882851913
:1037940083AC82AD837A1075F006E508A42423F97E
:1037A4001212E1E9702C7C1079FF85188285198347
:1037B400AA82AB83120FEDE97018EEFCEFFD8518B9
:1037C40082851983AA82AB83120591E97004A90842
:1037D4008006050880AE790A74101216DE7F010295
:1037E40017F174F412171F750800E508C3940A4012
:1037F400030238C8E508A8087900E875F00EA4C8E3
:10380400AAF075F000A42AFA75F00EE9A42AF97456
:10381400C728FC740739FD7A0E75F006E508A42460
:1038240020F91212E1E970030238C37C067D0079A5
:10383400FFE508AA087B00EA75F00EA4CAA8F07593
:10384400F000A428F875F00EEBA428FB74C72AFA3C
:1038540074073BFB120F8D8A0A8B0BAE0AAF0B7CED
:10386400067D0079FFE508AA087B00EA75F00EA43E
:10387400CAA8F075F000A428F875F00EEBA428FB94
:1038840074CD2AFA74073BFB120F8D8A0A8B0BAC9A
:103894000AAD0BE508A8087900E875F00EA4C8AADB
:1038A400F075F000A42AFA75F00EE9A42AF974D38D
:1038B40028F582740739F5837400F0A37400F005C9
:1038C400080237EE900853E0600312119712117F3B
:1038D4007F040217F174F712171F7E00EEC3940AD7
:1038E40050327C0679FFEEFA7B00EA75F00EA4CA2A
:1038F400A8F075F000A428F875F00EEBA428FB746A
:10390400C72AFA74073BFB120FEDE96004EEF98055
:10391400050E80C8790A7F010217F174F712171F88
:103924007E007F00EFC3940A502F7C0679FFEFFAE4
:103934007B00EA75F00EA4CAA8F075F000A428F87C
:1039440075F00EEBA428FB74C72AFA74073BFB122C
:103954000FEDE970010E0F80CBEEF97F010217F134
:1039640074F712171F7E007F00EFC3940A500DEE08
:10397400700AEFF9121155E9FE0F80EDEEF97F019F
:103984000217F174EE12171F74CB1216C8E9FE74F5
:1039940027121713AC82AD837A0E75F006EEA424B9
:1039A40020F91212E1E96003023AC87C0679FF7437
:1039B40027121713AA82AB83120FEDE96003023AB0
:1039C400C87C0E7D0079FF7427121713AA82AB837B
:1039D400120F8D8A0A8B0B850A0E850B0F7C1B7DBB
:1039E4000079FF740C121713AA82AB83120F8D8A0D
:1039F4000A8B0B850A0C850B0D7C0C7D0079FF85E9
:103A04001882851983AA82AB83120F8D8A108B11B9
:103A140085100A85110B7427121713AC82AD837AB3
:103A24000E75F006EEA42420F91212DBE9F50874F1
:103A34000C121713AC82AD837A1B75F006EEA42426
:103A440021F91212DBE94208740C121713AC82AD8F
:103A5400837A1B75F006EEA42422F91212DBE942E4
:103A640008740C121713AC82AD837A1075F006EE4D
:103A7400A42423F91212DBE94208740C121713ACC4
:103A840082AD837A1075F006EEA42424F91212DBB9
:103A9400E94208740C121713AC82AD837A0475F0F2
:103AA40006EEA42425F91212DBE942088518828562
:103AB4001983AC82AD837A0C74702EF91212DBE98F
:103AC40042088003750800A90874351216DE7F0ABF
:103AD4000217F174F712171FE9FE9007ABF01211E9
:103AE4003D7F010217F174F212171F890A8A088BAD
:103AF40009E5085400F8E5095480F9E84960339071
:103B040007ABE0F9120FB18A0C8B0DA80CA90DE8D4
:103B1400FEE9FFE849600FEEFAEFFB121167EEFAD7
:103B2400EFFB120F9FE9E5086400FAE5096480FBE6
:103B34008021E508A2E05017900855E0FAA3E0FBC5
:103B440012119DE5086401FAE5096400FB80047A1A
:103B5400007B007F060217F174F712171FEAFEEBD1
:103B6400FF8E828F83E02450601014601624E1706D
:103B740019EEFAEFFB1210FB8010EEFAEFFB1211B4
:103B84006D8007EEFAEFFB1211737F010217F174D7
:103B9400F712171FEAFEEBFF8E828F83A3A3A3A362
:103BA400E0641E701179008E828F83A3A3E0FAA3D0
:103BB400E0FB1210E9E97F010217F174F612171FF6
:103BC400EAFEEBFF8E828F83A3A3A3A3E0703A8E59
:103BD400088F09850882850983A3A3A3A3A3A3A3AC
:103BE400121949850882850983A3A3A3A3A3E0FC32
:103BF400A3E0FD850882850983A3A3E0FAA3E0FB83
:103C04001210EF74021216DEE97F020217F174F744
:103C140012171FEAFEEBFF9007ABE0F98E828F8349
:103C2400A3E0FAA3E0FB120807E97F010217F1C041
:103C340082C08374FF1216C8121149E9C39402406A
:103C44000B8518828519837402F080098518828592
:103C54001983740AF0851882851983AC82AD837A3E
:103C640001790512069FE974011216DED083D08211
:103C740002013574F212171F74E81216C8EAFEEB3B
:103C8400FF890A8C088D097C187D007900851882CB
:103C9400851983AA82AB83120F8D8A0C8B0DAC0C11
:103CA400AD0D851882851983EEF0A3EFF09007AD72
:103CB400E0C0E07402121713D0E0F09007AEE0C049
:103CC400E07403121713D0E0F0900B46E0C0E074E8
:103CD40017121713D0E0F07415121713E054FEF8FE
:103CE400A3E054FFF9900B45E0A2E0E433FA7B0033
:103CF400E84AF8E94BF97415121713E8F0A3E9F050
:103D0400900B45E0A2E15004D2F08002C2F0741599
:103D1400121713E054FDFAA3E054FFFBA2F0E433BE
:103D2400F87900C333F8E933F9EA48F8EB49F97450
:103D340015121713E8F0A3E9F0900B45E0A2E35045
:103D440004D2F08002C2F07415121713E054F7FA8B
:103D5400A3E054FFFBA2F0E433F50C750D007403EB
:103D6400780C1216B5EA450CF8EB450DF9741512EA
:103D74001713E8F0A3E9F0900B45E0A2E45004D255
:103D8400F08002C2F07415121713E054EFFAA3E0A6
:103D940054FFFBA2F0E433F50C750D007404780CA9
:103DA4001216B5EA450CF8EB450DF9741512171304
:103DB400E8F0A3E9F0900B45E0A2E55004D2F080CE
:103DC40002C2F07415121713E054DFFAA3E054FF93
:103DD400FBA2F0E433F50C750D007405780C121693
:103DE400B5EA450CF8EB450DF97415121713E8F014
:103DF400A3E9F0900B45E0A2E25004D2F08002C2A5
:103E0400F07415121713E054FBFAA3E054FFFBA25D
:103E1400F0E433F50C750D007402780C1216B5EA53
:103E2400450CF8EB450DF97415121713E8F0A3E9E6
:103E3400F09007AEE0602A750C10750D00780C1236
:103E440019327CAF7D077406121713AA82AB831252
:103E54000F7574021216DE8A0C8B0D850C82850D8B
:103E6400839007BFE06012E50A600E741512171301
:103E7400E04402F0A3E04400F09007BFE06006785D
:103E84000179008004780079007414121713E04853
:103E9400F09007ACE060067804790080047800793B
:103EA400007414121713E048F0AC08AD09851882A9
:103EB400851983AA82AB831205B5E974181216DE3C
:103EC4007F060217F174F712171FEAFEEBFF75085D
:103ED400009007BFE06006780179008004780079DB
:103EE40000E842089007ACE060067804790080049A
:103EF40078007900E84208A908EEFAEFFB12066F91
:103F0400E97F010217F174EE12171F74E51216C847
:103F14008A0C8B0DE9FF8C088D09742D121713E0A0
:103F2400F50A74086509700A75F006EFA42422FEE8
:103F3400800875F006EFA42421FE7C1B7D00790027
:103F4400851882851983AA82AB83120F8D8A108B00
:103F54001185100E85110F851882851983AC82ADE9
:103F6400837A1BEEF91212E1E9703C741A121713EA
:103F7400E0C394074031741A121713E0C39411502C
:103F840026E50AF50B780B1219367401121713ACD7
:103F940082AD83E508A2E0E433F9AA0CAB0D120567
:103FA400C774011216DEE9741B1216DE7F0A0217AB
:103FB400F174F712171F120873E97E00EEC3940A16
:103FC40050557C0679FFEEFA7B00EA75F00EA4CA20
:103FD400A8F075F000A428F875F00EEBA428FB7483
:103FE400C72AFA74073BFB120FEDE97027EEF87944
:103FF40000E875F00EA4C8AAF075F000A42AFA75BA
:10400400F00EE9A42AF974C728FA740739FB790079
:10401400120879E90E80A57F010217F174F41217D2
:104024001F74FB1216C88A088B09740312171385B0
:10403400820A85830B780A121932750A02750B00FD
:10404400780A121932750A16750B82780A12193217
:104054007CFF7DFF7A017B001206E174061216DEF6
:104064008A0A8B0BAE0AAF0BEE4F700302412AE4AF
:10407400F50AF50B780A12193274041217138582A3
:104084000A85830B780A1219327404121713858275
:104094000A85830B780A121932740912171312193C
:1040A400497902EEFCEFFDAA08AB091207F5740882
:1040B4001216DEE97043851882851983E0FA7B00C5
:1040C4007401121713E0F87900E4C8F9EA28F50A34
:1040D400EB39F50BE50A450B601F780A1219328E8D
:1040E400828F83A3A3A3A3E0FCA3E0FDAA08AB09EA
:1040F4001210EF74021216DEE9E4F50AF50B780AE1
:1041040012193274051217131219497CFF7DFFEE40
:10411400FAEFFB1206ED74041216DE8A0A8B0BAE5C
:104124000AAF0B02406C74051216DE7F040217F10D
:10413400C082C083E9900A2AF002435374F712172D
:104144001FE99002E0F07C187D037AFF7BFF1208E0
:104154000D9002E174FFF0A3F0A3E4F0A3F079055D
:1041640012079B9002E0E0F91206C97A257B081237
:1041740009E702506174F412171F8A088B09EB5483
:104184008060309002E0E0F9120FB18A0A8B0BAE26
:104194000AAF0BEE4F60138E828F83E064B070031E
:1041A4001207ADEEFAEFFB120F9FAA08E50964802F
:1041B400FB80047A007B0002432274F212171F74FE
:1041C400FC1216C8EAFEEBFF7412121713125548BC
:1041D400EE4F70030242617402121713EEF0A3EF64
:1041E40012455DECF0A3ED12455DAA82AB83120685
:1041F400C3E9F50A706AE508450960648E828F8315
:1042040012552EEE4F60567A067B0012100B8A0C64
:104214008B0DA80CA90DE8497005750A1380418817
:10422400828983E412426EEEF0A3EF125559E50839
:10423400F0A3E509F09002E61242F59002E670055B
:1042440012500B801B124FF98003EAFCEBFD8C82A9
:104254008D831242F570F38C828D8380E3750A029C
:10426400A90A74041216DE025748F0A31254FFA3DD
:104274002274F212171F890AE975F017A4FEAFF031
:104284009002E5E4F09002E31242F5600A12101184
:104294009002E3E4F0A3F0EEFAEFFB12100B8A08AD
:1042A4008B09EA4509602FEEFCEFFD7900120F8DB2
:1042B4009002E3E508F0A3E509F07B0080081242D0
:1042C400DFE4F0A3F00BEBC3950A40F2E50A900299
:1042D400E5F0790080027913025748EB75F017A4D2
:1042E400F8A9F09002E3E028FAA3E0398A82F58382
:1042F40022124C9DEA4B2274F412171F7900EAA291
:10430400E0501B75084275098178081219327C0443
:104314007D007A2C7B0A12079574021216DE7F0444
:104324000217F1C082C0839002E612435A601C88CF
:10433400828983A3A3E06A7003A3E06B88828983E4
:1043440070E8A3A3A3A3124C9980047A007B00D045
:1043540083D08202013512582EE8492274EE1217D6
:104364001F74FC1216C8EAFEEBFF851882851983B8
:10437400E4F0A3F0EE2402124FEBEE2405125506EE
:10438400EE2404F50EEF124912E024FE603924FCF9
:10439400604624FE605224FE605E24FE70030244E4
:1043A4007324FE70030244D724FE70030244E624FF
:1043B400FE70030244F524FC700302450424FE70DD
:1043C400030245130245509002FF7417F0A3E41250
:1043D4004565120447024550851882851983AC82CD
:1043E400AD831207B3024520851882851983AC82F8
:1043F400AD831207B9024520850C08850D097402A6
:10440400121713AC82AD83850882850983124C99F7
:104414001206E78A0C8B0DAC0CAD0DEC4D603BE441
:10442400F50CF50D780C121932750CFF750D027828
:104434000C121932750C00750D03780C12193274B4
:10444400081217131219491258521216DEE9F50C04
:10445400700B124C8F12045F800F750C018508825B
:1044640085098312455312500B850C0802452374A9
:1044740002121713AC82AD83850C82850D83124A18
:1044840064603C850C82850D83A3A31219497510C1
:10449400FF75110278101219327510007511037826
:1044A40010121932740812171312194912585212A1
:1044B40016DEE9F509700B124C8F120465800F7536
:1044C4000901850C82850D8312455312500B850911
:1044D40008804C851882851983AC82AD831207BF8E
:1044E400803A851882851983AC82AD831207C58012
:1044F4002B851882851983AC82AD831207CB801C6F
:10450400851882851983AC82AD831207D1800D850D
:104514001882851983AC82AD831207D7E9F508E5C3
:104524000860298E828F83A3E06414601F850E8245
:10453400850F83E09002FF12455D12582A90030014
:1045440012500BE508A3124565120441024EFA12FB
:10455400582E85188285198322F08518828519833F
:1045640022F07CFF7D02850A82850B83124C9D22FA
:1045740074EE12171F74FC1216C88A0A8B0B8C0E69
:104584008D0FEA2405F508EB3400F5097C157D0050
:1045940079007AFF7B02120F8DE5082402F50CE501
:1045A400091255098518828519838582108583111E
:1045B4007810121932850882850983A3A3A3A31254
:1045C4004A5B121932E5082405F510E5093400F5B3
:1045D400117810121932850C82850D83124DB01298
:1045E40006E174061216DE8A108B11AE10AF11E5C7
:1045F4000A2402F50AE50B124FEEEE4F7003024750
:104604003280177402121713124C9988828983EA34
:10461400F0A3EBF09002FFE004F09002FFE0C394FB
:10462400054003024732E4F510F5117810121932EF
:104634007510E875110278101219327510E97511A8
:1046440002781012193274061217131219497910CC
:10465400EEFCEFFD1258541216DEE9705E850882F6
:10466400850983A3A3A3A3A3A3A3E0F89002E8E08E
:10467400687048124A5B1219327CE97D02E508240D
:1046840008FAE5093400FB120F8774021216DEE9FA
:1046940060298E828F83A3A3A3A3124C999002FF57
:1046A400E0F510740278101216B574002510F58226
:1046B40074033511F583EAF0A3EBF07402121713B7
:1046C400858210858311781012193274021217131F
:1046D400121949850C82850D83124CBF1216DE8A8D
:1046E400108B11AE10AF119002FFE0F510751100A0
:1046F400740278101216B574FF2510F8740235117F
:10470400F988828983A31242F570030245FEE824E6
:1047140003080808E93400F9EE4F600302460788ED
:1047240082898374FFF0A3F09002FFE004F090020A
:10473400FFE0600A124C8F1204537900800B850845
:1047440082850983125002790A024EFA74EA12171A
:104754001F74FE1216C88C128D13EA2405F50CEB97
:1047640012583C125532750800750900EA2402F506
:1047740010EB3400F51185188285198385820A852A
:10478400830B780A121932850C82850D83A3A3A3A7
:10479400A3124928121932E50C2405F50AE50D1275
:1047A4004FEE780A121932850C82850D8312492C3A
:1047B4001206E174061216DE8A0A8B0BEA450B70A8
:1047C400030248CDEA2404F50EEB124912125532C5
:1047D4008A828B83A3A3A3E0F985108285118312B7
:1047E4004CA360030248CDE4F514F51578141219AE
:1047F400327514E875150278141219327514E975B6
:104804001502781412193274061217131219497901
:1048140013AC0AAD0B85108285118312585A1216F7
:10482400DEE9F50960030248CD9002E8E0F8E50806
:104834007009E02402900300F08014900300E0FC6F
:10484400E82402FAE43400FBEA6C7001EB707E8524
:104854000882AA82124A529414124A4A506B850E54
:1048640082850F83E0C0E074012A124909D0E0F088
:104874000508850E82850F83A3E0C0E085080A74CD
:1048840001250A124909D0E0F005089002E812490E
:10489400281219327CE97D0285080A7401250A125E
:1048A400491C1216DE9002E8E02508F50874FF6E34
:1048B400700374FF6F6012EE24010EEF3400FFE505
:1048C40008C39414500302477AE5086013124CADF0
:1048D400851082851183124C991204597900801431
:1048E400E509700375090A851282851383EEF0A326
:1048F400EFF0A90974021216DE7F0E0217F1850883
:104904000C7401250CF58274033400F58322340001
:10491400F50F850E82F58322FA74033400FB120F1F
:104924007574022212556822A3A312493222124F2F
:10493400F9FDEEFAEFFB2274EE12171F74FE121645
:10494400C88C0E8D0FEA2405F50CEB125509750B76
:10495400009002FFE4F0F50AEA2402F508EB3400C3
:10496400F50980449002FFE0FA9002E8E0F8124A68
:10497400529417124A4A400D9002FFE0F87416C38D
:10498400989002E8F0124A5B1219327CE97D0274B5
:10499400002AFA740312491F1216DE9002E8E0F8A6
:1049A4009002FFE028F0050AE50C2416F582E50DD7
:1049B40012490DE0F8E50AC39850749002FFE0C371
:1049C4009416506BE50AC333F8E433F9E50C28FE7A
:1049D400E50D39FF851882851983AC82AD838E82FB
:1049E4008F83124A647008750B01124FFE8050E4E5
:1049F400F510F51178101219327510E87511027856
:104A0400101219327510E9751102781012193274E6
:104A1400061217131219497916850882850983121B
:104A2400585A1216DEE9F50B700302496880BB7C04
:104A3400FF7D02850882850983124C9912046BA9B3
:104A44000B7402024EFCE99400C365D03322EA28B9
:104A5400F8E43400F9E822E0F5107511007810222A
:104A6400124EF18A108B11AC10AD11EC4D2274EA88
:104A740012171F74FC1216C88A0C8B0D8C128D131E
:104A8400EA2405F50AEB124FEE750800750900E5F6
:104A94000A2402F510E50B3400F511740212171301
:104AA40085820E85830F780E121932850A82850B52
:104AB40083A3A3A3A312550E121932E50A2405F504
:104AC4000EE50B3400F50F780E121932851082852D
:104AD4001183124FF4124C931206E174061216DE7F
:104AE4008A0E8B0FAE0EAF0FE50C2402F50EE50D0A
:104AF4003400F50F80388882898374FFF00508122A
:104B0400490274FFF005089002E8E0F50C750D0009
:104B1400780C1219327CE97D0285080C7401250C8D
:104B240012491C1216DE9002E8E02508F508EE4F43
:104B340060278E828F83A3A3A3E0F9850E82850F5D
:104B440083124CA3EE2404125506E96027850C82D7
:104B5400850D83124C8512500BE5087003024C6BD3
:104B6400124CAD850E82850F83124C991204717913
:104B740000024C80E4F514F51578141219327514FA
:104B8400E875150278141219327514E9751502784E
:104B94001412193274081217131219497911EEFC00
:104BA400EFFD850E82850F8312585A1216DEE9F541
:104BB40009709A850882AA82EA9002E87009E024C2
:104BC40004900300F08025E0F8900300E0F514E879
:104BD4002404FCE43400FDEC65147001ED708112D2
:104BE4004A529412124A4A4003024B64850C82854D
:104BF4000D83E0C0E074012A124909D0E0F00508F1
:104C0400850C82850D83A3E0C0E0124902D0E01236
:104C14004CC885820C85830D780C121932740412E9
:104C24001713121949851082851183124CBF12166D
:104C3400DE8A0C8B0DAE0CAF0D85080C7401250CAF
:104C4400F874033400F9EE4F7003024AFA851882AF
:104C5400851983E088828983124CC8A3E0C0E012DE
:104C64004902D0E0024B08E509700375090A850A78
:104C740082850B83124C8512500BA90974040248D7
:104C8400FA12582E851282851383227CFF7D0285B9
:104C94000A82850B83124C9D22E0FAA3E0FB2212C8
:104CA4004C9D1206CFE9F50922900300E0F5F0E5EA
:104CB40008849002FFF07CFF7D0222124932120622
:104CC400ED740422F005088518828519832274EC9A
:104CD40012171F74FE1216C88A088B098C0E8D0FCA
:104CE400EA2405FEEB3400FF124EDBEE24181255C5
:104CF40006EA450B7003024D7E124EC45029124D34
:104D0400A38A108B11EA4511606B7912AC0AAD0BC2
:104D1400850882850983124C998510828511831236
:104D2400171DE9F50A7058E4F50AF50B780A12190B
:104D3400328E828F83A3A3E0F50A780A121932EE29
:104D44002403124FEB780A1219328E828F83124D8C
:104D5400B01207FB74061216DEE9F50A7021850C01
:104D640082850D83E0701F850882850983124C9922
:104D74001204778011750A0E8009750A018004E512
:104D84000A6003124FFE850C82850D83E06004796E
:104D9400008002A90A74021216DE7F0C0217F18544
:104DA4001882851983124C9D1207E922124FF9FDCE
:104DB400850882850983124C9D2274EE12171F7494
:104DC400FE1216C88A088B098C0C8D0DEA2405FE88
:104DD400EB3400FF750E00124EDBEA450B70030244
:104DE4004EA2124EC4502C124DA38A0E8B0FEA45CC
:104DF4000F604A7912AC0AAD0B85088285098312CB
:104E04004C99850E82850F8312171DE9F50E6003F8
:104E1400024EA58508828509831250E0AA0AFB1276
:104E24004EB670147AFF7BFF124EB6606C8882898E
:104E340083E50AF0A3E50BF0750A008007750E0EF2
:104E4400805F050A9002E5E0FAE50AC39A504AE554
:104E54000A75F017A4FAABF088828983A3A3E02A29
:104E6400FAA3E03BFB8A828B83124FF4EC4D70D2A1
:104E7400750A17750B00780A121932EEFCEFFD1251
:104E84000F7574021216DEEEFCEFFD8508828509AB
:104E940083124C9912047D8014750E098003750EDB
:104EA40001125826850C82850D8312500BA90E021F
:104EB4004A451207DD8A108B11A810A911E849226E
:104EC400E5082402F508E5093400F5098A828B8394
:104ED400A3A3A3E0A2E522851882851983AC82AD41
:104EE400838E828F83124EF18A0A8B0B22E0FAA3FF
:104EF400E0FB1206E72274041216DE7F0A0217F1A1
:104F040074EC12171F8C108D11EA2405F50CEB12AA
:104F14005509750F00EA2402F50AEB124FEE850AD3
:104F240082F583124C991258E07003024FE0750E1B
:104F3400008071850C82850D83E06401704F8E8240
:104F44008F83A3A31219498E828F83A3A3A3A3E003
:104F5400F5127513007812121932EE2405F512EFCA
:104F64003400F5137812121932124C931207FB74A1
:104F7400061216DEE9F50F6014850C82850D83E4B4
:104F8400F012582685108285118312500B7C177DF0
:104F9400007900EEFAEFFB120F8D8E828F83E4F01E
:104FA400A3F0050E9002E5E0F8E50EC398501EE567
:104FB4000E75F017A4F8A9F0850882850983A3A3C8
:104FC400125846124FF4EC4D6003024F37850882A5
:104FD40085098374FFF0A3F0E50F7006124C931259
:104FE4000483A90F024D9EF50AEF3400F50B22A3AA
:104FF400124FF9FD22E0FCA3E0228E828F83125827
:105004002E850E82850F83E8F0A3E9F022C082C0CA
:10501400839002E1E06A7003A3E06B70067AE17B9F
:105024000280047A007B0002435374F712171F7F37
:1050340000EF75F003A4F8A9F0EC28F8ED39F9882D
:10504400828983E06A7003A3E06B7006E8FAE9FBE7
:10505400800B0FEFC3940240D87A007B007F0102DB
:1050640017F174F612171F12561770067A007B0098
:105074008007A3A3A3A3124C990256D874F2121763
:105084001FE9FE740E1217131250E0741012171356
:105094001255488C828D83E06402703BA312582A17
:1050A40088828983E0F50CA3E0F9A80C7402687087
:1050B400037429697021750C02750D00780C12199E
:1050C400327808121932780A121932EEF912081FCE
:1050D40074061216DE80027901025748E0F50AA32D
:1050E400E0F50B2274E812171F74FB1216C8E98549
:1050F4001882851983F08A168B178C0E8D0F741FF6
:1051040012171312554874211217131250E0742306
:105114001217131255327510008C828D83A3A3A32A
:10512400E0A2E4502A741D121713124DA98A828B2F
:1051340083E582458370030251F4790AAC0EAD0F06
:10514400AA16AB1712171DE9F51060030251F78573
:105154000E82850F83E0640260030254ADA31258EB
:105164002A850882850983A3858212858313E50E27
:105174002406F50CE50F12550988828983E0FAA309
:10518400E0F9EA2400F514E439F51578141219BC91
:10519400010000280128BC5107000228935203286B
:1051A40003520029BD530129E55302298C530329D5
:1051B400BD5304294E54AD54EE4F703E850C828588
:1051C4000D83125523FAE9FB8A828B83E0850A82D8
:1051D400850B8312555F1219328A828B83A3124F77
:1051E400F9FDAA08AB09120F7574021216DE8003CA
:1051F40075100EA910740502583475100B80F4EE66
:105204004F70F7850A82850B837401F01255388537
:105214000882850983F07C007D00850E82850F83DA
:10522400A3A3A3A3E02401FAA3E03400FB1206E73E
:10523400EA4B60418A828B83E02402F8850A8285E6
:105244000B83E028F0EA2404F8EB3400F98882891F
:1052540083E085128285138312557112555F1219EA
:10526400328A828B83124FF3E5082403FAE509346A
:1052740000FB0251EA850A82850B83E02404F07C5A
:10528400047D007900AA12AB13120F8D0251F7EEC0
:105294004F60030251FE125538FEA3E0FF850A82D7
:1052A400850B837404F0EE850882850983F0EF850D
:1052B4001282851383F07403121713AC82AD83EE4C
:1052C400FAEFFB12560570030253698A828B83A39B
:1052D400A312552E740112171385820E85830F783D
:1052E4000E12193274051217131219497CFF7DFF2F
:1052F4001206ED74041216DE8B0FEA450F70338527
:105304000C82850D8312550E121932850C82850D7F
:1053140083A31219497C027D007A107B821205193D
:1053240074041216DEE9700A740112171374FFF084
:10533400A3F08E828F83E064027034750C02750DC5
:1053440000780C1219328E828F83124FF3E50824F1
:1053540004FAE50912491F1216DE850A82850B83B9
:10536400E0240280097401121713EEF0A3EFF07425
:105374000112171312551FF07401121713A31255BB
:1053840017A3A3A3F00251F7EE4F60030251FE8569
:105394000C82850D83124FF4AA16AB1712081385DD
:1053A4000A82850B837402F0EA850882850983F0FA
:1053B400851282851383EB80CBEE4F60030251FE8E
:1053C400125538F8A3E0F9850A82850B837402F03C
:1053D400E8850882850983F0E98512828513838034
:1053E400A3850C82850D83124C99120F6FEAFC8CF5
:1053F40082A882C39EE49F404BE86E7001EF700464
:105404007C00801F851882851983E0FAEE2AFAEF62
:105414003400FBC3EA98EB94005003E08004EECC24
:10542400C39CFCEC850A82850B83F08C0A750B0007
:10543400780A121932850C82850D83E02EFCA3E0D4
:105444003F0251E57510070251F7EE4F6003025118
:10545400FE850C82850D8312582A850A82850B836A
:105464007407F0888289831255171254FFE085125D
:1054740082851383F0E82402FAE93400FB8A828BE4
:105484008312551712555012551FA3125559125510
:1054940028F0E82405F8E93400F988828983125554
:1054A40028A3125571A3025385741D1217131256A3
:1054B4001070030251F412582A880C890DE8450D26
:1054C40070030251F48E108F117810121932780A79
:1054D40012193278081219327406121713E0F9AC53
:1054E4000EAD0FAA16AB17850C82850D8312171DFE
:1054F40074061216DEE9F5100251F7F088828983EA
:10550400A322F50CEF3400F50D22E0F50E750F0023
:10551400780E22E0850882850983221255782212AA
:10552400582EE822125578A3A322A3A3A3A3E0FE36
:10553400A3E0FF22850C82850D83E0F8A3E0F583C8
:105544008882E022E0F508A3E0F50922A3A3F08A0B
:10555400828B83A322124270A3A322F08A828B83BC
:1055640012556822E0F50A750B00780A221254FFDE
:1055740012557822E0850882850983A3A32274EE5C
:1055840012171F74FE1216C88A0A8B0BECFAEDFB75
:105594007414121713E0F510A3E0F5117416121722
:1055A40013E0FE7418121713E0F50EA3E0F50F854F
:1055B4001882851983AC82AD83125605603E851826
:1055C40082851983125610602FA3A3125548E5084B
:1055D40045096024780E1219327810121932EEF946
:1055E400AC0CAD0DAA0AAB0B850882850983121792
:1055F4001D74041216DE8006790E80027901024AB7
:10560400451206E78A0C8B0DEA450D22124C9D12B9
:105614005617221207A78A828B83E5824583227458
:10562400F612171F74FE1216C8740C1217131255B3
:1056340023851882851983F07401121713E9F0E4A5
:10564400F508F50978081219327508027808121954
:105654003274041217138582088583097808121995
:10566400321207FB74061216DE74021216DE806410
:1056740074F712171FEAFEEBFF89087C187D0312EA
:105684000813EA5402600BA908EEFAEFFB1206DBDA
:105694008002790102506174F612171F74FF6A7058
:1056A4000374FF6B701C7B00EB75F003A4F8A9F086
:1056B400EC28F8ED39F91256DD0BEBC394025014C3
:1056C40080E61207E38A088B09A808A909E849605B
:1056D400031256DD7F020217F18882898374FF1258
:1056E400426EE4F02274F612171F1207E38A828BCB
:1056F40083E58245836006A3A3E0FA80027A007BF7
:105704000080D174F212171F8A088B09ECFEEDFF9A
:10571400740E121713E0F50A12574D701CEEFCEFCD
:10572400FD7AFF7BFF12574D700479118016888231
:105734008983E508F0A3E509F088828983A3A3E5BA
:105744000AF079007F060217F11207E38A0C8B0D29
:10575400A80CA90DE8492274EE12171FEAFEEBFF0C
:105764008C088D09890C741212171312582A741498
:10577400121713124FF47416121713124C99750D55
:1057840000EC4D600302581E7402650C600302585D
:105794001988828983124FF9F9EC2400F50EE43953
:1057A400F50FEAF4F8EBF4F9EC58F8E50F59F9E8D9
:1057B40049705DE5082406F8E5093400F9880A898A
:1057C4000B8882F58312492E1208138A108B11E577
:1057D4000E65107004E50F65116042780E121932DF
:1057E400850A82850B8312492E1208197402121637
:1057F400DEE9F50D7027780E1219328508828509C5
:1058040083A3A312492C12082B74021216DE800DF6
:10581400750D808008750D0D8003750D0BA90D02A3
:105824004EFF8E828F8312582E22E0F8A3E0F922D5
:105834001216DE7F100217F13400F50D850C82F587
:105844008322E028FEA3E039FF8E828F832279161B
:10585400850A82850B83124C9D1207F57408227405
:10586400F212171FEAFEEBFF890B7401650B600E41
:105874007402650B70637901120A05E9705BEEFA34
:10588400EFFB1258E06047750A00800B7C177D001F
:105894007900120F8D050A9002E5E0F8E50AC39835
:1058A4005021E50A75F017A4F8A9F0850882850946
:1058B40083A3A3E028FAA3E039FB8A828B831243F3
:1058C4005A70C985088285098374FFF0A3F07C1897
:1058D4007D03EEFAEFFB12080D0257481207DD8A2A
:1058E400088B09EA45092274F212171F8A088B09EA
:1058F400ECFEEDFF740E1217131250E0900A2AE02A
:10590400F4603D7A097B00120F99EA4B60328A8277
:105914008B8374B1F0A3E4125552A3125550A3E53E
:1059240008F0A3E509125947EEF0A3EF125947A373
:10593400A3E50AF0A3E50BF0900A2AE0F9120FA5FB
:10594400025748F08A828B83A3A3A3A3A322C08215
:10595400C0839061907404F0A37448F0A37402F0BF
:105964009061807440F09061BC7403F0906187741E
:1059740019F0906265741BF090619C740DF0906155
:105984009A7433F0A37455F09061A0743AF09005C2
:105994005CE064017009C2919003C674678005904D
:1059A40003C67461F09025A2E493906186F090257B
:1059B4009CE493F46027E493540FF8906185E068C5
:1059C4006012E5C654804449F5C6E59E547F644997
:1059D40070F8E8F053C680E59E547F70FA7905129A
:1059E4000D59025B94C082C083E9540FF99061851C
:1059F400E0696012E5C654804449F5C6E59E547FCB
:105A0400644970F8E9F053C680E59E547F70FA0249
:105A14005B94C082C083E5A8F853A87E906181E4BA
:105A2400F0A3F0A3F0C2BA539AFEC289759B00C2D8
:105A3400C275E90075910075BF0075A91175B905A6
:105A4400906181F0A374C0F0A3E4F0D2BA439A0148
:105A540074805842A8025B94C082C08374F8121602
:105A6400C89003C4E0F8A3E0F9E8497003025B8A34
:105A74009003C4E054406023790885188285198313
:105A8400AA82AB83120BC1851882851983AA82ABC3
:105A9400831208979003C4E054BFF0E05480601070
:105AA400790C7A807B05120BC19003C4E0547FF01B
:105AB400E0A2E0503190619A7433F0A37455F090F1
:105AC40061A0743AF090055CE064017009C29190A1
:105AD40003C6746780059003C67461F012089D9034
:105AE40003C4E054FEF0E05402603190619A743FC4
:105AF400F0A3745AF09061A0747FF090055CE064A8
:105B0400017009D2919003C6747180059003C67424
:105B14006AF012089D9003C4E054FDF0E054046060
:105B2400139025A0E493906186F01208A39003C417
:105B3400E054FBF0E0540860139025A1E4939061D5
