:020000040000FA
:0600000002011D021DBB00
:03002B000224E9C3
:03005300021E2E5C
:03006B000224B7B5
:10008300021C6FE5C754F84401F5C779012200004B
:100093000080FB120086B90003020107E47921788E
:1000A30008B800028004F709D8FCE479297802B87B
:1000B30000028004F709D8FCE490028178C4790730
:1000C3008002F0A3D8FCD9FA781A90014D7A01BACC
:1000D30000028007E493A3F608DAF9900944AA82A0
:1000E300AB8390014E780779048015E493A3AC8227
:1000F300AD838A828B83F0A3AA82AB838C828D83A8
:10010300D8E9D9E7758278758399740312012F753D
:100113008291758300740012012F75D00075813FA1
:10012300751881751902759F00020096C09FF59F8F
:10013300E473D09F22D083D082C09FE493C0E07445
:100143000193C0E0740293F59F2201FF0000B40005
:100153000028002800283075A000A000A000A000FF
:1001630000080008E001F00010001000100010006B
:100173001000100050005000500010001000D00775
:100183000000000000000F000100050030750700AB
:100193001000010081FF0000FF4C066A065206FFB3
:1001A30002020208025000A0000000E803021782C6
:1001B300010000F9810207820100009909020D8202
:1001C300010000B2020207820100009A09020F82B5
:1001D300010000C8020207820100009B090211828C
:1001E300010000CA020207820100009C0902138277
:1001F300080000CB020207820100009D090215825C
:100203000100009E09FF0100FF2002178201000088
:10021300FF81020782010000020A022F8200000010
:100223000000020B8203000018031C0C1C0C1C0CA6
:100233001C0C1C0C1C0C1C0C1C0C1C0C1C0C1C0C7B
:100243001C0C1C0CAA0EC20EA40EFFFF020202021B
:100253000202020202010D000000100102178201D6
:100263000000FC81020782010000450A022B820183
:1002730000007807020782010000460A0229820172
:1002830000001581020782010000470A022782014C
:1002930000000781020782010000480A022582014B
:1002A3000000B780020782010000490A022382018D
:1002B300000093800207820100004A0A023D820186
:1002C300000081800207820100004B0A02218201A3
:1002D3000000A5800207820100004C0A021F820170
:1002E3000000F9800207820100004D0A021D82010D
:1002F30000004E0A01E803053F10FF0001307503BB
:1003030002010600000000000000000000000000E1
:10031300000000000000000000000000000000FFDB
:10032300FF0600800CE803140953696D706C654285
:100333004C455065726970686572616C05125000B6
:100343002003020A000201051AFF4C000215FDA555
:100353000693A4E24FB1AFCFC6EB07647825000A3A
:100363000007CD53696D706C6520424C4520506584
:10037300726970686572616CDC120000E2120AFD3A
:10038300A50693A4E24FB1AFCFC6EB07647825551A
:1003930055494400000A4D616A6F7200000A4D69B5
:1003A3006E6F7200001043686172616374657269F5
:1003B3007374696320340002436861726163746516
:1003C30072697374696320350002178201000002A9
:1003D30082020782010000770B0233820300007858
:1003E3000B020982010000880B0207820100008EC4
:1003F3000B0235820100003C090209820100008FD3
:100403000B020782010000960B0237820200003DB7
:1004130009020982010000970B0207820100009E76
:100423000B0239820000003E090209820100009F8D
:100433000B020782010000B00B023B820400003F65
:1004430009020982010000B10B0000000000000056
:1004530000120138E38D03120138FA8D03120138BB
:10046300298E03120138628E031201388A8E031219
:100473000138B88E03120138CF8E03120138E68E8D
:1004830003120138FC8E03120138238F0312013843
:10049300368F031201384C8F03120138748F031205
:1004A300013811A40212013810A50212013845A522
:1004B3000212013866A50212013876A5021201382C
:1004C30097A502120138A3A60212013870A70212DF
:1004D3000138E3A70212013869A802120138ACA857
:1004E30002120138E3A80212013869A90212013885
:1004F3003BAA0212013899AA02120138B1AA0212C8
:1005030001382BAB021201382EAB0212013831AB8A
:1005130002120138D8AB02120138F0AB02120138D3
:1005230020AC0212013840AC021201382EAD021287
:100533000138E4AD0212013856D5021201387ED5D6
:1005430002120138ACD502120138E3D50212013888
:100553004BD60212013894D602120138DFD60212AA
:1005630001381DD7021201385AD70212013888D731
:10057300021201382FD80212013839D80212013879
:1005830046D80212013879D8021201383BD9021237
:10059300013847D9021201385FD90212013869D9EB
:1005A300021201382F97031201383D9703120138C5
:1005B3005597031201386D970312013801A50112F3
:1005C30001389FA50112013817A6011201382CA783
:1005D3000112013866A7011201380FA80112013870
:1005E300E4A80112013848AA011201389FAA011296
:1005F300013826AB011201380DAC011201385AAC97
:1006030001120138E8AC011201380CAD01120138B6
:10061300E1AE0112013822AF0112013844AF0112D9
:100623000138C5AF01120138AFB00112013875B1FD
:1006330001120138F3BE02120138C5BF021201389C
:100643006EC002120138B1C0021201383EC102125B
:100653000138CAC102120138ABC202120138DAC230
:1006630002120138D6C3021201381EC40212013825
:1006730020C50212013864C5021201388AC502126C
:1006830001386A7F0012013836F3021201384CF345
:100693000212013872F3021201389AF4021201387D
:1006A300A4F402120138FDF502120138FDF602121C
:1006B300013886CB02120138BBCC02120138EECCD2
:1006C3000212013838CD02120138F6CE0212013877
:1006D300F1950112013854960112013899970112CC
:1006E3000138A99701120138CC97011201381798E4
:1006F30001120138BC9801120138B2990112013874
:100703007C9A01120138F49B01120138369C0112C4
:100713000138D49C01120138FA9C01120138E89E79
:1007230001120138ED9E01120138CEA001120138E9
:1007330022A10112013884A101120138ACA10112D6
:10074300013850A20112013812A30112013843A348
:100753000112013846A3011201388EA30112013898
:10076300D0A30112013837A4011201389EFD0212F1
:100773000138B1FD02120138CAFD0212013815FE1B
:1007830002120138F0FE021201387FFF0212013813
:10079300CAFF021201381025001201381C2500126D
:1007A30001385525001201389A25001201385126C7
:1007B30000120138D726001201380327001201382E
:1007C3003C27001201385029001201382C2B00124B
:1007D3000138172D001201384E2E00120138AE30A9
:1007E300001201389A3100120138E0320012013848
:1007F300ED33001201380A3400120138423400127A
:1008030001385C3400120138C434001201385E39F7
:1008130000120138FF3900120138503A0012013832
:10082300773A00120138C53A00120138E33A001250
:100833000138373B001201383F3C00120138C73CF6
:1008430000120138ACD002120138B6D002120138BE
:1008530081D1021201389CD102120138C2D1021295
:10086300013806D2021201383ED20212013867D291
:1008730002120138E0D202120138F5D20212013815
:100883000AD30212013841D30212013855D302129E
:10089300013886D302120138C0D302120138ECD3D7
:1008A3000212013842D40212013896D402120138DE
:1008B300DFD40212013809D5021201382ED50212F3
:1008C30001384AEF0212013814F002120138F7F02E
:1008D300021201386DF102120138AFF10212013830
:1008E300DCF2021201380080021201382980021260
:1008F3000138428002120138878102120138658271
:100903000212013884820212013811830212013863
:10091300548302120138A184021201384085021265
:100923000138BF87021201385688021201382A891A
:10093300021201380C8A02120138788B0212013834
:100943000B8C021201384D9203120138B692031236
:1009530001380A93031201383193031201389FDEE1
:10096300021201380CDF0212013857DF021201387C
:100973004CE00212013848E10212013832E202125D
:1009830001384FAE0212013891AE021201386BAF3B
:100993000212013844B0021201383FB10212013889
:1009A3001EB2021201388AB20212013851B3021286
:1009B3000138BCB30212013823B4021201384EB419
:1009C30002120138BFB40212013852B502120138C3
:1009D300BBB502120138D0B50212013818B60212A3
:1009E300013831B60212013896B60212013899B6AF
:1009F30002120138A4FA02120138CCFA02120138A9
:100A03000AFB02120138C8FB0212013833FC02123E
:100A130001384FFC0212013877FC02120138A7FC9F
:100A230002120138B6FC0212013830FD02120138FD
:100A330056FD0212013828C20112013805C4011201
:100A4300013800C601120138D3C6011201381EC78E
:100A53000112013869C7011201387BC7011201383D
:100A6300BBC701120138F0C7011201383CC801129B
:100A730001386BC8011201388EC801120138DBC876
:100A83000112013864C90112013871CB0112013816
:100A93005CCD011201389FCD0112013804CF011240
:100AA300013845CF01120138B8CF0112013804D003
:100AB300011201382FD001120138828C0212013841
:100AC300AD8C02120138949302120138B8950212C8
:100AD3000138739702120138D098021201382E3D63
:100AE30000120138C53D00120138F23D00120138F1
:100AF300383E00120138773F001201380E410012D0
:100B03000138884100120138A3410012013818420C
:100B130000120138474300120138A2440012013881
:100B2300A445001201380147001201381A47001288
:100B330001387747001201385948001201388C48B0
:100B430000120138FC4800120138764900120138BE
:100B5300C54900120138914A00120138964B001220
:100B63000138754C00120138004D001201386E4DEA
:100B730000120138E24D001201380B4E0012013809
:100B8300CA4E00120138445000120138615000125D
:100B930001388050001201381151001201383651CA
:100BA300001201385E5100120138D9510012013888
:100BB3003352001201388753001201384454001293
:100BC300013817550012013859D001120138A9D044
:100BD30001120138B5D00112013892D10112013846
:100BE300C2D101120138FAD10112013879D20112AE
:100BF3000138B1D20112013803D30112013840D3B5
:100C03000112013865D50112013891D7011201385B
:100C13008CD90112013867DB011201380525001256
:100C230001384082011201388A8201120138698831
:100C330001120138EA890112013849900112013881
:100C4300449101120138819101120138A4910112DA
:100C53000138E69101120138EF9101120138F9913F
:100C630001120138E59201120138D99301120138BA
:100C7300455500120138BD5F00120138C35F0012F1
:100C83000138CF660012013807F7021201389DF7C9
:100C930002120138B3F7021201382DF8021201389B
:100CA30083F802120138C1F8021201381EF9021248
:100CB30001389BF902120138A4F902120138B0F984
:100CC30002120138C3F902120138FFF90212013886
:100CD30015FA0212013874FA02120138F4E2021210
:100CE300013801E3021201381BE3021201385AE30F
:100CF3000212013898E302120138FDE302120138AF
:100D030012E4021201381DE4021201382AE402122D
:100D1300013841E4021201384FE4021201385AE467
:100D23000212013866E40212013875E40212013836
:100D330080E402120138A3E4021201384CE50212E6
:100D430001385CE50212013876E50212013893E5B9
:100D530002120138AFE502120138D4E5021201385C
:100D6300DEE502120138F2E50212013811E6021241
:100D7300013872E60212013878E6021201387EE683
:100D83000212013884E60212013890E60212013899
:100D9300C3E6021201382DDE01120138AFDE011263
:100DA300013858DF01120138A0E001120138AEE228
:100DB3000112013894E301120138C9E30112013829
:100DC300EBE30112013894E40112013864E60112E5
:100DD30001388DE60112013805E70112013837E7C2
:100DE3000112013844E7011201388FE7011201387B
:100DF300B3E70112013804EA011201380EEB0112C4
:100E030001386AEB01120138AAB301120138BBB4ED
:100E1300011201389FB501120138A9B50112013839
:100E2300CBB501120138D7B5011201387BB70112D6
:100E33000138A8B701120138BEB80112013813B93D
:100E43000112013862BA0112013837BB01120138AD
:100E530093BB01120138FEBB0112013833BC0112EE
:100E6300013876BC0112013840BF0112013858BF66
:100E730001120138E9BF01120138F7BF011201382D
:100E830044C00112013852C001120138BEC0011220
:100E9300013839C10112013890C101120138F398A8
:100EA30002120138159902120138269B02120138E9
:100EB300E59D021201380F9F02120138CD9F0212E5
:100EC3000138B9A0021201382A8C031201384F8C61
:100ED30003120138C58C03120138A6F80112013838
:100EE300AFF801120138B8F80112013890F9011274
:100EF300013841FB0112013871FB011201389CFBDF
:100F030001120138CCFB01120138F7FB0112013841
:100F13002BFC0112013857FC011201389AFC011213
:100F23000138C5FC011201380CFD0112013861FDC5
:100F330001120138A3FD01120138FDFD0112013830
:100F430028FE0112013877FE01120138A7FE0112B3
:100F53000138D2FE0112013800FF0112013823FFCC
:100F6300011201389C9803120138C8980312013802
:100F7300F59803120138FF98031201380F990312F1
:100F83000138FFC50212013809C6021201384AC6E8
:100F93000212013893C602120138CDC6021201387B
:100FA30023C70212013844C7021201384DC7021287
:100FB3000138A1C702120138CAC702120138D4C7C7
:100FC3000212013842C802120138D2C80212013893
:100FD3002DC9021201385BC902120138E3C902129A
:100FE300013822CA0212013857CA0212013869CAEB
:100FF3000212013888CA0212013891CA021201385A
:1010030058CB02120138649403120138398A03124F
:1010130001386F8A03120138A38A03120138F08B57
:10102300031201380698031201381C980312013881
:101033002698031201387098031201381999031284
:101043000138FED90212013811DA02120138D2DA5C
:101053000212013811DB021201382EDB02120138B1
:1010630067DB02120138B4DB02120138E6DB02123D
:1010730001381DDC0212013826DE0212013892DE2D
:10108300021201385B95031201387E950312013871
:10109300AD9503120138C595031201380796031263
:1010A30001380080031201382580031201384F8074
:1010B30003120138D099031201388A6B00120138E8
:1010C300686D00120138076F00120138B26F001209
:1010D3000138327000120138B77000120138E07025
:1010E30000120138BB740012013832750012013846
:1010F300497600120138837600120138C476001253
:1011030001380B7800120138617800120138AA788F
:10111300001201381979001201388579001201385B
:10112300B67900120138CE7900120138E77A00123D
:101133000138F77A00120138AD7C00120138C47C03
:1011430000120138F67C00120138987E0012013833
:101153002C7F001201388D9A03120138269A03124C
:101163000138659A031201389E9A0312013850968A
:101173000312013860960312013875960312013881
:10118300299703120138629303120138E79303127C
:1011930001384B94031201381E9103120138409118
:1011A30003120138A19103120138B39103120138DC
:1011B300039203120138419203120138449203123D
:1011C300013840E70212013854E702120138CEE732
:1011D30002120138B2E80212013889EA0212013818
:1011E300EEEA0212013845EB02120138F87F0012D1
:1011F3000138FF87031201388F8903120138F08900
:1012030003120138368A03120138868F031201381C
:10121300D88F031201384B9003120138B890031290
:101223000138B88503120138E28503120138B1860B
:10123300031201388D8703120138BDB6021201383B
:1012430089B702120138CAB70212013804B8021270
:10125300013862B802120138B6B80212013814B963
:1012630002120138AAB902120138B2BA02120138C5
:101273003CBC02120138DABC0212013841BD021231
:10128300013854BD0212013848BE0212013891BE22
:1012930002120138B7EB01120138E9EE01120138ED
:1012A3007AF001120138D1F001120138EEF0011287
:1012B30001386EF101120138EAF201120138B9F373
:1012C3000112013826F70112013810F80112013812
:1012D30059EB02120138DFED021201386BEE0212F4
:1012E300013815EF02120138E482031201381E831C
:1012F300031201383B8303120138B9830312013807
:10130300178403120138FC840312013893850312F6
:101313000138C3FF011201386F9A03E066701008A9
:10132300A3E066700A08A3E066700408A3E06622DF
:10133300C3E7960809E7960809E7960809E796229E
:10134300C3E09608A3E09608A3E09608A3E09622DC
:10135300C008C3E096F50808A3E096420808A3E096
:1013630096420808A3E09645087001D3D0082208E6
:101373000808EAC0E0EBC0E086F0E7A4FA180986A3
:10138300F0E7A42AFA180986F0E7A42AFA180986CE
:10139300F0E7A42AFA1986F0E7A4FBE5F02AFA1984
:1013A3000886F0E7A42BFBE5F03AFA190886F0E784
:1013B300A42BFBE5F03AFA18180986F0E7A4C5F068
:1013C3002BFBE43AFA1908E7C5F0C6A426F6E5F0C4
:1013D3003BFBE43AFA1886F0E7A4F6E5F00826F6B4
:1013E300E43B08F6E43A08F6D0E0FBD0E0FA22E466
:1013F300CFC0E0E4CEC0E0E4CDC0E0E4CCC0E07513
:10140300F020C3E633F608E633F608E633F608E6DB
:1014130033F6181818EC33FCED33FDEE33FEEF33DF
:10142300FFC3EC9709ED9709EE9709EF971919197F
:10143300400FFFEC97FC09ED97FD09EE97FE191994
:1014430006D5F0BEECF709EDF709EEF709EFF7194A
:101453001919D0E0FCD0E0FDD0E0FED0E0FF22601F
:1014630016080808C6C313C618C613C618C613C67B
:1014730018C613C6D5E0EA227009080808226016C8
:10148300181818C6C333C608C633C608C633C608F9
:10149300C633C6D5E0EA22E627F60809E637F6089A
:1014A30009E637F60809E637F622E026F608A3E050
:1014B30036F608A3E036F608A3E036F622E026F077
:1014C30008A3E036F008A3E036F008A3E036F022E4
:1014D300C3E697F60809E697F60809E697F60809BA
:1014E300E697F622C3E096F008A3E096F008A3E09F
:1014F30096F008A3E096F022E056F608A3E056F62D
:1015030008A3E056F608A3E056F622E056F008A337
:10151300E056F008A3E056F008A3E056F022E0F608
:1015230008A3E0F608A3E0F608A3E0F622E6F00835
:10153300A3E6F008A3E6F008A3E6F022E0FAA3E0AE
:10154300FBA3E0FCA3E0FD22EAF0A3EBF0A3ECF0A5
:10155300A3EDF022CAC0E0E6F0A308DAFAD0E0FA7D
:1015630022CAC0E0E0A3C582CCC582C583CDC583B2
:10157300F0A3C582CCC582C583CDC583DAE6D0E0AE
:10158300CA22C3E498F8E499F91215C68026C3E485
:101593009AFAE49BFBE920E7E91215C6E498F8E41C
:1015A30099F922C3E498F8E499F91215C6E498F876
:1015B300E499F9C3E49AFAE49BFB22EB20E7CFE931
:1015C30020E7E0B90010BB0008E88AF084F8AAF02D
:1015D30022E4FBC8FA22EB70227B10C833C8C9335C
:1015E300C9335007C39AC3DBF280069A50012ADB42
:1015F300EAC833F4C8C933F4C9FA2275F008E4C859
:1016030033C8C933C933C99AC99B5004C92AC93BD2
:10161300D5F0ECFBC833F4C8E4C9FA22600D08C660
:10162300A2E713C618C613C6D5E0F322600C08C69A
:10163300C313C618C613C6D5E0F422700422600D86
:1016430018C6C333C608C633C6D5E0F41822251816
:1016530010AF08F518400215198008F51840021557
:1016630019D2AF22C0D0251810AF08F518500205C3
:10167300198008F51850020519D2AFD0D0222518C9
:10168300F58210AF08F518400215198008F51840C7
:10169300021519D2AF851983222518F582E435196D
:1016A300F58322E4732518C582C0E0E51934FFC52C
:1016B30083C0E0E518C3958224F810AF0885831929
:1016C3008582188008858319858218D2AFCEF0A34E
:1016D300E520F0A37808E608F0A3DEFAEFF0A3E52F
:1016E3008124FAF8E608F0A3E608F0A3E608F0A3DD
:1016F3000808E608F0A3E608F0A315811581D0E0F9
:10170300FED0E0F8158115811581E8C0E0EEC0E058
:10171300222518C582C0E0E51934FFC583C0E0E582
:1017230018C3958224F910AF088583198582188020
:1017330008858319858218D2AFCEF0A3E520F0A3E4
:101743007808E608F0A3DEFAEFF0A3E58124FBF8BE
:10175300E608F0A3E608F0A30808E608F0A3E60805
:10176300F0A315811581D0E0FED0E0F81581158135
:10177300E8C0E0EEC0E022851983851882E0A3FE6D
:10178300E0A3F5207808E0A3F608DFFAE0A3FFE082
:10179300A3C0E0E0A3C0E0E0A3C0E0E0A3C0E0E0BA
:1017A300A3C0E010AF08858218858319800885825D
:1017B30018858319D2AFD083D0820201358519836E
:1017C300851882E0A3FEE0A3F5207808E0A3F608DD
:1017D300DFFAE0A3FFE0A3C0E0E0A3C0E0E0A3C022
:1017E300E0E0A3C0E010AF08858218858319800864
:1017F300858218858319D2AFD083D08222C0D025A9
:1018030018C582C0E0E51934FFC583C0E0E518C3FD
:10181300958224F310AF0885831985821880088583
:101823008319858218D2AFC8F0A3E9F0A3EAF0A325
:10183300EBF0A37908E709F0A3D8FAECF0A3EDF0F5
:10184300A3EEF0A3EFF0A3D0E0F0A3D0E0F0A3D099
:10185300E0F0A3E520F0A3E5F0F0A322851983854A
:101863001882E0C0E0A3E0F9A3E0FAA3E0FBA378C9
:1018730008E0F608A3DFFAE0FCA3E0FDA3E0FEA383
:10188300E0FFA3E0C0E0A3E0C0E0A3E0F5D0A3E065
:10189300F520A3E0A3F5F010AF088583198582181E
:1018A3008008858319858218D2AFD082D083D0E097
:1018B300F8D0E03274048006740280027401C0E040
:1018C300F404121681D0E0121557227404800474B4
:1018D300028000CCC0E0EDC0E0E518C39CCCAD199C
:1018E30050011D10AF068C188D1980068C188D19A8
:1018F300D2AF121564D0E0FDD0E0FC22D083D082B9
:10190300E9C0E0E493A3C386F0C5F095F0F908E4D9
:1019130093A386F0C5F095F0700BE493A3C39940AD
:1019230005E9048002A3E475F002A42582F582E5AB
:10193300F03583F583D0E0F9E493A3C0E0E493C0EA
:10194300E022D083D082ECC0E0EDC0E0E493A3FCBE
:10195300E493A3FDED4C600D121991EC24FFFCED13
:1019630034FFFD80EFE493A3FCE493A3FDED4C600F
:101973000D1219D0EC24FFFCED34FFFD80EFD0E015
:10198300FDD0E0FCE493A3C0E0E493C0E022C0E018
:10199300C3E49396087401939618400FE49366701A
:1019A3000808740193661870007019A3A3C3E49325
:1019B30096087401939618A3A3400DD0E0D0E0D00D
:1019C300E0021981A3A3A3A3A3A3D0E022C0E0C094
:1019D300F088F0E493667008087401936618700049
:1019E300A8F0A3A3700BD0F0D0E0D0E0D0E00219B0
:0819F30081A3A3D0F0D0E02293
:1019FC0074F5121714EAFEEBFFEE2434F8EF340002
:101A0C00F988088909EE2435F582EF3400F583E076
:101A1C00F8EE2437F582EF3400F583E0F50AEC8517
:101A2C000AF0A4FCAAF0850AF0EDA42AFDE82CF833
:101A3C00E43DF97A257B001215C6EA8508828509F2
:101A4C0083F05407F87401B800028004C333D8FC47
:101A5C00C0E0E0131313541FF8EE28F8EF3400F92C
:101A6C00E8245DF582E93400F583D0E0F8E05860B5
:101A7C0008EE2434F582EF801EEE2436F582EF3426
:101A8C0000F583E0F5F0EA84A8F0EE28F8EF3400D6
:101A9C00F9E82438F582E93400F583E0F97F040293
:101AAC0017C074F5121714EAFEEBFFEE2434F5821E
:101ABC00EF3400F583E0C0E0EE2435F582EF34001E
:101ACC00F583D0E0F08E828F83A3A3A3A3A3A3A35B
:101ADC00C082C0838E828F83A3A3A3A3A3E0F8A3A9
:101AEC00E0F9D083D082E0C398F508A3E099F5091A
:101AFC00EE2480F582EF3400F583E064017069EE2A
:101B0C002481F582EF3400F583E0F8A3E0F98E82AE
:101B1C008F83A3A3A3A3A3A3A3E0FCA3E0FD8E82C6
:101B2C008F83A3A3A3A3A3E0FAA3E0FBC3EA9CEBDC
:101B3C009D5027C3EC98ED99402EC3EA98EB995031
:101B4C00277CFD7D04EEFAEFFB120B7AEE2480F578
:101B5C0082EF3400F583E4F0800EC3EA98EB9940F1
:101B6C00E0C3EC98ED9950D9EE2434F8EF3400F939
:101B7C00E8FCE9FDEE2435F582EF3400F583E0F85E
:101B8C00EE2437F582EF3400F583E0F50AE508859D
:101B9C000AF0A4F508AAF0850AF0E509A42AF509CB
:101BAC00E82508F8E43509F97A257B001215C6EA10
:101BBC008C828D83F05407F87401B800028004C342
:101BCC0033D8FCC0E0E0131313541FF8EE28F8EFE1
:101BDC003400F9E8245DF582E93400F583D0E0F8AF
:101BEC00E0586008EE2434F582EF801EEE2436F5C2
:101BFC0082EF3400F583E0F5F0EA84A8F0EE28F8E3
:101C0C00EF3400F9E82438F582E93400F583E0F983
:101C1C001224A9021AA9C082C0838518828519834F
:101C2C00E0F8A3E0F9C3EA9CEB9D5012C3EC98EDED
:101C3C00994019C3EA98EB99501279018010C3EAC4
:101C4C0098EB9940F5C3EC98ED9950EE7900D08360
:101C5C00D08222EAC39CFAEB9DFB2200852187856A
:101C6C0022C622C0E0C0D0E8C0E0E9C0E0EAC0E093
:101C7C00EBC0E0ECC0E0EDC0E0C008C009C00AC099
:101C8C000BC082C083C0F0759B00906182E0A2E61D
:101C9C004003021D4DE591A2E64003021D4D7591D6
:101CAC00BF9003C2E064057008120CB2120CBE8027
:101CBC0003120CB8752100120D18E99003C3F079CA
:101CCC0000120D0C120AF07A017B009003C1E0F9AE
:101CDC00120FDC907803E064426003021D969005BD
:101CEC005FE014F06003021D96C2AF121CFA00787C
:101CFC002AD0E0F618D0E0F6E59F5407F97005906D
:101D0C0081A580039081557808121521E9C4C0E0A3
:101D1C007829E65508F50808E65509F509740B7895
:101D2C000812162FD0E02508F8906270E0A2E74068
:101D3C00F8E8C333906272F0906270E0D2E0F08009
:101D4C0049E0A2E55024E591A2E5501E7591DF9083
:101D5C0003C2E0640D70139003E4E004F064287097
:101D6C0002E4F07A00E0F9120D8A906181E0A2E3BE
:101D7C005009E5E9A2E3500375E9F7A3E0A2E750A7
:101D8C0009E591A2E7500375917FD0F0D083D08202
:101D9C00D00BD00AD009D008D0E0FDD0E0FCD0E0C8
:101DAC00FBD0E0FAD0E0F9D0E0F8D0D0D0E032C0EF
:101DBC00E0C0D0C082C083906183E0A2E05009E50E
:101DCC00BFA2E0500375BFFEE0A2E15009E5BFA23F
:101DDC00E1500375BFFDE0A2E25009E5BFA2E2505D
:101DEC000375BFFBE0A2E35009E5BFA2E350037506
:101DFC00BFF7E0A2E45009E5BFA2E4500375BFEFC2
:101E0C00E0A2E55009E5BFA2E5500375BFDFE0A2F3
:101E1C00E65009E5BFA2E6500375BFBFD083D08260
:101E2C008088C0E0C0D0E8C0E0E9C0E0EAC0E0EBE8
:101E3C00C0E0ECC0E0EDC0E0C0F0E5A7A2E6500FBA
:101E4C00E5A1A2E6500953A7BF75A1BF121E93E5E9
:101E5C00A7A2E5500CE5A1A2E5500653A7DF75A19A
:101E6C00DFE5A7A2E15009E5A1A2E1500375A1FDB0
:101E7C00E5A7A2E2500CE5A1A2E2500653A7FB7520
:101E8C00A1FBD0F0021DA474F81217147521019057
:101E9C0003C2E064067015120C468A828B83A3A3DE
:101EAC00A3A3A3A3E0FAA3E0FB120CA0A2AFE4331C
:101EBC00FED2AF9003C8E0640170187A207B0090CA
:101ECC0003C1E0F91210667A207B009003C1E0F99F
:101EDC00120FE2906182E0D2E6F090055EE06021A4
:101EEC0085C62280169003C7E064017008E5C654CD
:101EFC00F84405F5C653BEFC121C687401652160DC
:101F0C00E4EEA2E092AF7F010217C0008E238F2473
:101F1C00858228858327851882851983E0CEA3E0E6
:101F2C00CF852882852783EBC9EAC8EDCBECCA752F
:101F3C00F010C3E833C8E933C9EA33CAEB33CBC377
:101F4C00EA9EF526EB9FF525B35004AB25AA26ECAB
:101F5C0033CCED33CDD5F0DAAE23AF242274EB12B3
:101F6C00171474FA1216518A088B098C148D15905B
:101F7C0003C2E024F7C3940550069081ED0220CBF8
:101F8C00120C468A0A8B0BAE0AAF0BEE4F70030293
:101F9C0020C8AC08AD09851882851983AA82AB8349
:101FAC00120CD08E828F83A3A378081215219081F6
:101FBC00BD78081214FB851882851983780C1215CC
:101FCC00219081BD780C1214FB7808790C12133314
:101FDC00501F7808790C1214D39081717808121361
:101FEC00534047850810850911850A12850B13800B
:101FFC0041850C10850D11850E12850F1378107903
:10200C00081214D39081717810121353501C751050
:10201C00007511007512007513017810790C1214EB
:10202C00D37810790812149A80089081ED781012E8
:10203C0015217409781012147B9081CD7808121533
:10204C0021781079081213F28E828F83A3A3A3A395
:10205C00A3A3E0F8A3E0F97AD07B031215C6880895
:10206C008909E4F50AF50B7810790812149A7404AE
:10207C0012169CE0F8A3E0F97AD07B031215C6E89F
:10208C00FA8A08E4F50978107908121333500778A6
:10209C001079081214D39003C2E06408600AE0645B
:1020AC00066005E06405701C90817578101213535E
:1020BC00501290817978101214AD800890819D781F
:1020CC001012152185148285158378101215307421
:1020DC00061216677F0E0217C074F7121714120C33
:1020EC00E290055CE064017010906245E4F0A3F0AE
:1020FC0053F4F343FE0C5390F3120C8EE5C654804C
:10210C004449F5C6E59E547F644970F89061857426
:10211C000FF090055AE0F47002A3E0604E90055B5E
:10212C00E0600814601B14602E804075080175096E
:10213C000090055AE0780812163EE508F4528080AB
:10214C002A75080175090090055AE0780812163EA8
:10215C00E508F45290801475080175090090055A31
:10216C00E0780812163EE508F452A079007F0202CE
:10217C0017C074F7121714E9FEEAFF74016E700CA5
:10218C007A807B009003C1E0F9120FDC902508E403
:10219C0093F46008E493F9120AE4800953C680E5CD
:1021AC009E547F70FA120C9490055CE064017003ED
:1021BC00120AFC90055AE0F47002A3E0604B900503
:1021CC005BE0600814601A14602C803D7508017582
:1021DC00090090055AE0780812163EE50842808006
:1021EC002875080175090090055AE0780812163E0A
:1021FC00E5084290801375080175090090055AE0B6
:10220C00780812163EE50842A0120CE2120C468A1F
:10221C00088B09A808A909E8496015E5E170FCE8F4
:10222C002414F582E93400F583E0F46003E0F5E171
:10223C0074016F700A7A019003C1E0F91210300238
:10224C00217974F11217148A088B098C0A8D0B747E
:10225C000F12169C780C1215219081BD780812145F
:10226C00FB9081BD780C1214FB7808790C12133397
:10227C0050157808790C1214D390817178081213C8
:10228C0053401579018013780C79081214D390817E
:10229C0071780C12135340EB79007F080217C0744D
:1022AC00ED1217148A088B098C0A8D0B74131216F5
:1022BC009C780C1215219081BD78081214FB90812A
:1022CC00BD780C1214FB780C79081213334011787A
:1022DC0008790C1214D3AA08AB09AC0AAD0B8022F6
:1022EC007510007511007512007513017810790CBA
:1022FC001214D37810790812149AAA10AB11AC12DC
:10230C00AD137F0C0217C09081BD78081215218A7D
:10231C00828B83780812150E7F040217C074F51295
:10232C0017148C828D8378081215218A828B8378FE
:10233C00081214E7EA2404F8EB3400F98C828D833C
:10234C00A3A3A3A3E0FCA3E0FD88828983C3E09C44
:10235C00F0A3E09DF088828983C3E09420A3E094ED
:10236C004E40229081E178081215218A828B837865
:10237C00081214C08A828B83A3A3A3A3E02420F0A9
:10238C00A3E0344EF0808074F5121714E9FE90052A
:10239C0014E0FAA3E0FBEEC333F8E433F974E92854
:1023AC00F582748039F583E02AF508A3E03BF50942
:1023BC0078081218BB9081F512153F121F18740281
:1023CC001216678A088B098C0A8D0B741078081208
:1023DC001462AA08AB097F040217C074F112171417
:1023EC008A0C8B0D8C0E8D0F740F12169CE0FAA3B9
:1023FC00E0FB741112169CE0F508A3E0F5097413C8
:10240C0012169CE0FEA3E0FF78081218BBEA240128
:10241C00F508EB3400F509E4F50AF50B780C7908AE
:10242C001213729081857808121521780C79081294
:10243C001372AA0CAB0DAC0EAD0F121F1874021256
:10244C0016678B09EA450960047A0180027A00EC70
:10245C002AFCED3400FDECF8EDF97A717B021215D3
:10246C00C688088909E4F50AF50B8E828F837808F3
:10247C00121530ECF8EDF97A717B021215C68A0848
:10248C008B097405780812163E8E828F83A3A3A342
:10249C00A3E508F0A3E509F07F080217C0C082C0CD
:1024AC0083E9906000F0D083D08222C0E074F212F5
:1024BC001800A2AFE433FED2AFE589A2E04006E5F6
:1024CC0089A2E150031211B0758900758900C2C54B
:1024DC00751A00EEA2E092AF7F0102185FC0E0C057
:1024EC00D0E8C0E0E5A8D2AFC2C7751A00A2E79247
:1024FC00AFD0E0F8D0D0D0E032020135FFFFFFFFC3
:10250C00FFFFFFFFC082C083E9900A01F002272F72
:10251C0074F71216A8E99002E0F07C187D037AFF9C
:10252C007BFF1208209002E174FFF0A3F0A3E4F00B
:10253C00A3F079051207AE9002E0E0F91206DC7AFE
:10254C00387B081209FA02343D74F41216A88A0872
:10255C008B09EB548060309002E0E0F9120FC48AD2
:10256C000A8B0BAE0AAF0BEE4F60138E828F83E09B
:10257C0064B070031207C0EEFAEFFB120FB2AA0898
:10258C00E5096480FB80047A007B000226FE74F26D
:10259C001216A874FC121651EAFEEBFF74121216F6
:1025AC009C123924EE4F700302263D740212169CC5
:1025BC00EEF0A3EF122939ECF0A3ED122939AA821F
:1025CC00AB831206D6E9F50A706AE5084509606422
:1025DC008E828F8312390AEE4F60567A067B001278
:1025EC0010188A0C8B0DA80CA90DE8497005750AFA
:1025FC0013804188828983E412264AEEF0A3EF12FD
:10260C003935E508F0A3E509F09002E61226D190E1
:10261C0002E670051233E7801B1233D58003EAFC07
:10262C00EBFD8C828D831226D170F38C828D83808E
:10263C00E3750A02A90A7404121667023B24F0A37C
:10264C001238DBA32274F21216A8890AE975F01766
:10265C00A4FEAFF09002E5E4F09002E31226D16004
:10266C000A12101E9002E3E4F0A3F0EEFAEFFB1254
:10267C0010188A088B09EA4509602FEEFCEFFD79EA
:10268C0000120FA09002E3E508F0A3E509F07B002F
:10269C0080081226BBE4F0A3F00BEBC3950A40F2C2
:1026AC00E50A9002E5F0790080027913023B24EBF5
:1026BC0075F017A4F8A9F09002E3E028FAA3E0392A
:1026CC008A82F58322123079EA4B2274F41216A80E
:1026DC007900EAA2E0501B7508327509817808125E
:1026EC0018BB7C047D007A037B0A1207A8740212C3
:1026FC0016677F0402177AC082C0839002E6122705
:10270C0036601C88828983A3A3E06A7003A3E06B04
:10271C008882898370E8A3A3A3A312307580047AFE
:10272C00007B00D083D082020135123C0AE849229A
:10273C0074EE1216A874FC121651EAFEEBFF851803
:10274C0082851983E4F0A3F0EE24021233C7EE2441
:10275C00051238E2EE2404F50EEF122CEEE024FE06
:10276C00603924FC604624FE605224FE605E24FE28
:10277C00700302284F24FE70030228B324FE70035A
:10278C000228C224FE70030228D124FC7003022804
:10279C00E024FE70030228EF02292C9002FF74172C
:1027AC00F0A3E412294112045A02292C85188285BF
:1027BC001983AC82AD831207C60228FC851882856A
:1027CC001983AC82AD831207CC0228FC850C0885DA
:1027DC000D09740212169CAC82AD838508828509A2
:1027EC00831230751206FA8A0C8B0DAC0CAD0DEC05
:1027FC004D603BE4F50CF50D780C1218BB750CFF15
:10280C00750D02780C1218BB750C00750D03780C45
:10281C001218BB740812169C1218D2123C2E1216E7
:10282C0067E9F50C700B12306B120472800F750C8B
:10283C000185088285098312292F1233E7850C083C
:10284C000228FF740212169CAC82AD83850C828523
:10285C000D83122E40603C850C82850D83A3A31240
:10286C0018D27510FF75110278101218BB75100074
:10287C0075110378101218BB740812169C1218D21A
:10288C00123C2E121667E9F509700B12306B12040C
:10289C0078800F750901850C82850D8312292F1202
:1028AC0033E7850908804C851882851983AC82AD85
:1028BC00831207D2803A851882851983AC82AD8346
:1028CC001207D8802B851882851983AC82AD8312B0
:1028DC0007DE801C851882851983AC82AD831207B4
:1028EC00E4800D851882851983AC82AD831207EACA
:1028FC00E9F508E50860298E828F83A3E0641460F3
:10290C001F850E82850F83E09002FF122939123C3D
:10291C00069003001233E7E508A312294112045470
:10292C000232D6123C0A85188285198322F085184A
:10293C008285198322F07CFF7D02850A82850B83B8
:10294C001230792274EE1216A874FC1216518A0AEF
:10295C008B0B8C0E8D0FEA2405F508EB3400F50972
:10296C007C157D0079007AFF7B02120FA0E508240C
:10297C0002F50CE5091238E58518828519838582E4
:10298C001085831178101218BB850882850983A3E2
:10299C00A3A3A3122E371218BBE5082405F510E5E6
:1029AC00093400F51178101218BB850C82850D8343
:1029BC0012318C1206F474061216678A108B11AE43
:1029CC0010AF11E50A2402F50AE50B1233CAEE4FDB
:1029DC007003022B0E8017740212169C123075882D
:1029EC00828983EAF0A3EBF09002FFE004F09002FE
:1029FC00FFE0C394054003022B0EE4F510F51178AB
:102A0C00101218BB7510E875110278101218BB75EE
:102A1C0010E975110278101218BB740612169C126C
:102A2C0018D27910EEFCEFFD123C30121667E970EB
:102A3C005E850882850983A3A3A3A3A3A3A3E0F8BF
:102A4C009002E8E0687048122E371218BB7CE97DC2
:102A5C0002E5082408FAE5093400FB120F9A740207
:102A6C00121667E960298E828F83A3A3A3A3123069
:102A7C00759002FFE0F5107402781012163E740087
:102A8C002510F58274033511F583EAF0A3EBF0748D
:102A9C000212169C85821085831178101218BB7453
:102AAC000212169C1218D2850C82850D8312309B53
:102ABC001216678A108B11AE10AF119002FFE0F561
:102ACC00107511007402781012163E74FF2510F860
:102ADC0074023511F988828983A31226D1700302FE
:102AEC0029DAE82403080808E93400F9EE4F6003FA
:102AFC000229E38882898374FFF0A3F09002FFE03F
:102B0C0004F09002FFE0600A12306B120466790048
:102B1C00800B8508828509831233DE790A0232D64E
:102B2C0074EA1216A874FE1216518C128D13EA2434
:102B3C0005F50CEB123C1812390E750800750900DE
:102B4C00EA2402F510EB3400F511851882851983FF
:102B5C0085820A85830B780A1218BB850C82850D39
:102B6C0083A3A3A3A3122D041218BBE50C2405F513
:102B7C000AE50D1233CA780A1218BB850C82850D32
:102B8C0083122D081206F474061216678A0A8B0B30
:102B9C00EA450B7003022CA9EA2404F50EEB122C67
:102BAC00EE12390E8A828B83A3A3A3E0F9851082DF
:102BBC0085118312307F6003022CA9E4F514F515FE
:102BCC0078141218BB7514E875150278141218BB1A
:102BDC007514E975150278141218BB740612169C3C
:102BEC001218D27913AC0AAD0B85108285118312A1
:102BFC003C36121667E9F5096003022CA99002E82D
:102C0C00E0F8E5087009E02402900300F0801490CD
:102C1C000300E0FCE82402FAE43400FBEA6C7001E7
:102C2C00EB707E850882AA82122E2E9414122E2608
:102C3C00506B850E82850F83E0C0E074012A122C44
:102C4C00E5D0E0F00508850E82850F83A3E0C0E097
:102C5C0085080A7401250A122CE5D0E0F0050890CD
:102C6C0002E8122D041218BB7CE97D0285080A7457
:102C7C0001250A122CF81216679002E8E02508F5D7
:102C8C000874FF6E700374FF6F6012EE24010EEF78
:102C9C003400FFE508C394145003022B56E508607A
:102CAC001312308985108285118312307512046CD1
:102CBC0079008014E509700375090A851282851361
:102CCC0083EEF0A3EFF0A90974021216677F0E02CF
:102CDC00177A85080C7401250CF58274033400F501
:102CEC0083223400F50F850E82F58322FA740334A7
:102CFC0000FB120F8874022212394422A3A3122D56
:102D0C000E221233D5FDEEFAEFFB2274EE1216A84A
:102D1C0074FE1216518C0E8D0FEA2405F50CEB1275
:102D2C0038E5750B009002FFE4F0F50AEA2402F591
:102D3C0008EB3400F50980449002FFE0FA9002E8B9
:102D4C00E0F8122E2E9417122E26400D9002FFE062
:102D5C00F87416C3989002E8F0122E371218BB7C48
:102D6C00E97D0274002AFA7403122CFB1216679088
:102D7C0002E8E0F89002FFE028F0050AE50C2416C2
:102D8C00F582E50D122CE9E0F8E50AC39850749031
:102D9C0002FFE0C39416506BE50AC333F8E433F931
:102DAC00E50C28FEE50D39FF851882851983AC8268
:102DBC00AD838E828F83122E407008750B011233F7
:102DCC00DA8050E4F510F51178101218BB7510E884
:102DDC0075110278101218BB7510E9751102781074
:102DEC001218BB740612169C1218D279168508821A
:102DFC00850983123C36121667E9F50B7003022D18
:102E0C004480BB7CFF7D0285088285098312307566
:102E1C0012047EA90B74020232D8E99400C365D067
:102E2C003322EA28F8E43400F9E822E0F5107511B1
:102E3C00007810221232CD8A108B11AC10AD11EC2F
:102E4C004D2274EA1216A874FC1216518A0C8B0DC2
:102E5C008C128D13EA2405F50AEB1233CA7508009F
:102E6C00750900E50A2402F510E50B3400F5117420
:102E7C000212169C85820E85830F780E1218BB8564
:102E8C000A82850B83A3A3A3A31238EA1218BBE50D
:102E9C000A2405F50EE50B3400F50F780E1218BB5D
:102EAC008510828511831233D012306F1206F474A0
:102EBC00061216678A0E8B0FAE0EAF0FE50C2402AE
:102ECC00F50EE50D3400F50F80388882898374FF88
:102EDC00F00508122CDE74FFF005089002E8E0F50E
:102EEC000C750D00780C1218BB7CE97D0285080C62
:102EFC007401250C122CF81216679002E8E02508D4
:102F0C00F508EE4F60278E828F83A3A3A3E0F9858B
:102F1C000E82850F8312307FEE24041238E2E960B2
:102F2C0027850C82850D831230611233E7E508701A
:102F3C0003023047123089850E82850F831230755B
:102F4C00120484790002305CE4F514F5157814123F
:102F5C0018BB7514E875150278141218BB7514E9B2
:102F6C0075150278141218BB740812169C1218D21C
:102F7C007911EEFCEFFD850E82850F83123C361223
:102F8C001667E9F509709A850882AA82EA9002E828
:102F9C007009E02404900300F08025E0F890030011
:102FAC00E0F514E82404FCE43400FDEC6514700135
:102FBC00ED7081122E2E9412122E264003022F40F9
:102FCC00850C82850D83E0C0E074012A122CE5D0BB
:102FDC00E0F00508850C82850D83A3E0C0E0122C7F
:102FEC00DED0E01230A485820C85830D780C12188B
:102FFC00BB740412169C1218D28510828511831290
:10300C00309B1216678A0C8B0DAE0CAF0D85080C1D
:10301C007401250CF874033400F9EE4F7003022E82
:10302C00D6851882851983E0888289831230A4A3FF
:10303C00E0C0E0122CDED0E0022EE4E5097003754E
:10304C00090A850A82850B831230611233E7A909BC
:10305C007404022CD6123C0A851282851383227CBE
:10306C00FF7D02850A82850B8312307922E0FAA358
:10307C00E0FB221230791206E2E9F50922900300F6
:10308C00E0F5F0E508849002FFF07CFF7D0222124F
:10309C002D0E120700740422F0050885188285197C
:1030AC00832274EC1216A874FE1216518A088B092E
:1030BC008C0E8D0FEA2405FEEB3400FF1232B7EEB6
:1030CC0024181238E2EA450B700302315A1232A06E
:1030DC00502912317F8A108B11EA4511606B7912DD
:1030EC00AC0AAD0B85088285098312307585108278
:1030FC008511831216A6E9F50A7058E4F50AF50B4A
:10310C00780A1218BB8E828F83A3A3E0F50A780A83
:10311C001218BBEE24031233C7780A1218BB8E8226
:10312C008F8312318C12080E7406121667E9F50A99
:10313C007021850C82850D83E0701F8508828509BE
:10314C008312307512048A8011750A0E8009750A73
:10315C00018004E50A60031233DA850C82850D8345
:10316C00E0600479008002A90A74021216677F0CD1
:10317C0002177A8518828519831230791207FC227E
:10318C001233D5FD8508828509831230792274EEBD
:10319C001216A874FE1216518A088B098C0C8D0D10
:1031AC00EA2405FEEB3400FF750E001232B7EA4537
:1031BC000B700302327E1232A0502C12317F8A0E19
:1031CC008B0FEA450F604A7912AC0AAD0B85088269
:1031DC00850983123075850E82850F831216A6E938
:1031EC00F50E60030232818508828509831234BC96
:1031FC00AA0AFB12329270147AFF7BFF1232926091
:10320C006C88828983E50AF0A3E50BF0750A0080CF
:10321C0007750E0E805F050A9002E5E0FAE50AC319
:10322C009A504AE50A75F017A4FAABF088828983A4
:10323C00A3A3E02AFAA3E03BFB8A828B831233D050
:10324C00EC4D70D2750A17750B00780A1218BBEE8C
:10325C00FCEFFD120F887402121667EEFCEFFD8571
:10326C0008828509831230751204908014750E093A
:10327C008003750E01123C02850C82850D8312337E
:10328C00E7A90E022E211207F08A108B11A810A9A3
:10329C0011E84922E5082402F508E5093400F5098E
:1032AC008A828B83A3A3A3E0A2E5228518828519C9
:1032BC0083AC82AD838E828F831232CD8A0A8B0BC4
:1032CC0022E0FAA3E0FB1206FA2274041216677FBE
:1032DC000A02177A74EC1216A88C108D11EA2405C8
:1032EC00F50CEB1238E5750F00EA2402F50AEB1227
:1032FC0033CA850A82F583123075123CBC70030206
:10330C0033BC750E008071850C82850D83E06401E1
:10331C00704F8E828F83A3A31218D28E828F83A3B9
:10332C00A3A3A3E0F51275130078121218BBEE24B8
:10333C0005F512EF3400F51378121218BB12306F2A
:10334C0012080E7406121667E9F50F6014850C82CC
:10335C00850D83E4F0123C028510828511831233B3
:10336C00E77C177D007900EEFAEFFB120FA08E823E
:10337C008F83E4F0A3F0050E9002E5E0F8E50EC3B0
:10338C0098501EE50E75F017A4F8A9F085088285F3
:10339C000983A3A3123C221233D0EC4D60030233F9
:1033AC001385088285098374FFF0A3F0E50F70067E
:1033BC0012306F120496A90F02317AF50AEF34001D
:1033CC00F50B22A31233D5FD22E0FCA3E0228E8262
:1033DC008F83123C0A850E82850F83E8F0A3E9F0F7
:1033EC0022C082C0839002E1E06A7003A3E06B709C
:1033FC00067AE17B0280047A007B0002272F74F7A7
:10340C001216A87F00EF75F003A4F8A9F0EC28F8C9
:10341C00ED39F988828983E06A7003A3E06B70064A
:10342C00E8FAE9FB800B0FEFC3940240D87A007BDB
:10343C00007F0102177A74F61216A81239F370067F
:10344C007A007B008007A3A3A3A3123075023AB4C1
:10345C0074F21216A8E9FE740E12169C1234BC7487
:10346C001012169C1239248C828D83E06402703BFE
:10347C00A3123C0688828983E0F50CA3E0F9A80C22
:10348C0074026870037429697021750C02750D0043
:10349C00780C1218BB78081218BB780A1218BBEEFD
:1034AC00F9120832740612166780027901023B2465
:1034BC00E0F50AA3E0F50B2274E81216A874FB12CF
:1034CC001651E9851882851983F08A168B178C0E94
:1034DC008D0F741F12169C123924742112169C1213
:1034EC0034BC742312169C12390E7510008C828D0C
:1034FC0083A3A3A3E0A2E4502A741D12169C1231DC
:10350C00858A828B83E582458370030235D0790AE4
:10351C00AC0EAD0FAA16AB171216A6E9F510600388
:10352C000235D3850E82850F83E064026003023876
:10353C0089A3123C06850882850983A3858212859E
:10354C008313E50E2406F50CE50F1238E588828905
:10355C0083E0FAA3E0F9EA2400F514E439F51578D0
:10356C00141219450100002801289835070002287B
:10357C006F360328DF35002999370129C137022915
:10358C0068370329993704292A388938EE4F703E59
:10359C00850C82850D831238FFFAE9FB8A828B83B6
:1035AC00E0850A82850B8312393B1218BB8A828B09
:1035BC0083A31233D5FDAA08AB09120F887402122B
:1035CC001667800375100EA9107405023C10751057
:1035DC000B80F4EE4F70F7850A82850B837401F033
:1035EC00123914850882850983F07C007D00850ED4
:1035FC0082850F83A3A3A3A3E02401FAA3E03400E4
:10360C00FB1206FAEA4B60418A828B83E02402F8B3
:10361C00850A82850B83E028F0EA2404F8EB340059
:10362C00F988828983E085128285138312394D12C1
:10363C00393B1218BB8A828B831233CFE5082403E3
:10364C00FAE5093400FB0235C6850A82850B83E056
:10365C002404F07C047D007900AA12AB13120FA095
:10366C000235D3EE4F60030235DA123914FEA3E0B3
:10367C00FF850A82850B837404F0EE850882850928
:10368C0083F0EF851282851383F0740312169CACC1
:10369C0082AD83EEFAEFFB1239E170030237458AF3
:1036AC00828B83A3A312390A740112169C85820E95
:1036BC0085830F780E1218BB740512169C1218D243
:1036CC007CFF7DFF12070074041216678B0FEA450E
:1036DC000F7033850C82850D831238EA1218BB8566
:1036EC000C82850D83A31218D27C027D007A057B97
:1036FC008212052C7404121667E9700A74011216F2
:10370C009C74FFF0A3F08E828F83E064027034759A
:10371C000C02750D00780C1218BB8E828F8312333D
:10372C00CFE5082404FAE509122CFB121667850A6A
:10373C0082850B83E024028009740112169CEEF042
:10374C00A3EFF0740112169C1238FBF074011216E0
:10375C009CA31238F3A3A3A3F00235D3EE4F60035E
:10376C000235DA850C82850D831233D0AA16AB177D
:10377C00120826850A82850B837402F0EA8508827A
:10378C00850983F0851282851383EB80CBEE4F6025
:10379C00030235DA123914F8A3E0F9850A82850B95
:1037AC00837402F0E8850882850983F0E98512822A
:1037BC0085138380A3850C82850D83123075120FBF
:1037CC0082EAFC8C82A882C39EE49F404BE86E7018
:1037DC0001EF70047C00801F851882851983E0FA44
:1037EC00EE2AFAEF3400FBC3EA98EB94005003E0A6
:1037FC008004EECCC39CFCEC850A82850B83F08C98
:10380C000A750B00780A1218BB850C82850D83E0B3
:10381C002EFCA3E03F0235C17510070235D3EE4FE5
:10382C0060030235DA850C82850D83123C06850A0D
:10383C0082850B837407F0888289831238F31238DF
:10384C00DBE0851282851383F0E82402FAE9340068
:10385C00FB8A828B831238F312392C1238FBA31299
:10386C003935123904F0E82405F8E93400F9888276
:10387C008983123904A312394DA3023761741D12C6
:10388C00169C1239EC70030235D0123C06880C8958
:10389C000DE8450D70030235D08E108F1178101283
:1038AC0018BB780A1218BB78081218BB74061216CB
:1038BC009CE0F9AC0EAD0FAA16AB17850C82850DEA
:1038CC00831216A67406121667E9F5100235D3F0AA
:1038DC0088828983A322F50CEF3400F50D22E0F5E4
:1038EC000E750F00780E22E085088285098322125E
:1038FC00395422123C0AE822123954A3A322A3A35E
:10390C00A3A3E0FEA3E0FF22850C82850D83E0F8E3
:10391C00A3E0F5838882E022E0F508A3E0F5092214
:10392C00A3A3F08A828B83A32212264CA3A322F09A
:10393C008A828B8312394422E0F50A750B00780ACF
:10394C00221238DB12395422E0850882850983A3C0
:10395C00A32274EE1216A874FE1216518A0A8B0B4F
:10396C00ECFAEDFB741412169CE0F510A3E0F511C3
:10397C00741612169CE0FE741812169CE0F50EA339
:10398C00E0F50F851882851983AC82AD831239E17D
:10399C00603E8518828519831239EC602FA3A3121F
:1039AC003924E50845096024780E1218BB781012EA
:1039BC0018BBEEF9AC0CAD0DAA0AAB0B85088285D1
:1039CC0009831216A674041216678006790E8002FB
:1039DC007901022E211206FA8A0C8B0DEA450D2272
:1039EC001230791239F3221207BA8A828B83E5825C
:1039FC0045832274F61216A874FE121651740C121A
:103A0C00169C1238FF851882851983F074011216E2
:103A1C009CE9F0E4F508F50978081218BB75080262
:103A2C0078081218BB740412169C858208858309C9
:103A3C0078081218BB12080E74061216677402125C
:103A4C001667806474F71216A8EAFEEBFF89087CEF
:103A5C00187D03120826EA5402600BA908EEFAEF4F
:103A6C00FB1206EE8002790102343D74F61216A8A0
:103A7C0074FF6A700374FF6B701C7B00EB75F003B2
:103A8C00A4F8A9F0EC28F8ED39F9123AB90BEBC30C
:103A9C009402501480E61207F68A088B09A808A92C
:103AAC0009E8496003123AB97F0202177A888289C1
:103ABC008374FF12264AE4F02274F61216A8120739
:103ACC00F68A828B83E58245836006A3A3E0FA80A5
:103ADC00027A007B0080D174F21216A88A088B0936
:103AEC00ECFEEDFF740E12169CE0F50A123B2970E9
:103AFC001CEEFCEFFD7AFF7BFF123B297004791161
:103B0C00801688828983E508F0A3E509F08882890C
:103B1C0083A3A3E50AF079007F0602177A1207F651
:103B2C008A0C8B0DA80CA90DE8492274EE1216A86C
:103B3C00EAFEEBFF8C088D09890C741212169C128C
:103B4C003C06741412169C1233D0741612169C1266
:103B5C003075750D00EC4D6003023BFA7402650C78
:103B6C006003023BF5888289831233D5F9EC24007B
:103B7C00F50EE439F50FEAF4F8EBF4F9EC58F8E546
:103B8C000F59F9E849705DE5082406F8E509340099
:103B9C00F9880A890B8882F583122D0A1208268A65
:103BAC00108B11E50E65107004E50F6511604278FD
:103BBC000E1218BB850A82850B83122D0A12082C53
:103BCC007402121667E9F50D7027780E1218BB8572
:103BDC000882850983A3A3122D0812083E740212D1
:103BEC001667800D750D808008750D0D8003750DA1
:103BFC000BA90D0232DB8E828F83123C0A22E0F875
:103C0C00A3E0F9221216677F1002177A3400F50D23
:103C1C00850C82F58322E028FEA3E039FF8E828F8B
:103C2C0083227916850A82850B8312307912080853
:103C3C0074082274F21216A8EAFEEBFF890B7401C9
:103C4C00650B600E7402650B70637901120A18E93A
:103C5C00705BEEFAEFFB123CBC6047750A00800B00
:103C6C007C177D007900120FA0050A9002E5E0F8A0
:103C7C00E50AC3985021E50A75F017A4F8A9F08558
:103C8C000882850983A3A3E028FAA3E039FB8A8282
:103C9C008B8312273670C985088285098374FFF0DF
:103CAC00A3F07C187D03EEFAEFFB120820023B24F4
:103CBC001207F08A088B09EA45092274F21216A839
:103CCC008A088B09ECFEEDFF740E12169C1234BCA4
:103CDC00900A01E0F4603D7A097B00120FACEA4BCC
:103CEC0060328A828B8374B1F0A3E412392EA31252
:103CFC00392CA3E508F0A3E509123D23EEF0A3EF60
:103D0C00123D23A3A3E50AF0A3E50BF0900A01E012
:103D1C00F9120FB8023B24F08A828B83A3A3A3A3CE
:103D2C00A322C082C0839061907404F0A37448F005
:103D3C00A37402F09061807440F09061BC7403F045
:103D4C009061877419F0906265741BF090619C749B
:103D5C000DF090619A7433F0A37455F09061A074D7
:103D6C003AF090055CE064017009C2919003C6744E
:103D7C006780059003C67461F090250EE493906102
:103D8C0086F0902508E493F46027E493540FF890A0
:103D9C006185E0686012E5C654804449F5C6E59E2D
:103DAC00547F644970F8E8F053C680E59E547F70E8
:103DBC00FA7905120D6C023F70C082C083E9540F72
:103DCC00F9906185E0696012E5C654804449F5C6F6
:103DDC00E59E547F644970F8E9F053C680E59E5423
:103DEC007F70FA023F70C082C083E5A8F853A87EAA
:103DFC00906181E4F0A3F0A3F0C2BA539AFEC28999
:103E0C00759B00C2C275E90075910075BF0075A95C
:103E1C001175B905906181F0A374C0F0A3E4F0D2E0
:103E2C00BA439A0174805842A8023F70C082C08382
:103E3C0074F81216519003C4E0F8A3E0F9E8497045
:103E4C0003023F669003C4E0544060237908851850
:103E5C0082851983AA82AB83120BD48518828519AB
:103E6C0083AA82AB831208AA9003C4E054BFF0E08B
:103E7C0054806010790C7A807B05120BD49003C4AB
:103E8C00E0547FF0E0A2E0503190619A7433F0A3DB
:103E9C007455F09061A0743AF090055CE064017088
:103EAC0009C2919003C6746780059003C67461F0D3
:103EBC001208B09003C4E054FEF0E054026031905C
:103ECC00619A743FF0A3745AF09061A0747FF090E3
:103EDC00055CE064017009D2919003C67471800591
:103EEC009003C6746AF01208B09003C4E054FDF05D
:103EFC00E05404601390250CE493906186F0120852
:103F0C00B69003C4E054FBF0E05408601390250D08
:103F1C00E493906186F01208B69003C4E054F7F075
:103F2C00E05410601390250EE493906186F0120813
:103F3C00B69003C4E054EFF0E05420600A1208B6C7
:103F4C009003C4E054DFF0A3E05401600D120AFCAE
:103F5C001208BC9003C5E054FEF07408121667807A
:103F6C0003F0A3F0D083D08202013574EC1216A8B2
:103F7C0074F4121651851882851983AC82AD837541
:103F8C00838175828D740412156490250C93F460F2
:103F9C0003024104907808E0C3940250030240E409
:103FAC00740412169CAC82AD837583817582227465
:103FBC0008121564851882851983858212858313EE
:103FCC00740412169CAC82AD83750EFF750FFF7FC7
:103FDC00FF7E00750C48750D78801574086E7003A3
:103FEC0002407774096E7003024077740A6E607B2E
:103FFC00850C82850D8378081215218C828D83A9FE
:10400C0009E50AC9F8881074187808121462E510CA
:10401C004508F8C3E098A3E099850C82850D837858
:10402C000812152140188C828D837418780812148C
:10403C0062E5104508F8E0C398F8A3E0801C7418FA
:10404C007808121462E5104508FAE9FB8C828D831E
:10405C00E0F8A3E0F9EAC398F8EB99F9C3E8950EF8
:10406C00E9950F5006880E890FEEFF0EE50C24041F
:10407C00F50CE50D3400F50DEEC394135003023F1F
:10408C00E774FF650E700474FF650F60238F08746E
:10409C0002780812163E74482508F58274783509A2
:1040AC00F5837808121521851282851383E508F0B3
:1040BC00EC24020C0CED3400FD851282851383A3D5
:1040CC00858212858313740C12169CE5826C700326
:1040DC00E5836D6003023FD575080175090078080A
:1040EC001218BB740212169CAC82AD837A437B0906
:1040FC0012118C7402121667740C1216677F0C0264
:10410C00177AC082C0839061AE7468F0A3746AF0B1
:10411C0090624574FBF0A304F053F4FD43FE02904F
:10412C00055C7401F09061A0E0643A90619A702390
:10413C007433F0A37455F09061A0743AF074016478
:10414C00017009C2919003C6746780289003C674ED
:10415C00618021743FF0A3745AF09061A0747FF0D9
:10416C00740164017009D2919003C674718005903A
:10417C0003C6746A023F6F7F0402177AC082C08341
:10418C0090050EE06401700A900513E06004790C50
:10419C0080027900023F70C082C08375E1F1900506
:1041AC0011E0605514600814605914605180591264
:1041BC000B0E900507E0F97A087B05120CEE908146
:1041CC008912153F120D249081D512153F120CFA4D
:1041DC00900512E0F9120D067901120D609005059B
:1041EC00E02416F8A3E03400F9888289837426F061
:1041FC00A3740BF07900023F70120B1480B4120BF5
:10420C001A80AF120B2080AA791280EA74F412166D
:10421C00A875D90D9004F6E0A2E0E4331313F890DE
:10422C000507E0C4333354C0484401F5D978057907
:10423C000588828983A3A3A3E0F5D988828983A307
:10424C00A882A983E8640B7003E9640570E378F62F
:10425C00790488828983A3E0F5D988828983A3A80D
:10426C0082A983E864FC7003E9640470E575E19548
:10427C009004F6E0F97AF77B04120CF4900A23749C
:10428C00BAF0A3740AF0A3741CF0A3740CF0A3741A
:10429C001CF0A3740CF0A3741CF0A3740CF0A374A6
:1042AC00C0F0A3740AF0A3741CF0A3740CF0A374F4
:1042BC00D8F0A3740AF0900A31741CF0A3740CF0BB
:1042CC00A3741CF0A3740CF0A3741CF0A3740CF076
:1042DC00A3741CF0A3740CF0A3741CF0A3740CF066
:1042EC00A3741CF0A3740CF0900505E0F8A3E0F5A2
:1042FC00838882A3A37808121521908181780812F3
:10430C0014AD9081BD78081214FB900505E0240EC5
:10431C00F8A3E03400F9888289837808121530906C
:10432C000505E02414F8A3E03400F988828983742D
:10433C0013F09003C27402F0024183C082C08390D8
:10434C000517E02407F5D9900507E0C4333354C0B2
:10435C00F5D97805790588828983A3A3A3E0F5D9DB
:10436C0088828983A3A882A983E8640B7003E9641B
:10437C000570E3900517E0601F78057905FAE824CD
:10438C0013F582E93400F583E0F5D988828983A39B
:10439C00A882A9831AEA70E6900537E02407F5D9BC
:1043AC00900507E0C4333354C04404F5D97805793B
:1043BC000588828983A3A3A3E0F5D988828983A386
:1043CC00A882A983E8640B7003E9640570E3900587
:1043DC0037E0601F78057905FAE82433F582E93473
:1043EC0000F583E0F5D988828983A3A882A9831A72
:1043FC00EA70E675E195900A2374C6F0A3740AF08E
:10440C00A3741CF0A3740CF0A3741CF0A3740CF034
:10441C00A3741CF0A3740CF0A374C0F0A3740AF082
:10442C00A3741CF0A3740CF0A374D8F0A3740AF05A
:10443C00900A31741CF0A3740CF0A3741CF0A374D8
:10444C000CF0A3741CF0A3740CF0A3741CF0A374F4
:10445C000CF0A3741CF0A3740CF0A3741CF0A374E4
:10446C000CF09081E112153F900505E0240EF8A3A5
:10447C00E03400F98882898312154B900505E024FD
:10448C0014F8A3E03400F9888289837412F0900345
:10449C00C27401023F6FC082C083900517E02407ED
:1044AC00F5D9900507E0C4333354C04402F5D978EC
:1044BC0005790588828983A3A3A3E0F5D98882892D
:1044CC0083A3A882A983E8640B7003E9640570E3F5
:1044DC00900517E0601F78057905FAE82413F5823A
:1044EC00E93400F583E0F5D988828983A3A882A9F1
:1044FC00831AEA70E675E195900A2374D2F0A374DE
:10450C000AF0A374D2F0A3740AF0A374D2F0A374CB
:10451C000AF0A374D2F0A3740AF0A374D2F0A374BB
:10452C000AF0A374D2F0A3740AF0A374D8F0A374A5
:10453C000AF0900A31741CF0A3740CF0A3741CF0F4
:10454C00A3740CF0A3741CF0A3740CF0A3741CF0F3
:10455C00A3740CF0A3741CF0A3740CF0A3741CF0E3
:10456C00A3740CF09081E112153F900505E0240E28
:10457C00F8A3E03400F98882898312154B90050565
:10458C00E02414F8A3E03400F9888289837414F0D1
:10459C009003C27404023F6FC082C083900517E081
:1045AC002407F5D9900507E0C4333354C04406F50D
:1045BC00D97805790588828983A3A3A3E0F5D988E6
:1045CC00828983A3A882A983E8640B7003E964053C
:1045DC0070E3900517E0601F78057905FAE824135D
:1045EC00F582E93400F583E0F5D988828983A3A8A4
:1045FC0082A9831AEA70E6900537E02407F5D99072
:10460C000507E0C4333354C04404F5D97805790563
:10461C0088828983A3A3A3E0F5D988828983A3A880
:10462C0082A983E8640B7003E9640570E390053795
:10463C00E0601F78057905FAE82433F582E9340047
:10464C00F583E0F5D988828983A3A882A9831AEA25
:10465C0070E675E195900A2374CCF0A3740AF0A36C
:10466C00741CF0A3740CF0A3741CF0A3740CF0A3D2
:10467C00741CF0A3740CF0A3741CF0A3740CF0A3C2
:10468C00741CF0A3740CF0A374D8F0A3740AF0900B
:10469C000A31741CF0A3740CF0A3741CF0A3740CFA
:1046AC00F0A3741CF0A3740CF0A3741CF0A3740C92
:1046BC00F0A3741CF0A3740CF0A3741CF0A3740C82
:1046CC00F09081E112153F900505E0240EF8A3E06F
:1046DC003400F98882898312154B900505E0241467
:1046EC00F8A3E03400F9888289837415F09003C232
:1046FC007403023F6FC082C083900505E0F8A3E00D
:10470C00F5838882A3A3A3A3A3A3E4023F6D74F74C
:10471C001216A89003F0E0F875F004A4C8AAF02AC9
:10472C00F974F228F8740339F9E82405FAE934002D
:10473C00FB8A828B83E0FCA3E0FD88828983A3A3A0
:10474C00A3A3A3A3A3A3A3ECF0A3EDF08882898376
:10475C00A3A3A3A3A3A3A3E024FFF8A3E034FFF92E
:10476C008A828B83E8F0A3E90249BF74F71216A87A
:10477C00EAFEEBFF9061D0E0600302485475D90E5D
:10478C0075D90375D904EE248CF582EF3400F583CA
:10479C00E5822408F8E5833400F9E0F5D9A3E8654F
:1047AC00827003E9658370F2EE2484F582EF3400A5
:1047BC00F583E5822404F8E5833400F9E0F5D9A308
:1047CC00E865827003E9658370F275E1957908EE0E
:1047DC00248CFAEF3400FB120BC87904EE2484FA13
:1047EC00EF3400FB120BC87C00EEF8EFF9ECFAC3C7
:1047FC00E49AFA95E0FBEE2AFAEF3BFBEA248BF500
:10480C0082EB3400F583E0C0E0E824ABF582E934B8
:10481C0000F583D0E0F00C88828983A3A882A98359
:10482C00ECC3940840C7EE2470F582EF3400F58396
:10483C00E0F8A3E0F9EE2472F582EF3400F583E89A
:10484C00F0A3E9F07901800279000249C0C082C06E
:10485C008375D90275D90375D90575E195EA24706C
:10486C00F582EB3400F583E0F8A3E0F9EA2472F565
:10487C0082EB3400F583E8F0A3E9F07901023F7094
:10488C0074F61216A8EAFEEBFF9005607406F0753C
:10489C00086075090578081218BB7C017903120CA5
:1048AC0010740212166775D90675D9037582607576
:1048BC008305E0F5D9A3E58264657004E58364059E
:1048CC0070F075E1959003C2E06408701EEE2470E0
:1048DC00F582EF3400F583E0F8A3E0F9EE2472F5ED
:1048EC0082EF3400F583E8F0A3E9F07901024A8CF9
:1048FC0074F61216A8EAFEEBFF9061D0E0706678B1
:10490C0001900560740BF09003C2E0640770197598
:10491C00086075090578081218BB7C017903120C24
:10492C001074021216677805740128F5D975D9032D
:10493C00758260758305E8FAE0F5D9A31AEA70F878
:10494C0075E195EE2470F582EF3400F583E0F8A361
:10495C00E0F9EE2472F582EF3400F583E8F0A3E978
:10496C00F0790180027900024A8C74F71216A8EAD9
:10497C00FEEBFF75D90375D90375D90DEE24DEF561
:10498C0082EF3400F583E0F5D975E1957904120DC9
:10499C002AEE2470F582EF3400F583E0F8A3E0F9F9
:1049AC00EE2472F582EF3400F583E8F0A3E9F07998
:1049BC00018001F07F0102177A74F61216A8EAFE44
:1049CC00EBFF9061D0E0F87480C398FAEE2483F585
:1049DC0082EF3400F583E06004780480027800E80C
:1049EC00240BF8EAC3985003024A8A7D09900560AB
:1049FC00EDF0EE24E3F8EF3400F97A617B057C08E6
:104A0C0088828983E08A828B83F088828983A3A839
:104A1C0082A9838A828B83A3AA82AB831CEC70E06D
:104A2C00EE2483F582EF3400F583E0601D75086099
:104A3C0075090578081218BB7C097903EEFAEFFBAF
:104A4C00120C1074021216677D0D74012DF5D975B8
:104A5C00D9037582607583058D08E0F5D9A3150817
:104A6C00E50870F675E1957904120D2AEE241DF512
:104A7C0082EF3400F583E4F0A3F079018002790031
:104A8C007F0202177A74F61216A8EAFEEBFF906109
:104A9C00D0E0F87480C398FAEE2483F582EF3400EA
:104AAC00F583E06004780480027800E82408F8EAD2
:104ABC00C3985003024B917D06900560740CF090E6
:104ACC0003DFE0900561F07AE07B03786279057C86
:104ADC00028A828B83E088828983F08A828B83A30B
:104AEC00AA82AB8388828983A3A882A9831CEC70D9
:104AFC00E07AE27B037C028A828B83E08882898362
:104B0C00F08A828B83A3AA82AB8388828983A3A831
:104B1C0082A9831CEC70E0EE2483F582EF3400F55F
:104B2C0083E0601D75086075090578081218BB7C58
:104B3C00067903EEFAEFFB120C1074021216677D65
:104B4C000A74012DF5D975D9037582607583058DAD
:104B5C0008E0F5D9A31508E50870F675E195790418
:104B6C00120D2AEE2470F582EF3400F583E0F8A3E1
:104B7C00E0F9EE2472F582EF3400F583E8F0A3E956
:104B8C00F0790180027900024A8C74F61216A8EAB8
:104B9C00FEEBFF9061D0E0F87480C398FAEE2483AA
:104BAC00F582EF3400F583E060047804800278002D
:104BBC00E82404F8EAC3985003024C70780290057C
:104BCC0060E8F0EE24F5F582EF3400F583E0900513
:104BDC0061F0EE2483F582EF3400F583E0601B7501
:104BEC00086075090578081218BB7C027903EEFA87
:104BFC00120C1074021216677806740128F5D97518
:104C0C00D9037582607583058808E0F5D9A315086A
:104C1C00E50870F675E195EE2474F582EF3400F535
:104C2C0083E4F0EE2480F582EF3400F583E4F0EEBB
:104C3C00241DF582EF3400F583E4F0A3F07904121F
:104C4C000D2AEE240DF582EF3400F583E0F8A3E095
:104C5C00F9EE2472F582EF3400F583E8F0A3E9F065
:104C6C00790180027900024A8C74F61216A89061C0
:104C7C00D0E0F87480C398FCEA2483F582EB34000E
:104C8C00F583E06004780480027800E82404F8ECF2
:104C9C00C398405B79029005607407F0EA24F6F53E
:104CAC0082EB3400F583E0900561F0EA2483F58211
:104CBC00EB3400F583E06018750860750905780819
:104CCC001218BB7C0209120C1074021216677906BA
:104CDC00740129F5D975D903758260758305E9F8D6
:104CEC00E0F5D9A318E870F875E19579018002799F
:104CFC0000024A8C74F51216A8E9FCA2AFE433F555
:104D0C000AC2AF7D0080010DEA246FF582EB3400FE
:104D1C00F583E0F8EDC398501A8D08EA2508F8EBF6
:104D2C003400F9E8246BF582E93400F583E06C700B
:104D3C00D68024EA246FF8EB3400F9E0FEEA2EFA70
:104D4C00EB3400FBEA246BF582EB3400F583ECF0DA
:104D5C0088828983E004F0E50AA2E092AF7F030227
:104D6C00177A74F61216A8A2AFE433FDC2AFEA2488
:104D7C006FF582EB3400F583E014F07C0060368C28
:104D8C0008EA2508F8EB3400F9E8246CF582E934DC
:104D9C0000F583E0C0E0E8246BF582E93400F5838C
:104DAC00D0E0F00CEA246FF582EB3400F583E0F8E8
:104DBC00ECC39840CAEA246EF582EB3400F5837498
:104DCC00FFF0EA246AF582EB3400F583E4F0EDA2FF
:104DDC00E092AF024A8CC082C083E5A8F8C2AFEA69
:104DEC00246BF582EB3400F583E9F0EA246AF58252
:104DFC00EB3400F583E4F0E8A2E792AF023F707465
:104E0C00F31216A8EAFEEBFFECFAEDFB8A828B8319
:104E1C00A3A3A3A3E0541FF0EE2436F582EF3400D5
:104E2C00F583E4F0F50AEEFCEFFD8A828B83E0C09B
:104E3C00E0EC245DF582ED3400F583D0E0F0750BE9
:104E4C0000E50A33333354F8F50C8A828B83E0F592
:104E5C0008750900E50B780812161FE508A2E0504A
:104E6C002FEE2436F8EF3400F988828983E0F508B8
:104E7C00EE2508F508EF3400F509E5082438F5822D
:104E8C00E5093400F583E50CF088828983E004F0B1
:104E9C00050B050CE50BC3940840AF050A8A828B01
:104EAC0083A3AA82AB838C828D83A3AC82AD83E572
:104EBC000AC394055003024E367F0502177A74F725
:104ECC001216A89003EEE0640170077A007B0002D2
:104EDC0050417E009003F4E070F17401F0A3E4F013
:104EEC00A3F090045404F0900457E4F0A3F0900461
:104EFC005A04F09003F7E4F0A3F0A3F0A3F09004AD
:104F0C000104F0900427E4F090819D12153F900469
:104F1C000A12154B90040EE4F0A3F0A3F090047267
:104F2C00F0900466F090045B7480F0A3E4F09004BD
:104F3C0061F0900459F09004DDF0A3F0A3F0A3F01D
:104F4C00A3F0A3F0A3F0A3F09004E6F0900475F0A6
:104F5C009004C5F0A3F090819D12153F9004C712E8
:104F6C00154B90819D12153F9004CB12154B90045C
:104F7C00D1E4F09004D3F09004CFF09004E9F0A3C6
:104F8C00F0A3F0A3F0A3F0A3F0A3F0A3F078EE79D4
:104F9C0003E8246FF582E93400F58374FFF00E8882
:104FAC00828983A3A882A983EEC3940440E37AEE9A
:104FBC007B0378FD790488828983E0C0E0EA246170
:104FCC00F582EB3400F583D0E0F088828983A3A8C6
:104FDC0082A9838A828B83A3AA82AB83E864027042
:104FEC0003E9640570D07AEE7B0378D57903888267
:104FFC008983A3E0C0E0EA24E7F582EB3400F58373
:10500C00D0E0F088828983A3A882A9838A828B83CB
:10501C00A3AA82AB83E864DD7003E9640370CF90CC
:10502C0003EEE004F0640170089003F6E09003F0E6
:10503C00F07AF27B030249C0C082C0839003F5E48E
:10504C00F09003F4F09003EEF0A3F0A374FFF0756E
:10505C00E1F1023F70C082C083780079009003F5C3
:10506C00E0600478F2790388828983A3A3A3A3E088
:10507C00F9023F7074F61216A8EAFEEBFF8E828FCF
:10508C0083A3A3A3E0600F8E828F83A3A3A3E4F07A
:10509C009003EFE014F09003EEE014F07006900330
:1050AC00F074FFF08E828F83A3A3E4F0900502E0EE
:1050BC00700D9003EFE0640170057900120D0CEE99
:1050CC002465F582EF3400F583E0F8A3E0F9E849B4
:1050DC006029EE2465F8EF3400F988088909888284
:1050EC00F583E0FCA3E0FD9003F0E0FA7B001208EE
:1050FC00E0850882850983E4F0A3F0EEFAEFFB1259
:10510C000C40024A8C74F71216A8EAFEEBFF8E8252
:10511C008F83A3A3A3A3E0FA7B00120922EEFAEF7C
:10512C00FB120B92120C280249C0C082C08378D5A6
:10513C00790388828983A3E4F088828983A3A88277
:10514C00A983E864DD7003E9640370E69003D6027A
:10515C00449D74F61216A8EAFEEBFFEC2403F8ED5E
:10516C003400F988088909EC2407F8ED3400F9E8D3
:10517C00FCE9FD8C828D83E0F8A3E0F9850882853B
:10518C000983E0FAA3E0FB1215C6EE240DF582EFBD
:10519C003400F583E8F0A3E9F08C828D83E0F8A36A
:1051AC00E0F9850882850983E0FAA3E0FB1215C6B5
:1051BC008B09EA45096013EE240DF582EF3400F5F6
:1051CC0083E02401F0A3E03400F0024A8C74F61260
:1051DC0016A8EAFEEBFFEE242EF582EF3400F583E1
:1051EC00E0FCA3E0FD780079FAECFAEDFB1215C6B1
:1051FC00EE2470F582EF3400F583E8F0A3E9F07843
:10520C000079FAECFAEDFB1215C68B09EA45096038
:10521C0013EE2470F582EF3400F583E02401F0A343
:10522C00E03400F0024A8C74F01216A8EAFEEBFF90
:10523C00741012169C7808121521120CCA8A0C8B49
:10524C000D8C0E8D0F90817D780C1214AD9081BD5C
:10525C00780C1214FB780C1218B78E828F83E0F83E
:10526C00A3E0F5838882A3A312153F12224E740487
:10527C00121667E960030253808E828F83E024024A
:10528C00F8A3E03400F9E8FAE9FB8A828B8378080A
:10529C001214C09081BD78081215218A828B8378F4
:1052AC000812150EEE240BF582EF3400F583C08244
:1052BC00C0838E828F83A3A3A3A3A3E02401F8A3AE
:1052CC00E03400F9D083D082E0687003A3E0697009
:1052DC000579010253828E828F83A3A3A3A3A3A378
:1052EC00A3E02401F0A3E03400F0EE2474F582EF87
:1052FC003400F583E064017036EE2475F582EF34EA
:10530C0000F583E0F8A3E0F98E828F83A3A3A3A317
:10531C00A3A3A3E0687003A3E0697013EE2475F5F2
:10532C0082EF3400F583E02401F0A3E03400F0EECA
:10533C002480F582EF3400F583E064017036EE24AE
:10534C0081F582EF3400F583E0F8A3E0F98E828FCB
:10535C0083A3A3A3A3A3A3A3E0687003A3E0697032
:10536C0013EE2481F582EF3400F583E02401F0A3E1
:10537C00E03400F079007F0802177A74F71216A84F
:10538C009003F0E0F875F004A4C8AAF02AF974F2BE
:10539C0028FE740339FF8028EE2465F8EF3400F9F9
:1053AC0088828983E0FCA3E0FD88828983E4F0A3F2
:1053BC00F08E828F83A3A3A3A3E0FA7B001208E0F4
:1053CC00EE2465F582EF3400F583E0F8A3E0F9E80C
:1053DC0049604FEE2464F582EF3400F583E0F50864
:1053EC0078081218BFEE2463F582EF3400F583E0E1
:1053FC00F9EE2465F582EF3400F583E0FCA3E0FDC3
:10540C00EEFAEFFB120BBC7401121667E96089EE21
:10541C002465F582EF3400F583E0F8A3E0F9E84960
:10542C0070137C007D008E828F83A3A3A3A3E0FA6C
:10543C007B001208E00249C074F21216A8EAFEEBD7
:10544C00FF890A740E12169CE0FAEE2462F582EFC4
:10545C003400F583E0640160030255109061D0E0E4
:10546C00F87480C398F50CEE2483F582EF3400F5C4
:10547C0083E060047804800278008908E928F8E465
:10548C003400F9E824020808E93400F9E50C98E442
:10549C0099A2D265D0334068EA7005750B0280037F
:1054AC00750B01E0603975090078081218BB7A6039
:1054BC007B05120BF27402121667750860750905EC
:1054CC0078081218BBAC0AA90BEEFAEFFB120C1001
:1054DC0074021216677404250AF50A7C607D057443
:1054EC0001250AF5D9850BD9E50A600D8C828D83CF
:1054FC00F8E0F5D9A318E870F875E1957900800605
:10550C007907800279FF7F0602177AC082C083E98F
:10551C0060208C828D83E08A828B83F08C828D83D9
:10552C00A3AC82AD838A828B83A3AA82AB8319E955
:10553C0070E0ECFAEDFB023F7074EA1216A890785A
:10554C0003E06442705E90055FE014F07056C2AFE9
:10555C0012555F00782AD0E0F618D0E0F6E59F549B
:10556C0007F970059081A580039081557808121574
:10557C0021E9C4C0E07829E65508F50808E6550984
:10558C00F509740B780812162FD0E02508F89062F4
:10559C0070E0A2E740F8E8C333906272F09062705A
:1055AC00E0D2E0F09003F0E0F47003025968E0F808
:1055BC0075F004A4C8AAF02AF974F228FE74033911
:1055CC00FFEE2402F582EF3401F583E0F8A3E0F955
:1055DC00E849601EEE2402F582EF3401F583E0FA0F
:1055EC00A3E0FBEE2401F582EF3401F583E0F91220
:1055FC000FDC8E828F83A3A3A3A3A3A3A3E0F8A3A2
:10560C00E0F98E828F83A3A3A3A3A3E8F0A3E9F010
:10561C00906054E09003C9F0906055E09003CAF09C
:10562C00906056E09003CBF0906057E09003CCF084
:10563C00906058E09003CDF0906059E09003CEF06C
:10564C0090605AE09003CFF090605BE09003D0F054
:10565C0090605CE0FC9003D1F090605DE0FB900307
:10566C00D2F090605EE0FD9003D3F090605FE0FAC2
:10567C009003D4F09003CFE08C082508F8E43400B4
:10568C00F98D08E82508F8E93400F98B08E82508B5
:10569C00F8E93400F98A08E82508FAE93400FBEE49
:1056AC0024F7F582EF3400F583E02AF0A3E03BF019
:1056BC008C08EE24F9F582EF3400F583E02508F030
:1056CC00A3E03400F0EE24FBF582EF3400F583E028
:1056DC002401F0A3E03400F0EE24FFF582EF340057
:1056EC00F583E0F8A3E0F9E8496042906000E0C37C
:1056FC0033FCE433FDE82CF582E93DF583E02AF038
:10570C00A3E03BF0906000E0FA9003D1E0FCEAC328
:10571C0033FAE433FBE82AF8E93BF9E8244AF5824A
:10572C00E93400F583E02CF0A3E03400F09003CFD3
:10573C00E070119003D2E0700BA3E07007A3E0704F
:10574C00030258488E828F83A3A3A3A3A3E0F8A3DC
:10575C00E0F9EE240DF582EF3400F583E028F8A390
:10576C00E039F9EE240BF582EF3400F583E8F0A371
:10577C00E9F0EE240FF582EF3400F583E4F0EE242B
:10578C001CF582EF3400F583E06401701EEE2420DA
:10579C00F582EF3400F583E0F8A3E0F9EE241DF573
:1057AC0082EF3400F583E8F0A3E9F09003CAE060DF
:1057BC0052EE241CF582EF3400F5837401F0EE24D4
:1057CC006AF582EF3400F583E07038EE2474F582CC
:1057DC00EF3400F583E0702BEE2480F582EF34007B
:1057EC00F583E0701EEE2420F582EF3400F583E0A3
:1057FC00F8A3E0F9EE241DF582EF3400F583E8F010
:10580C00A3E9F0906062E070030258FB8E828F83F4
:10581C00E0F8A3E0F9E82406FCE93400FDE82402F2
:10582C00FAE93400FB120CC48E828F83E02412F848
:10583C00A3E03400F9888289830259059003D1E0F2
:10584C00603AEE240FF582EF3400F583E4F0EE2499
:10585C001CF582EF3400F583E064017040EE2420E7
:10586C00F582EF3400F583E0F8A3E0F9EE241DF5A2
:10587C0082EF3400F583E8F0A3E98020EE24FDF5F7
:10588C0082EF3400F583E02401F0A3E03400F0EE65
:10589C00241DF582EF3400F583E4F0A3F0EE240B25
:1058AC00F582EF3400F583E0F8A3E0F98E828F8364
:1058BC00A3A3A3A3A3E0687003A3E069600302574A
:1058CC00B7EE240FF582EF3400F583E060128E8280
:1058DC008F83A3A3A3A3A3E064057002A3E0600BD2
:1058EC007908EEFAEFFB120B988071793E80F3EE9B
:1058FC00241DF582EF3400F583E4F0A3F090606092
:10590C00E0C0E0EE2469F582EF3400F583D0E0F0DE
:10591C009003CFE0F8EE2467F582EF3400F583E0D6
:10592C0028025A6890055DE064017035120D78EE1E
:10593C002467F582EF3400F583E0700690606074A4
:10594C0080F0EEFAEFFB120C82E96401600E120B90
:10595C00B6120C7CE964016003120C287F0E02174E
:10596C007AEE2483F582EF3400F583E0600478044A
:10597C0080027800E50CC398F91208D48A0A8B0BC4
:10598C00EA450B60A7EE2483F582EF3400F583E043
:10599C0070048A088B09E50C6012850882850983DE
:1059AC00F512E5D9F0A31512E51270F6EE2483F585
:1059BC0082EF3400F583E0603774FC250CF50C782D
:1059CC00081218BBAC0CA90DEEFAEFFB120C1674F6
:1059DC0002121667E970197403650D7003025AA858
:1059EC00E50A24FBFAE50B34FFFB12101E025AA841
:1059FC007403650D7003025AAD850C0E750F00789B
:105A0C000E1218BBAC08AD09AA0AAB0B120BF27440
:105A1C0002121667EE2469F582EF3400F583E06418
:105A2C00807004747F8001E0F50878081218BFE5D7
:105A3C000DF50878081218BFA90CAC0AAD0B900331
:105A4C00F0E0FA7B001208DA7402121667120D8469
:105A5C00EE2467F582EF3400F583E014F0E0700378
:105A6C00025948750860750905750A00750B00E543
:105A7C00D914F50CE5D95403F50D60207403650DAC
:105A8C0070030259A2E50C7003025930EE2468F53C
:105A9C0082EF3400F583E06003025930793D0258FF
:105AAC00EE850882850983E0F8A385820885830941
:105ABC00603B147003025CA5147003025F991470B0
:105ACC0003025D0324FD7003025E23147003025A6B
:105ADC0059147003025E7924FE7003025E32147056
:105AEC0003025E74147003025F0E025F1DEE2477D6
:105AFC00F510EF3400F511E0851082851183F085E7
:105B0C000882850983A3858208858309EE2478F5AC
:105B1C000EEF3400F50F7902AC08AD09AA0EFB129A
:105B2C000BC28A088B09EE247AF50CEF3400F50DC4
