:020000040000FA
:0600000002011D021E1B9F
:03002B0002254962
:03005300021E8EFC
:03006B0002251754
:10008300021CCFE5C754F84401F5C77901220000EB
:100093000080FB120086B90003020107E47921788E
:1000A30008B800028004F709D8FCE479297802B87B
:1000B30000028004F709D8FCE490028178EA79070A
:1000C3008002F0A3D8FCD9FA781A90014D7A01BACC
:1000D30000028007E493A3F608DAF990096AAA827A
:1000E300AB8390014E783179048015E493A3AC82FD
:1000F300AD838A828B83F0A3AA82AB838C828D83A8
:10010300D8E9D9E77582B375839F740312012F75FC
:100113008291758300740012012F75D00075813FA1
:10012300751881751902759F00020096C09FF59F8F
:10013300E473D09F22D083D082C09FE493C0E07445
:100143000193C0E0740293F59F2201FF0000B40005
:100153000028002800283075A000A000A000A000FF
:1001630000080008E001F00010001000100010006B
:100173001000100050005000500010001000D00775
:100183000000000000000F000100050030750700AB
:100193001000010081FF0000FF7C069A068206FF23
:1001A30002020208025000A0000000E803022582B8
:1001B3000100000E82022182010000BF09021382A6
:1001C300010000B202022182010000C0090215826F
:1001D300010000C802022182010000C10902178246
:1001E300010000CA02022182010000C20902198231
:1001F300080000CB02022182010000C309021B8216
:10020300010000C409FF0100FF2002258201000054
:100213000B82022182010000280A021D82000000D5
:10022300000002118203000018035E0C5E0C5E0CDA
:100233005E0C5E0C5E0C5E0C5E0C5E0C5E0C5E0C6B
:100243005E0C5E0CEC0E040FE60EFFFF02020202D0
:100253000202020202010D000000100102258201C8
:10026300000008820221820100006B0A023382012E
:10027300000078070221820100006C0A023182012A
:10028300000015810221820100006D0A022F820104
:100293000000F9800221820100006E0A022D820112
:1002A3000000A5800221820100006F0A022B820157
:1002B3000000B780022182010000700A0229820136
:1002C30000009380022182010000710A022782014B
:1002D30000008180022182010000720A024582012E
:1002E30000000781022182010000730A024D82018E
:1002F3000000740A01E803053F10FF000130750395
:1003030002010600000000000000000000000000E1
:10031300000000000000000000000000000000FFDB
:10032300FF0600800CE8030201051AFF4C000215CA
:10033300E2C56DB5DFFB48D2B060D0F5A71096E0FB
:1003430000010002CD53696D706C6520424C45205D
:100353005065726970686572616C1E130000241326
:100363000A436861726163746572697374696320B7
:100373003100024368617261637465726973746901
:100383006320320008436861726163746572697344
:10039300746963203300104368617261637465722A
:1003A3006973746963203400024368617261637422
:1003B3006572697374696320350002258201000048
:1003C30005820221820100007F0B023B82030000B1
:1003D3005409021F82010000800B022182010000E8
:1003E300910B023D820100005509021F82010000AA
:1003F300920B022182010000A30B023F8202000044
:100403005609021F82010000A40B02218201000091
:10041300B50B02418200000057090211820300005C
:100423005809021F82010000B60B0221820100005D
:10043300C70B0243820400005E09021F8201000011
:10044300C80B104B65792050726573732053746128
:10045300746500022582010000FF810221820100F0
:1004630000610C024B820000006309021182030049
:10047300006409021F82010000620C1201381B9400
:1004830003120138329403120138619403120138C4
:100493009A9403120138C29403120138F0940312A0
:1004A30001380795031201381E950312013834955C
:1004B300031201385B95031201386E95031201385C
:1004C300849503120138979503120138BC950312E2
:1004D300013811A40212013810A50212013845A5F2
:1004E3000212013866A50212013876A502120138FC
:1004F30097A502120138A3A60212013870A70212AF
:100503000138E3A70212013869A802120138ACA826
:1005130002120138E3A80212013869A90212013854
:100523003BAA0212013899AA02120138B1AA021297
:1005330001382BAB021201382EAB0212013831AB5A
:1005430002120138D8AB02120138F0AB02120138A3
:1005530020AC0212013840AC021201382EAD021257
:100563000138E4AD0212013870E10212013898E15A
:1005730002120138C6E102120138FDE1021201380C
:1005830065E202120138AEE202120138F9E2021208
:10059300013837E30212013874E302120138A2E38F
:1005A3000212013849E40212013853E402120138FD
:1005B30060E40212013893E40212013855E5021295
:1005C300013861E50212013879E50212013883E549
:1005D30002120138779D03120138859D03120138F9
:1005E3009D9D03120138B59D03120138E1A9011243
:1005F30001387FAA01120138F7AA011201380CACA5
:100603000112013846AC01120138EFAC0112013876
:10061300C4AD0112013828AF011201387FAF0112B6
:10062300013806B001120138EDB0011201383AB1B8
:1006330001120138C8B101120138ECB101120138BD
:10064300C1B30112013802B40112013824B40112FA
:100653000138A5B4011201388FB50112013855B61E
:100663000112013810C602120138E2C60212013823
:100673008BC702120138CEC7021201385BC80212BF
:100683000138E7C802120138C8C902120138F7C994
:1006930002120138F3CA021201383BCB02120138AD
:1006A3003DCC0212013881CC02120138A7CC0212D0
:1006B30001384E9E031201385FFB0212013875FBAD
:1006C300021201389BFB02120138C3FC02120138EB
:1006D300CDFC0212013826FE0212013826FF021257
:1006E3000138A3D202120138D8D3021201380BD435
:1006F3000212013855D40212013813D602120138FE
:10070300A76D001201380A6E001201384F6F0012F4
:1007130001385F6F00120138826F00120138CD6F0C
:10072300001201387270001201386871001201382A
:10073300327200120138AA7300120138EC730012EE
:1007430001388A7400120138D77400120138FD741D
:1007530000120138EB7600120138F07600120138EE
:10076300D1780012013825790012013887790012F7
:100773000138AF7900120138537A00120138157B22
:1007830000120138467B00120138497B0012013800
:10079300917B00120138D37B001201383A7C00129E
:1007A300013886FD0112013899FD01120138B2FDAD
:1007B30001120138FDFD01120138D8FE0112013882
:1007C30067FF01120138B2FF0112013870250012D0
:1007D30001387C2500120138B52500120138FA25AD
:1007E30000120138B12600120138372700120138F0
:1007F3009C2700120138C827001201380128001273
:100803000138152A00120138F12B00120138DC2DB2
:1008130000120138132F001201387331001201380E
:100823005F3200120138A53300120138B2340012CE
:100833000138CF3400120138073500120138213551
:1008430000120138893500120138233A00120138A9
:10085300C43A00120138153B001201383C3B001228
:1008630001388A3B00120138A83B00120138FC3BD7
:1008730000120138D53C001201385C3E00120138E9
:10088300E43E00120138C6DC02120138D0DC021249
:1008930001389BDD02120138B6DD02120138DCDDBE
:1008A3000212013820DE0212013858DE021201382A
:1008B30081DE02120138FADE021201380FDF021262
:1008C300013824DF021201385BDF021201386FDFC7
:1008D30002120138A0DF02120138DADF02120138F6
:1008E30006E0021201385CE002120138B0E00212A5
:1008F3000138F9E00212013823E10212013848E11C
:100903000212013873F7021201383DF8021201385E
:1009130020F90212013896F902120138D8F90212AD
:10092300013805FB021201380080021201382980C8
:100933000212013842800212013887810212013803
:100943006582021201388482021201381183021275
:100953000138548302120138A18402120138408500
:1009630002120138BF870212013856880212013879
:100973002A89021201380C8A02120138788B02127A
:1009830001380B8C02120138959803120138FE9836
:10099300031201385299031201387999031201386D
:1009A300B9EA0212013826EB0212013871EB021286
:1009B300013866EC0212013862ED021201384CEE86
:1009C300021201384FAE0212013891AE0212013801
:1009D3006BAF0212013844B0021201383FB1021268
:1009E30001381EB2021201388AB20212013851B321
:1009F30002120138BCB30212013823B402120138C7
:100A03004EB402120138BFB40212013852B50212B9
:100A13000138BBB502120138D0B50212013818B63D
:100A23000212013831B60212013896B602120138A9
:100A330099B6021201382787031201384F87031230
:100A430001388D87031201384B8803120138B688A9
:100A530003120138D28803120138FA8803120138CD
:100A63002A8903120138398903120138B389031221
:100A73000138D9890312013808C701120138E5C8C2
:100A830001120138E0CA01120138B3CB0112013857
:100A9300FECB0112013849CC011201385BCC0112A3
:100AA30001389BCC01120138D0CC011201381CCD86
:100AB300011201384BCD011201386ECD01120138FC
:100AC300BBCD0112013844CE0112013851D00112BD
:100AD30001383CD2011201387FD201120138E4D32C
:100AE3000112013825D40112013898D401120138BA
:100AF300E4D4011201380FD501120138828C02129D
:100B03000138AD8C02120138949302120138B89562
:100B130002120138739702120138D0980212013879
:100B23004B3F00120138E23F001201380F40001220
:100B330001385540001201389441001201382B430B
:100B430000120138A54300120138C04300120138D6
:100B5300354400120138644500120138BF460012C3
:100B63000138C147001201381E49001201383749C4
:100B730000120138944900120138764A00120138F4
:100B8300A94A00120138194B00120138934B001285
:100B93000138E24B00120138AE4C00120138B34D5C
:100BA30000120138924E001201381D4F0012013815
:100BB3008B4F00120138FF4F0012013828500012EA
:100BC3000138E750001201386152001201387E5299
:100BD300001201389D52001201382E5300120138C1
:100BE3005353001201387B5300120138F65300129D
:100BF3000138505400120138A455001201386156CF
:100C03000012013834570012013839D50112013866
:100C130089D50112013895D50112013872D6011216
:100C23000138A2D601120138DAD60112013859D798
:100C33000112013891D701120138E3D701120138AB
:100C430020D80112013845DA0112013871DC011292
:100C530001386CDE0112013847E0011201386525C5
:100C6300001201383096011201387A9601120138C8
:100C7300599C01120138DA9D0112013839A401127D
:100C8300013834A50112013871A50112013894A568
:100C930001120138D6A501120138DFA5011201386E
:100CA300E9A501120138D5A601120138C9A701121D
:100CB3000138625700120138DA6100120138E0612D
:100CC30000120138EC680012013800800312013869
:100CD300968003120138AC80031201382681031277
:100CE30001387C8103120138BA810312013817825B
:100CF300031201389482031201389D8203120138D2
:100D0300A98203120138BC8203120138F88203124C
:100D130001380E83031201386D83031201380EEF7D
:100D2300021201381BEF0212013835EF02120138AB
:100D330074EF02120138B2EF0212013817F00212F7
:100D430001382CF00212013837F00212013844F056
:100D5300021201385BF00212013869F00212013805
:100D630074F00212013880F0021201388FF002127F
:100D730001389AF002120138BDF00212013866F10F
:100D83000212013876F10212013890F10212013891
:100D9300ADF102120138C9F102120138EEF102126B
:100DA3000138F8F1021201380CF2021201382BF269
:100DB300021201388CF20212013892F20212013847
:100DC30098F2021201389EF202120138AAF20212BC
:100DD3000138DDF2021201380DE3011201388FE30D
:100DE3000112013838E40112013880E5011201389B
:100DF3008EE70112013874E801120138A9E80112E3
:100E03000138CBE80112013874E90112013844EBCF
:100E1300011201386DEB01120138E5EB01120138C3
:100E230017EC0112013824EC011201386FEC0112A6
:100E3300013893EC01120138E4EE01120138EEEFB0
:100E4300011201384AF0011201388AB8011201383F
:100E53009BB9011201387FBA0112013889BA011214
:100E63000138ABBA01120138B7BA011201385BBCC1
:100E73000112013888BC011201389EBD01120138EC
:100E8300F3BD0112013842BF0112013817C001122C
:100E9300013873C001120138DEC00112013813C1D9
:100EA3000112013856C10112013820C40112013860
:100EB30038C401120138C9C401120138D7C4011260
:100EC300013824C50112013832C5011201389EC50B
:100ED3000112013819C60112013870C60112013816
:100EE300F39802120138159902120138269B021257
:100EF3000138E59D021201380F9F02120138CD9F80
:100F030002120138B9A002120138629203120138A9
:100F1300879203120138FD9203120138F3BE0212C5
:100F23000138FCBE0212013805BF02120138DDBFD1
:100F3300021201388EC102120138BEC102120138F9
:100F4300E9C10212013819C20212013844C2021265
:100F5300013878C202120138A4C202120138E7C272
:100F63000212013812C30212013859C302120138A6
:100F7300AEC302120138F0C3021201384AC402128E
:100F8300013875C402120138C4C402120138F4C412
:100F9300021201381FC5021201384DC50212013871
:100FA30070C502120138D79E03120138039F031242
:100FB3000138309F031201383A9F031201384A9FC8
:100FC300031201381CCD0212013826CD021201385A
:100FD30067CD02120138B0CD02120138EACD0212F8
:100FE300013840CE0212013861CE021201386ACEB6
:100FF30002120138BECE02120138E7CE02120138C6
:10100300F1CE021201385FCF02120138EFCF021284
:1010130001384AD00212013878D00212013800D1C7
:10102300021201383FD10212013874D10212013881
:1010330086D102120138A5D102120138AED10212B3
:10104300013875D202120138AC9A03120138A28E0C
:1010530003120138D88E031201380C8F03120138A2
:1010630059900312013830FF0212013846FF021271
:10107300013850FF021201389AFF02120138549FBF
:101083000312013818E6021201382BE60212013866
:10109300ECE6021201382BE70212013848E702128C
:1010A300013881E702120138CEE70212013800E865
:1010B3000212013837E80212013840EA02120138FD
:1010C300ACEA02120138A39B03120138C69B031238
:1010D3000138F59B031201380D9C031201384F9C14
:1010E30003120138047D00120138297D00120138F2
:1010F300537D001201380BA00312013850820112F4
:1011030001382E8401120138CD8501120138788609
:1011130001120138F886011201387D870112013866
:10112300A68701120138818B01120138F88B011255
:1011330001380F8D01120138498D011201388A8D52
:1011430001120138D18E01120138278F01120138A3
:10115300708F01120138DF8F011201384B90011299
:1011630001387C9001120138949001120138AD913D
:1011730001120138BD910112013873930112013834
:101183008A9301120138BC93011201385E95011252
:101193000138F29501120138AAA00312013861A0A7
:1011A30003120138A0A003120138BBA003120138B7
:1011B300989C03120138A89C03120138BD9C0312AA
:1011C3000138719D03120138AA99031201382F9A2D
:1011D30003120138939A03120138669703120138F8
:1011E300889703120138E99703120138FB9703121A
:1011F30001384B98031201388998031201388C98EF
:10120300031201385AF3021201386EF30212013845
:10121300E8F302120138CCF402120138A3F60212E9
:10122300013808F7021201385FF702120138F87F1C
:1012330000120138688C03120138F88D031201384B
:10124300598E031201389F8E03120138CE95031273
:101253000138209603120138939603120138009740
:1012630003120138218A031201384B8A0312013811
:101273001A8B03120138F68B03120138BDB6021222
:10128300013889B702120138CAB70212013804B80B
:101293000212013862B802120138B6B802120138DC
:1012A30014B902120138AAB902120138B2BA0212F1
:1012B30001383CBC02120138DABC0212013841BDCC
:1012C3000212013854BD0212013848BE021201381D
:1012D30091BE0212013897F001120138C9F30112CD
:1012E30001385AF501120138B1F501120138CEF572
:1012F300011201384EF601120138CAF70112013802
:1013030099F80112013806FC01120138F0FC0112B0
:101313000138C9D7021201386FDA02120138CFDB64
:101323000212013891DC021201389D830312013845
:10133300E28303120138FF8303120138B5840312D9
:101343000138088503120138D88503120138EE8667
:1013530003120138939003120138D8900312013815
:101363002C9103120138B19103120138299203120F
:101373000138C6FF02120138DCFF01E06670100875
:10138300A3E066700A08A3E066700408A3E066227F
:10139300C3E7960809E7960809E7960809E796223E
:1013A300C3E09608A3E09608A3E09608A3E096227C
:1013B300C008C3E096F50808A3E096420808A3E036
:1013C30096420808A3E09645087001D3D008220886
:1013D3000808EAC0E0EBC0E086F0E7A4FA18098643
:1013E300F0E7A42AFA180986F0E7A42AFA1809866E
:1013F300F0E7A42AFA1986F0E7A4FBE5F02AFA1924
:101403000886F0E7A42BFBE5F03AFA190886F0E723
:10141300A42BFBE5F03AFA18180986F0E7A4C5F007
:101423002BFBE43AFA1908E7C5F0C6A426F6E5F063
:101433003BFBE43AFA1886F0E7A4F6E5F00826F653
:10144300E43B08F6E43A08F6D0E0FBD0E0FA22E405
:10145300CFC0E0E4CEC0E0E4CDC0E0E4CCC0E075B2
:10146300F020C3E633F608E633F608E633F608E67B
:1014730033F6181818EC33FCED33FDEE33FEEF337F
:10148300FFC3EC9709ED9709EE9709EF971919191F
:10149300400FFFEC97FC09ED97FD09EE97FE191934
:1014A30006D5F0BEECF709EDF709EEF709EFF719EA
:1014B3001919D0E0FCD0E0FDD0E0FED0E0FF2260BF
:1014C30016080808C6C313C618C613C618C613C61B
:1014D30018C613C6D5E0EA22700908080822601668
:1014E300181818C6C333C608C633C608C633C60899
:1014F300C633C6D5E0EA22E627F60809E637F6083A
:1015030009E637F60809E637F622E026F608A3E0EF
:1015130036F608A3E036F608A3E036F622E026F016
:1015230008A3E036F008A3E036F008A3E036F02283
:10153300C3E697F60809E697F60809E697F6080959
:10154300E697F622C3E096F008A3E096F008A3E03E
:1015530096F008A3E096F022E056F608A3E056F6CC
:1015630008A3E056F608A3E056F622E056F008A3D7
:10157300E056F008A3E056F008A3E056F022E0F6A8
:1015830008A3E0F608A3E0F608A3E0F622E6F008D5
:10159300A3E6F008A3E6F008A3E6F022E0FAA3E04E
:1015A300FBA3E0FCA3E0FD22EAF0A3EBF0A3ECF045
:1015B300A3EDF022CAC0E0E6F0A308DAFAD0E0FA1D
:1015C30022CAC0E0E0A3C582CCC582C583CDC58352
:1015D300F0A3C582CCC582C583CDC583DAE6D0E04E
:1015E300CA22C3E498F8E499F91216268026C3E4C4
:1015F3009AFAE49BFBE920E7E9121626E498F8E45B
:1016030099F922C3E498F8E499F9121626E498F8B4
:10161300E499F9C3E49AFAE49BFB22EB20E7CFE9D0
:1016230020E7E0B90010BB0008E88AF084F8AAF0CC
:1016330022E4FBC8FA22EB70227B10C833C8C933FB
:10164300C9335007C39AC3DBF280069A50012ADBE1
:10165300EAC833F4C8C933F4C9FA2275F008E4C8F8
:1016630033C8C933C933C99AC99B5004C92AC93B72
:10167300D5F0ECFBC833F4C8E4C9FA22600D08C600
:10168300A2E713C618C613C6D5E0F322600C08C63A
:10169300C313C618C613C6D5E0F422700422600D26
:1016A30018C6C333C608C633C6D5E0F418222518B6
:1016B30010AF08F518400215198008F518400215F7
:1016C30019D2AF22C0D0251810AF08F51850020563
:1016D300198008F51850020519D2AFD0D022251869
:1016E300F58210AF08F518400215198008F5184067
:1016F300021519D2AF851983222518F582E435190D
:10170300F58322E4732518C582C0E0E51934FFC5CB
:1017130083C0E0E518C3958224F810AF08858319C8
:101723008582188008858319858218D2AFCEF0A3ED
:10173300E520F0A37808E608F0A3DEFAEFF0A3E5CE
:101743008124FAF8E608F0A3E608F0A3E608F0A37C
:101753000808E608F0A3E608F0A315811581D0E098
:10176300FED0E0F8158115811581E8C0E0EEC0E0F8
:10177300222518C582C0E0E51934FFC583C0E0E522
:1017830018C3958224F910AF0885831985821880C0
:1017930008858319858218D2AFCEF0A3E520F0A384
:1017A3007808E608F0A3DEFAEFF0A3E58124FBF85E
:1017B300E608F0A3E608F0A30808E608F0A3E608A5
:1017C300F0A315811581D0E0FED0E0F815811581D5
:1017D300E8C0E0EEC0E022851983851882E0A3FE0D
:1017E300E0A3F5207808E0A3F608DFFAE0A3FFE022
:1017F300A3C0E0E0A3C0E0E0A3C0E0E0A3C0E0E05A
:10180300A3C0E010AF0885821885831980088582FC
:1018130018858319D2AFD083D0820201358519830D
:10182300851882E0A3FEE0A3F5207808E0A3F6087C
:10183300DFFAE0A3FFE0A3C0E0E0A3C0E0E0A3C0C1
:10184300E0E0A3C0E010AF08858218858319800803
:10185300858218858319D2AFD083D08222C0D02548
:1018630018C582C0E0E51934FFC583C0E0E518C39D
:10187300958224F310AF0885831985821880088523
:101883008319858218D2AFC8F0A3E9F0A3EAF0A3C5
:10189300EBF0A37908E709F0A3D8FAECF0A3EDF095
:1018A300A3EEF0A3EFF0A3D0E0F0A3D0E0F0A3D039
:1018B300E0F0A3E520F0A3E5F0F0A32285198385EA
:1018C3001882E0C0E0A3E0F9A3E0FAA3E0FBA37869
:1018D30008E0F608A3DFFAE0FCA3E0FDA3E0FEA323
:1018E300E0FFA3E0C0E0A3E0C0E0A3E0F5D0A3E005
:1018F300F520A3E0A3F5F010AF08858319858218BE
:101903008008858319858218D2AFD082D083D0E036
:10191300F8D0E03274048006740280027401C0E0DF
:10192300F4041216E1D0E01215B722740480047493
:10193300028000CCC0E0EDC0E0E518C39CCCAD193B
:1019430050011D10AF068C188D1980068C188D1947
:10195300D2AF1215C4D0E0FDD0E0FC22D083D082F8
:10196300E9C0E0E493A3C386F0C5F095F0F908E479
:1019730093A386F0C5F095F0700BE493A3C399404D
:1019830005E9048002A3E475F002A42582F582E54B
:10199300F03583F583D0E0F9E493A3C0E0E493C08A
:1019A300E022D083D082ECC0E0EDC0E0E493A3FC5E
:1019B300E493A3FDED4C600D1219F1EC24FFFCED53
:1019C30034FFFD80EFE493A3FCE493A3FDED4C60AF
:1019D3000D121A30EC24FFFCED34FFFD80EFD0E054
:1019E300FDD0E0FCE493A3C0E0E493C0E022C0E0B8
:1019F300C3E49396087401939618400FE4936670BA
:101A03000808740193661870007019A3A3C3E493C4
:101A130096087401939618A3A3400DD0E0D0E0D0AC
:101A2300E00219E1A3A3A3A3A3A3D0E022C0E0C0D3
:101A3300F088F0E4936670080874019366187000E8
:101A4300A8F0A3A3700BD0F0D0E0D0E0D0E002194F
:081A5300E1A3A3D0F0D0E022D2
:101A5C0074F5121774EAFEEBFFEE2434F8EF340041
:101A6C00F988088909EE2435F582EF3400F583E016
:101A7C00F8EE2437F582EF3400F583E0F50AEC85B7
:101A8C000AF0A4FCAAF0850AF0EDA42AFDE82CF8D3
:101A9C00E43DF97A257B00121626EA850882850931
:101AAC0083F05407F87401B800028004C333D8FCE7
:101ABC00C0E0E0131313541FF8EE28F8EF3400F9CC
:101ACC00E8245DF582E93400F583D0E0F8E0586055
:101ADC0008EE2434F582EF801EEE2436F582EF34C6
:101AEC0000F583E0F5F0EA84A8F0EE28F8EF340076
:101AFC00F9E82438F582E93400F583E0F97F040233
:101B0C00182074F5121774EAFEEBFFEE2434F582FC
:101B1C00EF3400F583E0C0E0EE2435F582EF3400BD
:101B2C00F583D0E0F08E828F83A3A3A3A3A3A3A3FA
:101B3C00C082C0838E828F83A3A3A3A3A3E0F8A348
:101B4C00E0F9D083D082E0C398F508A3E099F509B9
:101B5C00EE2480F582EF3400F583E064017069EEC9
:101B6C002481F582EF3400F583E0F8A3E0F98E824E
:101B7C008F83A3A3A3A3A3A3A3E0FCA3E0FD8E8266
:101B8C008F83A3A3A3A3A3E0FAA3E0FBC3EA9CEB7C
:101B9C009D5027C3EC98ED99402EC3EA98EB9950D1
:101BAC00277CFD7D04EEFAEFFB120BBCEE2480F5D6
:101BBC0082EF3400F583E4F0800EC3EA98EB994091
:101BCC00E0C3EC98ED9950D9EE2434F8EF3400F9D9
:101BDC00E8FCE9FDEE2435F582EF3400F583E0F8FE
:101BEC00EE2437F582EF3400F583E0F50AE508853D
:101BFC000AF0A4F508AAF0850AF0E509A42AF5096B
:101C0C00E82508F8E43509F97A257B00121626EA4E
:101C1C008C828D83F05407F87401B800028004C3E1
:101C2C0033D8FCC0E0E0131313541FF8EE28F8EF80
:101C3C003400F9E8245DF582E93400F583D0E0F84E
:101C4C00E0586008EE2434F582EF801EEE2436F561
:101C5C0082EF3400F583E0F5F0EA84A8F0EE28F882
:101C6C00EF3400F9E82438F582E93400F583E0F923
:101C7C00122509021B09C082C0838518828519832D
:101C8C00E0F8A3E0F9C3EA9CEB9D5012C3EC98ED8D
:101C9C00994019C3EA98EB99501279018010C3EA64
:101CAC0098EB9940F5C3EC98ED9950EE7900D08300
:101CBC00D08222EAC39CFAEB9DFB2200852187850A
:101CCC0022C622C0E0C0D0E8C0E0E9C0E0EAC0E033
:101CDC00EBC0E0ECC0E0EDC0E0C008C009C00AC039
:101CEC000BC082C083C0F0759B00906182E0A2E6BD
:101CFC004003021DADE591A2E64003021DAD7591B6
:101D0C00BF9003C2E064057008120CF4120D008041
:101D1C0003120CFA752100120D5AE99003C3F079E5
:101D2C0000120D4E120B327A017B009003C1E0F9C8
:101D3C0012101E907803E064426003021DF69005B9
:101D4C005FE014F06003021DF6C2AF121D5A00785A
:101D5C002AD0E0F618D0E0F6E59F5407F97005900C
:101D6C00817F80039081AB7808121581E9C4C0E0B3
:101D7C007829E65508F50808E65509F509740B7835
:101D8C000812168FD0E02508F8906270E0A2E740A8
:101D9C00F8E8C333906272F0906270E0D2E0F080A9
:101DAC0049E0A2E55024E591A2E5501E7591DF9023
:101DBC0003C2E0640D70139003E4E004F064287037
:101DCC0002E4F07A00E0F9120DCC906181E0A2E31C
:101DDC005009E5E9A2E3500375E9F7A3E0A2E75047
:101DEC0009E591A2E7500375917FD0F0D083D082A2
:101DFC00D00BD00AD009D008D0E0FDD0E0FCD0E068
:101E0C00FBD0E0FAD0E0F9D0E0F8D0D0D0E032C08E
:101E1C00E0C0D0C082C083906183E0A2E05009E5AD
:101E2C00BFA2E0500375BFFEE0A2E15009E5BFA2DE
:101E3C00E1500375BFFDE0A2E25009E5BFA2E250FC
:101E4C000375BFFBE0A2E35009E5BFA2E3500375A5
:101E5C00BFF7E0A2E45009E5BFA2E4500375BFEF61
:101E6C00E0A2E55009E5BFA2E5500375BFDFE0A293
:101E7C00E65009E5BFA2E6500375BFBFD083D08200
:101E8C008088C0E0C0D0E8C0E0E9C0E0EAC0E0EB88
:101E9C00C0E0ECC0E0EDC0E0C0F0E5A7A2E6500F5A
:101EAC00E5A1A2E6500953A7BF75A1BF121EF3E529
:101EBC00A7A2E5500CE5A1A2E5500653A7DF75A13A
:101ECC00DFE5A7A2E15009E5A1A2E1500375A1FD50
:101EDC00E5A7A2E2500CE5A1A2E2500653A7FB75C0
:101EEC00A1FBD0F0021E0474F81217747521019036
:101EFC0003C2E064067015120C888A828B83A3A33C
:101F0C00A3A3A3A3E0FAA3E0FB120CE2A2AFE43379
:101F1C00FED2AF9003C8E0640170187A207B009069
:101F2C0003C1E0F91210A87A207B009003C1E0F9FC
:101F3C00121024906182E0D2E6F090055EE0602100
:101F4C0085C62280169003C7E064017008E5C6546C
:101F5C00F84405F5C653BEFC121CC874016521601B
:101F6C00E4EEA2E092AF7F01021820008E238F24B2
:101F7C00858228858327851882851983E0CEA3E086
:101F8C00CF852882852783EBC9EAC8EDCBECCA75CF
:101F9C00F010C3E833C8E933C9EA33CAEB33CBC317
:101FAC00EA9EF526EB9FF525B35004AB25AA26EC4B
:101FBC0033CCED33CDD5F0DAAE23AF242274EB1253
:101FCC00177474FA1216B18A088B098C148D15903B
:101FDC0003C2E024F7C3940550069081F302212B31
:101FEC00120C888A0A8B0BAE0AAF0BEE4F700302F1
:101FFC002128AC08AD09851882851983AA82AB8388
:10200C00120D128E828F83A3A378081215819081F2
:10201C00D3780812155B851882851983780C1215F4
:10202C00819081D3780C12155B7808790C1213937C
:10203C00501F7808790C121533908173780812139D
:10204C00B34047850810850911850A12850B13804A
:10205C0041850C10850D11850E12850F13781079A2
:10206C000812153390817378101213B3501C75102D
:10207C00007511007512007513017810790C12158A
:10208C0033781079081214FA80089081F3781012C2
:10209C001581740978101214DB9081E378081215FD
:1020AC0081781079081214528E828F83A3A3A3A374
:1020BC00A3A3E0F8A3E0F97AD07B031216268808D4
:1020CC008909E4F50AF50B781079081214FA7404EE
:1020DC001216FCE0F8A3E0F97AD07B03121626E87E
:1020EC00FA8A08E4F50978107908121393500778E6
:1020FC001079081215339003C2E06408600AE0649A
:10210C00066005E06405701C90817778101213B39B
:10211C00501290817B781012150D800890819F7859
:10212C001012158185148285158378101215907400
:10213C00061216C77F0E02182074F7121774120DB0
:10214C002490055CE064017010906245E4F0A3F00B
:10215C0053F4F343FE0C5390F3120CD0E5C65480A9
:10216C004449F5C6E59E547F644970F890618574C6
:10217C000FF090055AE0F47002A3E0604E90055BFE
:10218C00E0600814601B14602E804075080175090E
:10219C000090055AE0780812169EE508F4528080EB
:1021AC002A75080175090090055AE0780812169EE8
:1021BC00E508F45290801475080175090090055AD1
:1021CC00E0780812169EE508F452A079007F02020E
:1021DC00182074F7121774E9FEEAFF74016E700C84
:1021EC007A807B009003C1E0F912101E902568E400
:1021FC0093F46008E493F9120B26800953C680E52A
:10220C009E547F70FA120CD690055CE0640170034A
:10221C00120B3E90055AE0F47002A3E0604B90055F
:10222C005BE0600814601A14602C803D7508017521
:10223C00090090055AE0780812169EE50842808045
:10224C002875080175090090055AE0780812169E49
:10225C00E5084290801375080175090090055AE055
:10226C00780812169EE50842A0120D24120C888ADA
:10227C00088B09A808A909E8496015E5E170FCE894
:10228C002414F582E93400F583E0F46003E0F5E111
:10229C0074016F700A7A019003C1E0F91210720296
:1022AC0021D974F11217748A088B098C0A8D0B745E
:1022BC000F1216FC780C1215819081D37808121528
:1022CC005B9081D3780C12155B7808790C12139300
:1022DC0050157808790C1215339081737808121305
:1022EC00B3401579018013780C790812153390815D
:1022FC0073780C1213B340EB79007F08021820742A
:10230C00ED1217748A088B098C0A8D0B7413121634
:10231C00FC780C1215819081D3780812155B908192
:10232C00D3780C12155B780C790812139340117842
:10233C0008790C121533AA08AB09AC0AAD0B802234
:10234C007510007511007512007513017810790C59
:10235C00121533781079081214FAAA10AB11AC12BA
:10236C00AD137F0C0218209081D378081215818A46
:10237C00828B83780812156E7F0402182074F51274
:10238C0017748C828D8378081215818A828B8378DE
:10239C0008121547EA2404F8EB3400F98C828D837B
:1023AC00A3A3A3A3E0FCA3E0FD88828983C3E09CE4
:1023BC00F0A3E09DF088828983C3E09420A3E0948D
:1023CC004E40229081FB78081215818A828B83788B
:1023DC00081215208A828B83A3A3A3A3E02420F0E8
:1023EC00A3E0344EF0808074F5121774E9FE90056A
:1023FC0014E0FAA3E0FBEEC333F8E433F974E928F4
:10240C00F582748039F583E02AF508A3E03BF509E1
:10241C00780812191B9081F712159F121F787402FD
:10242C001216C78A088B098C0A8D0B741078081247
:10243C0014C2AA08AB097F0402182074F112177495
:10244C008A0C8B0D8C0E8D0F740F1216FCE0FAA3F8
:10245C00E0FB74111216FCE0F508A3E0F509741307
:10246C001216FCE0FEA3E0FF780812191BEA240107
:10247C00F508EB3400F509E4F50AF50B780C79084E
:10248C001213D29081877808121581780C79081272
:10249C0013D2AA0CAB0DAC0EAD0F121F7874021236
:1024AC0016C78B09EA450960047A0180027A00ECB0
:1024BC002AFCED3400FDECF8EDF97A717B02121672
:1024CC002688088909E4F50AF50B8E828F83780833
:1024DC00121590ECF8EDF97A717B021216268A0827
:1024EC008B097405780812169E8E828F83A3A3A382
:1024FC00A3E508F0A3E509F07F08021820C082C00C
:10250C0083E9906000F0D083D08222C0E074F21294
:10251C001860A2AFE433FED2AFE589A2E04006E535
:10252C0089A2E150031211F2758900758900C2C5A8
:10253C00751A00EEA2E092AF7F010218BFC0E0C096
:10254C00D0E8C0E0E5A8D2AFC2C7751A00A2E792E6
:10255C00AFD0E0F8D0D0D0E032020135FFFFFFFF62
:10256C00FFFFFFFFC082C083E9900A27F00227F427
:10257C0074F7121708E99002E0F07C187D037AFFDB
:10258C007BFF12085C9002E174FFF0A3F0A3E4F06F
:10259C00A3F079051207E49002E0E0F912070C7A37
:1025AC007A7B08120A3C02350274F41217088A0866
:1025BC008B09EB548060309002E0E0F91210068A2F
:1025CC000A8B0BAE0AAF0BEE4F60138E828F83E03B
:1025DC0064B070031207FCEEFAEFFB120FF4AA08BA
:1025EC00E5096480FB80047A007B000227C374F247
:1025FC0012170874FC1216B1EAFEEBFF74121216D5
:10260C00FC1239E9EE4F700302269D74021216FC7F
:10261C00EEF0A3EF1229FEECF0A3ED1229FEAA8234
:10262C00AB83120706E9F50A706AE5084509606490
:10263C008E828F831239CFEE4F60567A067B001252
:10264C00105A8A0C8B0DA80CA90DE8497005750A57
:10265C0013804188828983E41226AAEEF0A3EF123C
:10266C0039FAE508F0A3E509F09002E6122731905B
:10267C0002E670051234AC801B12349A8003EAFC1B
:10268C00EBFD8C828D8312273170F38C828D8380CD
:10269C00E3750A02A90A74041216C7023BE9F0A3F7
:1026AC001239A0A32274F2121708890AE975F017DF
:1026BC00A4FEAFF09002E5E4F09002E31227316043
:1026CC000A1210609002E3E4F0A3F0EEFAEFFB12B2
:1026DC00105A8A088B09EA4509602FEEFCEFFD7948
:1026EC0000120FE29002E3E508F0A3E509F07B008D
:1026FC00800812271BE4F0A3F00BEBC3950A40F201
:10270C00E50A9002E5F0790080027913023BE9EBCF
:10271C0075F017A4F8A9F09002E3E028FAA3E039C9
:10272C008A82F5832212313EEA4B2274F412170886
:10273C00740C1216FC1239C4FEE9FF7508007509F9
:10274C0000800CE5082401F508E5093400F509C3FF
:10275C00E5089CE5099D503285080A85090B740330
:10276C00780A12169EEA250AF8EB350BF98882894D
:10277C0083A3A3A3A3A3A3123581EE650A7003EF71
:10278C00650B70BFE8FAE9FB80047A007B008027B8
:10279C0074F41217087900EAA2E0501B75084A7508
:1027AC000981780812191B7C047D007A297B0A1296
:1027BC0007DE74021216C77F040217DAC082C083C8
:1027CC009002E61227FB601C88828983A3A3E06A2F
:1027DC007003A3E06B8882898370E8A3A3A3A31280
:1027EC00313A80047A007B00D083D082020135120A
:1027FC003CCFE8492274EE12170874FC1216B1EAA9
:10280C00FEEBFF851882851983E4F0A3F0EE240219
:10281C0012348CEE24051239A7EE2404F50EEF12B7
:10282C002DB3E024FE603924FC604624FE60522463
:10283C00FE605E24FE700302291424FE700302293C
:10284C007824FE700302298724FE70030229962443
:10285C00FC70030229A524FE70030229B40229F19D
:10286C009002FF7417F0A3E4122A061204840229C2
:10287C00F1851882851983AC82AD83120802022976
:10288C00C1851882851983AC82AD83120808022990
:10289C00C1850C08850D0974021216FCAC82AD833F
:1028AC0085088285098312313A12072A8A0C8B0D0E
:1028BC00AC0CAD0DEC4D603BE4F50CF50D780C1249
:1028CC00191B750CFF750D02780C12191B750C0079
:1028DC00750D03780C12191B74081216FC121932A0
:1028EC00123E4B1216C7E9F50C700B123130120464
:1028FC009C800F750C018508828509831229F412BE
:10290C0034AC850C080229C474021216FCAC82ADDE
:10291C0083850C82850D83122F05603C850C828586
:10292C000D83A3A31219327510FF751102781012C2
:10293C00191B751000751103781012191B740812ED
:10294C0016FC121932123E4B1216C7E9F509700B20
:10295C001231301204A2800F750901850C82850D8D
:10296C00831229F41234AC850908804C85188285B1
:10297C001983AC82AD8312080E803A8518828519B2
:10298C0083AC82AD83120814802B85188285198341
:10299C00AC82AD8312081A801C851882851983AC11
:1029AC0082AD83120820800D851882851983AC8234
:1029BC00AD83120826E9F508E50860298E828F831D
:1029CC00A3E06414601F850E82850F83E09002FFE4
:1029DC001229FE123CCB9003001234ACE508A31272
:1029EC002A0612047E02339B123CCF85188285196D
:1029FC008322F085188285198322F07CFF7D028565
:102A0C000A82850B8312313E2274EE12170874FC75
:102A1C001216B18A0A8B0B8C0E8D0FEA2405F50861
:102A2C00EB3400F5097C157D0079007AFF7B0212EE
:102A3C000FE2E5082402F50CE5091239AA85188283
:102A4C00851983858210858311781012191B8508CE
:102A5C0082850983A3A3A3A3122EFC12191BE508DC
:102A6C002405F510E5093400F511781012191B85B1
:102A7C000C82850D8312325112072474061216C76C
:102A8C008A108B11AE10AF11E50A2402F50AE50B82
:102A9C0012348FEE4F7003022BD380177402121670
:102AAC00FC12313A88828983EAF0A3EBF09002FFA2
:102ABC00E004F09002FFE0C394054003022BD3E442
:102ACC00F510F511781012191B7510E875110278B4
:102ADC001012191B7510E9751102781012191B745C
:102AEC00061216FC1219327910EEFCEFFD123E4D57
:102AFC001216C7E9705E850882850983A3A3A3A378
:102B0C00A3A3A3E0F89002E8E0687048122EFC1230
:102B1C00191B7CE97D02E5082408FAE5093400FB61
:102B2C00120FDC74021216C7E960298E828F83A300
:102B3C00A3A3A312313A9002FFE0F51074027810AF
:102B4C0012169E74002510F58274033511F583EA74
:102B5C00F0A3EBF074021216FC85821085831178B9
:102B6C001012191B74021216FC121932850C828574
:102B7C000D831231601216C78A108B11AE10AF1173
:102B8C009002FFE0F5107511007402781012169E79
:102B9C0074FF2510F874023511F988828983A31209
:102BAC0027317003022A9FE82403080808E934003F
:102BBC00F9EE4F6003022AA88882898374FFF0A380
:102BCC00F09002FFE004F09002FFE0600A12313056
:102BDC001204907900800B8508828509831234A336
:102BEC00790A02339B74EA12170874FE1216B18C20
:102BFC00128D13EA2405F50CEB123E351239D37500
:102C0C000800750900EA2402F510EB3400F5118573
:102C1C00188285198385820A85830B780A12191B01
:102C2C00850C82850D83A3A3A3A3122DC912191B96
:102C3C00E50C2405F50AE50D12348F780A12191BE0
:102C4C00850C82850D83122DCD1207247406121665
:102C5C00C78A0A8B0BEA450B7003022D6EEA24041B
:102C6C00F50EEB122DB31239D38A828B83A3A3A357
:102C7C00E0F98510828511831231446003022D6EB8
:102C8C00E4F514F515781412191B7514E875150272
:102C9C00781412191B7514E9751502781412191B86
:102CAC0074061216FC1219327913AC0AAD0B85108E
:102CBC0082851183123E531216C7E9F5096003028F
:102CCC002D6E9002E8E0F8E5087009E0240290030C
:102CDC0000F08014900300E0FCE82402FAE43400D5
:102CEC00FBEA6C7001EB707E850882AA82122EF3CF
:102CFC009414122EEB506B850E82850F83E0C0E08E
:102D0C0074012A122DAAD0E0F00508850E82850FD9
:102D1C0083A3E0C0E085080A7401250A122DAAD00D
:102D2C00E0F005089002E8122DC912191B7CE97D10
:102D3C000285080A7401250A122DBD1216C79002CD
:102D4C00E8E02508F50874FF6E700374FF6F6012DD
:102D5C00EE24010EEF3400FFE508C3941450030277
:102D6C002C1BE508601312314E85108285118312DD
:102D7C00313A12049679008014E509700375090A3A
:102D8C00851282851383EEF0A3EFF0A90974021269
:102D9C0016C77F0E0217DA85080C7401250CF58214
:102DAC0074033400F583223400F50F850E82F5830D
:102DBC0022FA74033400FB120FCA740222123A096D
:102DCC0022A3A3122DD32212349AFDEEFAEFFB228A
:102DDC0074EE12170874FE1216B18C0E8D0FEA24C5
:102DEC0005F50CEB1239AA750B009002FFE4F0F517
:102DFC000AEA2402F508EB3400F50980449002FF3E
:102E0C00E0FA9002E8E0F8122EF39417122EEB4041
:102E1C000D9002FFE0F87416C3989002E8F0122EA1
:102E2C00FC12191B7CE97D0274002AFA7403122D22
:102E3C00C01216C79002E8E0F89002FFE028F005F7
:102E4C000AE50C2416F582E50D122DAEE0F8E50A24
:102E5C00C39850749002FFE0C39416506BE50AC3FC
:102E6C0033F8E433F9E50C28FEE50D39FF851882BB
:102E7C00851983AC82AD838E828F83122F057008E7
:102E8C00750B0112349F8050E4F510F51178101277
:102E9C00191B7510E8751102781012191B7510E9C1
:102EAC00751102781012191B74061216FC121932C5
:102EBC007916850882850983123E531216C7E9F5E7
:102ECC000B7003022E0980BB7CFF7D028508828576
:102EDC00098312313A1204A8A90B740202339DE93A
:102EEC009400C365D03322EA28F8E43400F9E822D0
:102EFC00E0F5107511007810221233928A108B11A4
:102F0C00AC10AD11EC4D2274EA12170874FC1216B9
:102F1C00B18A0C8B0D8C128D13EA2405F50AEB1279
:102F2C00348F750800750900E50A2402F510E50BCD
:102F3C003400F51174021216FC85820E85830F780D
:102F4C000E12191B850A82850B83A3A3A3A3123926
:102F5C00AF12191BE50A2405F50EE50B3400F50F2D
:102F6C00780E12191B85108285118312349512313B
:102F7C003412072474061216C78A0E8B0FAE0EAFCE
:102F8C000FE50C2402F50EE50D3400F50F803888A2
:102F9C0082898374FFF00508122DA374FFF00508D5
:102FAC009002E8E0F50C750D00780C12191B7CE909
:102FBC007D0285080C7401250C122DBD1216C790CC
:102FCC0002E8E02508F508EE4F60278E828F83A378
:102FDC00A3A3E0F9850E82850F83123144EE2404FD
:102FEC001239A7E96027850C82850D8312312612D0
:102FFC0034ACE508700302310C12314E850E82851B
:10300C000F8312313A1204AE7900023121E4F51427
:10301C00F515781412191B7514E87515027814122D
:10302C00191B7514E9751502781412191B74081202
:10303C0016FC1219327911EEFCEFFD850E82850F0C
:10304C0083123E531216C7E9F509709A850882AAB5
:10305C0082EA9002E87009E02404900300F08025D5
:10306C00E0F8900300E0F514E82404FCE43400FDDF
:10307C00EC65147001ED7081122EF39412122EEB8C
:10308C004003023005850C82850D83E0C0E074019D
:10309C002A122DAAD0E0F00508850C82850D83A399
:1030AC00E0C0E0122DA3D0E012316985820C85833B
:1030BC000D780C12191B74041216FC12193285109F
:1030CC00828511831231601216C78A0C8B0DAE0CDF
:1030DC00AF0D85080C7401250CF874033400F9EE5F
:1030EC004F7003022F9B851882851983E088828993
:1030FC0083123169A3E0C0E0122DA3D0E0022FA906
:10310C00E509700375090A850A82850B831231263D
:10311C001234ACA9097404022D9B123CCF85128287
:10312C00851383227CFF7D02850A82850B831231F5
:10313C003E22E0FAA3E0FB2212313E120712E9F51F
:10314C000922900300E0F5F0E508849002FFF07C82
:10315C00FF7D0222122DD3120730740422F00508D1
:10316C008518828519832274EC12170874FE1216C6
:10317C00B18A088B098C0E8D0FEA2405FEEB340006
:10318C00FF12337CEE24181239A7EA450B700302A8
:10319C00321F12336550291232448A108B11EA45C2
:1031AC0011606B7912AC0AAD0B850882850983120C
:1031BC00313A851082851183121706E9F50A705889
:1031CC00E4F50AF50B780A12191B8E828F83A3A3E0
:1031DC00E0F50A780A12191BEE240312348C780AD3
:1031EC0012191B8E828F8312325112084A740612E6
:1031FC0016C7E9F50A7021850C82850D83E0701FD6
:10320C0085088285098312313A1204B48011750A3B
:10321C000E8009750A018004E50A600312349F854B
:10322C000C82850D83E0600479008002A90A740287
:10323C001216C77F0C0217DA851882851983123192
:10324C003E1208382212349AFD85088285098312B1
:10325C00313E2274EE12170874FE1216B18A088BD6
:10326C00098C0C8D0DEA2405FEEB3400FF750E0065
:10327C0012337CEA450B7003023343123365502C36
:10328C001232448A0E8B0FEA450F604A7912AC0A4F
:10329C00AD0B85088285098312313A850E82850F24
:1032AC0083121706E9F50E60030233468508828502
:1032BC000983123581AA0AFB12335770147AFF7BEB
:1032CC00FF123357606C88828983E50AF0A3E50B03
:1032DC00F0750A008007750E0E805F050A9002E5F6
:1032EC00E0FAE50AC39A504AE50A75F017A4FAAB5E
:1032FC00F088828983A3A3E02AFAA3E03BFB8A82AD
:10330C008B83123495EC4D70D2750A17750B0078BF
:10331C000A12191BEEFCEFFD120FCA74021216C72B
:10332C00EEFCEFFD85088285098312313A1204BA4E
:10333C008014750E098003750E01123CC7850C8232
:10334C00850D831234ACA90E022EE612082C8A10BD
:10335C008B11A810A911E84922E5082402F508E50B
:10336C00093400F5098A828B83A3A3A3E0A2E5228A
:10337C00851882851983AC82AD838E828F8312333C
:10338C00928A0A8B0B22E0FAA3E0FB12072A227422
:10339C00041216C77F0A0217DA74EC1217088C1085
:1033AC008D11EA2405F50CEB1239AA750F00EA24ED
:1033BC0002F50AEB12348F850A82F58312313A1228
:1033CC003ED97003023481750E008071850C8285A4
:1033DC000D83E06401704F8E828F83A3A312193288
:1033EC008E828F83A3A3A3A3E0F51275130078122A
:1033FC0012191BEE2405F512EF3400F51378121296
:10340C00191B12313412084A74061216C7E9F50F4B
:10341C006014850C82850D83E4F0123CC785108204
:10342C008511831234AC7C177D007900EEFAEFFB2A
:10343C00120FE28E828F83E4F0A3F0050E9002E56A
:10344C00E0F8E50EC398501EE50E75F017A4F8A928
:10345C00F0850882850983A3A3123E3F123495ECB4
:10346C004D60030233D885088285098374FFF0A36D
:10347C00F0E50F70061231341204C0A90F02323F6E
:10348C00F50AEF3400F50B22A312349AFD22E0FC6E
:10349C00A3E0228E828F83123CCF850E82850F8310
:1034AC00E8F0A3E9F022C082C0839002E1E06A70E8
:1034BC0003A3E06B70067AE17B0280047A007B0048
:1034CC000227F474F71217087F00EF75F003A4F8C5
:1034DC00A9F0EC28F8ED39F988828983E06A700349
:1034EC00A3E06B7006E8FAE9FB800B0FEFC39402C4
:1034FC0040D87A007B007F010217DA74F6121708A5
:10350C00123AB870067A007B008007A3A3A3A3121B
:10351C00313A023B7974F2121708E9FE740E121656
:10352C00FC12358174101216FC1239E98C828D83D1
:10353C00E06402703BA3123CCB88828983E0F50CDB
:10354C00A3E0F9A80C7402687003742969702175E2
:10355C000C02750D00780C12191B780812191B78C7
:10356C000A12191BEEF912086E74061216C78002A5
:10357C007901023BE9E0F50AA3E0F50B2274E812AD
:10358C00170874FB1216B1E9851882851983F08A25
:10359C00168B178C0E8D0F741F1216FC1239E974D2
:1035AC00211216FC12358174231216FC1239D375B4
:1035BC0010008C828D83A3A3A3E0A2E4502A741D77
:1035CC001216FC12324A8A828B83E5824583700381
:1035DC00023695790AAC0EAD0FAA16AB1712170668
:1035EC00E9F5106003023698850E82850F83E0643E
:1035FC0002600302394EA3123CCB850882850983F5
:10360C00A3858212858313E50E2406F50CE50F12B3
:10361C0039AA88828983E0FAA3E0F9EA2400F51438
:10362C00E439F51578141219A50100002801285D5C
:10363C00360700022834370328A43600295E3801E7
:10364C0029863802292D3803295E380429EF384E93
:10365C0039EE4F703E850C82850D831239C4FAE920
:10366C00FB8A828B83E0850A82850B83123A0012D7
:10367C00191B8A828B83A312349AFDAA08AB0912F8
:10368C000FCA74021216C7800375100EA9107405A8
:10369C00023E2D75100B80F4EE4F70F7850A828573
:1036AC000B837401F01239D9850882850983F07C6B
:1036BC00007D00850E82850F83A3A3A3A3E02401C4
:1036CC00FAA3E03400FB12072AEA4B60418A828B92
:1036DC0083E02402F8850A82850B83E028F0EA2433
:1036EC0004F8EB3400F988828983E0851282851313
:1036FC0083123A12123A0012191B8A828B831234EB
:10370C0094E5082403FAE5093400FB02368B850A9C
:10371C0082850B83E02404F07C047D007900AA12DE
:10372C00AB13120FE2023698EE4F600302369F1273
:10373C0039D9FEA3E0FF850A82850B837404F0EE71
:10374C00850882850983F0EF851282851383F074D6
:10375C00031216FCAC82AD83EEFAEFFB123AA670A4
:10376C000302380A8A828B83A3A31239CF74011205
:10377C0016FC85820E85830F780E12191B740512A8
:10378C0016FC1219327CFF7DFF12073074041216DE
:10379C00C78B0FEA450F7033850C82850D83123968
:1037AC00AF12191B850C82850D83A31219327C0272
:1037BC007D007A237B8212055C74041216C7E970B3
:1037CC000A74011216FC74FFF0A3F08E828F83E052
:1037DC0064027034750C02750D00780C12191B8E76
:1037EC00828F83123494E5082404FAE509122DC063
:1037FC001216C7850A82850B83E0240280097401A6
:10380C001216FCEEF0A3EFF074011216FC1239C084
:10381C00F074011216FCA31239B8A3A3A3F002365C
:10382C0098EE4F600302369F850C82850D8312340F
:10383C0095AA16AB17120862850A82850B8374024F
:10384C00F0EA850882850983F0851282851383EB63
:10385C0080CBEE4F600302369F1239D9F8A3E0F902
:10386C00850A82850B837402F0E8850882850983BA
:10387C00F0E985128285138380A3850C82850D83E4
:10388C0012313A120FC4EAFC8C82A882C39EE49FC8
:10389C00404BE86E7001EF70047C00801F8518822D
:1038AC00851983E0FAEE2AFAEF3400FBC3EA98EBB1
:1038BC0094005003E08004EECCC39CFCEC850A829F
:1038CC00850B83F08C0A750B00780A12191B850C7A
:1038DC0082850D83E02EFCA3E03F0236867510072F
:1038EC00023698EE4F600302369F850C82850D835D
:1038FC00123CCB850A82850B837407F088828983FE
:10390C001239B81239A0E0851282851383F0E824AD
:10391C0002FAE93400FB8A828B831239B81239F12E
:10392C001239C0A31239FA1239C9F0E82405F8E9A2
:10393C003400F9888289831239C9A3123A12A3027E
:10394C003826741D1216FC123AB170030236951209
:10395C003CCB880C890DE8450D70030236958E1012
:10396C008F11781012191B780A12191B780812196A
:10397C001B74061216FCE0F9AC0EAD0FAA16AB17B1
:10398C00850C82850D8312170674061216C7E9F58D
:10399C0010023698F088828983A322F50CEF34004C
:1039AC00F50D22E0F50E750F00780E22E0850882E9
:1039BC0085098322123A1922123CCFE822123A19B5
:1039CC00A3A322A3A3A3A3E0FEA3E0FF22850C8262
:1039DC00850D83E0F8A3E0F5838882E022E0F5080A
:1039EC00A3E0F50922A3A3F08A828B83A3221226DB
:1039FC00ACA3A322F08A828B83123A0922E0F50A47
:103A0C00750B00780A221239A0123A1922E08508A7
:103A1C0082850983A3A32274EE12170874FE121672
:103A2C00B18A0A8B0BECFAEDFB74141216FCE0F560
:103A3C0010A3E0F51174161216FCE0FE74181216A1
:103A4C00FCE0F50EA3E0F50F851882851983AC8296
:103A5C00AD83123AA6603E851882851983123AB15D
:103A6C00602FA3A31239E9E50845096024780E12EA
:103A7C00191B781012191BEEF9AC0CAD0DAA0AAB80
:103A8C000B85088285098312170674041216C780E9
:103A9C0006790E80027901022EE612072A8A0C8B17
:103AAC000DEA450D2212313E123AB8221207F68A5F
:103ABC00828B83E58245832274F612170874FE12FA
:103ACC0016B1740C1216FC1239C485188285198330
:103ADC00F074011216FCE9F0E4F508F50978081207
:103AEC00191B750802780812191B74041216FC8530
:103AFC008208858309780812191B12084A74061269
:103B0C0016C774021216C7806474F7121708EAFEFF
:103B1C00EBFF89087C187D03120862EA5402600BE3
:103B2C00A908EEFAEFFB12071E800279010235029A
:103B3C0074F612170874FF6A700374FF6B701C7BA9
:103B4C0000EB75F003A4F8A9F0EC28F8ED39F912A4
:103B5C003B7E0BEBC39402501480E61208328A08A9
:103B6C008B09A808A909E8496003123B7E7F020271
:103B7C0017DA8882898374FF1226AAE4F02274F67D
:103B8C001217081208328A828B83E58245836006FD
:103B9C00A3A3E0FA80027A007B0080D174F21217A2
:103BAC00088A088B09ECFEEDFF740E1216FCE0F58A
:103BBC000A123BEE701CEEFCEFFD7AFF7BFF123B12
:103BCC00EE70047911801688828983E508F0A3E5EC
:103BDC0009F088828983A3A3E50AF079007F0602A5
:103BEC0017DA1208328A0C8B0DA80CA90DE84922A1
:103BFC0074EE121708EAFEEBFF8C088D09890C7421
:103C0C00121216FC123CCB74141216FC123495745E
:103C1C00161216FC12313A750D00EC4D6003023C85
:103C2C00BF7402650C6003023CBA8882898312342B
:103C3C009AF9EC2400F50EE439F50FEAF4F8EBF4FC
:103C4C00F9EC58F8E50F59F9E849705DE5082406D8
:103C5C00F8E5093400F9880A890B8882F583122D5E
:103C6C00CF1208628A108B11E50E65107004E50FF7
:103C7C0065116042780E12191B850A82850B83121E
:103C8C002DCF12086874021216C7E9F50D7027784B
:103C9C000E12191B850882850983A3A3122DCD1240
:103CAC00088074021216C7800D750D808008750D82
:103CBC000D8003750D0BA90D0233A08E828F83121C
:103CCC003CCF22E0F8A3E0F92274E812170874E75D
:103CDC001216B1851882851983EAF0A3EBF08C16C5
:103CEC008D17890E74311216FCE0F512A3E0F51352
:103CFC0074331216FCE0F514A3E0F51574351216A6
:103D0C00FCE0F50F750800750900E50975F003A4D2
:103D1C00F8A9F0851882851983123E3FE0F47003F0
:103D2C00A3E0F47003023E1DEE2402F50CEF123EEC
:103D3C0035E07003023E1D85160A85170B780A12B2
:103D4C00191BAC14AD15AA12AB131207EA740212AC
:103D5C0016C78A0A8B0BEA450B7003023E1DE4F56D
:103D6C0010F511781012191B74061216FC858210AE
:103D7C00858311781012191B74091216FC85821098
:103D8C00858311781012191B851282851383A3A3C6
:103D9C00A3A31219327914AC0AAD0B8E828F831245
:103DAC003E531216C7E97069850A82850B83A3A35B
:103DBC00A3A3123CCB74021216FC1234AC850C82F9
:103DCC00850D83E0A2E05018A90E74021216FCAC0B
:103DDC0082AD838E828F8312313A120742E94208F8
:103DEC00850C82850D83E0A2E15026E50FF50A785B
:103DFC000A12191FA90E74031216FCAC82AD838E25
:103E0C00828F8312313A12073C74011216C7E942B1
:103E1C00080509E509C394025003023D16A908746C
:103E2C00191216C77F100217DA3400F50D850C82B3
:103E3C00F58322E028FEA3E039FF8E828F8322795E
:103E4C0016850A82850B8312313E120844740822AF
:103E5C0074F2121708EAFEEBFF890B7401650B6014
:103E6C000E7402650B70637901120A5AE9705BEEED
:103E7C00FAEFFB123ED96047750A00800B7C177D68
:103E8C00007900120FE2050A9002E5E0F8E50AC39A
:103E9C00985021E50A75F017A4F8A9F085088285D9
:103EAC000983A3A3E028FAA3E039FB8A828B83124F
:103EBC0027FB70C985088285098374FFF0A3F07C09
:103ECC00187D03EEFAEFFB12085C023BE912082C9A
:103EDC008A088B09EA45092274F21217088A088BA2
:103EEC0009ECFEEDFF740E1216FC123581900A27B8
:103EFC00E0F4603D7A097B00120FEEEA4B60328AE7
:103F0C00828B8374B1F0A3E41239F3A31239F1A3B9
:103F1C00E508F0A3E509123F40EEF0A3EF123F4095
:103F2C00A3A3E50AF0A3E50BF0900A27E0F9120F22
:103F3C00FA023BE9F08A828B83A3A3A3A3A322C03A
:103F4C0082C0839061907404F0A37448F0A374024F
:103F5C00F09061807440F09061BC7403F0906187C4
:103F6C007419F0906265741BF090619C740DF09064
:103F7C00619A7433F0A37455F09061A0743AF09088
:103F8C00055CE064017009C2919003C674678005FA
:103F9C009003C67461F090256EE493906186F09066
:103FAC002568E493F46027E493540FF8906185E05E
:103FBC00686012E5C654804449F5C6E59E547F649A
:103FCC004970F8E8F053C680E59E547F70FA790585
:103FDC00120DAE02418DC082C083E9540FF990617D
:103FEC0085E0696012E5C654804449F5C6E59E54E7
:103FFC007F644970F8E9F053C680E59E547F70FAEF
:10400C0002418DC082C083E5A8F853A87E906181DF
:10401C00E4F0A3F0A3F0C2BA539AFEC289759B00D8
:10402C00C2C275E90075910075BF0075A91175B90B
:10403C0005906181F0A374C0F0A3E4F0D2BA439A66
:10404C000174805842A802418DC082C08374F8125A
:10405C0016B19003C4E0F8A3E0F9E84970030241FB
:10406C00839003C4E0544060237908851882851935
:10407C0083AA82AB83120C16851882851983AA82B7
:10408C00AB831208EC9003C4E054BFF0E0548060A2
:10409C0010790C7A807B05120C169003C4E0547FC7
:1040AC00F0E0A2E0503190619A7433F0A37455F0B3
:1040BC009061A0743AF090055CE064017009C291C3
:1040CC009003C6746780059003C67461F01208F201
:1040DC009003C4E054FEF0E05402603190619A7495
:1040EC003FF0A3745AF09061A0747FF090055CE0EF
:1040FC0064017009D2919003C6747180059003C657
:10410C00746AF01208F29003C4E054FDF0E0540419
:10411C00601390256CE493906186F01208F890037C
:10412C00C4E054FBF0E05408601390256DE49390C8
:10413C006186F01208F89003C4E054F7F0E05410D4
:10414C00601390256EE493906186F01208F890034A
:10415C00C4E054EFF0E05420600A1208F89003C455
:10416C00E054DFF0A3E05401600D120B3E1208FE88
:10417C009003C5E054FEF074081216C78003F0A338
:10418C00F0D083D08202013574EC12170874F4124B
:10419C0016B1851882851983AC82AD8375838175C0
:1041AC00829774041215C490256C93F46003024337
:1041BC0021907808E0C39402500302430174041266
:1041CC0016FCAC82AD83758381758222740812153E
:1041DC00C485188285198385821285831374041211
:1041EC0016FCAC82AD83750EFF750FFF7FFF7E0052
:1041FC00750C48750D78801574086E700302429426
:10420C0074096E7003024294740A6E607B850C8292
:10421C00850D8378081215818C828D83A909E50A96
:10422C00C9F88810741878081214C2E5104508F8FB
:10423C00C3E098A3E099850C82850D83780812154C
:10424C008140188C828D83741878081214C2E51082
:10425C004508F8E0C398F8A3E0801C74187808129D
:10426C0014C2E5104508FAE9FB8C828D83E0F8A3B3
:10427C00E0F9EAC398F8EB99F9C3E8950EE9950FC4
:10428C005006880E890FEEFF0EE50C2404F50CE5A4
:10429C000D3400F50DEEC39413500302420474FF69
:1042AC00650E700474FF650F60238F087402780824
:1042BC0012169E74482508F58274783509F58378B2
:1042CC0008121581851282851383E508F0EC24020F
:1042DC000C0CED3400FD851282851383A3858212AC
:1042EC00858313740C1216FCE5826C7003E5836DE8
:1042FC0060030241F2750801750900780812191B58
:10430C0074021216FCAC82AD837A5B7B091211CE5F
:10431C0074021216C7740C1216C77F0C0217DAC07F
:10432C0082C0839061AE7468F0A3746AF0906245A9
:10433C0074FBF0A304F053F4FD43FE0290055C748F
:10434C0001F09061A0E0643A90619A70237433F0AC
:10435C00A37455F09061A0743AF074016401700973
:10436C00C2919003C6746780289003C67461802143
:10437C00743FF0A3745AF09061A0747FF0740164E0
:10438C00017009D2919003C6747180059003C674B4
:10439C006A02418C7F040217DAC082C08390050E3A
:1043AC00E06401700A900513E06004790C800279D6
:1043BC000002418DC082C08375E1F1900511E0606F
:1043CC00551460081460591460518059120B5090A8
:1043DC000507E0F97A087B05120D3090818F1215D4
:1043EC009F120D669081DB12159F120D3C900512E9
:1043FC00E0F9120D487901120DA2900505E0241682
:10440C00F8A3E03400F9888289837468F0A3740BF4
:10441C00F0790002418D120B5680B4120B5C80AF08
:10442C00120B6280AA791280EA74F412170875D9FB
:10443C000D9004F6E0A2E0E4331313F8900507E0C6
:10444C00C4333354C0484401F5D9780579058882C2
:10445C008983A3A3A3E0F5D988828983A3A882A921
:10446C0083E8640B7003E9640570E378F6790488DB
:10447C00828983A3E0F5D988828983A3A882A98342
:10448C00E864FC7003E9640470E575E1959004F64A
:10449C00E0F97AF77B04120D36900A4974FCF0A30C
:1044AC00740AF0A3745EF0A3740CF0A3745EF0A312
:1044BC00740CF0A3745EF0A3740CF0A37402F0A35C
:1044CC00740BF0A3745EF0A3740CF0A3741AF0A335
:1044DC00740BF0900A57745EF0A3740CF0A3745E26
:1044EC00F0A3740CF0A3745EF0A3740CF0A3745ED0
:1044FC00F0A3740CF0A3745EF0A3740CF0A3745EC0
:10450C00F0A3740CF0900505E0F8A3E0F583888225
:10451C00A3A3780812158190818B780812150D9041
:10452C0081D3780812155B900505E0240EF8A3E002
:10453C003400F9888289837808121590900505E07B
:10454C002414F8A3E03400F9888289837413F09062
:10455C0003C27402F00243A0C082C083900517E02E
:10456C002407F5D9900507E0C4333354C0F5D97846
:10457C0005790588828983A3A3A3E0F5D98882896C
:10458C0083A3A882A983E8640B7003E9640570E334
:10459C00900517E0601F78057905FAE82413F58279
:1045AC00E93400F583E0F5D988828983A3A882A930
:1045BC00831AEA70E6900537E02407F5D9900507D1
:1045CC00E0C4333354C04404F5D9780579058882A6
:1045DC008983A3A3A3E0F5D988828983A3A882A9A0
:1045EC0083E8640B7003E9640570E3900537E060C1
:1045FC001F78057905FAE82433F582E93400F58350
:10460C00E0F5D988828983A3A882A9831AEA70E687
:10461C0075E195900A497408F0A3740BF0A3745ECD
:10462C00F0A3740CF0A3745EF0A3740CF0A3745E8E
:10463C00F0A3740CF0A37402F0A3740BF0A3745EDB
:10464C00F0A3740CF0A3741AF0A3740BF0900A5737
:10465C00745EF0A3740CF0A3745EF0A3740CF0A35E
:10466C00745EF0A3740CF0A3745EF0A3740CF0A34E
:10467C00745EF0A3740CF0A3745EF0A3740CF09051
:10468C0081FB12159F900505E0240EF8A3E0340081
:10469C00F9888289831215AB900505E02414F8A3E0
:1046AC00E03400F9888289837412F09003C274019B
:1046BC0002418CC082C083900517E02407F5D99085
:1046CC000507E0C4333354C04402F5D978057905A5
:1046DC0088828983A3A3A3E0F5D988828983A3A8C0
:1046EC0082A983E8640B7003E9640570E3900517F5
:1046FC00E0601F78057905FAE82413F582E93400A7
:10470C00F583E0F5D988828983A3A882A9831AEA64
:10471C0070E675E195900A497414F0A3740BF0A33C
:10472C007414F0A3740BF0A37414F0A3740BF0A323
:10473C007414F0A3740BF0A37414F0A3740BF0A313
:10474C007414F0A3740BF0A3741AF0A3740BF09010
:10475C000A57745EF0A3740CF0A3745EF0A3740C8F
:10476C00F0A3745EF0A3740CF0A3745EF0A3740C4D
:10477C00F0A3745EF0A3740CF0A3745EF0A3740C3D
:10478C00F09081FB12159F900505E0240EF8A3E034
:10479C003400F9888289831215AB900505E0241446
:1047AC00F8A3E03400F9888289837414F09003C272
:1047BC00740402418CC082C083900517E02407F575
:1047CC00D9900507E0C4333354C04406F5D97805B5
:1047DC00790588828983A3A3A3E0F5D9888289838C
:1047EC00A3A882A983E8640B7003E9640570E390C5
:1047FC000517E0601F78057905FAE82413F582E9BE
:10480C003400F583E0F5D988828983A3A882A98333
:10481C001AEA70E6900537E02407F5D9900507E011
:10482C00C4333354C04404F5D9780579058882899A
:10483C0083A3A3A3E0F5D988828983A3A882A98343
:10484C00E8640B7003E9640570E3900537E0601FC2
:10485C0078057905FAE82433F582E93400F583E02C
:10486C00F5D988828983A3A882A9831AEA70E67590
:10487C00E195900A49740EF0A3740BF0A3745EF0EA
:10488C00A3740CF0A3745EF0A3740CF0A3745EF02C
:10489C00A3740CF0A3745EF0A3740CF0A3745EF01C
:1048AC00A3740CF0A3741AF0A3740BF0900A577451
:1048BC005EF0A3740CF0A3745EF0A3740CF0A374FC
:1048CC005EF0A3740CF0A3745EF0A3740CF0A374EC
:1048DC005EF0A3740CF0A3745EF0A3740CF09081E2
:1048EC00FB12159F900505E0240EF8A3E03400F9A7
:1048FC00888289831215AB900505E02414F8A3E097
:10490C003400F9888289837415F09003C274030211
:10491C00418CC082C083900505E0F8A3E0F5838844
:10492C0082A3A3A3A3A3A3E402418A74F7121708DA
:10493C009003F0E0F875F004A4C8AAF02AF974F218
:10494C0028F8740339F9E82405FAE93400FB8A8263
:10495C008B83E0FCA3E0FD88828983A3A3A3A3A39C
:10496C00A3A3A3A3ECF0A3EDF088828983A3A3A354
:10497C00A3A3A3A3E024FFF8A3E034FFF98A828B5E
:10498C0083E8F0A3E9024BDC74F7121708EAFEEB9C
:10499C00FF9061D0E06003024A7175D90E75D9039E
:1049AC0075D904EE248CF582EF3400F583E582246E
:1049BC0008F8E5833400F9E0F5D9A3E865827003C3
:1049CC00E9658370F2EE2484F582EF3400F583E51B
:1049DC00822404F8E5833400F9E0F5D9A3E8658274
:1049EC007003E9658370F275E1957908EE248CFA11
:1049FC00EF3400FB120C0A7904EE2484FAEF340035
:104A0C00FB120C0A7C00EEF8EFF9ECFAC3E49AFA0C
:104A1C0095E0FBEE2AFAEF3BFBEA248BF582EB34B4
:104A2C0000F583E0C0E0E824ABF582E93400F583BF
:104A3C00D0E0F00C88828983A3A882A983ECC3946C
:104A4C000840C7EE2470F582EF3400F583E0F8A33C
:104A5C00E0F9EE2472F582EF3400F583E8F0A3E977
:104A6C00F0790180027900024BDDC082C08375D9D8
:104A7C000275D90375D90575E195EA2470F582EBB9
:104A8C003400F583E0F8A3E0F9EA2472F582EB3404
:104A9C0000F583E8F0A3E9F0790102418D74F61278
:104AAC001708EAFEEBFF9005607406F07508607558
:104ABC000905780812191B7C017903120C52740237
:104ACC001216C775D90675D903758260758305E012
:104ADC00F5D9A3E58264657004E583640570F0750F
:104AEC00E1959003C2E06408701EEE2470F582EF2D
:104AFC003400F583E0F8A3E0F9EE2472F582EF348C
:104B0C0000F583E8F0A3E9F07901024CA974F612E0
:104B1C001708EAFEEBFF9061D0E070667801900513
:104B2C0060740BF09003C2E064077019750860752F
:104B3C000905780812191B7C017903120C527402B6
:104B4C001216C77805740128F5D975D903758260DA
:104B5C00758305E8FAE0F5D9A31AEA70F875E195C2
:104B6C00EE2470F582EF3400F583E0F8A3E0F9EE63
:104B7C002472F582EF3400F583E8F0A3E9F07901B3
:104B8C0080027900024CA974F7121708EAFEEBFFB9
:104B9C0075D90375D90375D90DEE24DEF582EF3482
:104BAC0000F583E0F5D975E1957904120D6CEE24CE
:104BBC0070F582EF3400F583E0F8A3E0F9EE24728F
:104BCC00F582EF3400F583E8F0A3E9F07901800178
:104BDC00F07F010217DA74F6121708EAFEEBFF9069
:104BEC0061D0E0F87480C398FAEE2483F582EF3438
:104BFC0000F583E06004780480027800E8240BF868
:104C0C00EAC3985003024CA77D09900560EDF0EEC5
:104C1C0024E3F8EF3400F97A617B057C08888289FB
:104C2C0083E08A828B83F088828983A3A882A983FC
:104C3C008A828B83A3AA82AB831CEC70E0EE248364
:104C4C00F582EF3400F583E0601D75086075090589
:104C5C00780812191B7C097903EEFAEFFB120C523F
:104C6C0074021216C77D0D74012DF5D975D9037513
:104C7C0082607583058D08E0F5D9A31508E50870E9
:104C8C00F675E1957904120D6CEE241DF582EF3466
:104C9C0000F583E4F0A3F07901800279007F020231
:104CAC0017DA74F6121708EAFEEBFF9061D0E0F801
:104CBC007480C398FAEE2483F582EF3400F583E018
:104CCC006004780480027800E82408F8EAC398505D
:104CDC0003024DAE7D06900560740CF09003DFE08E
:104CEC00900561F07AE07B03786279057C028A8218
:104CFC008B83E088828983F08A828B83A3AA82AB20
:104D0C008388828983A3A882A9831CEC70E07AE251
:104D1C007B037C028A828B83E088828983F08A827F
:104D2C008B83A3AA82AB8388828983A3A882A9835D
:104D3C001CEC70E0EE2483F582EF3400F583E06028
:104D4C001D750860750905780812191B7C06790316
:104D5C00EEFAEFFB120C5274021216C77D0A7401A4
:104D6C002DF5D975D9037582607583058D08E0F52D
:104D7C00D9A31508E50870F675E1957904120D6C48
:104D8C00EE2470F582EF3400F583E0F8A3E0F9EE41
:104D9C002472F582EF3400F583E8F0A3E9F0790191
:104DAC0080027900024CA974F6121708EAFEEBFF98
:104DBC009061D0E0F87480C398FAEE2483F582EF0A
:104DCC003400F583E06004780480027800E8240461
:104DDC00F8EAC3985003024E8D7802900560E8F013
:104DEC00EE24F5F582EF3400F583E0900561F0EEEA
:104DFC002483F582EF3400F583E0601B7508607541
:104E0C000905780812191B7C027903EEFA120C5270
:104E1C0074021216C77806740128F5D975D9037572
:104E2C0082607583058808E0F5D9A31508E508703C
:104E3C00F675E195EE2474F582EF3400F583E4F019
:104E4C00EE2480F582EF3400F583E4F0EE241DF5BA
:104E5C0082EF3400F583E4F0A3F07904120D6CEECC
:104E6C00240DF582EF3400F583E0F8A3E0F9EE248D
:104E7C0072F582EF3400F583E8F0A3E9F079018054
:104E8C00027900024CA974F61217089061D0E0F870
:104E9C007480C398FCEA2483F582EB3400F583E03C
:104EAC006004780480027800E82404F8ECC398408D
:104EBC005B79029005607407F0EA24F6F582EB3416
:104ECC0000F583E0900561F0EA2483F582EB340071
:104EDC00F583E06018750860750905780812191BD0
:104EEC007C0209120C5274021216C779067401293D
:104EFC00F5D975D903758260758305E9F8E0F5D9A4
:104F0C00A318E870F875E195790180027900024CDC
:104F1C00A974F5121708E9FCA2AFE433F50AC2AF85
:104F2C007D0080010DEA246FF582EB3400F583E0FF
:104F3C00F8EDC398501A8D08EA2508F8EB3400F9FF
:104F4C00E8246BF582E93400F583E06C70D680249C
:104F5C00EA246FF8EB3400F9E0FEEA2EFAEB3400A9
:104F6C00FBEA246BF582EB3400F583ECF088828944
:104F7C0083E004F0E50AA2E092AF7F030217DA7433
:104F8C00F6121708A2AFE433FDC2AFEA246FF58224
:104F9C00EB3400F583E014F07C0060368C08EA25D5
:104FAC0008F8EB3400F9E8246CF582E93400F58359
:104FBC00E0C0E0E8246BF582E93400F583D0E0F042
:104FCC000CEA246FF582EB3400F583E0F8ECC3981F
:104FDC0040CAEA246EF582EB3400F58374FFF0EAE4
:104FEC00246AF582EB3400F583E4F0EDA2E092AF95
:104FFC00024CA9C082C083E5A8F8C2AFEA246BF5C5
:10500C0082EB3400F583E9F0EA246AF582EB340094
:10501C00F583E4F0E8A2E792AF02418D74F3121726
:10502C0008EAFEEBFFECFAEDFB8A828B83A3A3A3C9
:10503C00A3E0541FF0EE2436F582EF3400F583E440
:10504C00F0F50AEEFCEFFD8A828B83E0C0E0EC24E5
:10505C005DF582ED3400F583D0E0F0750B00E50AC8
:10506C0033333354F8F50C8A828B83E0F5087509D9
:10507C0000E50B780812167FE508A2E0502FEE240D
:10508C0036F8EF3400F988828983E0F508EE2508BC
:10509C00F508EF3400F509E5082438F582E5093404
:1050AC0000F583E50CF088828983E004F0050B059C
:1050BC000CE50BC3940840AF050A8A828B83A3AA24
:1050CC0082AB838C828D83A3AC82AD83E50AC394BF
:1050DC000550030250537F050217DA74F7121708B4
:1050EC009003EEE0640170077A007B0002525E7E52
:1050FC00009003F4E070F17401F0A3E4F0A3F090DD
:10510C00045404F0900457E4F0A3F090045A04F013
:10511C009003F7E4F0A3F0A3F0A3F090040104F0E3
:10512C00900427E4F090819F12159F90040A1215A9
:10513C00AB90040EE4F0A3F0A3F0900472F0900492
:10514C0066F090045B7480F0A3E4F0900461F0903E
:10515C000459F09004DDF0A3F0A3F0A3F0A3F0A3A6
:10516C00F0A3F0A3F09004E6F0900475F09004C561
:10517C00F0A3F090819F12159F9004C71215AB906D
:10518C00819F12159F9004CB1215AB9004D1E4F0C3
:10519C009004D3F09004CFF09004E9F0A3F0A3F0C6
:1051AC00A3F0A3F0A3F0A3F0A3F078EE7903E82426
:1051BC006FF582E93400F58374FFF00E88828983E1
:1051CC00A3A882A983EEC3940440E37AEE7B037810
:1051DC00FD790488828983E0C0E0EA2461F582EBE2
:1051EC003400F583D0E0F088828983A3A882A98358
:1051FC008A828B83A3AA82AB83E864027003E9647E
:10520C000570D07AEE7B0378D5790388828983A3E5
:10521C00E0C0E0EA24E7F582EB3400F583D0E0F05F
:10522C0088828983A3A882A9838A828B83A3AA827A
:10523C00AB83E864DD7003E9640370CF9003EEE0A8
:10524C0004F0640170089003F6E09003F0F07AF239
:10525C007B03024BDDC082C0839003F5E4F0900326
:10526C00F4F09003EEF0A3F0A374FFF075E1F102FB
:10527C00418DC082C083780079009003F5E0600412
:10528C0078F2790388828983A3A3A3A3E0F902416E
:10529C008D74F6121708EAFEEBFF8E828F83A3A3A0
:1052AC00A3E0600F8E828F83A3A3A3E4F09003EF9F
:1052BC00E014F09003EEE014F070069003F074FF2D
:1052CC00F08E828F83A3A3E4F0900502E0700D9022
:1052DC0003EFE0640170057900120D4EEE2465F5C4
:1052EC0082EF3400F583E0F8A3E0F9E8496029EE99
:1052FC002465F8EF3400F9880889098882F583E081
:10530C00FCA3E0FD9003F0E0FA7B00120922850873
:10531C0082850983E4F0A3F0EEFAEFFB120C820213
:10532C004CA974F7121708EAFEEBFF8E828F83A349
:10533C00A3A3A3E0FA7B00120964EEFAEFFB120BB5
:10534C00D4120C6A024BDDC082C08378D5790388F5
:10535C00828983A3E4F088828983A3A882A983E845
:10536C0064DD7003E9640370E69003D60246BA74F8
:10537C00F6121708EAFEEBFFEC2403F8ED3400F903
:10538C0088088909EC2407F8ED3400F9E8FCE9FDFC
:10539C008C828D83E0F8A3E0F9850882850983E08F
:1053AC00FAA3E0FB121626EE240DF582EF3400F57D
:1053BC0083E8F0A3E9F08C828D83E0F8A3E0F98513
:1053CC000882850983E0FAA3E0FB1216268B09EA12
:1053DC0045096013EE240DF582EF3400F583E024CB
:1053EC0001F0A3E03400F0024CA974F6121708EA9D
:1053FC00FEEBFFEE242EF582EF3400F583E0FCA3E8
:10540C00E0FD780079FAECFAEDFB121626EE24702A
:10541C00F582EF3400F583E8F0A3E9F0780079FA2F
:10542C00ECFAEDFB1216268B09EA45096013EE2403
:10543C0070F582EF3400F583E02401F0A3E0340032
:10544C00F0024CA974F0121708EAFEEBFF7410126C
:10545C0016FC7808121581120D0C8A0C8B0D8C0E13
:10546C008D0F908183780C12150D9081D3780C12CE
:10547C00155B780C1219178E828F83E0F8A3E0F578
:10548C00838882A3A312159F1222AE74041216C72E
:10549C00E9600302559D8E828F83E02402F8A3E01D
:1054AC003400F9E8FAE9FB8A828B8378081215201C
:1054BC009081D378081215818A828B837808121513
:1054CC006EEE240BF582EF3400F583C082C0838E20
:1054DC00828F83A3A3A3A3A3E02401F8A3E0340049
:1054EC00F9D083D082E0687003A3E069700579017C
:1054FC0002559F8E828F83A3A3A3A3A3A3A3E0240F
:10550C0001F0A3E03400F0EE2474F582EF3400F5E2
:10551C0083E064017036EE2475F582EF3400F58378
:10552C00E0F8A3E0F98E828F83A3A3A3A3A3A3A384
:10553C00E0687003A3E0697013EE2475F582EF3414
:10554C0000F583E02401F0A3E03400F0EE2480F5B4
:10555C0082EF3400F583E064017036EE2481F5822D
:10556C00EF3400F583E0F8A3E0F98E828F83A3A3D8
:10557C00A3A3A3A3A3E0687003A3E0697013EE24B4
:10558C0081F582EF3400F583E02401F0A3E03400D0
:10559C00F079007F080217DA74F71217089003F0FD
:1055AC00E0F875F004A4C8AAF02AF974F228FE7485
:1055BC000339FF8028EE2465F8EF3400F9888289DE
:1055CC0083E0FCA3E0FD88828983E4F0A3F08E8263
:1055DC008F83A3A3A3A3E0FA7B00120922EE246518
:1055EC00F582EF3400F583E0F8A3E0F9E849604F69
:1055FC00EE2464F582EF3400F583E0F508780812A8
:10560C00191FEE2463F582EF3400F583E0F9EE24E4
:10561C0065F582EF3400F583E0FCA3E0FDEEFAEFD4
:10562C00FB120BFE74011216C7E96089EE2465F5B6
:10563C0082EF3400F583E0F8A3E0F9E84970137CBD
:10564C00007D008E828F83A3A3A3A3E0FA7B0012BC
:10565C000922024BDD74F2121708EAFEEBFF890AED
:10566C00740E1216FCE0FAEE2462F582EF3400F5AB
:10567C0083E06401600302572D9061D0E0F87480E0
:10568C00C398F50CEE2483F582EF3400F583E060CB
:10569C00047804800278008908E928F8E43400F9D9
:1056AC00E824020808E93400F9E50C98E499A2D240
:1056BC0065D0334068EA7005750B028003750B01E9
:1056CC00E06039750900780812191B7A607B0512A5
:1056DC000C3474021216C775086075090578081227
:1056EC00191BAC0AA90BEEFAEFFB120C5274021246
:1056FC0016C77404250AF50A7C607D057401250A19
:10570C00F5D9850BD9E50A600D8C828D83F8E0F50F
:10571C00D9A318E870F875E19579008006790780AF
:10572C000279FF7F060217DAC082C083E960208C01
:10573C00828D83E08A828B83F08C828D83A3AC82F2
:10574C00AD838A828B83A3AA82AB8319E970E0ECC8
:10575C00FAEDFB02418D74EA121708907803E064AD
:10576C0042705E90055FE014F07056C2AF12577C29
:10577C0000782AD0E0F618D0E0F6E59F5407F970CF
:10578C000590817F80039081AB7808121581E9C464
:10579C00C0E07829E65508F50808E65509F50974BE
:1057AC000B780812168FD0E02508F8906270E0A2F2
:1057BC00E740F8E8C333906272F0906270E0D2E098
:1057CC00F09003F0E0F47003025B85E0F875F004F0
:1057DC00A4C8AAF02AF974F228FE740339FFEE2447
:1057EC0002F582EF3401F583E0F8A3E0F9E84960B3
:1057FC001EEE2402F582EF3401F583E0FAA3E0FB00
:10580C00EE2401F582EF3401F583E0F912101E8EBF
:10581C00828F83A3A3A3A3A3A3A3E0F8A3E0F98E91
:10582C00828F83A3A3A3A3A3E8F0A3E9F090605411
:10583C00E09003C9F0906055E09003CAF090605678
:10584C00E09003CBF0906057E09003CCF090605860
:10585C00E09003CDF0906059E09003CEF090605A48
:10586C00E09003CFF090605BE09003D0F090605C30
:10587C00E0FC9003D1F090605DE0FB9003D2F090DF
:10588C00605EE0FD9003D3F090605FE0FA9003D48B
:10589C00F09003CFE08C082508F8E43400F98D086B
:1058AC00E82508F8E93400F98B08E82508F8E9340C
:1058BC0000F98A08E82508FAE93400FBEE24F7F52C
:1058CC0082EF3400F583E02AF0A3E03BF08C08EE85
:1058DC0024F9F582EF3400F583E02508F0A3E034D9
:1058EC0000F0EE24FBF582EF3400F583E02401F0A8
:1058FC00A3E03400F0EE24FFF582EF3400F583E0F2
:10590C00F8A3E0F9E8496042906000E0C333FCE49E
:10591C0033FDE82CF582E93DF583E02AF0A3E03B6A
:10592C00F0906000E0FA9003D1E0FCEAC333FAE4B3
:10593C0033FBE82AF8E93BF9E8244AF582E934001C
:10594C00F583E02CF0A3E03400F09003CFE070116D
:10595C009003D2E0700BA3E07007A3E07003025A2F
:10596C00658E828F83A3A3A3A3A3E0F8A3E0F9EE33
:10597C00240DF582EF3400F583E028F8A3E039F923
:10598C00EE240BF582EF3400F583E8F0A3E9F0EE9A
:10599C00240FF582EF3400F583E4F0EE241CF5823D
:1059AC00EF3400F583E06401701EEE2420F582EFE5
:1059BC003400F583E0F8A3E0F9EE241DF582EF3412
:1059CC0000F583E8F0A3E9F09003CAE06052EE24FE
:1059DC001CF582EF3400F5837401F0EE246AF58235
:1059EC00EF3400F583E07038EE2474F582EF340068
:1059FC00F583E0702BEE2480F582EF3400F583E024
:105A0C00701EEE2420F582EF3400F583E0F8A3E05D
:105A1C00F9EE241DF582EF3400F583E8F0A3E9F0EC
:105A2C00906062E07003025B188E828F83E0F8A3B3
:105A3C00E0F9E82406FCE93400FDE82402FAE93434
:105A4C0000FB120D068E828F83E02412F8A3E03443
:105A5C0000F988828983025B229003D1E0603AEEE0
:105A6C00240FF582EF3400F583E4F0EE241CF5826C
:105A7C00EF3400F583E064017040EE2420F582EFF2
:105A8C003400F583E0F8A3E0F9EE241DF582EF3441
:105A9C0000F583E8F0A3E98020EE24FDF582EF34D5
:105AAC0000F583E02401F0A3E03400F0EE241DF5B2
:105ABC0082EF3400F583E4F0A3F0EE240BF582EFD3
:105ACC003400F583E0F8A3E0F98E828F83A3A3A3BF
:105ADC00A3A3E0687003A3E06960030259D4EE2429
:105AEC000FF582EF3400F583E060128E828F83A372
:105AFC00A3A3A3A3E064057002A3E0600B7908EEF6
:105B0C00FAEFFB120BDA8071793E80F3EE241DF56F
:105B1C0082EF3400F583E4F0A3F0906060E0C0E025
:105B2C00EE2469F582EF3400F583D0E0F09003CFDA
