:020000040000FA
:0600000002011D021E6753
:03002B00021A8B2B
:03003300021A6D41
:03005300021EDAB0
:03006B00021A4432
:10008300021D1BE5C754F84401F5C779012200009E
:100093000080FB120086B90003020107E47921788E
:1000A30008B800028004F709D8FCE479297802B87B
:1000B30000028004F709D8FCE490028178B579073F
:1000C3008002F0A3D8FCD9FA781A90014D7A01BACC
:1000D30000028007E493A3F608DAF9900935AA82AF
:1000E300AB8390014E78EA79038015E493A3AC8245
:1000F300AD838A828B83F0A3AA82AB838C828D83A8
:10010300D8E9D9E77582BE7583A1740312012F75EF
:100113008291758300740012012F75D00075813FA1
:10012300751881751902759F00020096C09FF59F8F
:10013300E473D09F22D083D082C09FE493C0E07445
:100143000193C0E0740293F59F2201FFFF020202B4
:10015300020202020202010D000000100102D98214
:10016300010000A08202D382010000370902C1828C
:100173000100009E0202D382010000380902AF820F
:10018300010000388102D382010000390902B182E3
:100193000100001C8102D3820100003A0902B382EC
:1001A300010000818002D3820100003B0902B78273
:1001B300010000A58002D3820100003C0902B9823C
:1001C300010000938002D3820100003D0902BB823B
:1001D300010000B78002D3820100003E0902BD8204
:1001E3000100002A8102D3820100003F0902BF827D
:1001F300010000400901E803053F10FF00013075CD
:1002030003020106000000000000000000000000DF
:1002130000000000000000000000000000000000DB
:10022300FFFF0600800CE8030201061AFF4C0002E0
:1002330015FDA50693A4E24FB1AFCFC6EB076478D3
:1002430025000A0007CDCD69626561636F6E00000A
:10025300000000000000000000000000CD070000C7
:10026300D3070AFDA50693A4E24FB1AFCFC6EB07B0
:10027300647825555549440000024D616A6F720048
:1002830000084D696E6F720000104368617261630C
:100293007465726973746963203400024368617220
:1002A3006163746572697374696320350002D9826E
:1002B300010000978202D3820100004C0A02AB8244
:1002C3000300004D0A02D1820100005D0A02D382BD
:1002D300010000630A02A9820100004D0402D182D9
:1002E300010000640A02D3820100006B0A02DD826E
:1002F3000200004E0402D1820100006C0A02D38284
:10030300010000730A02A5820000004F0402CF829D
:10031300030000500402D182010000740A02D38258
:10032300010000850A02A782040000560402D1825C
:10033300010000860AFF0000B400002800280028FE
:100343003075A000A000A000A00000080008E00194
:10035300F0001000100010001000100010005000FA
:100363005000500010001000D007000000000000F3
:100373000F0001000500307507001000010081FF28
:100383000000FF070A250A0D0AFF020202080250B5
:1003930000A0000000E80302D9820100009D820250
:1003A300D382010000740B02CD820100008C040291
:1003B300D382010000750B02CB82010000A204026C
:1003C300D382010000760B02C982010000A404025B
:1003D300D382010000770B02C782080000A5040244
:1003E300D382010000780B02C582010000790BFF64
:1003F3000100FF2002D9820100009A8202D3820108
:100403000000DD0B02C382000000000002CF820364
:100413000000F204E90FE90FE90FE90FE90FE90F13
:10042300E90FE90FE90FE90FE90FE90FE90F771278
:100433008F127112120138BDB602120138C7B6020B
:1004430012013808B70212013851B7021201388B72
:10045300B702120138E1B70212013802B8021201E1
:1004630038B1BA02120138BABA021201380EBB020D
:1004730012013837BB0212013841BB02120138AFF7
:10048300BB021201383FBC021201389ABC021201AE
:1004930038C8BC0212013850BD021201388FBD02A8
:1004A300120138C4BD02120138D6BD02120138F55B
:1004B300BD02120138FEBD02120138C5BE0212018F
:1004C30038679C03120138CDFD0212013803FE0286
:1004D30012013837FE0212013884FF02120138C3B9
:1004E3009F03120138D99F03120138E39F031201BE
:1004F300382DA0031201385FA103120138DBE80293
:10050300120138EEE802120138AFE902120138EEA7
:10051300E9021201380BEA0212013844EA0212011D
:100523003891EA02120138C3EA02120138FAEA02E8
:1005330012013803ED02120138DB9803120138FE71
:1005430098031201382D9903120138C5990312013A
:1005530038079A03120138007D00120138257D0007
:100563001201384F7D0012013816A203120138E13F
:100573008201120138BF84011201385E8601120123
:10058300380987011201388987011201380E880161
:10059300120138378801120138128C01120138898F
:1005A3008C01120138A08D01120138DA8D0112017C
:1005B300381B8E01120138628F01120138B88F0186
:1005C300120138019001120138709001120138DCD8
:1005D30090011201380D9101120138259101120188
:1005E300383E92011201384E9201120138049401EF
:1005F3001201381B94011201384D9401120138EF96
:100603009501120138839601120138129F031201DA
:1006130038239F031201386CA203120138ABA203E3
:10062300120138E47F001201385E9D031201386E17
:100633009D03120138839D03120138359E03120175
:1006430038659B03120138EA9B031201384E9C0361
:10065300120138A19503120138CA950312013830EB
:100663009603120138509603120138A19603120122
:1006730038FC960312013836970312013839970371
:100683001201389D8303120138B28303120138D358
:100693008403120138568503120138CA85031201F7
:1006A30038E48503120138F7850312013805860300
:1006B3001201381F8603120138368603120138608F
:1006C3008603120138B68603120138FBA203120116
:1006D300380BA3031201380EA303120138F87F006D
:1006E300120138B49103120138449303120138A55F
:1006F3009303120138EB930312013843970312015A
:100703003895970312013808980312013875980336
:100713001201386D8F03120138978F031201386667
:100723009003120138429103120138F3BE02120101
:1007330038BFBF0212013800C0021201383AC002AA
:1007430012013898C002120138ECC0021201384A73
:10075300C102120138E0C102120138E8C2021201DB
:100763003872C40212013810C50212013877C5026B
:100773001201388AC5021201387EC602120138C737
:10078300C60212013828F1011201385AF40112018C
:1007930038EBF50112013842F6011201385FF60118
:1007A300120138DFF6011201385BF8011201382A11
:1007B300F90112013897FC0112013881FD01120180
:1007C3003878DA02120138F7DC0212013848DD0208
:1007D3001201386DDE0212013808DF02120138EB14
:1007E30086031201383087031201384D8703120143
:1007F300380A88031201386888031201384D8903C7
:10080300120138E48903120138EE9303120138050B
:1008130094031201383494031201386D94031201C6
:1008230038959403120138C39403120138DA940300
:10083300120138F194031201380795031201382E7F
:10084300950312013841950312013857950312019C
:10085300386A95031201388F950312013811A402E7
:1008630012013810A50212013845A502120138669B
:10087300A50212013876A50212013897A5021201CA
:1008830038A3A60212013870A702120138E3A702A7
:1008930012013869A802120138ACA802120138E328
:1008A300A80212013869A9021201383BAA021201F7
:1008B3003899AA02120138B1AA021201382BAB02ED
:1008C3001201382EAB0212013831AB02120138D8B3
:1008D300AB02120138F0AB0212013820AC02120154
:1008E3003840AC021201382EAD02120138E4AD02D9
:1008F30012013833E4021201385BE4021201388931
:10090300E402120138C0E40212013828E5021201A0
:100913003871E502120138BCE502120138FAE5022A
:1009230012013837E60212013865E6021201380C6B
:10093300E70212013816E70212013823E702120117
:100943003856E70212013818E80212013824E80287
:100953001201383CE80212013846E8021201383B22
:100963009E03120138499E03120138619E0312014E
:1009730038799E0312013872AA0112013810AB01B3
:1009830012013888AB011201389DAC01120138D72E
:10099300AC0112013880AD0112013855AE011201CC
:1009A30038B9AF0112013810B00112013897B00104
:1009B3001201387EB101120138CBB101120138594D
:1009C300B2011201387DB20112013852B401120191
:1009D3003893B401120138B5B40112013836B501A8
:1009E30012013820B601120138E6B6011201384669
:1009F300CE0212013818CF02120138C1CF02120100
:100A03003804D00212013891D0021201381DD102EC
:100A1300120138FED1021201382DD20212013829F7
:100A2300D30212013871D30212013873D4021201B6
:100A330038B7D402120138DDD40212013859A003A9
:100A4300120138FCF90212013812FA021201383885
:100A5300FA0212013860FB021201386AFB0212012A
:100A630038C3FC02120138C3FD0212013852D50209
:100A730012013887D602120138BAD602120138049D
:100A8300D702120138C2D802120138A36D00120135
:100A930038066E001201384B6F001201385B6F008D
:100AA3001201387E6F00120138C96F001201386ECF
:100AB30070001201386471001201382E72001201A5
:100AC30038A67300120138E87300120138867400E7
:100AD300120138D37400120138F97400120138E797
:100AE3007600120138EC7600120138CD780012013D
:100AF30038217900120138837900120138AB79006B
:100B03001201384F7A00120138117B00120138426A
:100B13007B00120138457B001201388D7B001201E6
:100B230038CF7B00120138367C00120138178D0351
:100B33001201382A8D03120138438D031201388EB6
:100B43008D03120138698E03120138F88E031201E6
:100B530038438F031201386C2500120138782500C1
:100B6300120138B12500120138F62500120138AD03
:100B7300260012013833270012013898270012018A
:100B830038C42700120138FD2700120138112A004A
:100B9300120138ED2B00120138D82D001201380F45
:100BA3002F001201386F31001201385B320012013D
:100BB30038A13300120138AE3400120138CB3400AF
:100BC3001201380335001201381D35001201388532
:100BD30035001201381F3A00120138C03A001201E1
:100BE30038113B00120138383B00120138863B00B4
:100BF300120138A43B00120138F83B00120138D12E
:100C03003C00120138583E00120138E03E00120148
:100C13003889DF0212013893DF021201385EE002E5
:100C230012013879E0021201389FE002120138E321
:100C3300E0021201381BE10212013844E102120101
:100C430038BDE102120138D2E102120138E7E102B4
:100C53001201381EE20212013832E2021201386335
:100C6300E2021201389DE202120138C9E2021201C6
:100C7300381FE30212013873E302120138BCE302A6
:100C8300120138E6E3021201380BE40212013810B4
:100C9300F602120138DAF602120138BDF702120128
:100CA3003833F80212013875F802120138A2F9023A
:100CB30012013800800212013829800212013842E1
:100CC3008002120138878102120138658202120103
:100CD30038848202120138118302120138548302CC
:100CE300120138A18402120138408502120138BF73
:100CF30087021201385688021201382A890212012A
:100D0300380C8A02120138788B021201380B8C02DC
:100D1300120138509A03120138B99A031201380D9F
:100D23009B03120138349B031201386FED02120149
:100D330038DCED0212013827EE021201381CEF02F3
:100D430012013818F00212013802F1021201384F71
:100D5300AE0212013891AE021201386BAF021201DA
:100D63003844B0021201383FB1021201381EB202F8
:100D73001201388AB20212013851B302120138BC8F
:100D8300B30212013823B4021201384EB402120125
:100D930038BFB40212013852B502120138BBB50292
:100DA300120138D0B50212013818B60212013831D7
:100DB300B60212013896B60212013899B602120130
:100DC300381D8A03120138458A03120138838A03C6
:100DD300120138418B03120138AC8B03120138C85E
:100DE3008B03120138F08B03120138208C0312019C
:100DF300382F8C03120138A98C03120138CF8C03CE
:100E030012013899C70112013876C90112013871EC
:100E1300CB0112013844CC011201388FCC011201ED
:100E230038DACC01120138ECCC011201382CCD0197
:100E330012013861CD01120138ADCD01120138DC48
:100E4300CD01120138FFCD011201384CCE01120140
:100E530038D5CE01120138E2D001120138CDD201CA
:100E630012013810D30112013875D401120138B6BA
:100E7300D40112013829D50112013875D5011201A7
:100E830038A0D501120138828C02120138AD8C02D0
:100E9300120138949302120138B895021201387383
:100EA3009702120138D09802120138473F0012010D
:100EB30038DE3F001201380B400012013851400068
:100EC300120138904100120138274300120138A162
:100ED3004300120138BC43001201383144001201AF
:100EE30038604500120138BB4600120138BD470087
:100EF3001201381A4900120138334900120138909F
:100F03004900120138724A00120138A54A00120141
:100F130038154B001201388F4B00120138DE4B009D
:100F2300120138AA4C00120138AF4D001201388E5D
:100F33004E00120138194F00120138874F00120179
:100F430038FB4F00120138245000120138E35000DF
:100F53001201385D52001201387A52001201389999
:100F630052001201382A53001201384F5300120164
:100F730038775300120138F253001201384C5400F1
:100F8300120138A055001201385D560012013830A5
:100F93005700120138CAD5011201381AD6011201BD
:100FA3003826D60112013803D70112013833D7018D
:100FB3001201386BD701120138EAD7011201382226
:100FC300D80112013874D801120138B1D8011201C5
:100FD30038D6DA0112013802DD01120138FDDE01D3
:100FE300120138D8E001120138F57F00120138C12F
:100FF30096011201380B9701120138EA9C01120184
:10100300386B9E01120138CAA401120138C5A5012B
:1010130012013802A60112013825A6011201386710
:10102300A60112013870A6011201387AA601120135
:101033003866A7011201385AA8011201385E570019
:10104300120138D66100120138DC6100120138E860
:1010530068001201380080031201389680031201E0
:1010630038AC80031201382681031201387C8103D6
:10107300120138BA8103120138178203120138941E
:1010830082031201389D8203120138A982031201DF
:1010930038BC8203120138F882031201380E83032D
:1010A3001201386D8303120138C4F102120138D1E1
:1010B300F102120138EBF1021201382AF202120195
:1010C3003868F202120138CDF202120138E2F2025C
:1010D300120138EDF202120138FAF202120138114C
:1010E300F3021201381FF3021201382AF30212012C
:1010F3003836F30212013845F30212013850F30275
:1011030012013873F3021201381CF4021201382C55
:10111300F40212013846F40212013863F402120198
:10112300387FF402120138A4F402120138AEF4023B
:10113300120138C2F402120138E1F40212013842FA
:10114300F50212013848F5021201384EF502120178
:101153003854F50212013860F50212013893F50292
:101163001201389EE30112013820E401120138C94B
:10117300E40112013811E6011201381FE8011201DE
:101183003805E9011201383AE9011201385CE90135
:1011930012013805EA01120138D5EB01120138FEBC
:1011A300EB0112013876EC01120138A8EC011201AF
:1011B30038B5EC0112013800ED0112013824ED01BC
:1011C30012013875EF011201387FF001120138DB8B
:1011D300F0011201381BB9011201382CBA011201B6
:1011E3003810BB011201381ABB011201383CBB0194
:1011F30012013848BB01120138ECBC011201381945
:10120300BD011201382FBE0112013884BE01120143
:1012130038D3BF01120138A8C00112013804C1013B
:101223001201386FC101120138A4C101120138E75C
:10123300C101120138B1C401120138C9C40112013C
:10124300385AC50112013868C501120138B5C50104
:10125300120138C3C5011201382FC601120138AA81
:10126300C60112013801C701120138F398021201B5
:1012730038159902120138269B02120138E59D02A6
:101283001201380F9F02120138CD9F02120138B9A3
:10129300A00212013817FE011201383CFE011201AF
:1012A30038B2FE0112013829C70212013832C702CF
:1012B3001201383BC70212013813C802120138C4A5
:1012C300C902120138F4C9021201381FCA021201FD
:1012D300384FCA021201387ACA02120138AECA0262
:1012E300120138DACA021201381DCB021201384842
:1012F300CB021201388FCB02120138E4CB02120168
:101303003826CC0212013880CC02120138ABCC0251
:10131300120138FACC021201382ACD0212013855D3
:10132300CD0212013883CD02120138A6CD0212017B
:1013330038E2A0031201380EA1031201383BA103C6
:1013430012013845A10312013855A103120138D007
:10135300FF01120138BEFF02120138B5A2031201C8
:1013630038DDA203E066701008A3E066700A08A3E4
:10137300E066700408A3E06622C3E7960809E796CF
:101383000809E7960809E79622C3E09608A3E096C2
:1013930008A3E09608A3E09622C008C3E096F508E8
:1013A30008A3E096420808A3E096420808A3E09643
:1013B30045087001D3D00822080808EAC0E0EBC052
:1013C300E086F0E7A4FA180986F0E7A42AFA1809D8
:1013D30086F0E7A42AFA180986F0E7A42AFA198600
:1013E300F0E7A4FBE5F02AFA190886F0E7A42BFB43
:1013F300E5F03AFA190886F0E7A42BFBE5F03AFA90
:1014030018180986F0E7A4C5F02BFBE43AFA19088B
:10141300E7C5F0C6A426F6E5F03BFBE43AFA1886E6
:10142300F0E7A4F6E5F00826F6E43B08F6E43A080C
:10143300F6D0E0FBD0E0FA22E4CFC0E0E4CEC0E097
:10144300E4CDC0E0E4CCC0E075F020C3E633F60899
:10145300E633F608E633F608E633F6181818EC33E5
:10146300FCED33FDEE33FEEF33FFC3EC9709ED974D
:1014730009EE9709EF97191919400FFFEC97FC092B
:10148300ED97FD09EE97FE191906D5F0BEECF709A5
:10149300EDF709EEF709EFF7191919D0E0FCD0E0E1
:1014A300FDD0E0FED0E0FF226016080808C6C31393
:1014B300C618C613C618C613C618C613C6D5E0EA9F
:1014C300227009080808226016181818C6C333C604
:1014D30008C633C608C633C608C633C6D5E0EA22F3
:1014E300E627F60809E637F60809E637F60809E6B7
:1014F30037F622E026F608A3E036F608A3E036F630
:1015030008A3E036F622E026F008A3E036F008A3AD
:10151300E036F008A3E036F022C3E697F60809E6C2
:1015230097F60809E697F60809E697F622C3E096C8
:10153300F008A3E096F008A3E096F008A3E096F085
:1015430022E056F608A3E056F608A3E056F608A3F1
:10155300E056F622E056F008A3E056F008A3E05662
:10156300F008A3E056F022E0F608A3E0F608A3E0B3
:10157300F608A3E0F622E6F008A3E6F008A3E6F0F7
:1015830008A3E6F022E0FAA3E0FBA3E0FCA3E0FD5E
:1015930022EAF0A3EBF0A3ECF0A3EDF022CAC0E043
:1015A300E6F0A308DAFAD0E0FA22CAC0E0E0A3C565
:1015B30082CCC582C583CDC583F0A3C582CCC58249
:1015C300C583CDC583DAE6D0E0CA22C3E498F8E444
:1015D30099F912160F8026C3E49AFAE49BFBE920DB
:1015E300E7E912160FE498F8E499F922C3E498F8AE
:1015F300E499F912160FE498F8E499F9C3E49AFA16
:10160300E49BFB22EB20E7CFE920E7E0B90010BB26
:101613000008E88AF084F8AAF022E4FBC8FA22EB77
:1016230070227B10C833C8C933C9335007C39AC368
:10163300DBF280069A50012ADBEAC833F4C8C933C7
:10164300F4C9FA2275F008E4C833C8C933C933C9E9
:101653009AC99B5004C92AC93BD5F0ECFBC833F4A3
:10166300C8E4C9FA22600D08C6A2E713C618C61358
:10167300C6D5E0F322600C08C6C313C618C613C64A
:10168300D5E0F422700422600D18C6C333C608C621
:1016930033C6D5E0F41822251810AF08F518400218
:1016A30015198008F51840021519D2AF22C0D025AC
:1016B3001810AF08F518500205198008F5185002E4
:1016C3000519D2AFD0D0222518F58210AF08F5182E
:1016D300400215198008F51840021519D2AF851973
:1016E30083222518F582E43519F58322E47325183E
:1016F300C582C0E0E51934FFC583C0E0E518C39592
:101703008224F810AF0885831985821880088583A1
:1017130019858218D2AFCEF0A3E520F0A37808E6AE
:1017230008F0A3DEFAEFF0A3E58124FAF8E608F067
:10173300A3E608F0A3E608F0A30808E608F0A3E68A
:1017430008F0A315811581D0E0FED0E0F8158115CE
:10175300811581E8C0E0EEC0E0222518C582C0E013
:10176300E51934FFC583C0E0E518C3958224F91059
:10177300AF088583198582188008858319858218A7
:10178300D2AFCEF0A3E520F0A37808E608F0A3DEFD
:10179300FAEFF0A3E58124FBF8E608F0A3E608F0EE
:1017A300A30808E608F0A3E608F0A315811581D085
:1017B300E0FED0E0F815811581E8C0E0EEC0E0223C
:1017C300851983851882E0A3FEE0A3F5207808E05D
:1017D300A3F608DFFAE0A3FFE0A3C0E0E0A3C0E0C4
:1017E300E0A3C0E0E0A3C0E0E0A3C0E010AF088541
:1017F30082188583198008858218858319D2AFD012
:1018030083D082020135851983851882E0A3FEE027
:10181300A3F5207808E0A3F608DFFAE0A3FFE0A32E
:10182300C0E0E0A3C0E0E0A3C0E0E0A3C0E010AFED
:10183300088582188583198008858218858319D2C3
:10184300AFD083D08222C0D02518C582C0E0E5196D
:1018530034FFC583C0E0E518C3958224F310AF08B5
:101863008583198582188008858319858218D2AFEC
:10187300C8F0A3E9F0A3EAF0A3EBF0A37908E70922
:10188300F0A3D8FAECF0A3EDF0A3EEF0A3EFF0A3EE
:10189300D0E0F0A3D0E0F0A3D0E0F0A3E520F0A3E4
:1018A300E5F0F0A322851983851882E0C0E0A3E068
:1018B300F9A3E0FAA3E0FBA37808E0F608A3DFFAB4
:1018C300E0FCA3E0FDA3E0FEA3E0FFA3E0C0E0A3F0
:1018D300E0C0E0A3E0F5D0A3E0F520A3E0A3F5F09A
:1018E30010AF08858319858218800885831985823E
:1018F30018D2AFD082D083D0E0F8D0E03274048025
:1019030006740280027401C0E0F4041216CAD0E027
:101913001215A0227404800474028000CCC0E0ED90
:10192300C0E0E518C39CCCAD1950011D10AF068C67
:10193300188D1980068C188D19D2AF1215ADD0E011
:10194300FDD0E0FC22D083D082E9C0E0E493A3C3BE
:1019530086F0C5F095F0F908E493A386F0C5F095F9
:10196300F0700BE493A3C3994005E9048002A3E458
:1019730075F002A42582F582E5F03583F583D0E086
:10198300F9E493A3C0E0E493C0E022D083D082ECD7
:10199300C0E0EDC0E0E493A3FCE493A3FDED4C6051
:1019A3000D1219DAEC24FFFCED34FFFD80EFE49314
:1019B300A3FCE493A3FDED4C600D121A19EC24FF74
:1019C300FCED34FFFD80EFD0E0FDD0E0FCE493A319
:1019D300C0E0E493C0E022C0E0C3E493960874013E
:1019E300939618400FE49366700808740193661881
:1019F30070007019A3A3C3E4939608740193961817
:101A0300A3A3400DD0E0D0E0D0E00219CAA3A3A362
:101A1300A3A3A3D0E022C0E0C0F088F0E4936670F3
:101A2300080874019366187000A8F0A3A3700BD084
:101A3300F0D0E0D0E0D0E00219CAA3A3D0F0D0E008
:101A430022C0E074F2121849A2AFE433FED2AFE52C
:101A530089A2E15003120671758900C2C5751A0087
:101A6300EEA2E092AF7F010218A8C0E074F2121850
:101A730049A2AFE433FED2AFE58BA2E050031206D6
:101A830071758B00C2E880D5C0E0C0D0E8C0E0E546
:101A9300A8D2AFC2C7751A00A2E792AFD0E0F8D0C0
:101AA300D0D0E03274F512175DEAFEEBFFEE24347A
:101AB300F8EF3400F988088909EE2435F582EF340C
:101AC30000F583E0F8EE2437F582EF3400F583E088
:101AD300F50AEC850AF0A4FCAAF0850AF0EDA42A25
:101AE300FDE82CF8E43DF97A257B0012160FEA8510
:101AF3000882850983F05407F87401B80002800452
:101B0300C333D8FCC0E0E0131313541FF8EE28F8D6
:101B1300EF3400F9E8245DF582E93400F583D0E081
:101B2300F8E0586008EE2434F582EF801EEE243688
:101B3300F582EF3400F583E0F5F0EA84A8F0EE28AF
:101B4300F8EF3400F9E82438F582E93400F583E04E
:101B5300F97F0402180974F512175DEAFEEBFFEE34
:101B63002434F582EF3400F583E0C0E0EE2435F54C
:101B730082EF3400F583D0E0F08E828F83A3A3A39A
:101B8300A3A3A3A3C082C0838E828F83A3A3A3A393
:101B9300A3E0F8A3E0F9D083D082E0C398F508A3CB
:101BA300E099F509EE2480F582EF3400F583E064D3
:101BB300017069EE2481F582EF3400F583E0F8A328
:101BC300E0F98E828F83A3A3A3A3A3A3A3E0FCA323
:101BD300E0FD8E828F83A3A3A3A3A3E0FAA3E0FB7C
:101BE300C3EA9CEB9D5027C3EC98ED99402EC3EAC2
:101BF30098EB9950277CD77D06EEFAEFFB120F473F
:101C0300EE2480F582EF3400F583E4F0800EC3EA1E
:101C130098EB9940E0C3EC98ED9950D9EE2434F851
:101C2300EF3400F9E8FCE9FDEE2435F582EF3400EA
:101C3300F583E0F8EE2437F582EF3400F583E0F521
:101C43000AE508850AF0A4F508AAF0850AF0E50973
:101C5300A42AF509E82508F8E43509F97A257B0073
:101C630012160FEA8C828D83F05407F87401B800C2
:101C7300028004C333D8FCC0E0E0131313541FF8ED
:101C8300EE28F8EF3400F9E8245DF582E93400F535
:101C930083D0E0F8E0586008EE2434F582EF801E2C
:101CA300EE2436F582EF3400F583E0F5F0EA84A8FC
:101CB300F0EE28F8EF3400F9E82438F582E934002F
:101CC300F583E0F9122555021B54C082C0838518A1
:101CD30082851983E0F8A3E0F9C3EA9CEB9D5012D7
:101CE300C3EC98ED994019C3EA98EB995012790126
:101CF3008010C3EA98EB9940F5C3EC98ED9950EE48
:101D03007900D083D08222EAC39CFAEB9DFB2200A8
:101D1300008521878522C622C0E0C0D0E8C0E0E963
:101D2300C0E0EAC0E0EBC0E0ECC0E0EDC0E0C0081A
:101D3300C009C00AC00BC082C083C0F0759B00906D
:101D43006182E0A2E64003021DF9E591A2E64003A9
:101D5300021DF97591BF90059CE06405700812108F
:101D63007F12108B80031210857521001210E5E994
:101D730090059DF079001210D9120EBD7A017B00F7
:101D830090059BE0F9120497907803E064426003A6
:101D9300021E42900739E014F06003021E42C2AFF4
:101DA300121DA600782AD0E0F618D0E0F6E59F547D
:101DB30007F9700590823F800390820B7808121513
:101DC3006AE9C4C0E07829E65508F50808E655092C
:101DD300F509740B7808121678D0E02508F890629C
:101DE30070E0A2E740F8E8C333906272F09062704B
:101DF300E0D2E0F08049E0A2E55024E591A2E5506D
:101E03001E7591DF90059CE0640D70139005BEE094
:101E130004F064287002E4F07A00E0F9121157909C
:101E23006181E0A2E35009E5E9A2E3500375E9F714
:101E3300A3E0A2E75009E591A2E7500375917FD093
:101E4300F0D083D082D00BD00AD009D008D0E0FDE7
:101E5300D0E0FCD0E0FBD0E0FAD0E0F9D0E0F8D05D
:101E6300D0D0E032C0E0C0D0C082C083906183E0B4
:101E7300A2E05009E5BFA2E0500375BFFEE0A2E176
:101E83005009E5BFA2E1500375BFFDE0A2E250098E
:101E9300E5BFA2E2500375BFFBE0A2E35009E5BF33
:101EA300A2E3500375BFF7E0A2E45009E5BFA2E443
:101EB300500375BFEFE0A2E55009E5BFA2E550036B
:101EC30075BFDFE0A2E65009E5BFA2E6500375BF88
:101ED300BFD083D0828088C0E0C0D0E8C0E0E9C032
:101EE300E0EAC0E0EBC0E0ECC0E0EDC0E0C0F0E54C
:101EF300A7A2E6500FE5A1A2E6500953A7BF75A11B
:101F0300BF121F3FE5A7A2E5500CE5A1A2E55006CD
:101F130053A7DF75A1DFE5A7A2E15009E5A1A2E17F
:101F2300500375A1FDE5A7A2E2500CE5A1A2E25082
:101F33000653A7FB75A1FBD0F0021E5074F81217CD
:101F43005D75210190059CE0640670151210138ADB
:101F5300828B83A3A3A3A3A3A3E0FAA3E0FB1210A2
:101F63006DA2AFE433FED2AF9005A2E06401701816
:101F73007A207B0090059BE0F91205217A207B00F3
:101F830090059BE0F912049D906182E0D2E6F09007
:101F93000738E0602185C62280169005A1E0640120
:101FA3007008E5C654F84405F5C653BEFC121D146B
:101FB3007401652160E4EEA2E092AF7F010218098B
:101FC300008E238F2485822885832785188285198F
:101FD30083E0CEA3E0CF852882852783EBC9EAC8B7
:101FE300EDCBECCA75F010C3E833C8E933C9EA3363
:101FF300CAEB33CBC3EA9EF526EB9FF525B350041A
:10200300AB25AA26EC33CCED33CDD5F0DAAE23AF36
:10201300242274EB12175D74FA12169A8A088B093C
:102023008C148D1590059CE024F7C39405500690FD
:10203300828F0221771210138A0A8B0BAE0AAF0B21
:10204300EE4F7003022174AC08AD0985188285191F
:1020530083AA82AB8312109D8E828F83A3A37808F9
:1020630012156A90826378081215448518828519BF
:1020730083780C12156A908263780C1215447808E1
:10208300790C12137C501F7808790C12151C90815F
:10209300EF780812139C4047850810850911850ABB
:1020A30012850B138041850C10850D11850E128549
:1020B3000F137810790812151C9081EF7810121302
:1020C3009C501C7510007511007512007513017872
:1020D30010790C12151C781079081214E3800890FB
:1020E300828F781012156A740978101214C49082C2
:1020F30013780812156A7810790812143B8E828FB0
:1021030083A3A3A3A3A3A3E0F8A3E0F97AD07B035B
:1021130012160F88088909E4F50AF50B7810790877
:102123001214E374041216E5E0F8A3E0F97AD07B05
:102133000312160FE8FA8A08E4F5097810790812F1
:10214300137C50077810790812151C90059CE064E5
:1021530008600AE064066005E06405701C9081EB8A
:10216300781012139C501290823B78101214F68050
:1021730008908243781012156A8514828515837836
:102183001012157974061216B07F0E02180974F72F
:1021930012175D1210AF900736E064017010906261
:1021A30045E4F0A3F053F4F343FE0C5390F3121001
:1021B3005BE5C654804449F5C6E59E547F64497087
:1021C300F8906185740FF0900734E0F47002A3E097
:1021D300604E900735E0600814601B14602E804049
:1021E300750801750900900734E07808121687E531
:1021F30008F45280802A750801750900900734E0BD
:102203007808121687E508F4529080147508017552
:102213000900900734E07808121687E508F452A005
:1022230079007F0202180974F712175DE9FEEAFFCD
:1022330074016E700C7A807B0090059BE0F91204A8
:1022430097902564E493F46008E493F9120EB18047
:102253000953C680E59E547F70FA121061900736C9
:10226300E064017003120EC9900734E0F47002A316
:10227300E0604B900735E0600814601A14602C800E
:102283003D750801750900900734E0780812168738
:10229300E50842808028750801750900900734E03D
:1022A3007808121687E508429080137508017509AE
:1022B30000900734E07808121687E50842A0121050
:1022C300AF1210138A088B09A808A909E8496015F9
:1022D300E5E170FCE82414F582E93400F583E0F4C9
:1022E3006003E0F5E174016F700A7A0190059BE0E9
:1022F300F91204EB02222574F112175D8A088B0987
:102303008C0A8D0B740F1216E5780C12156A9082E5
:10231300637808121544908263780C121544780888
:10232300790C12137C50157808790C12151C9081C6
:10233300EF780812139C401579018013780C790803
:1023430012151C9081EF780C12139C40EB79007FDF
:102353000802180974ED12175D8A088B098C0A8D1F
:102363000B74131216E5780C12156A9082637808C1
:10237300121544908263780C121544780C79081274
:10238300137C40117808790C12151CAA08AB09AC10
:102393000AAD0B80227510007511007512007513BC
:1023A300017810790C12151C781079081214E3AA1D
:1023B30010AB11AC12AD137F0C0218099082637835
:1023C3000812156A8A828B8378081215577F0402D4
:1023D300180974F512175D8C828D83780812156ABB
:1023E3008A828B837808121530EA2404F8EB3400D0
:1023F300F98C828D83A3A3A3A3E0FCA3E0FD8882D1
:102403008983C3E09CF0A3E09DF088828983C3E0C5
:102413009420A3E0944E4022908277780812156AA4
:102423008A828B8378081215098A828B83A3A3A3DC
:10243300A3E02420F0A3E0344EF0808074F512175B
:102443005DE9FE9006EEE0FAA3E0FBEEC333F8E4A9
:1024530033F974EC28F582748039F583E02AF508A2
:10246300A3E03BF509780812190490827F121588BE
:10247300121FC474021216B08A088B098C0A8D0BC2
:10248300741078081214ABAA08AB097F0402180968
:1024930074F112175D8A0C8B0D8C0E8D0F740F1255
:1024A30016E5E0FAA3E0FB74111216E5E0F508A3C4
:1024B300E0F50974131216E5E0FEA3E0FF780812B5
:1024C3001904EA2401F508EB3400F509E4F50AF5EB
:1024D3000B780C79081213BB90822F780812156AB7
:1024E300780C79081213BBAA0CAB0DAC0EAD0F120E
:1024F3001FC474021216B08B09EA450960047A01FD
:1025030080027A00EC2AFCED3400FDECF8EDF97A58
:10251300717B0212160F88088909E4F50AF50B8E00
:10252300828F837808121579ECF8EDF97A717B02C2
:1025330012160F8A088B09740578081216878E8283
:102543008F83A3A3A3A3E508F0A3E509F07F080203
:102553001809C082C083E9906000F0D083D0822242
:10256400FFFFFFFFFFFFFFFFC082C083E9900BDC8A
:10257400F00227F074F71216F1E99004BAF07CF235
:102584007D047AFF7BFF120BE79004BB74FFF0A37A
:10259400F0A3E4F0A3F07905120B6F9004BAE0F90C
:1025A400120A977A057B0C120DC70234FE74F412DA
:1025B40016F18A088B09EB548060309004BAE0F974
:1025C40012047F8A0A8B0BAE0AAF0BEE4F60138E98
:1025D400828F83E064B07003120B87EEFAEFFB1274
:1025E400046DAA08E5096480FB80047A007B00027C
:1025F40027BF74F21216F174FC12169AEAFEEBFF6E
:1026040074121216E51239E5EE4F7003022699741E
:10261400021216E5EEF0A3EF1229FAECF0A3ED1284
:1026240029FAAA82AB83120A91E9F50A706AE508CD
:10263400450960648E828F831239CBEE4F60567ADF
:10264400067B001204D38A0C8B0DA80CA90DE84953
:102654007005750A13804188828983E41226A6EEE8
:10266400F0A3EF1239F6E508F0A3E509F09004C0F1
:1026740012272D9004C070051234A8801B123496C2
:102684008003EAFCEBFD8C828D8312272D70F38C82
:10269400828D8380E3750A02A90A74041216B002BB
:1026A4003BE5F0A312399CA32274F21216F1890AB5
:1026B400E975F017A4FEAFF09004BFE4F09004BDF8
:1026C40012272D600A1204D99004BDE4F0A3F0EEA1
:1026D400FAEFFB1204D38A088B09EA4509602FEE4E
:1026E400FCEFFD79001204559004BDE508F0A3E564
:1026F40009F07B008008122717E4F0A3F00BEBC36A
:10270400950A40F2E50A9004BFF07900800279133B
:10271400023BE5EB75F017A4F8A9F09004BDE0289E
:10272400FAA3E0398A82F5832212313AEA4B227401
:10273400F41216F1740C1216E51239C0FEE9FF7595
:102744000800750900800CE5082401F508E5093442
:1027540000F509C3E5089CE5099D503285080A8502
:10276400090B7403780A121687EA250AF8EB350B6D
:10277400F988828983A3A3A3A3A3A312357DEE655D
:102784000A7003EF650B70BFE8FAE9FB80047A0076
:102794007B00802774F41216F17900EAA2E0501B42
:1027A4007508CE75098178081219047C047D007AB5
:1027B400DE7B0B120B6974021216B07F040217C37E
:1027C400C082C0839004C01227F7601C888289836A
:1027D400A3A3E06A7003A3E06B8882898370E8A3F3
:1027E400A3A3A312313680047A007B00D083D08265
:1027F400020135123CCBE8492274EE1216F174FC46
:1028040012169AEAFEEBFF851882851983E4F0A379
:10281400F0EE2402123488EE24051239A3EE2404C7
:10282400F50EEF122DAFE024FE603924FC6046243F
:10283400FE605224FE605E24FE700302291024FE12
:10284400700302297424FE700302298324FE70039A
:1028540002299224FC70030229A124FE7003022998
:10286400B00229ED9004D97417F0A3E4122A0212DD
:10287400080F0229ED851882851983AC82AD831275
:102884000B8D0229BD851882851983AC82AD831214
:102894000B930229BD850C08850D0974021216E5F7
:1028A400AC82AD83850882850983123136120AB55C
:1028B4008A0C8B0DAC0CAD0DEC4D603BE4F50CF5C6
:1028C4000D780C121904750CD9750D04780C1219B5
:1028D40004750CDA750D04780C12190474081216B8
:1028E400E512191B123E471216B0E9F50C700B12D3
:1028F400312C120827800F750C0185088285098305
:102904001229F01234A8850C080229C07402121688
:10291400E5AC82AD83850C82850D83122F01603C6A
:10292400850C82850D83A3A312191B7510D975110B
:102934000478101219047510DA751104781012193C
:102944000474081216E512191B123E471216B0E958
:10295400F509700B12312C12082D800F75090185B1
:102964000C82850D831229F01234A8850908804C45
:10297400851882851983AC82AD83120B99803A85C0
:102984001882851983AC82AD83120B9F802B851826
:1029940082851983AC82AD83120BA5801C851882B5
:1029A400851983AC82AD83120BAB800D85188285AB
:1029B4001983AC82AD83120BB1E9F508E5086029EF
:1029C4008E828F83A3E06414601F850E82850F833B
:1029D400E09004D91229FA123CC79004DA1234A800
:1029E400E508A3122A02120809023397123CCB8588
:1029F400188285198322F085188285198322F07C38
:102A0400D97D04850A82850B8312313A2274EE1231
:102A140016F174FC12169A8A0A8B0B8C0E8D0FEA2F
:102A24002405F508EB3400F5097C157D0079007A5E
:102A3400D97B04120455E5082402F50CE509123982
:102A4400A6851882851983858210858311781012D2
:102A54001904850882850983A3A3A3A3122EF8125F
:102A64001904E5082405F510E5093400F51178107A
:102A7400121904850C82850D8312324D120AAF742B
:102A8400061216B08A108B11AE10AF11E50A24029B
:102A9400F50AE50B12348BEE4F7003022BCF80172F
:102AA40074021216E512313688828983EAF0A3EBA8
:102AB400F09004D9E004F09004D9E0C394054003F5
:102AC400022BCFE4F510F51178101219047510C219
:102AD40075110478101219047510C3751104781057
:102AE40012190474061216E512191B7910EEFCEF84
:102AF400FD123E491216B0E9705E8508828509838D
:102B0400A3A3A3A3A3A3A3E0F89004C2E06870481E
:102B1400122EF81219047CC37D04E5082408FAE592
:102B2400093400FB12044F74021216B0E960298EB6
:102B3400828F83A3A3A3A31231369004D9E0F510A6
:102B44007402781012168774DA2510F5827404352D
:102B540011F583EAF0A3EBF074021216E5858210F6
:102B6400858311781012190474021216E512191BC8
:102B7400850C82850D8312315C1216B08A108B117C
:102B8400AE10AF119004D9E0F510751100740278FD
:102B94001012168774D92510F874043511F9888237
:102BA4008983A312272D7003022A9BE824030808B3
:102BB40008E93400F9EE4F6003022AA4888289836D
:102BC40074FFF0A3F09004D9E004F09004D9E0601D
:102BD4000A12312C12081B7900800B8508828509A2
:102BE4008312349F790A02339774EA1216F174FE41
:102BF40012169A8C128D13EA2405F50CEB123E3151
:102C04001239CF750800750900EA2402F510EB3477
:102C140000F51185188285198385820A85830B78CE
:102C24000A121904850C82850D83A3A3A3A3122D74
:102C3400C5121904E50C2405F50AE50D12348B7848
:102C44000A121904850C82850D83122DC9120AAF4C
:102C540074061216B08A0A8B0BEA450B7003022D18
:102C64006AEA2404F50EEB122DAF1239CF8A828B57
:102C740083A3A3A3E0F985108285118312314060F8
:102C840003022D6AE4F514F5157814121904751469
:102C9400C275150478141219047514C375150478D3
:102CA4001412190474061216E512191B7913AC0ACE
:102CB400AD0B851082851183123E4F1216B0E9F5D3
:102CC400096003022D6A9004C2E0F8E5087009E087
:102CD40024029004DAF080149004DAE0FCE8240280
:102CE400FAE43400FBEA6C7001EB707E850882AA7A
:102CF40082122EEF9414122EE7506B850E82850FEC
:102D040083E0C0E074DB2A122DA6D0E0F00508852C
:102D14000E82850F83A3E0C0E085080A74DB250AD0
:102D2400122DA6D0E0F005089004C2122DC5121988
:102D3400047CC37D0485080A74DB250A122DB912AC
:102D440016B09004C2E02508F50874FF6E70037491
:102D5400FF6F6012EE24010EEF3400FFE508C39408
:102D6400145003022C17E508601312314A851082AF
:102D740085118312313612082179008014E5097017
:102D84000375090A851282851383EEF0A3EFF0A977
:102D94000974021216B07F0E0217C385080C74DB87
:102DA400250CF58274043400F583223400F50F8574
:102DB4000E82F58322FA74043400FB12043D74027B
:102DC40022123A0522A3A3122DCF22123496FDEE2D
:102DD400FAEFFB2274EE1216F174FE12169A8C0EA0
:102DE4008D0FEA2405F50CEB1239A6750B0090043F
:102DF400D9E4F0F50AEA2402F508EB3400F5098079
:102E0400449004D9E0FA9004C2E0F8122EEF94172B
:102E1400122EE7400D9004D9E0F87416C39890047C
:102E2400C2F0122EF81219047CC37D0474DA2AFA53
:102E34007404122DBC1216B09004C2E0F89004D9A8
:102E4400E028F0050AE50C2416F582E50D122DAAFA
:102E5400E0F8E50AC39850749004D9E0C39416507E
:102E64006BE50AC333F8E433F9E50C28FEE50D39C4
:102E7400FF851882851983AC82AD838E828F83127D
:102E84002F017008750B0112349B8050E4F510F586
:102E94001178101219047510C275110478101219E2
:102EA400047510C3751104781012190474061216EF
:102EB400E512191B7916850882850983123E4F1283
:102EC40016B0E9F50B7003022E0580BB7CD97D0496
:102ED400850882850983123136120833A90B7402DE
:102EE400023399E99400C365D03322EA28F8E43424
:102EF40000F9E822E0F51075110078102212338EE3
:102F04008A108B11AC10AD11EC4D2274EA1216F13B
:102F140074FC12169A8A0C8B0D8C128D13EA2405FC
:102F2400F50AEB12348B750800750900E50A2402D2
:102F3400F510E50B3400F51174021216E585820EC6
:102F440085830F780E121904850A82850B83A3A347
:102F5400A3A31239AB121904E50A2405F50EE50BF7
:102F64003400F50F780E121904851082851183122E
:102F74003491123130120AAF74061216B08A0E8BD5
:102F84000FAE0EAF0FE50C2402F50EE50D3400F57F
:102F94000F80388882898374FFF00508122D9F748E
:102FA400FFF005089004C2E0F50C750D00780C12D2
:102FB40019047CC37D0485080C74DB250C122DB91F
:102FC4001216B09004C2E02508F508EE4F60278E73
:102FD400828F83A3A3A3E0F9850E82850F83123128
:102FE40040EE24041239A3E96027850C82850D8301
:102FF4001231221234A8E508700302310812314A52
:10300400850E82850F831231361208397900023118
:103014001DE4F514F51578141219047514C2751508
:103024000478141219047514C3751504781412194C
:103034000474081216E512191B7911EEFCEFFD85D4
:103044000E82850F83123E4F1216B0E9F509709A6D
:10305400850882AA82EA9004C27009E024049004DC
:10306400DAF08025E0F89004DAE0F514E82404FCB2
:10307400E43400FDEC65147001ED7081122EEF94C0
:1030840012122EE74003023001850C82850D83E085
:10309400C0E074DB2A122DA6D0E0F00508850C826E
:1030A400850D83A3E0C0E0122D9FD0E01231658529
:1030B400820C85830D780C12190474041216E5121F
:1030C400191B85108285118312315C1216B08A0C8B
:1030D4008B0DAE0CAF0D85080C74DB250CF8740455
:1030E4003400F9EE4F7003022F97851882851983F7
:1030F400E088828983123165A3E0C0E0122D9FD05D
:10310400E0022FA5E509700375090A850A82850B7B
:10311400831231221234A8A9097404022D97123C97
:10312400CB851282851383227CD97D04850A82850E
:103134000B8312313A22E0FAA3E0FB2212313A1255
:103144000A9DE9F509229004DAE0F5F0E508849097
:1031540004D9F07CD97D0422122DCF120ABB740449
:1031640022F005088518828519832274EC1216F161
:1031740074FE12169A8A088B098C0E8D0FEA2405A8
:10318400FEEB3400FF123378EE24181239A3EA451B
:103194000B700302321B12336150291232408A1021
:1031A4008B11EA4511606B7912AC0AAD0B8508826C
:1031B4008509831231368510828511831216EFE951
:1031C400F50A7058E4F50AF50B780A1219048E8290
:1031D4008F83A3A3E0F50A780A121904EE240312DC
:1031E4003488780A1219048E828F8312324D120B9E
:1031F400D574061216B0E9F50A7021850C82850D86
:1032040083E0701F85088285098312313612083FD6
:103214008011750A0E8009750A018004E50A6003AD
:1032240012349B850C82850D83E060047900800252
:10323400A90A74021216B07F0C0217C3851882857E
:10324400198312313A120BC322123496FD85088277
:1032540085098312313A2274EE1216F174FE1216A5
:103264009A8A088B098C0C8D0DEA2405FEEB340038
:10327400FF750E00123378EA450B700302333F12D8
:103284003361502C1232408A0E8B0FEA450F604A8C
:103294007912AC0AAD0B8508828509831231368513
:1032A4000E82850F831216EFE9F50E600302334296
:1032B40085088285098312357DAA0AFB123353706F
:1032C400147AFF7BFF123353606C88828983E50A8A
:1032D400F0A3E50BF0750A008007750E0E805F05FC
:1032E4000A9004BFE0FAE50AC39A504AE50A75F069
:1032F40017A4FAABF088828983A3A3E02AFAA3E097
:103304003BFB8A828B83123491EC4D70D2750A1781
:10331400750B00780A121904EEFCEFFD12043D74DB
:10332400021216B0EEFCEFFD850882850983123186
:10333400361208458014750E098003750E01123C7F
:10334400C3850C82850D831234A8A90E022EE212C5
:103354000BB78A108B11A810A911E84922E508249B
:1033640002F508E5093400F5098A828B83A3A3A337
:10337400E0A2E522851882851983AC82AD838E8212
:103384008F8312338E8A0A8B0B22E0FAA3E0FB129E
:103394000AB52274041216B07F0A0217C374EC1221
:1033A40016F18C108D11EA2405F50CEB1239A67573
:1033B4000F00EA2402F50AEB12348B850A82F583A6
:1033C400123136123ED5700302347D750E008071C1
:1033D400850C82850D83E06401704F8E828F83A3F8
:1033E400A312191B8E828F83A3A3A3A3E0F51275E6
:1033F40013007812121904EE2405F512EF3400F5C7
:10340400137812121904123130120BD574061216E5
:10341400B0E9F50F6014850C82850D83E4F0123C4D
:10342400C38510828511831234A87C177D0079002E
:10343400EEFAEFFB1204558E828F83E4F0A3F005BD
:103444000E9004BFE0F8E50EC398501EE50E75F02B
:1034540017A4F8A9F0850882850983A3A3123E3B2B
:10346400123491EC4D60030233D4850882850983BC
:1034740074FFF0A3F0E50F700612313012084BA967
:103484000F02323BF50AEF3400F50B22A3123496F7
:10349400FD22E0FCA3E0228E828F83123CCB850EBA
:1034A40082850F83E8F0A3E9F022C082C0839004F0
:1034B400BBE06A7003A3E06B70067ABB7B048004F4
:1034C4007A007B000227F074F71216F17F00EF7583
:1034D400F003A4F8A9F0EC28F8ED39F9888289837F
:1034E400E06A7003A3E06B7006E8FAE9FB800B0F57
:1034F400EFC3940240D87A007B007F010217C374A3
:10350400F61216F1123AB470067A007B008007A313
:10351400A3A3A3123136023B7574F21216F1E9FE2D
:10352400740E1216E512357D74101216E51239E583
:103534008C828D83E06402703BA3123CC78882892D
:1035440083E0F50CA3E0F9A80C74026870037429F5
:10355400697021750C02750D00780C121904780835
:10356400121904780A121904EEF9120BF9740612EE
:1035740016B080027901023BE5E0F50AA3E0F50B01
:103584002274E81216F174FB12169AE985188285E2
:103594001983F08A168B178C0E8D0F741F1216E583
:1035A4001239E574211216E512357D74231216E5DD
:1035B4001239CF7510008C828D83A3A3A3E0A2E4FB
:1035C400502A741D1216E51232468A828B83E582D4
:1035D40045837003023691790AAC0EAD0FAA16AB7F
:1035E400171216EFE9F5106003023694850E8285F2
:1035F4000F83E06402600302394AA3123CC78508C2
:1036040082850983A3858212858313E50E2406F53A
:103614000CE50F1239A688828983E0FAA3E0F9EA5F
:103624002400F514E439F515781412198E010000FC
:1036340028012859360700022830370328A036000D
:10364400295A38012982380229293803295A380489
:1036540029EB384A39EE4F703E850C82850D831272
:1036640039C0FAE9FB8A828B83E0850A82850B8361
:103674001239FC1219048A828B83A3123496FDAA90
:1036840008AB0912043D74021216B0800375100EC3
:10369400A9107405023E2975100B80F4EE4F70F7E3
:1036A400850A82850B837401F01239D585088285D9
:1036B4000983F07C007D00850E82850F83A3A3A37C
:1036C400A3E02401FAA3E03400FB120AB5EA4B603C
:1036D400418A828B83E02402F8850A82850B83E089
:1036E40028F0EA2404F8EB3400F988828983E08521
:1036F4001282851383123A0E1239FC1219048A823B
:103704008B83123490E5082403FAE5093400FB02A4
:103714003687850A82850B83E02404F07C047D00CF
:103724007900AA12AB13120455023694EE4F6003CB
:1037340002369B1239D5FEA3E0FF850A82850B83EE
:103744007404F0EE850882850983F0EF8512828582
:103754001383F074031216E5AC82AD83EEFAEFFB2B
:10376400123AA270030238068A828B83A3A3123909
:10377400CB74011216E585820E85830F780E12191B
:103784000474051216E512191B7CFF7DFF120ABB97
:1037940074041216B08B0FEA450F7033850C8285C2
:1037A4000D831239AB121904850C82850D83A31283
:1037B400191B7C027D007AD57B821208E7740412FF
:1037C40016B0E9700A74011216E574FFF0A3F08EC6
:1037D400828F83E064027034750C02750D00780CDE
:1037E4001219048E828F83123490E5082404FAE5BA
:1037F40009122DBC1216B0850A82850B83E02402BF
:10380400800974011216E5EEF0A3EFF074011216AC
:10381400E51239BCF074011216E5A31239B4A3A35E
:10382400A3F0023694EE4F600302369B850C82852A
:103834000D83123491AA16AB17120BED850A8285FB
:103844000B837402F0EA850882850983F08512826D
:10385400851383EB80CBEE4F600302369B1239D580
:10386400F8A3E0F9850A82850B837402F0E88508E1
:1038740082850983F0E985128285138380A3850CF0
:1038840082850D83123136120437EAFC8C82A882B9
:10389400C39EE49F404BE86E7001EF70047C00808F
:1038A4001F851882851983E0FAEE2AFAEF3400FBAB
:1038B400C3EA98EB94005003E08004EECCC39CFC74
:1038C400EC850A82850B83F08C0A750B00780A124A
:1038D4001904850C82850D83E02EFCA3E03F02369B
:1038E40082751007023694EE4F600302369B850CF6
:1038F40082850D83123CC7850A82850B837407F089
:10390400888289831239B412399CE0851282851326
:1039140083F0E82402FAE93400FB8A828B831239AB
:10392400B41239ED1239BCA31239F61239C5F0E8D4
:103934002405F8E93400F9888289831239C5A31271
:103944003A0EA3023822741D1216E5123AAD700322
:10395400023691123CC7880C890DE8450D700302AC
:1039640036918E108F117810121904780A121904E6
:10397400780812190474061216E5E0F9AC0EAD0FBE
:10398400AA16AB17850C82850D831216EF740612E6
:1039940016B0E9F510023694F088828983A322F5E3
:1039A4000CEF3400F50D22E0F50E750F00780E22B1
:1039B400E085088285098322123A1522123CCBE85D
:1039C40022123A15A3A322A3A3A3A3E0FEA3E0FF1C
:1039D40022850C82850D83E0F8A3E0F5838882E0DC
:1039E40022E0F508A3E0F50922A3A3F08A828B83E1
:1039F400A3221226A8A3A322F08A828B83123A055B
:103A040022E0F50A750B00780A2212399C123A1545
:103A140022E0850882850983A3A32274EE1216F19D
:103A240074FE12169A8A0A8B0BECFAEDFB741412CC
:103A340016E5E0F510A3E0F51174161216E5E0FEA4
:103A440074181216E5E0F50EA3E0F50F85188285CB
:103A54001983AC82AD83123AA2603E85188285191F
:103A640083123AAD602FA3A31239E5E50845096036
:103A740024780E1219047810121904EEF9AC0CAD66
:103A84000DAA0AAB0B8508828509831216EF74040C
:103A94001216B08006790E80027901022EE2120A13
:103AA400B58A0C8B0DEA450D2212313A123AB42232
:103AB400120B818A828B83E58245832274F6121667
:103AC400F174FE12169A740C1216E51239C0851898
:103AD40082851983F074011216E5E9F0E4F508F51E
:103AE4000978081219047508027808121904740474
:103AF4001216E58582088583097808121904120BC9
:103B0400D574061216B074021216B0806474F712DB
:103B140016F1EAFEEBFF89087CF27D04120BEDEA54
:103B24005402600BA908EEFAEFFB120AA98002798D
:103B3400010234FE74F61216F174FF6A700374FF06
:103B44006B701C7B00EB75F003A4F8A9F0EC28F86B
:103B5400ED39F9123B7A0BEBC39402501480E61250
:103B64000BBD8A088B09A808A909E8496003123B20
:103B74007A7F020217C38882898374FF1226A6E41F
:103B8400F02274F61216F1120BBD8A828B83E58241
:103B940045836006A3A3E0FA80027A007B0080D10B
:103BA40074F21216F18A088B09ECFEEDFF740E1202
:103BB40016E5E0F50A123BEA701CEEFCEFFD7AFF15
:103BC4007BFF123BEA70047911801688828983E5B1
:103BD40008F0A3E509F088828983A3A3E50AF079B4
:103BE400007F060217C3120BBD8A0C8B0DA80CA90B
:103BF4000DE8492274EE1216F1EAFEEBFF8C088DF3
:103C040009890C74121216E5123CC774141216E5D5
:103C140012349174161216E5123136750D00EC4DFE
:103C24006003023CBB7402650C6003023CB68882EC
:103C34008983123496F9EC2400F50EE439F50FEA81
:103C4400F4F8EBF4F9EC58F8E50F59F9E849705D2C
:103C5400E5082406F8E5093400F9880A890B888206
:103C6400F583122DCB120BED8A108B11E50E651026
:103C74007004E50F65116042780E121904850A82FA
:103C8400850B83122DCB120BF374021216B0E9F5D7
:103C94000D7027780E121904850882850983A3A361
:103CA400122DC9120C0B74021216B0800D750D8002
:103CB4008008750D0D8003750D0BA90D02339C8EC4
:103CC400828F83123CCB22E0F8A3E0F92274E8123D
:103CD40016F174E712169A851882851983EAF0A3FF
:103CE400EBF08C168D17890E74311216E5E0F5127F
:103CF400A3E0F51374331216E5E0F514A3E0F5150B
:103D040074351216E5E0F50F750800750900E5092C
:103D140075F003A4F8A9F0851882851983123E3B37
:103D2400E0F47003A3E0F47003023E19EE2402F5FC
:103D34000CEF123E31E07003023E1985160A851716
:103D44000B780A121904AC14AD15AA12AB13120B9A
:103D54007574021216B08A0A8B0BEA450B700302C3
:103D64003E19E4F510F511781012190474061216B0
:103D7400E5858210858311781012190474091216CE
:103D8400E5858210858311781012190485128285C5
:103D94001383A3A3A3A312191B7914AC0AAD0B8E2E
:103DA400828F83123E4F1216B0E97069850A8285AC
:103DB4000B83A3A3A3A3123CC774021216E5123407
:103DC400A8850C82850D83E0A2E05018A90E740228
:103DD4001216E5AC82AD838E828F83123136120ABD
:103DE400CDE94208850C82850D83E0A2E15026E5E9
:103DF4000FF50A780A121908A90E74031216E5AC15
:103E040082AD838E828F83123136120AC7740112F7
:103E140016B0E942080509E509C394025003023DBE
:103E240012A90874191216B07F100217C33400F5D2
:103E34000D850C82F58322E028FEA3E039FF8E82F3
:103E44008F83227916850A82850B8312313A120BED
:103E5400CF74082274F21216F1EAFEEBFF890B7498
:103E640001650B600E7402650B70637901120DE538
:103E7400E9705BEEFAEFFB123ED56047750A0080ED
:103E84000B7C177D007900120455050A9004BFE0ED
:103E9400F8E50AC3985021E50A75F017A4F8A9F0CB
:103EA400850882850983A3A3E028FAA3E039FB8A65
:103EB400828B831227F770C985088285098374FF72
:103EC400F0A3F07CF27D04EEFAEFFB120BE7023B69
:103ED400E5120BB78A088B09EA45092274F2121617
:103EE400F18A088B09ECFEEDFF740E1216E512350B
:103EF4007D900BDCE0F4603D7A097B00120467EAF4
:103F04004B60328A828B8374B1F0A3E41239EFA33D
:103F14001239EDA3E508F0A3E509123F3CEEF0A346
:103F2400EF123F3CA3A3E50AF0A3E50BF0900BDCF2
:103F3400E0F9120473023BE5F08A828B83A3A3A306
:103F4400A3A322C082C0839061907404F0A3744838
:103F5400F0A37402F09061807440F09061BC74032B
:103F6400F09061877419F0906265741BF090619C05
:103F7400740DF090619A7433F0A37455F09061A0BD
:103F8400743AF0900736E064017009C2919005A07C
:103F9400746780059005A07461F090256AE493909D
:103FA4006186F0902564E493F46027E493540FF859
:103FB400906185E0686012E5C654804449F5C6E521
:103FC4009E547F644970F8E8F053C680E59E547FA0
:103FD40070FA7905121139024189C082C083E9540B
:103FE4000FF9906185E0696012E5C654804449F593
:103FF400C6E59E547F644970F8E9F053C680E59E97
:10400400547F70FA024189C082C083E5A8F853A89E
:104014007E906181E4F0A3F0A3F0C2BA539AFEC289
:1040240089759B00C2C275E90075910075BF007562
:10403400A91175B905906181F0A374C0F0A3E4F0EF
:10404400D2BA439A0174805842A8024189C082C0FE
:104054008374F812169A90059EE0F8A3E0F9E849F3
:10406400700302417F90059EE054406023790885E7
:104074001882851983AA82AB83120FA185188285C1
:104084001983AA82AB83120C7790059EE054BFF08B
:10409400E054806010790C7A5A7B07120FA19005C6
:1040A4009EE0547FF0E0A2E0503190619A7433F0C6
:1040B400A37455F09061A0743AF0900736E064015F
:1040C4007009C2919005A0746780059005A0746181
:1040D400F0120C7D90059EE054FEF0E05402603135
:1040E40090619A743FF0A3745AF09061A0747FF0C9
:1040F400900736E064017009D2919005A074718034
:10410400059005A0746AF0120C7D90059EE054FDA4
:10411400F0E054046013902568E493906186F012F3
:104124000C8390059EE054FBF0E054086013902546
:1041340069E493906186F0120C8390059EE054F735
:10414400F0E05410601390256AE493906186F012B5
:104154000C8390059EE054EFF0E05420600A120CAA
:104164008390059EE054DFF0A3E05401600D120E2D
:10417400C9120C8990059FE054FEF074081216B021
:104184008003F0A3F0D083D08202013574EC1216C0
:10419400F174F412169A851882851983AC82AD8362
:1041A40075838275825B74041215AD90256893F44F
:1041B400600302431D907808E0C394025003024256
:1041C400FD74041216E5AC82AD837583817582A4F7
:1041D40074081215AD85188285198385821285832A
:1041E4001374041216E5AC82AD83750EFF750FFFD0
:1041F4007FFF7E00750C48750D78801574086E700D
:104204000302429074096E7003024290740A6E6055
:104214007B850C82850D83780812156A8C828D83C8
:10422400A909E50AC9F88810741878081214ABE5CE
:10423400104508F8C3E098A3E099850C82850D83A6
:10424400780812156A40188C828D837418780812C5
:1042540014ABE5104508F8E0C398F8A3E0801C749B
:104264001878081214ABE5104508FAE9FB8C828D26
:1042740083E0F8A3E0F9EAC398F8EB99F9C3E89569
:104284000EE9950F5006880E890FEEFF0EE50C24FB
:1042940004F50CE50D3400F50DEEC3941350030240
:1042A400420074FF650E700474FF650F60238F086D
:1042B4007402780812168774482508F582747835D4
:1042C40009F583780812156A851282851383E50837
:1042D400F0EC24020C0CED3400FD8512828513836E
:1042E400A3858212858313740C1216E5E5826C7023
:1042F40003E5836D60030241EE75080175090078DA
:104304000812190474021216E5AC82AD837A5A7B42
:104314000912064774021216B0740C1216B07F0C00
:104324000217C3C082C0839061AE7468F0A3746A3C
:10433400F090624574FBF0A304F053F4FD43FE02D5
:104344009007367401F09061A0E0643A90619A702D
:10435400237433F0A37455F09061A0743AF074019F
:1043640064017009C2919005A0746780289005A02B
:1043740074618021743FF0A3745AF09061A0747F3B
:10438400F0740164017009D2919005A074718005E4
:104394009005A0746A0241887F040217C3C082C0DA
:1043A400839006E8E06401700A9006EDE060047909
:1043B4000C80027900024189C082C08375E1F190CA
:1043C40006EBE0605514600814605914605180597C
:1043D400120EDB9006E1E0F97AE27B061210BB9044
:1043E400824F1215881210F190826F1215881210E4
:1043F400C79006ECE0F91210D3790112112D900642
:10440400DFE02416F8A3E03400F98882898374F38A
:10441400F0A3740EF07900024189120EE180B41207
:104424000EE780AF120EED80AA791280EA74F412BE
:1044340016F175D90D9006D0E0A2E0E4331313F819
:104444009006E1E0C4333354C0484401F5D978DF21
:10445400790688828983A3A3A3E0F5D98882898316
:10446400A3A882A983E864E57003E9640670E3788D
:10447400D0790688828983A3E0F5D988828983A3C9
:10448400A882A983E864D67003E9640670E575E13F
:10449400959006D0E0F97AD17B061210C1900BFEFC
:1044A4007487F0A3740EF0A374E9F0A3740FF0A35F
:1044B40074E9F0A3740FF0A374E9F0A3740FF0A3EC
:1044C400748DF0A3740EF0A374E9F0A3740FF0A339
:1044D40074A5F0A3740EF0900C0C74E9F0A3740F9F
:1044E400F0A374E9F0A3740FF0A374E9F0A3740FBC
:1044F400F0A374E9F0A3740FF0A374E9F0A3740FAC
:10450400F0A374E9F0A3740FF09006DFE0F8A3E0E1
:10451400F5838882A3A3780812156A90824B7808E1
:104524001214F690826378081215449006DFE02492
:104534000EF8A3E03400F98882898378081215798B
:104544009006DFE02414F8A3E03400F9888289831C
:104554007413F090059C7402F002439CC082C083E3
:104564009006F1E02407F5D99006E1E0C433335412
:10457400C0F5D978DF790688828983A3A3A3E0F5FF
:10458400D988828983A3A882A983E864E57003E9B2
:10459400640670E39006F1E0601F78DF7906FAE8BC
:1045A4002413F582E93400F583E0F5D98882898300
:1045B400A3A882A9831AEA70E6900711E02407F5FC
:1045C400D99006E1E0C4333354C04404F5D978DF0C
:1045D400790688828983A3A3A3E0F5D98882898395
:1045E400A3A882A983E864E57003E9640670E390F4
:1045F4000711E0601F78DF7906FAE82433F582E9D1
:104604003400F583E0F5D988828983A3A882A9833D
:104614001AEA70E675E195900BFE7493F0A3740E9C
:10462400F0A374E9F0A3740FF0A374E9F0A3740F7A
:10463400F0A374E9F0A3740FF0A3748DF0A3740EC7
:10464400F0A374E9F0A3740FF0A374A5F0A3740E9F
:10465400F0900C0C74E9F0A3740FF0A374E9F0A3C8
:10466400740FF0A374E9F0A3740FF0A374E9F0A33A
:10467400740FF0A374E9F0A3740FF0A374E9F0A32A
:10468400740FF09082771215889006DFE0240EF8FC
:10469400A3E03400F9888289831215949006DFE040
:1046A4002414F8A3E03400F9888289837412F0900A
:1046B400059C7401024188C082C0839006F1E02405
:1046C40007F5D99006E1E0C4333354C04402F5D968
:1046D40078DF790688828983A3A3A3E0F5D9888249
:1046E4008983A3A882A983E864E57003E96406705A
:1046F400E39006F1E0601F78DF7906FAE82413F509
:1047040082E93400F583E0F5D988828983A3A882FD
:10471400A9831AEA70E675E195900BFE749FF0A3E5
:10472400740EF0A3749FF0A3740EF0A3749FF0A30F
:10473400740EF0A3749FF0A3740EF0A3749FF0A3FF
:10474400740EF0A3749FF0A3740EF0A374A5F0A3E9
:10475400740EF0900C0C74E9F0A3740FF0A374E9D8
:10476400F0A3740FF0A374E9F0A3740FF0A374E939
:10477400F0A3740FF0A374E9F0A3740FF0A374E929
:10478400F0A3740FF09082771215889006DFE0246E
:104794000EF8A3E03400F9888289831215949006F8
:1047A400DFE02414F8A3E03400F9888289837414C8
:1047B400F090059C7404024188C082C0839006F185
:1047C400E02407F5D99006E1E0C4333354C044062D
:1047D400F5D978DF790688828983A3A3A3E0F5D984
:1047E40088828983A3A882A983E864E57003E964C5
:1047F4000670E39006F1E0601F78DF7906FAE8249A
:1048040013F582E93400F583E0F5D988828983A31E
:10481400A882A9831AEA70E6900711E02407F5D963
:104824009006E1E0C4333354C04404F5D978DF7909
:104834000688828983A3A3A3E0F5D988828983A308
:10484400A882A983E864E57003E9640670E390072D
:1048540011E0601F78DF7906FAE82433F582E93441
:1048640000F583E0F5D988828983A3A882A9831AF5
:10487400EA70E675E195900BFE7499F0A3740EF05E
:10488400A374E9F0A3740FF0A374E9F0A3740FF018
:10489400A374E9F0A3740FF0A374E9F0A3740FF008
:1048A400A374E9F0A3740FF0A374A5F0A3740EF03D
:1048B400900C0C74E9F0A3740FF0A374E9F0A374E2
:1048C4000FF0A374E9F0A3740FF0A374E9F0A374D8
:1048D4000FF0A374E9F0A3740FF0A374E9F0A374C8
:1048E4000FF09082771215889006DFE0240EF8A36B
:1048F400E03400F9888289831215949006DFE0245D
:1049040014F8A3E03400F9888289837415F09005C3
:104914009C7403024188C082C0839006DFE0F8A340
:10492400E0F5838882A3A3A3A3A3A3E4024186742E
:10493400F71216F19005CAE0F875F004A4C8AAF0BD
:104944002AF974CC28F8740539F9E82405FAE9340D
:1049540000FB8A828B83E0FCA3E0FD88828983A329
:10496400A3A3A3A3A3A3A3A3ECF0A3EDF08882893C
:1049740083A3A3A3A3A3A3A3E024FFF8A3E034FF8A
:10498400F98A828B83E8F0A3E9024BD874F71216F4
:10499400F1EAFEEBFF9061D0E06003024A6D75D945
:1049A4000E75D90375D904EE248CF582EF3400F525
:1049B40083E5822408F8E5833400F9E0F5D9A3E817
:1049C40065827003E9658370F2EE2484F582EF3426
:1049D40000F583E5822404F8E5833400F9E0F5D991
:1049E400A3E865827003E9658370F275E19579083F
:1049F400EE248CFAEF3400FB120F957904EE248434
:104A0400FAEF3400FB120F957C00EEF8EFF9ECFAA4
:104A1400C3E49AFA95E0FBEE2AFAEF3BFBEA248B17
:104A2400F582EB3400F583E0C0E0E824ABF582E9DD
:104A34003400F583D0E0F00C88828983A3A882A98E
:104A440083ECC3940840C7EE2470F582EF3400F57C
:104A540083E0F8A3E0F9EE2472F582EF3400F583E5
:104A6400E8F0A3E9F0790180027900024BD9C08211
:104A7400C08375D90275D90375D90575E195EA2402
:104A840070F582EB3400F583E0F8A3E0F9EA2472D0
:104A9400F582EB3400F583E8F0A3E9F079010241F3
:104AA4008974F61216F1EAFEEBFF90073A7406F0E9
:104AB40075083A75090778081219047C01790312FC
:104AC4000FDD74021216B075D90675D90375823AD2
:104AD400758307E0F5D9A3E582643F7004E5836438
:104AE4000770F075E19590059CE06408701EEE2453
:104AF40070F582EF3400F583E0F8A3E0F9EE247258
:104B0400F582EF3400F583E8F0A3E9F07901024C73
:104B1400A574F61216F1EAFEEBFF9061D0E0706620
:104B2400780190073A740BF090059CE064077019C3
:104B340075083A75090778081219047C017903127B
:104B44000FDD74021216B07805740128F5D975D9F1
:104B54000375823A758307E8FAE0F5D9A31AEA7077
:104B6400F875E195EE2470F582EF3400F583E0F8F2
:104B7400A3E0F9EE2472F582EF3400F583E8F0A3A4
:104B8400E9F0790180027900024CA574F71216F15C
:104B9400EAFEEBFF75D90375D90375D90DEE24DE52
:104BA400F582EF3400F583E0F5D975E195790412C7
:104BB40010F7EE2470F582EF3400F583E0F8A3E0FB
:104BC400F9EE2472F582EF3400F583E8F0A3E9F0FE
:104BD40079018001F07F010217C374F61216F1EA1D
:104BE400FEEBFF9061D0E0F87480C398FAEE248362
:104BF400F582EF3400F583E06004780480027800E5
:104C0400E8240BF8EAC3985003024CA37D099007EB
:104C14003AEDF0EE24E3F8EF3400F97A3B7B077CBD
:104C24000888828983E08A828B83F088828983A3BF
:104C3400A882A9838A828B83A3AA82AB831CEC708B
:104C4400E0EE2483F582EF3400F583E0601D7508FF
:104C54003A75090778081219047C097903EEFAEF0A
:104C6400FB120FDD74021216B07D0D74012DF5D9FF
:104C740075D90375823A7583078D08E0F5D9A315B4
:104C840008E50870F675E19579041210F7EE241D15
:104C9400F582EF3400F583E4F0A3F0790180027922
:104CA400007F020217C374F61216F1EAFEEBFF90BE
:104CB40061D0E0F87480C398FAEE2483F582EF346F
:104CC40000F583E06004780480027800E82408F8A2
:104CD400EAC3985003024DAA7D0690073A740CF07B
:104CE4009005B9E090073BF07ABA7B05783C7907E8
:104CF4007C028A828B83E088828983F08A828B8318
:104D0400A3AA82AB8388828983A3A882A9831CEC8B
:104D140070E07ABC7B057C028A828B83E08882897E
:104D240083F08A828B83A3AA82AB8388828983A33C
:104D3400A882A9831CEC70E0EE2483F582EF340092
:104D4400F583E0601D75083A75090778081219049F
:104D54007C067903EEFAEFFB120FDD74021216B033
:104D64007D0A74012DF5D975D90375823A758307C7
:104D74008D08E0F5D9A31508E50870F675E1957975
:104D8400041210F7EE2470F582EF3400F583E0F896
:104D9400A3E0F9EE2472F582EF3400F583E8F0A382
:104DA400E9F0790180027900024CA574F61216F13B
:104DB400EAFEEBFF9061D0E0F87480C398FAEE2429
:104DC40083F582EF3400F583E06004780480027890
:104DD40000E82404F8EAC3985003024E897802904C
:104DE400073AE8F0EE24F5F582EF3400F583E0901D
:104DF400073BF0EE2483F582EF3400F583E0601B7B
:104E040075083A75090778081219047C027903EECB
:104E1400FA120FDD74021216B07806740128F5D95F
:104E240075D90375823A7583078808E0F5D9A31507
:104E340008E50870F675E195EE2474F582EF340008
:104E4400F583E4F0EE2480F582EF3400F583E4F09A
:104E5400EE241DF582EF3400F583E4F0A3F0790429
:104E64001210F7EE240DF582EF3400F583E0F8A379
:104E7400E0F9EE2472F582EF3400F583E8F0A3E95B
:104E8400F0790180027900024CA574F61216F190B3
:104E940061D0E0F87480C398FCEA2483F582EB3493
:104EA40000F583E06004780480027800E82404F8C4
:104EB400ECC398405B790290073A7407F0EA24F651
:104EC400F582EB3400F583E090073BF0EA2483F5A8
:104ED40082EB3400F583E0601875083A75090778A9
:104EE400081219047C0209120FDD74021216B0793B
:104EF40006740129F5D975D90375823A758307E9D2
:104F0400F8E0F5D9A318E870F875E1957901800205
:104F14007900024CA574F51216F1E9FCA2AFE43352
:104F2400F50AC2AF7D0080010DEA246FF582EB34EF
:104F340000F583E0F8EDC398501A8D08EA2508F8C7
:104F4400EB3400F9E8246BF582E93400F583E06C76
:104F540070D68024EA246FF8EB3400F9E0FEEA2EE0
:104F6400FAEB3400FBEA246BF582EB3400F583ECB6
:104F7400F088828983E004F0E50AA2E092AF7F031F
:104F84000217C374F61216F1A2AFE433FDC2AFEAFE
:104F9400246FF582EB3400F583E014F07C00603676
:104FA4008C08EA2508F8EB3400F9E8246CF582E96A
:104FB4003400F583E0C0E0E8246BF582E93400F5C1
:104FC40083D0E0F00CEA246FF582EB3400F583E043
:104FD400F8ECC39840CAEA246EF582EB3400F583FA
:104FE40074FFF0EA246AF582EB3400F583E4F0ED13
:104FF400A2E092AF024CA5C082C083E5A8F8C2AF7C
:10500400EA246BF582EB3400F583E9F0EA246AF5CF
:1050140082EB3400F583E4F0E8A2E792AF02418921
:1050240074F31216F1EAFEEBFFECFAEDFB8A828BC5
:1050340083A3A3A3A3E0541FF0EE2436F582EF3438
:1050440000F583E4F0F50AEEFCEFFD8A828B83E041
:10505400C0E0EC245DF582ED3400F583D0E0F0751A
:105064000B00E50A33333354F8F50C8A828B83E062
:10507400F508750900E50B7808121668E508A2E042
:10508400502FEE2436F8EF3400F988828983E0F556
:1050940008EE2508F508EF3400F509E5082438F58D
:1050A40082E5093400F583E50CF088828983E00405
:1050B400F0050B050CE50BC3940840AF050A8A8282
:1050C4008B83A3AA82AB838C828D83A3AC82AD83B2
:1050D400E50AC39405500302504F7F050217C374B9
:1050E400F71216F19005C8E0640170077A007B009E
:1050F40002525A7E009005CEE070F17401F0A3E4F0
:10510400F0A3F090062E04F0900631E4F0A3F090A2
:10511400063404F09005D1E4F0A3F0A3F0A3F090DA
:1051240005DB04F0900601E4F090824312158890A8
:1051340005E41215949005E8E4F0A3F0A3F09006BA
:105144004CF0900640F09006357480F0A3E4F090A3
:10515400063BF0900633F09006B7F0A3F0A3F0A35B
:10516400F0A3F0A3F0A3F0A3F09006C0F090064FD4
:10517400F090069FF0A3F09082431215889006A148
:105184001215949082431215889006A512159490D6
:1051940006ABE4F09006ADF09006A9F09006C3F0DB
:1051A400A3F0A3F0A3F0A3F0A3F0A3F0A3F078C8B6
:1051B4007905E8246FF582E93400F58374FFF00E75
:1051C40088828983A3A882A983EEC3940440E37AE6
:1051D400C87B0578D7790688828983E0C0E0EA2411
:1051E40061F582EB3400F583D0E0F088828983A3F3
:1051F400A882A9838A828B83A3AA82AB83E864DC16
:105204007003E9640670D07AC87B0578AF790588A5
:10521400828983A3E0C0E0EA24E7F582EB3400F559
:1052240083D0E0F088828983A3A882A9838A828BB1
:1052340083A3AA82AB83E864B77003E9640570CFE3
:105244009005C8E004F0640170089005D0E0900572
:10525400CAF07ACC7B05024BD9C082C0839005CFBB
:10526400E4F09005CEF09005C8F0A3F0A374FFF02D
:1052740075E1F1024189C082C0837800790090050C
:10528400CFE0600478CC790588828983A3A3A3A3A3
:10529400E0F902418974F61216F1EAFEEBFF8E8200
:1052A4008F83A3A3A3E0600F8E828F83A3A3A3E4C1
:1052B400F09005C9E014F09005C8E014F070069071
:1052C40005CA74FFF08E828F83A3A3E4F09006DCFA
:1052D400E0700D9005C9E06401700579001210D9E1
:1052E400EE2465F582EF3400F583E0F8A3E0F9E8F5
:1052F400496029EE2465F8EF3400F98808890988A3
:1053040082F583E0FCA3E0FD9005CAE0FA7B00127D
:105314000CAD850882850983E4F0A3F0EEFAEFFB77
:1053240012100D024CA574F71216F1EAFEEBFF8E73
:10533400828F83A3A3A3A3E0FA7B00120CEFEEFAFF
:10534400EFFB120F5F120FF5024BD9C082C08378B6
:10535400AF790588828983A3E4F088828983A3A82E
:1053640082A983E864B77003E9640570E69005B028
:105374000246B674F61216F1EAFEEBFFEC2403F8CB
:10538400ED3400F988088909EC2407F8ED3400F9B4
:10539400E8FCE9FD8C828D83E0F8A3E0F9850882BE
:1053A400850983E0FAA3E0FB12160FEE240DF582C3
:1053B400EF3400F583E8F0A3E9F08C828D83E0F804
:1053C400A3E0F9850882850983E0FAA3E0FB1216BD
:1053D4000F8B09EA45096013EE240DF582EF3400C2
:1053E400F583E02401F0A3E03400F0024CA574F648
:1053F4001216F1EAFEEBFFEE242EF582EF3400F5EF
:1054040083E0FCA3E0FD780079FAECFAEDFB1216D8
:105414000FEE2470F582EF3400F583E8F0A3E9F091
:10542400780079FAECFAEDFB12160F8B09EA4509BC
:105434006013EE2470F582EF3400F583E02401F06C
:10544400A3E03400F0024CA574F01216F1EAFEEB6E
:10545400FF74101216E5780812156A1210978A0C58
:105464008B0D8C0E8D0F908247780C1214F690825F
:1054740063780C121544780C1219008E828F83E025
:10548400F8A3E0F5838882A3A31215881222FA7484
:10549400041216B0E960030255998E828F83E024CA
:1054A40002F8A3E03400F9E8FAE9FB8A828B8378F6
:1054B40008121509908263780812156A8A828B8310
:1054C4007808121557EE240BF582EF3400F583C0EB
:1054D40082C0838E828F83A3A3A3A3A3E02401F8B5
:1054E400A3E03400F9D083D082E0687003A3E069BC
:1054F4007005790102559B8E828F83A3A3A3A3A376
:10550400A3A3E02401F0A3E03400F0EE2474F582B8
:10551400EF3400F583E064017036EE2475F582EF14
:105524003400F583E0F8A3E0F98E828F83A3A3A36C
:10553400A3A3A3A3E0687003A3E0697013EE24752A
:10554400F582EF3400F583E02401F0A3E03400F0A9
:10555400EE2480F582EF3400F583E064017036EECA
:105564002481F582EF3400F583E0F8A3E0F98E821C
:105574008F83A3A3A3A3A3A3A3E0687003A3E069F9
:105584007013EE2481F582EF3400F583E02401F0FA
:10559400A3E03400F079007F080217C374F71216F1
:1055A400F19005CAE0F875F004A4C8AAF02AF974C9
:1055B400CC28FE740539FF8028EE2465F8EF34000A
:1055C400F988828983E0FCA3E0FD88828983E4F082
:1055D400A3F08E828F83A3A3A3A3E0FA7B00120C13
:1055E400ADEE2465F582EF3400F583E0F8A3E0F92D
:1055F400E849604FEE2464F582EF3400F583E0F56A
:10560400087808121908EE2463F582EF3400F58354
:10561400E0F9EE2465F582EF3400F583E0FCA3E0C5
:10562400FDEEFAEFFB120F8974011216B0E96089DE
:10563400EE2465F582EF3400F583E0F8A3E0F9E8A1
:105644004970137C007D008E828F83A3A3A3A3E003
:10565400FA7B00120CAD024BD974F21216F1EAFE79
:10566400EBFF890A740E1216E5E0FAEE2462F58265
:10567400EF3400F583E0640160030257299061D0A0
:10568400E0F87480C398F50CEE2483F582EF3400BF
:10569400F583E060047804800278008908E928F83A
:1056A400E43400F9E824020808E93400F9E50C9828
:1056B400E499A2D265D0334068EA7005750B028084
:1056C40003750B01E0603975090078081219047A32
:1056D4003A7B07120FBF74021216B075083A7509A7
:1056E400077808121904AC0AA90BEEFAEFFB120FA3
:1056F400DD74021216B07404250AF50A7C3A7D079B
:105704007401250AF5D9850BD9E50A600D8C828DC3
:1057140083F8E0F5D9A318E870F875E1957900806D
:10572400067907800279FF7F060217C3C082C0830F
:10573400E960208C828D83E08A828B83F08C828D59
:1057440083A3AC82AD838A828B83A3AA82AB8319A1
:10575400E970E0ECFAEDFB02418974EA1216F1906B
:105764007803E06442705E900739E014F07056C22A
:10577400AF12577800782AD0E0F618D0E0F6E59F0B
:105784005407F9700590823F800390820B780812C9
:10579400156AE9C4C0E07829E65508F50808E65515
:1057A40009F509740B7808121678D0E02508F890EA
:1057B4006270E0A2E740F8E8C333906272F090624E
:1057C40070E0D2E0F09005CAE0F47003025B81E07F
:1057D400F875F004A4C8AAF02AF974CC28FE74055C
:1057E40039FFEE2402F582EF3401F583E0F8A3E0FB
:1057F400F9E849601EEE2402F582EF3401F583E0F6
:10580400FAA3E0FBEE2401F582EF3401F583E0F91D
:105814001204978E828F83A3A3A3A3A3A3A3E0F868
:10582400A3E0F98E828F83A3A3A3A3A3E8F0A3E943
:10583400F0906054E09005A3F0906055E09005A4CA
:10584400F0906056E09005A5F0906057E09005A6B2
:10585400F0906058E09005A7F0906059E09005A89A
:10586400F090605AE09005A9F090605BE09005AA82
:10587400F090605CE0FC9005ABF090605DE0FB9024
:1058840005ACF090605EE0FD9005ADF090605FE0E7
:10589400FA9005AEF09005A9E08C082508F8E434E8
:1058A40000F98D08E82508F8E93400F98B08E825A3
:1058B40008F8E93400F98A08E82508FAE93400FB15
:1058C400EE24F7F582EF3400F583E02AF0A3E03B01
:1058D400F08C08EE24F9F582EF3400F583E0250816
:1058E400F0A3E03400F0EE24FBF582EF3400F583FE
:1058F400E02401F0A3E03400F0EE24FFF582EF345D
:1059040000F583E0F8A3E0F9E8496042906000E024
:10591400C333FCE433FDE82CF582E93DF583E02A4A
:10592400F0A3E03BF0906000E0FA9005ABE0FCEA05
:10593400C333FAE433FBE82AF8E93BF9E8244AF5EF
:1059440082E93400F583E02CF0A3E03400F0900504
:10595400A9E070119005ACE0700BA3E07007A3E020
:105964007003025A618E828F83A3A3A3A3A3E0F8DA
:10597400A3E0F9EE240DF582EF3400F583E028F876
:10598400A3E039F9EE240BF582EF3400F583E8F057
:10599400A3E9F0EE240FF582EF3400F583E4F0EE92
:1059A400241CF582EF3400F583E06401701EEE24BC
:1059B40020F582EF3400F583E0F8A3E0F9EE241D2E
:1059C400F582EF3400F583E8F0A3E9F09005A4E054
:1059D4006052EE241CF582EF3400F5837401F0EE7E
:1059E400246AF582EF3400F583E07038EE2474F510
:1059F40082EF3400F583E0702BEE2480F582EF34DF
:105A040000F583E0701EEE2420F582EF3400F58368
:105A1400E0F8A3E0F9EE241DF582EF3400F583E805
:105A2400F0A3E9F0906062E07003025B148E828F51
:105A340083E0F8A3E0F9E82406FCE93400FDE82457
:105A440002FAE93400FB1210918E828F83E0241253
:105A5400F8A3E03400F988828983025B1E9005ABC9
:105A6400E0603AEE240FF582EF3400F583E4F0EEC3
:105A7400241CF582EF3400F583E064017040EE24C9
:105A840020F582EF3400F583E0F8A3E0F9EE241D5D
:105A9400F582EF3400F583E8F0A3E98020EE24FDDD
:105AA400F582EF3400F583E02401F0A3E03400F044
:105AB400EE241DF582EF3400F583E4F0A3F0EE2428
:105AC4000BF582EF3400F583E0F8A3E0F98E828FC2
:105AD40083A3A3A3A3A3E0687003A3E06960030204
:105AE40059D0EE240FF582EF3400F583E060128E76
:105AF400828F83A3A3A3A3A3E064057002A3E06041
:105B04000B7908EEFAEFFB120F658071793E80F392
:105B1400EE241DF582EF3400F583E4F0A3F09060E9
:105B240060E0C0E0EE2469F582EF3400F583D0E054
:105B3400F09005A9E0F8EE2467F582EF3400F583D0
