:020000040000FA
:0600000002011D021D3A81
:03002B000223A409
:03005300021DB0DB
:03006B000223C0AD
:10008300021C2BE5C754F84401F5C779012200008F
:100093000080FB120086B90003020107E47921788E
:1000A30008B800028004F709D8FCE479297802B87B
:1000B30000028004F709D8FCE490028178ED790707
:1000C3008002F0A3D8FCD9FA781A90014D7A01BACC
:1000D30000028007E493A3F608DAF990096DAA8277
:1000E300AB8390014E78F479038015E493A3AC823B
:1000F300AD838A828B83F0A3AA82AB838C828D83A8
:10010300D8E9D9E7758268758395740312012F7551
:100113008291758300740012012F75D00075813FA1
:10012300751881751902759F00020096C09FF59F8F
:10013300E473D09F22D083D082C09FE493C0E07445
:100143000193C0E0740293F59F2201FF0000B40005
:100153000028002800283075A000A000A000A000FF
:1001630000080008E001F00010001000100010006B
:100173001000100050005000500010001000D00775
:100183000000000000000F000100050030750700AB
:100193001000010081FF0000FF390657063F06FFEC
:1001A30002020208025000A0000000E803020E90C1
:1001B3000100000090021290010000C20902189091
:1001C300010000B202021290010000C309021A905A
:1001D300010000C802021290010000C40902369017
:1001E300010000CA02021290010000C509021E901C
:1001F300080000CB02021290010000C60902209001
:10020300010000C709FF0100FF20020E900100005A
:1002130003900212900100002B0A022290000000BA
:1002230000000216900300001803570C570C570CDC
:10023300570C570C570C570C570C570C570C570CA3
:10024300570C570C2D0F450F270FFFFF0202020219
:100253000202020202010D0000001001020E9001D1
:10026300000006900212900100006E0A0232900113
:10027300000077070212900100006F0A023090011C
:100283000000138F021290010000700A022E9001E9
:100293000000F78E021290010000710A022C9001F7
:1002A30000007F8E021290010000720A022A900160
:1002B3000000A38E021290010000730A022890012D
:1002C3000000B58E021290010000740A02469001EC
:1002D3000000918E021290010000750A022690011F
:1002E3000000058F021290010000760A022490019B
:1002F3000000770AEA59595F69426561636F6E00CE
:100303000000000000000000FDA50693A4E24FB129
:10031300AFCFC6EB07647825000A0007120001017E
:10032300E803053F10FF00013075030201060000DA
:1003330000000000000000000000000000000000BA
:1003430000000000000000000000FFFF0600800C1A
:10035300E803616161706C6520424C452050657211
:100363006970686572616C7D13000083130A6162B2
:100373006364736565656565000000000000000047
:10038300004445565F4E414D4500000AFDA50693C6
:10039300A4E24FB1AFCFC6EB076478255555494466
:1003A30000000A00034D414A4F5200000A00044D69
:1003B300494E4F5200000A124D6561207000020E33
:1003C3009001000009900212900100008F0B023C83
:1003D30090030000900B021490010000A30B021283
:1003E30090010000AD0B023E90030000AE0B02141F
:1003F30090010000BE0B021290010000C40B0240EA
:1004030090030000C50B021490010000C70B0212F9
:1004130090010000CE0B024290030000CF0B0214A8
:1004230090010000D10B021290010000D80B02448E
:1004330090030000D90B021490010000DA0B1201A3
:1004430038818A03120138988A03120138C78A0354
:10045300120138008B03120138288B03120138561E
:100463008B031201386D8B03120138848B03120145
:10047300389A8B03120138C18B03120138D48B03D2
:10048300120138EA8B03120138128C031201381E51
:100493008B021201381D8C02120138528C02120198
:1004A30038738C02120138838C02120138A48C0237
:1004B300120138B08D021201387D8E02120138F01C
:1004C3008E02120138768F02120138B98F0212019F
:1004D30038F08F02120138769002120138489102E7
:1004E300120138A69102120138BE91021201383866
:1004F30092021201383B92021201383E920212011B
:1005030038E59202120138FD92021201382D93024E
:100513001201384D93021201383B9402120138F153
:10052300940212013833D6021201385BD60212014B
:100533003889D602120138C0D60212013828D702F0
:1005430012013871D702120138BCD702120138FAEE
:10055300D70212013837D80212013865D8021201C6
:10056300380CD90212013816D90212013823D902E4
:1005730012013856D90212013818DA02120138244E
:10058300DA021201383CDA0212013846DA021201A9
:1005930038A99103120138B79103120138CF91039F
:1005A300120138E7910312013881AE011201381F9D
:1005B300AF0112013897AF01120138ACB00112013B
:1005C30038E6B0011201388FB10112013864B2016B
:1005D300120138C8B3011201381FB401120138A641
:1005E300B4011201388DB501120138DAB5011201D7
:1005F3003868B6011201388CB60112013861B801AE
:10060300120138A2B801120138C4B80112013845E9
:10061300B9011201382FBA01120138F5BA011201DA
:100623003820B602120138F2B6021201389BB70223
:10063300120138DEB7021201386BB802120138F723
:10064300B802120138D8B90212013807BA021201EE
:100653003803BB021201384BBB021201384DBC02F6
:1006630012013891BC02120138B7BC02120138AD35
:10067300930312013817F0021201382DF002120110
:100683003853F0021201387BF10212013885F1026E
:10069300120138DEF202120138DEF302120138B31E
:1006A300C202120138E8C3021201381BC40212014C
:1006B3003865C40212013823C602120138719F0142
:1006C300120138D49F0112013819A10112013829EE
:1006D300A1011201384CA10112013897A1011201A5
:1006E300383CA20112013832A301120138FCA301E4
:1006F30012013874A501120138B6A501120138544C
:10070300A6011201387AA60112013868A801120164
:10071300386DA8011201384EAA01120138A2AA01AC
:1007230012013804AB011201382CAB01120138D08D
:10073300AB0112013892AC01120138C3AC011201B2
:1007430038C6AC011201380EAD0112013850AD01AB
:10075300120138B7AD0112013800800312013813BA
:1007630080031201382C80031201387780031201B1
:1007730038528103120138E181031201382C8203BC
:1007830012013814240012013820240012013859B0
:1007930024001201389E240012013855250012014D
:1007A30038DB2500120138072600120138402600E5
:1007B300120138542800120138302A001201381B64
:1007C3002C00120138522D00120138B22F001201F1
:1007D300389E3000120138E43100120138F1320042
:1007E3001201380E3300120138463300120138600B
:1007F3003300120138C83300120138623800120185
:10080300380339001201385439001201387B39009A
:10081300120138C93900120138E739001201383B97
:100823003A00120138433B00120138CB3B0012015E
:100833003889D10212013893D1021201385ED202F3
:1008430012013879D2021201389FD202120138E321
:10085300D2021201381BD30212013844D30212010F
:1008630038BDD302120138D2D302120138E7D302C2
:100873001201381ED40212013832D4021201386335
:10088300D4021201389DD402120138C9D4021201D4
:10089300381FD50212013873D502120138BCD502B4
:1008A300120138E6D5021201380BD6021201382B99
:1008B300EC02120138F5EC02120138D8ED021201F4
:1008C300384EEE0212013890EE02120138BDEF02EB
:1008D3001201380CF30112013835F3011201384EBD
:1008E300F30112013893F40112013871F501120179
:1008F3003890F5011201381DF60112013860F60136
:10090300120138ADF7011201384CF801120138CB4E
:10091300FA0112013862FB0112013836FC0112019F
:100923003818FD0112013884FE0112013817FF0146
:10093300120138BC8D03120138258E031201387958
:100943008E03120138A08E031201387CDF021201DC
:1009530038E9DF0212013834E00212013829E102DA
:1009630012013825E2021201380FE3021201385F47
:100973009E02120138A19E021201387B9F021201CE
:100983003854A0021201384FA1021201382EA202DC
:100993001201389AA20212013861A302120138CC63
:1009A300A30212013833A4021201385EA402120119
:1009B30038CFA40212013862A502120138CBA50276
:1009C300120138E0A50212013828A60212013841AB
:1009D300A602120138A6A602120138A9A602120124
:1009E300387EF702120138A6F702120138E4F70243
:1009F300120138A2F8021201380DF9021201382946
:100A0300F90212013851F90212013881F902120177
:100A13003890F9021201380AFA0212013830FA0248
:100A2300120138499001120138E69101120138CCC4
:100A33009301120138969401120138DD94011201D9
:100A43003824950112013836950112013876950143
:100A5300120138A59501120138F1950112013829C7
:100A63009601120138579601120138A89601120116
:100A730038379701120138259A01120138FF9B017B
:100A83001201383B9C01120138959D01120138DC9B
:100A93009D01120138519E011201389F9E011201DE
:100AA30038D69E011201385C9502120138799502FD
:100AB300120138139B02120138159C021201388F60
:100AC3009D021201383D9E0212013812500012019C
:100AD300385B5000120138885000120138BB5000B7
:100AE300120138C85000120138D45000120138E600
:100AF3005000120138BB5100120138195200120183
:100B0300384E5200120138EA5300120138375400AC
:100B13001201385B5400120138C854001201386DB9
:100B23005500120138295600120138A85600120147
:100B3300386C57001201387B5700120138FC5700FC
:100B43001201389B5800120138CD58001201386841
:100B53005900120138C65900120138005A00120117
:100B630038815A001201384A5B00120138F35B00E6
:100B73001201387A5C00120138D25C00120138335A
:100B83005D001201385C5D00120138125E00120133
:100B9300385C5F001201389F5F00120138BC5F00B0
:100BA300120138DB5F001201382660001201384B56
:100BB3006000120138746000120138E36000120112
:100BC30038256100120138296200120138C362001E
:100BD3001201388F6300120138A863001201382A0A
:100BE30076001201387D76001201388976001201F1
:100BF300385E7700120138857700120138C077001C
:100C03001201382C780012013860780012013899EB
:100C13007800120138B178001201380A7900120104
:100C2300382379001201386C79001201387F79007A
:100C3300120138997900120138AF7900120138CBCB
:100C43007A00120138DC7B00120138297D00120181
:100C5300380E7E00120138FCFF0212013826E6012D
:100C63001201385AE601120138C5E9011201380FA1
:100C7300EB01120138D9EB0112013863ED011201C6
:100C8300383EEE0112013878EE011201389BEE0175
:100C9300120138DDEE01120138E6EE01120138309F
:100CA300EF011201383AEF01120138E6EF011201A8
:100CB30038BAF0011201380EF10112013870F10156
:100CC300120138C3F101120138F2F1011201383176
:100CD300F201120138DA6300120138346C00120198
:100CE300383A6C00120138F57100120138DB7500D7
:100CF300120138E8F3021201385EF402120138746B
:100D0300F402120138B1F402120138E9F4021201BB
:100D13003866F502120138A1F5021201381CF602F9
:100D230012013858F60212013861F6021201386DC9
:100D3300F60212013887F602120138ACF6021201EC
:100D430038C2F602120138EBF6021201384EF702EE
:100D5300120138C7CC02120138DACC02120138F47E
:100D6300CC021201381DCD0212013860CD021201EE
:100D7300389FCD02120138DDCD0212013842CE0276
:100D830012013857CE0212013862CE021201386FB7
:100D9300CE0212013886CE0212013894CE0212011D
:100DA300389FCE02120138ABCE02120138BECE02FA
:100DB300120138C9CE02120138ECCE021201389565
:100DC300CF02120138A5CF02120138BFCF021201A0
:100DD30038DCCF02120138F8CF021201381DD002DD
:100DE30012013827D0021201383BD0021201385ABF
:100DF300D002120138BBD002120138C1D002120155
:100E030038C7D002120138CDD002120138D9D0022E
:100E13001201380CD102120138ADCB011201382F67
:100E2300CC01120138D8CC0112013820CE011201B5
:100E3300382ED00112013814D10112013849D101E1
:100E43001201386BD10112013814D201120138E4B6
:100E5300D3011201380DD40112013885D4011201D6
:100E630038B7D401120138C4D4011201380FD501A7
:100E730012013833D50112013884D7011201388E9B
:100E8300D801120138EAD8011201382ABD01120132
:100E9300383BBE011201381FBF0112013829BF01BF
:100EA3001201384BBF0112013857BF01120138FB41
:100EB300C00112013828C1011201383EC2011201DA
:100EC3003893C201120138E2C301120138B7C401D9
:100ED30012013813C5011201387EC501120138B35E
:100EE300C501120138F6C501120138C0C80112014B
:100EF30038D8C80112013869C90112013877C9010C
:100F0300120138C4C901120138D2C9011201383E95
:100F1300CA01120138B9CA0112013810CB011201FA
:100F23003800800212013822800212013833820213
:100F3300120138F284021201381C8602120138DAD7
:100F43008602120138C68702120138C888031201CB
:100F530038ED880312013863890312013803AF02A5
:100F63001201380CAF0212013815AF02120138ED2D
:100F7300AF021201389EB102120138CEB102120142
:100F830038F9B10212013829B20212013854B202FF
:100F930012013888B202120138B4B202120138F7D2
:100FA300B20212013822B30212013869B3021201EC
:100FB30038BEB30212013800B4021201385AB40227
:100FC30012013885B402120138D4B4021201380474
:100FD300B5021201382FB5021201385DB5021201B4
:100FE3003880B50212013836940312013862940333
:100FF3001201388F9403120138999403120138A90E
:1010030094031201382CBD0212013836BD021201BD
:101013003877BD02120138C0BD02120138FABD0291
:1010230012013850BE0212013871BE021201387A21
:10103300BE02120138CEBE02120138F7BE021201FF
:101043003801BF021201386FBF02120138FFBF021D
:101053001201385AC00212013888C0021201381036
:10106300C1021201384FC10212013884C1021201B8
:101073003896C102120138B5C102120138BEC1024D
:1010830012013885C202120138D38F03120138D7F7
:1010930086031201380D87031201384187031201B9
:1010A300388E88031201381793031201382D9303E6
:1010B300120138379303120138819303120138B3B5
:1010C3009403120138DBDA02120138EEDA0212015C
:1010D30038AFDB02120138EEDB021201380BDC02FF
:1010E30012013844DC0212013891DC02120138C3C8
:1010F300DC02120138FADC0212013803DF021201AA
:10110300386FDF021201388EFF01120138A7FF0189
:10111300120138D6FF0112013878FA021201389D04
:10112300FA02120138C7FA021201385CFD021201F9
:101133003874FD021201388AFD021201389AFD0249
:10114300120138CAFD02120138A0FE021201386DE5
:10115300FF02120138AFFF02120138CBFF02120166
:1011630038129503120138323C00120138103E0048
:10117300120138AF3F001201385A4000120138DA29
:1011830040001201385F410012013888410012010A
:1011930038634500120138DA4500120138F1460080
:1011A3001201382B47001201386C4700120138B383
:1011B300480012013809490012013852490012014E
:1011C30038C149001201382D4A001201385E4A0025
:1011D300120138764A001201388F4B001201389FF2
:1011E3004B00120138554D001201386C4D001201AD
:1011F300389E4D00120138404F00120138D44F0081
:10120300120138EEFF01120138BE9503120138FDB9
:101213009503120138079603120138CA900312018D
:1012230038DA9003120138EF9003120138A39103C7
:10123300120138D18E03120138568F03120138BAC6
:101243008F03120138809203120138A29203120114
:1012530038B492031201380B93031201380E93032F
:1012630012013812E80212013826E802120138A0EE
:10127300E80212013884E9021201385BEB02120121
:1012830038C0EB0212013817EC02120138F87F0064
:101293001201389D84031201382D86031201388E02
:1012A3008603120138D48603120138248C031201F9
:1012B30038768C03120138E98C03120138568D03FA
:1012C3001201385682031201388082031201384F0B
:1012D30083031201382B8403120138CDA6021201B5
:1012E3003899A702120138DAA70212013814A802AA
:1012F30012013872A802120138C6A802120138245A
:10130300A902120138BAA902120138C2AA021201B3
:10131300384CAC02120138EAAC0212013851AD026A
:1013230012013864AD0212013858AE02120138A11D
:10133300AE0212013837D90112013869DC011201FA
:1013430038FADD0112013851DE011201386EDE0177
:10135300120138EEDE011201386AE0011201383958
:10136300E101120138A6E40112013890E5011201EE
:1013730038D9C7021201383FCA021201381ACB0208
:10138300120138D2CB02120138D1E3021201380B19
:10139300E40212013828E402120138B9E40212010E
:1013A300382BE50212013820E602120138EDE7027C
:1013B300120138CB7F00120138DEFF02E0667010A5
:1013C30008A3E066700A08A3E066700408A3E06659
:1013D30022C3E7960809E7960809E7960809E796FE
:1013E30022C3E09608A3E09608A3E09608A3E0963C
:1013F30022C008C3E096F50808A3E096420808A3B4
:10140300E096420808A3E09645087001D3D008226D
:10141300080808EAC0E0EBC0E086F0E7A4FA180980
:1014230086F0E7A42AFA180986F0E7A42AFA18092D
:1014330086F0E7A42AFA1986F0E7A4FBE5F02AFA76
:10144300190886F0E7A42BFBE5F03AFA190886F0B1
:10145300E7A42BFBE5F03AFA18180986F0E7A4C5D0
:10146300F02BFBE43AFA1908E7C5F0C6A426F6E523
:10147300F03BFBE43AFA1886F0E7A4F6E5F0082619
:10148300F6E43B08F6E43A08F6D0E0FBD0E0FA22B3
:10149300E4CFC0E0E4CEC0E0E4CDC0E0E4CCC0E003
:1014A30075F020C3E633F608E633F608E633F608AC
:1014B300E633F6181818EC33FCED33FDEE33FEEF8C
:1014C30033FFC3EC9709ED9709EE9709EF971919C5
:1014D30019400FFFEC97FC09ED97FD09EE97FE19F4
:1014E3001906D5F0BEECF709EDF709EEF709EFF7AA
:1014F300191919D0E0FCD0E0FDD0E0FED0E0FF22C6
:101503006016080808C6C313C618C613C618C61340
:10151300C618C613C6D5E0EA227009080808226077
:1015230016181818C6C333C608C633C608C633C64A
:1015330008C633C6D5E0EA22E627F60809E637F6F9
:101543000809E637F60809E637F622E026F608A387
:10155300E036F608A3E036F608A3E036F622E026E6
:10156300F008A3E036F008A3E036F008A3E036F075
:1015730022C3E697F60809E697F60809E697F60800
:1015830009E697F622C3E096F008A3E096F008A3D5
:10159300E096F008A3E096F022E056F608A3E056A2
:1015A300F608A3E056F608A3E056F622E056F00844
:1015B300A3E056F008A3E056F008A3E056F022E0BB
:1015C300F608A3E0F608A3E0F608A3E0F622E6F0A7
:1015D30008A3E6F008A3E6F008A3E6F022E0FAA3E6
:1015E300E0FBA3E0FCA3E0FD22EAF0A3EBF0A3EC15
:1015F300F0A3EDF022CAC0E0E6F0A308DAFAD0E0E7
:10160300FA22CAC0E0E0A3C582CCC582C583CDC59A
:1016130083F0A3C582CCC582C583CDC583DAE6D06A
:10162300E0CA22C3E498F8E499F91216678026C346
:10163300E49AFAE49BFBE920E7E9121667E498F8D9
:10164300E499F922C3E498F8E499F9121667E49847
:10165300F8E499F9C3E49AFAE49BFB22EB20E7CF81
:10166300E920E7E0B90010BB0008E88AF084F8AA93
:10167300F022E4FBC8FA22EB70227B10C833C8C9FE
:1016830033C9335007C39AC3DBF280069A50012A49
:10169300DBEAC833F4C8C933F4C9FA2275F008E4A5
:1016A300C833C8C933C933C99AC99B5004C92AC9A5
:1016B3003BD5F0ECFBC833F4C8E4C9FA22600D084B
:1016C300C6A2E713C618C613C6D5E0F322600C08FA
:1016D300C6C313C618C613C6D5E0F422700422602D
:1016E3000D18C6C333C608C633C6D5E0F418222581
:1016F3001810AF08F518400215198008F5184002B4
:101703001519D2AF22C0D0251810AF08F518500212
:1017130005198008F51850020519D2AFD0D022253B
:1017230018F58210AF08F518400215198008F5184E
:1017330040021519D2AF851983222518F582E435A5
:1017430019F58322E4732518C582C0E0E51934FF37
:10175300C583C0E0E518C3958224F810AF088583DC
:10176300198582188008858319858218D2AFCEF037
:10177300A3E520F0A37808E608F0A3DEFAEFF0A3D0
:10178300E58124FAF8E608F0A3E608F0A3E608F0FA
:10179300A30808E608F0A3E608F0A315811581D095
:1017A300E0FED0E0F8158115811581E8C0E0EEC0B8
:1017B300E0222518C582C0E0E51934FFC583C0E0E7
:1017C300E518C3958224F910AF088583198582181B
:1017D3008008858319858218D2AFCEF0A3E520F067
:1017E300A37808E608F0A3DEFAEFF0A3E58124FB73
:1017F300F8E608F0A3E608F0A30808E608F0A3E675
:1018030008F0A315811581D0E0FED0E0F81581150D
:1018130081E8C0E0EEC0E022851983851882E0A349
:10182300FEE0A3F5207808E0A3F608DFFAE0A3FFC3
:10183300E0A3C0E0E0A3C0E0E0A3C0E0E0A3C0E019
:10184300E0A3C0E010AF088582188583198008855E
:101853008218858319D2AFD083D0820201358519CE
:1018630083851882E0A3FEE0A3F5207808E0A3F6C1
:1018730008DFFAE0A3FFE0A3C0E0E0A3C0E0E0A339
:10188300C0E0E0A3C0E010AF08858218858319800B
:1018930008858218858319D2AFD083D08222C0D025
:1018A3002518C582C0E0E51934FFC583C0E0E518FB
:1018B300C3958224F310AF088583198582188008A5
:1018C300858319858218D2AFC8F0A3E9F0A3EAF0A3
:1018D300A3EBF0A37908E709F0A3D8FAECF0A3EDA2
:1018E300F0A3EEF0A3EFF0A3D0E0F0A3D0E0F0A3D9
:1018F300D0E0F0A3E520F0A3E5F0F0A3228519835F
:10190300851882E0C0E0A3E0F9A3E0FAA3E0FBA31B
:101913007808E0F608A3DFFAE0FCA3E0FDA3E0FE0D
:10192300A3E0FFA3E0C0E0A3E0C0E0A3E0F5D0A301
:10193300E0F520A3E0A3F5F010AF088583198582B5
:10194300188008858319858218D2AFD082D083D0BE
:10195300E0F8D0E03274048006740280027401C09F
:10196300E0F404121722D0E01215F8227404800464
:1019730074028000CCC0E0EDC0E0E518C39CCCADA0
:101983001950011D10AF068C188D1980068C188D07
:1019930019D2AF121605D0E0FDD0E0FC22D083D0DF
:1019A30082E9C0E0E493A3C386F0C5F095F0F9089B
:1019B300E493A386F0C5F095F0700BE493A3C39969
:1019C3004005E9048002A3E475F002A42582F582B0
:1019D300E5F03583F583D0E0F9E493A3C0E0E49325
:1019E300C0E022D083D082ECC0E0EDC0E0E493A35A
:1019F300FCE493A3FDED4C600D121A32EC24FFFCC2
:101A0300ED34FFFD80EFE493A3FCE493A3FDED4CE1
:101A1300600D121A71EC24FFFCED34FFFD80EFD052
:101A2300E0FDD0E0FCE493A3C0E0E493C0E022C077
:101A3300E0C3E49396087401939618400FE4936609
:101A4300700808740193661870007019A3A3C3E4A7
:101A53009396087401939618A3A3400DD0E0D0E0A9
:101A6300D0E0021A22A3A3A3A3A3A3D0E022C0E041
:101A7300C0F088F0E49366700808740193661870E8
:101A830000A8F0A3A3700BD0F0D0E0D0E0D0E00228
:101A93001A22A3A3D0F0D0E02274F51217B5EAFE00
:101AA300EBFFEE2434F8EF3400F988088909EE24BB
:101AB30035121BD4F8EE2437121BD4F50AEC850A31
:101AC300F0A4FCAAF0850AF0EDA42AFDE82CF8E4C2
:101AD3003DF97A257B00121667EA8508828509831A
:101AE300F05407F87401B800028004C333D8FCC073
:101AF300E0E0131313541FF8EE28F8EF3400F9E86D
:101B0300245DF582E93400F583D0E0F8E0586008FD
:101B1300850882850983801DEE2436121BD4F5F0D7
:101B2300EA84A8F0EE28F8EF3400F9E82438F582C7
:101B3300E93400F583E0F97F0402186174F51217A4
:101B4300B5EAFEEBFFEE2434121BD4C0E0EE2435DD
:101B5300F582EF3400F583D0E0F08E828F83A3A368
:101B6300A3A3A3E0FAA3E0FB8E828F83A3A3A3A383
:101B7300A3A3A3E0FCA3E0FDECC39AF50AED9BF558
:101B83000BEE2480F508EF3400F509850882F58310
:101B9300E06401702BEE2481F582EF3400F58312AB
:101BA3001973121BDD7402121708E960137CFD7DA3
:101BB30004EEFAEFFB120B85850882850983E4F0B6
:101BC300AC0AAD0BEEFAEFFB121A9C122396021B22
:101BD3003AF582EF3400F583E022C082C083851892
:101BE30082851983E0F8A3E0F9C3EA9CEB9D5012C8
:101BF300C3EC98ED994019C3EA98EB995012790117
:101C03008010C3EA98EB9940F5C3EC98ED9950EE38
:101C13007900D083D08222EAC39CFAEB9DFB220099
:101C2300008521878522C622C0E074EF1218A175B2
:101C33009B00906182E0A2E64003021CECE591A2C6
:101C4300E64003021CEC7591BF9003C2E06405708B
:101C530008120D23120D2F8003120D297521001276
:101C63000D9BE99003C3F07900120D8F120AEF7AEE
:101C7300017B009003C1E0F912105F907803E064E8
:101C8300426003021D3590055FE014F06003021DFE
:101C930035C2AF121C9900782AD0E0F618D0E0F6CE
:101CA300E59F5407F97005908F8C8003908F887897
:101CB300081215C2E9C4C0E07829E65508F50808FA
:101CC300E65509F509740B78081216D0D0E02508FB
:101CD300F8906270E0A2E740F8E8C333906272F0D4
:101CE300906270E0D2E0F08049E0A2E55024E591F3
:101CF300A2E5501E7591DF9003C2E0640D7013904E
:101D030003E4E004F064287002E4F07A00E0F912DE
:101D13000E0D906181E0A2E35009E5E9A2E35003CF
:101D230075E9F7A3E0A2E75009E591A2E75003752F
:101D3300917F7F04021900C0E0C0D0C082C08390AD
:101D43006183E0A2E05009E5BFA2E0500375BFFE46
:101D5300E0A2E15009E5BFA2E1500375BFFDE0A297
:101D6300E25009E5BFA2E2500375BFFBE0A2E350D6
:101D730009E5BFA2E3500375BFF7E0A2E45009E50C
:101D8300BFA2E4500375BFEFE0A2E55009E5BFA28F
:101D9300E5500375BFDFE0A2E65009E5BFA2E650B8
:101DA3000375BFBFD083D082D0D0D0E032C0E074FF
:101DB300F21218A1E5A7A2E4500FE5A1A2E450098D
:101DC30053A7EF75A1EF121E04E5A7A2E5500CE59A
:101DD300A1A2E5500653A7DF75A1DFE5A7A2E15055
:101DE30009E5A1A2E1500375A1FDE5A7A2E2500C0C
:101DF300E5A1A2E2500653A7FB75A1FB7F010219DF
:101E03000074F81217B57521019003C2E0640670DF
:101E1300077A007B00120D0BA2AFE433FED2AF9022
:101E230003C8E0640170187A207B009003C1E0F9D5
:101E33001210E97A207B009003C1E0F9121065903B
:101E43006182E0D2E6F090055EE0602185C62280E3
:101E5300169003C7E064017008E5C654F84405F51D
:101E6300C653BEFC121C247401652160E4EEA2E09B
:101E730092AF7F0102186100008E238F2485822890
:101E8300858327851882851983E0CEA3E0CF852833
:101E930082852783EBC9EAC8EDCBECCA75F010C382
:101EA300E833C8E933C9EA33CAEB33CBC3EA9EF557
:101EB30026EB9FF525B35004AB25AA26EC33CCEDD6
:101EC30033CDD5F0DAAE23AF242274E91217B574FB
:101ED300FA1216F2EAFEEBFF8C088D099003C2E0BA
:101EE30024F7C394055006908FF4021FF4120C8755
:101EF3008A0A8B0BEA450B7003021FF1120D418A0C
:101F03000C8B0D120D41EA650C7003EB650D60EC53
:101F1300EEFCEFFD851882851983AA82AB83120D2F
:101F230047850A82850B83A3A3780C1215C2908F71
:101F3300DC780C12159C8518828519837814121588
:101F4300C2908FDC781412159C780C79141213D478
:101F5300501F780C7914121574908F74780C121327
:101F6300F44047850C10850D11850E12850F1380E3
:101F7300418514108515118516128517137810796C
:101F83000C121574908F7478101213F4501C751082
:101F9300007511007512007513017810791412156C
:101FA300747810790C12153B8008908FF478101216
:101FB30015C27409781012151C908FC8780C12156D
:101FC300C27810790C1214939003C2E06408600A7B
:101FD300E064066005E06405701C908FE0781012E1
:101FE30013F45012908F78781012154E8008908F4A
:101FF300A078101215C285088285098378101215FE
:10200300D174061217087F1002186174F71217B5FE
:10201300120D5990055CE064017010906245E4F084
:10202300A3F053F4F343FE0C5390F3120CF9E5C6FB
:1020330054804449F5C6E59E547F644970F8906125
:1020430085740FF090055AE0F47002A3E0602C75DC
:10205300080175090090055AE078081216DFE508B3
:10206300F4FAA3E0600814600A14600C800DEA52CD
:10207300808008EA52908003EA52A079007F02022E
:10208300186174F71217B5E9FEEAFF74016E700C5C
:102093007A807B009003C1E0F912105F90240CE476
:1020A30093F46008E493F9120AD1800953C680E5DA
:1020B3009E547F70FA120CFF90055CE0640170037C
:1020C300120B0790055AE0F47002A3E0602A75082A
:1020D3000175090090055AE078081216DFAA08A3D3
:1020E300E0600814600A14600C800DEA42808008E6
:1020F300EA42908003EA42A0120C878A088B09A85F
:1021030008A909E8496017E5E170FCE82414F582A1
:10211300E93400F583E0F874FF68600288E1740134
:102123006F700A7A019003C1E0F91210B3022080A4
:1021330074F11217B58A088B098C0A8D0B740F1270
:10214300173D780C1215C2908FDC780812159C90FD
:102153008FDC780C12159C7808790C1213D4501567
:102163007808790C121574908F7478081213F44060
:102173001579018013780C7908121574908F74788F
:102183000C1213F440EB79007F0802186174ED120E
:1021930017B58A088B098C0A8D0B741312173D78B7
:1021A3000C1215C2908FDC780812159C908FDC7886
:1021B3000C12159C780C79081213D4401178087905
:1021C3000C121574AA08AB09AC0AAD0B802275106A
:1021D300007511007512007513017810790C121532
:1021E300747810790812153BAA10AB11AC12AD1319
:1021F3007F0C021861908FDC78081215C28A828BDB
:102203008378081215AF7F0402186174F51217B5AD
:102213008C828D8378081215C28A828B8378081288
:102223001588122262C3E098F0A3E0991222544069
:102233001E908FD078081215C28A828B8378081279
:1022430015618E828F83E02420F0A3E0344EF0806A
:10225300A4F08E828F83C3E09420A3E0944E22EAFD
:102263002404F8EB3400F9E8FEE9FF8C828D83A3A4
:10227300A3A3A3E0F8A3E0F98E828F832274F5125F
:1022830017B5E9FE900514E0FAA3E0FBEEC333F8BB
:10229300E433F974E728F582748E39F583E02AF57F
:1022A30008A3E03BF509780812195C908FEC12152E
:1022B300E0121E7C74021217088A088B098C0A8D9F
:1022C3000B74107808121503AA08AB097F040218CF
:1022D3006174F11217B58A0C8B0D8C0E8D0F740F70
:1022E30012173DE0FAA3E0FB741112173DE0F50865
:1022F300A3E0F509741312173DE0FEA3E0FF78088D
:1023030012195CEA2401F508EB3400F509E4F50A37
:10231300F50B780C7908121413908F847808121532
:10232300C2780C7908121413AA0CAB0DAC0EAD0FC6
:10233300121E7C74021217088B09EA450960047A9D
:102343000180027A00EC2AFCED3400FDECF8EDF993
:102353007A717B0212166788088909E4F50AF50B7E
:102363008E828F8378081215D1ECF8EDF97A717BA0
:10237300021216678A088B09740578081216DF8E15
:10238300828F83A3A3A3A3E508F0A3E509F07F0845
:10239300021861C082C083E9906000F0D083D082CC
:1023A30022C0E0C0D0E8C0E0E5A8D2AFC2C7751A2A
:1023B30000A2E792AFD0E0F8D0D0D0E032C0E07412
:1023C300F21218A17A0F7B0012112BA281501B90DD
:1023D3000B40E0601F7900121131A28140FC7A08A2
:1023E3007B0090095FE0F912105F758900C2C57F19
:1023F3000102190079FF12106BA28140FCC2AF7574
:07240300C9AB75C95B80FE47
:10240C00FFFFFFFFFFFFFFFFC082C083E9900A2A96
:10241C00F002263374F7121749E99002E0F07C18A9
:10242C007D037AFF7BFF12080D9002E174FFF0A38D
:10243C00F0A3E4F0A3F0790512079B9002E0E0F919
:10244C001206C97A257B081209E702334174F4128B
:10245C0017498A088B09EB548060309002E0E0F950
:10246C001210478A0A8B0BAE0AAF0BEE4F60138E1D
:10247C00828F83E064B070031207ADEEFAEFFB12AB
:10248C001035AA08E5096480FB80047A007B000201
:10249C00260274F212174974FC1216F2EAFEEBFFD4
:1024AC00741212173D123828EE4F70030225417436
:1024BC000212173DEEF0A3EF12283DECF0A3ED1243
:1024CC00283DAA82AB831206C3E9F50A706AE508B7
:1024DC00450960648E828F8312380EEE4F60567AF7
:1024EC00067B0012109B8A0C8B0DA80CA90DE849D9
:1024FC007005750A13804188828983E412254EEE9B
:10250C00F0A3EF123839E508F0A3E509F09002E6E4
:10251C001225D59002E670051232EB801B1232D9CF
:10252C008003EAFCEBFD8C828D831225D570F38C35
:10253C00828D8380E3750A02A90A740412170802BB
:10254C003A28F0A31237DFA32274F2121749890A32
:10255C00E975F017A4FEAFF09002E5E4F09002E309
:10256C001225D5600A1210A19002E3E4F0A3F0EE5C
:10257C00FAEFFB12109B8A088B09EA4509602FEED3
:10258C00FCEFFD79001210239002E3E508F0A3E5BF
:10259C0009F07B0080081225BFE4F0A3F00BEBC31D
:1025AC00950A40F2E50A9002E5F079008002791371
:1025BC00023A28EB75F017A4F8A9F09002E3E02892
:1025CC00FAA3E0398A82F58322122F7DEA4B22741A
:1025DC00F41217497900EAA2E0501B75085A7509E4
:1025EC008F780812195C7C047D007A2C7B0A120708
:1025FC009574021217087F0402181BC082C08390C6
:10260C0002E612263A601C88828983A3A3E06A70D2
:10261C0003A3E06B8882898370E8A3A3A3A3122F82
:10262C007980047A007B00D083D082020135123B82
:10263C000EE8492274EE12174974FC1216F2EAFEE7
:10264C00EBFF851882851983E4F0A3F0EE240212C7
:10265C0032CBEE24051237E6EE2404F50EEF122BE6
:10266C00F2E024FE603924FC604624FE605224FE15
:10267C00605E24FE700302275324FE70030227B70A
:10268C0024FE70030227C624FE70030227D524FC07
:10269C0070030227E424FE70030227F30228309013
:1026AC0002FF7417F0A3E4122845120447022830E5
:1026BC00851882851983AC82AD831207B30228007A
:1026CC00851882851983AC82AD831207B902280064
:1026DC00850C08850D09740212173DAC82AD8385FB
:1026EC000882850983122F791206E78A0C8B0DACB0
:1026FC000CAD0DEC4D603BE4F50CF50D780C12199E
:10270C005C750CFF750D02780C12195C750C00755C
:10271C000D03780C12195C740812173D1219731200
:10272C003B32121708E9F50C700B122F6F12045F75
:10273C00800F750C018508828509831228331232AB
:10274C00EB850C08022803740212173DAC82AD8392
:10275C00850C82850D83122D44603C850C82850D81
:10276C0083A3A31219737510FF7511027810121937
:10277C005C751000751103781012195C740812172F
:10278C003D121973123B32121708E9F509700B123E
:10279C002F6F120465800F750901850C82850D83DE
:1027AC001228331232EB850908804C851882851962
:1027BC0083AC82AD831207BF803A8518828519835A
:1027CC00AC82AD831207C5802B851882851983AC2A
:1027DC0082AD831207CB801C851882851983AC824D
:1027EC00AD831207D1800D851882851983AC82AD1B
:1027FC00831207D7E9F508E50860298E828F83A339
:10280C00E06414601F850E82850F83E09002FF1236
:10281C00283D123B0A9003001232EBE508A3122864
:10282C00451204410231DA123B0E85188285198358
:10283C0022F085188285198322F07CFF7D02850A9F
:10284C0082850B83122F7D2274EE12174974FC12B1
:10285C0016F28A0A8B0B8C0E8D0FEA2405F508EB09
:10286C003400F5097C157D0079007AFF7B0212108B
:10287C0023E5082402F50CE5091237E98518828551
:10288C001983858210858311781012195C85088252
:10289C00850983A3A3A3A3122D3B12195CE508247D
:1028AC0005F510E5093400F511781012195C850C4A
:1028BC0082850D831230901206E174061217088A75
:1028CC00108B11AE10AF11E50A2402F50AE50B12BC
:1028DC0032CEEE4F7003022A128017740212173D8B
:1028EC00122F7988828983EAF0A3EBF09002FFE043
:1028FC0004F09002FFE0C394054003022A12E4F5B1
:10290C0010F511781012195C7510E8751102781019
:10291C0012195C7510E9751102781012195C7406A5
:10292C0012173D1219737910EEFCEFFD123B3412A5
:10293C001708E9705E850882850983A3A3A3A3A366
:10294C00A3A3E0F89002E8E0687048122D3B12193E
:10295C005C7CE97D02E5082408FAE5093400FB12E9
:10296C00101D7402121708E960298E828F83A3A3AD
:10297C00A3A3122F799002FFE0F5107402781012C5
:10298C0016DF74002510F58274033511F583EAF017
:10299C00A3EBF0740212173D858210858311781019
:1029AC0012195C740212173D121973850C82850D75
:1029BC0083122F9F1217088A108B11AE10AF119033
:1029CC0002FFE0F510751100740278101216DF7416
:1029DC00FF2510F874023511F988828983A312251A
:1029EC00D570030228DEE82403080808E93400F94E
:1029FC00EE4F60030228E78882898374FFF0A3F00E
:102A0C009002FFE004F09002FFE0600A122F6F12B8
:102A1C0004537900800B8508828509831232E27990
:102A2C000A0231DA74EA12174974FE1216F28C1289
:102A3C008D13EA2405F50CEB123B1C1238127508A9
:102A4C0000750900EA2402F510EB3400F511851825
:102A5C008285198385820A85830B780A12195C8515
:102A6C000C82850D83A3A3A3A3122C0812195CE579
:102A7C000C2405F50AE50D1232CE780A12195C8584
:102A8C000C82850D83122C0C1206E17406121708A9
:102A9C008A0A8B0BEA450B7003022BADEA2404F572
:102AAC000EEB122BF21238128A828B83A3A3A3E0B3
:102ABC00F9851082851183122F836003022BADE4FC
:102ACC00F514F515781412195C7514E8751502785F
:102ADC001412195C7514E9751502781412195C74CA
:102AEC000612173D1219737913AC0AAD0B851082BF
:102AFC00851183123B3A121708E9F5096003022B82
:102B0C00AD9002E8E0F8E5087009E02402900300BB
:102B1C00F08014900300E0FCE82402FAE43400FB9B
:102B2C00EA6C7001EB707E850882AA82122D3294B9
:102B3C0014122D2A506B850E82850F83E0C0E07431
:102B4C00012A122BE9D0E0F00508850E82850F834F
:102B5C00A3E0C0E085080A7401250A122BE9D0E035
:102B6C00F005089002E8122C0812195C7CE97D0231
:102B7C0085080A7401250A122BFC1217089002E82A
:102B8C00E02508F50874FF6E700374FF6F6012EE99
:102B9C0024010EEF3400FFE508C394145003022AFD
:102BAC005AE5086013122F8D851082851183122F20
:102BBC007912045979008014E509700375090A85A6
:102BCC001282851383EEF0A3EFF0A9097402121799
:102BDC00087F0E02181B85080C7401250CF58274F5
:102BEC00033400F583223400F50F850E82F5832221
:102BFC00FA74033400FB12100B74022212384822B0
:102C0C00A3A3122C12221232D9FDEEFAEFFB22747E
:102C1C00EE12174974FE1216F28C0E8D0FEA240573
:102C2C00F50CEB1237E9750B009002FFE4F0F50A96
:102C3C00EA2402F508EB3400F50980449002FFE029
:102C4C00FA9002E8E0F8122D329417122D2A400D5A
:102C5C009002FFE0F87416C3989002E8F0122D3B36
:102C6C0012195C7CE97D0274002AFA7403122BFFA2
:102C7C001217089002E8E0F89002FFE028F0050A2D
:102C8C00E50C2416F582E50D122BEDE0F8E50AC3F0
:102C9C009850749002FFE0C39416506BE50AC3334E
:102CAC00F8E433F9E50C28FEE50D39FF851882852B
:102CBC001983AC82AD838E828F83122D447008757C
:102CCC000B011232DE8050E4F510F5117810121958
:102CDC005C7510E8751102781012195C7510E975A5
:102CEC001102781012195C740612173D12197379BF
:102CFC0016850882850983123B3A121708E9F50BF1
:102D0C007003022C4880BB7CFF7D028508828509FC
:102D1C0083122F7912046BA90B74020231DCE99433
:102D2C0000C365D03322EA28F8E43400F9E822E045
:102D3C00F5107511007810221231D18A108B11AC5C
:102D4C0010AD11EC4D2274EA12174974FC1216F2F4
:102D5C008A0C8B0D8C128D13EA2405F50AEB1232BA
:102D6C00CE750800750900E50A2402F510E50B3450
:102D7C0000F511740212173D85820E85830F780EB3
:102D8C0012195C850A82850B83A3A3A3A31237EEC9
:102D9C0012195CE50A2405F50EE50B3400F50F78E5
:102DAC000E12195C8510828511831232D4122F7386
:102DBC001206E174061217088A0E8B0FAE0EAF0FB7
:102DCC00E50C2402F50EE50D3400F50F80388882F1
:102DDC00898374FFF00508122BE274FFF00508904C
:102DEC0002E8E0F50C750D00780C12195C7CE97D9D
:102DFC000285080C7401250C122BFC12170890028A
:102E0C00E8E02508F508EE4F60278E828F83A3A398
:102E1C00A3E0F9850E82850F83122F83EE24041212
:102E2C0037E6E96027850C82850D83122F651232F7
:102E3C00EBE5087003022F4B122F8D850E82850F48
:102E4C0083122F791204717900022F60E4F514F5C6
:102E5C0015781412195C7514E8751502781412198A
:102E6C005C7514E9751502781412195C7408121744
:102E7C003D1219737911EEFCEFFD850E82850F83DF
:102E8C00123B3A121708E9F509709A850882AA8252
:102E9C00EA9002E87009E02404900300F08025E039
:102EAC00F8900300E0F514E82404FCE43400FDEC95
:102EBC0065147001ED7081122D329412122D2A407E
:102ECC0003022E44850C82850D83E0C0E074012A38
:102EDC00122BE9D0E0F00508850C82850D83A3E068
:102EEC00C0E0122BE2D0E0122FA885820C85830D56
:102EFC00780C12195C740412173D12197385108228
:102F0C00851183122F9F1217088A0C8B0DAE0CAFF4
:102F1C000D85080C7401250CF874033400F9EE4F80
:102F2C007003022DDA851882851983E088828983E3
:102F3C00122FA8A3E0C0E0122BE2D0E0022DE8E5AE
:102F4C0009700375090A850A82850B83122F651295
:102F5C0032EBA9097404022BDA123B0E851282851E
:102F6C001383227CFF7D02850A82850B83122F7DC1
:102F7C0022E0FAA3E0FB22122F7D1206CFE9F5091D
:102F8C0022900300E0F5F0E508849002FFF07CFF4E
:102F9C007D0222122C121206ED740422F005088513
:102FAC0018828519832274EC12174974FE1216F2DA
:102FBC008A088B098C0E8D0FEA2405FEEB3400FF7A
:102FCC001231BBEE24181237E6EA450B70030230BF
:102FDC005E1231A450291230838A108B11EA4511EC
:102FEC00606B7912AC0AAD0B850882850983122FB0
:102FFC0079851082851183121747E9F50A7058E418
:10300C00F50AF50B780A12195C8E828F83A3A3E064
:10301C00F50A780A12195CEE24031232CB780A12E4
:10302C00195C8E828F831230901207FB7406121774
:10303C0008E9F50A7021850C82850D83E0701F85E7
:10304C000882850983122F791204778011750A0E74
:10305C008009750A018004E50A60031232DE850CD2
:10306C0082850D83E0600479008002A90A74021243
:10307C0017087F0C02181B851882851983122F7D67
:10308C001207E9221232D9FD850882850983122F95
:10309C007D2274EE12174974FE1216F28A088B09FF
:1030AC008C0C8D0DEA2405FEEB3400FF750E00121E
:1030BC0031BBEA450B70030231821231A4502C1241
:1030CC0030838A0E8B0FEA450F604A7912AC0AAD39
:1030DC000B850882850983122F79850E82850F83D3
:1030EC00121747E9F50E60030231858508828509C0
:1030FC00831233C0AA0AFB12319670147AFF7BFF3D
:10310C00123196606C88828983E50AF0A3E50BF096
:10311C00750A008007750E0E805F050A9002E5E0C7
:10312C00FAE50AC39A504AE50A75F017A4FAABF00F
:10313C0088828983A3A3E02AFAA3E03BFB8A828BD3
:10314C00831232D4EC4D70D2750A17750B00780AC5
:10315C0012195CEEFCEFFD12100B7402121708EE44
:10316C00FCEFFD850882850983122F7912047D807E
:10317C0014750E098003750E01123B06850C8285B1
:10318C000D831232EBA90E022D251207DD8A108B4E
:10319C0011A810A911E84922E5082402F508E5094F
:1031AC003400F5098A828B83A3A3A3E0A2E52285D0
:1031BC001882851983AC82AD838E828F831231D1B4
:1031CC008A0A8B0B22E0FAA3E0FB1206E7227404B6
:1031DC001217087F0A02181B74EC1217498C108DF9
:1031EC0011EA2405F50CEB1237E9750F00EA2402FD
:1031FC00F50AEB1232CE850A82F583122F79123B37
:10320C00C070030232C0750E008071850C82850D72
:10321C0083E06401704F8E828F83A3A31219738E87
:10322C00828F83A3A3A3A3E0F51275130078121267
:10323C00195CEE2405F512EF3400F513781212190F
:10324C005C122F731207FB7406121708E9F50F6056
:10325C0014850C82850D83E4F0123B068510828563
:10326C0011831232EB7C177D007900EEFAEFFB1222
:10327C0010238E828F83E4F0A3F0050E9002E5E01C
:10328C00F8E50EC398501EE50E75F017A4F8A9F0DA
:10329C00850882850983A3A3123B261232D4EC4DF8
:1032AC00600302321785088285098374FFF0A3F04E
:1032BC00E50F7006122F73120483A90F02307EF5EE
:1032CC000AEF3400F50B22A31232D9FD22E0FCA345
:1032DC00E0228E828F83123B0E850E82850F83E84F
:1032EC00F0A3E9F022C082C0839002E1E06A70038F
:1032FC00A3E06B70067AE17B0280047A007B00020B
:10330C00263374F71217497F00EF75F003A4F8A960
:10331C00F0EC28F8ED39F988828983E06A7003A310
:10332C00E06B7006E8FAE9FB800B0FEFC3940240E8
:10333C00D87A007B007F0102181B74F61217491211
:10334C0038F770067A007B008007A3A3A3A3122F83
:10335C00790239B874F2121749E9FE740E12173D4E
:10336C001233C0741012173D1238288C828D83E0F2
:10337C006402703BA3123B0A88828983E0F50CA39C
:10338C00E0F9A80C74026870037429697021750C3B
:10339C0002750D00780C12195C780812195C780A09
:1033AC0012195CEEF912081F7406121708800279C4
:1033BC0001023A28E0F50AA3E0F50B2274E8121793
:1033CC004974FB1216F2E9851882851983F08A1666
:1033DC008B178C0E8D0F741F12173D123828742109
:1033EC0012173D1233C0742312173D123812751088
:1033FC00008C828D83A3A3A3E0A2E4502A741D1237
:10340C00173D1230898A828B83E5824583700302D3
:10341C0034D4790AAC0EAD0FAA16AB17121747E9C4
:10342C00F51060030234D7850E82850F83E06402A9
:10343C00600302378DA3123B0A850882850983A39A
:10344C00858212858313E50E2406F50CE50F1237E1
:10345C00E988828983E0FAA3E0F9EA2400F514E410
:10346C0039F51578141219E60100002801289C344E
:10347C000700022873350328E33400299D360129FF
:10348C00C53602296C3603299D3604292E378D3713
:10349C00EE4F703E850C82850D83123803FAE9FBE2
:1034AC008A828B83E0850A82850B8312383F12193E
:1034BC005C8A828B83A31232D9FDAA08AB09121045
:1034CC000B7402121708800375100EA910740502F4
:1034DC003B1475100B80F4EE4F70F7850A82850B48
:1034EC00837401F0123818850882850983F07C00FA
:1034FC007D00850E82850F83A3A3A3A3E02401FA8C
:10350C00A3E03400FB1206E7EA4B60418A828B830E
:10351C00E02402F8850A82850B83E028F0EA240473
:10352C00F8EB3400F988828983E085128285138355
:10353C0012385112383F12195C8A828B831232D3A3
:10354C00E5082403FAE5093400FB0234CA850A8233
:10355C00850B83E02404F07C047D007900AA12AB77
:10356C00131210230234D7EE4F60030234DE1238EC
:10357C0018FEA3E0FF850A82850B837404F0EE85A8
:10358C000882850983F0EF851282851383F074031A
:10359C0012173DAC82AD83EEFAEFFB1238E57003E7
:1035AC000236498A828B83A3A312380E7401121738
:1035BC003D85820E85830F780E12195C74051217E7
:1035CC003D1219737CFF7DFF1206ED74041217086F
:1035DC008B0FEA450F7033850C82850D831237EE05
:1035EC0012195C850C82850D83A31219737C027DE4
:1035FC00007A107B901205197404121708E9700AEE
:10360C00740112173D74FFF0A3F08E828F83E06477
:10361C00027034750C02750D00780C12195C8E82D8
:10362C008F831232D3E5082404FAE509122BFF121A
:10363C001708850A82850B83E02402800974011225
:10364C00173DEEF0A3EFF0740112173D1237FFF0A7
:10365C00740112173DA31237F7A3A3A3F00234D7BA
:10366C00EE4F60030234DE850C82850D831232D45A
:10367C00AA16AB17120813850A82850B837402F005
:10368C00EA850882850983F0851282851383EB8095
:10369C00CBEE4F60030234DE123818F8A3E0F98544
:1036AC000A82850B837402F0E8850882850983F011
:1036BC00E985128285138380A3850C82850D831284
:1036CC002F79121005EAFC8C82A882C39EE49F40DD
:1036DC004BE86E7001EF70047C00801F85188285AA
:1036EC001983E0FAEE2AFAEF3400FBC3EA98EB9464
:1036FC00005003E08004EECCC39CFCEC850A828570
:10370C000B83F08C0A750B00780A12195C850C82FD
:10371C00850D83E02EFCA3E03F0234C57510070233
:10372C0034D7EE4F60030234DE850C82850D831294
:10373C003B0A850A82850B837407F0888289831281
:10374C0037F71237DFE0851282851383F0E8240205
:10375C00FAE93400FB8A828B831237F71238301265
:10376C0037FFA3123839123808F0E82405F8E93489
:10377C0000F988828983123808A3123851A30236C3
:10378C0065741D12173D1238F070030234D4123BCD
:10379C000A880C890DE8450D70030234D48E108F05
:1037AC0011781012195C780A12195C780812195CDD
:1037BC00740612173DE0F9AC0EAD0FAA16AB1785C7
:1037CC000C82850D831217477406121708E9F51041
:1037DC000234D7F088828983A322F50CEF3400F5EC
:1037EC000D22E0F50E750F00780E22E0850882851B
:1037FC0009832212385822123B0EE822123858A3A1
:10380C00A322A3A3A3A3E0FEA3E0FF22850C828541
:10381C000D83E0F8A3E0F5838882E022E0F508A3AD
:10382C00E0F50922A3A3F08A828B83A322122550F0
:10383C00A3A322F08A828B8312384822E0F50A7502
:10384C000B00780A221237DF12385822E0850882E2
:10385C00850983A3A32274EE12174974FE1216F283
:10386C008A0A8B0BECFAEDFB741412173DE0F51081
:10387C00A3E0F511741612173DE0FE741812173DF3
:10388C00E0F50EA3E0F50F851882851983AC82ADA7
:10389C00831238E5603E8518828519831238F060F2
:1038AC002FA3A3123828E50845096024780E1219B5
:1038BC005C781012195CEEF9AC0CAD0DAA0AAB0BCE
:1038CC00850882850983121747740412170880062D
:1038DC00790E80027901022D251206E78A0C8B0DD8
:1038EC00EA450D22122F7D1238F7221207A78A8281
:1038FC008B83E58245832274F612174974FE1216E7
:10390C00F2740C12173D123803851882851983F056
:10391C00740112173DE9F0E4F508F509780812195D
:10392C005C750802780812195C740412173D8582C4
:10393C0008858309780812195C1207FB74061217A4
:10394C00087402121708806474F7121749EAFEEB28
:10395C00FF89087C187D03120813EA5402600BA936
:10396C0008EEFAEFFB1206DB800279010233417498
:10397C00F612174974FF6A700374FF6B701C7B009E
:10398C00EB75F003A4F8A9F0EC28F8ED39F912392D
:10399C00BD0BEBC39402501480E61207E38A088B2C
:1039AC0009A808A909E84960031239BD7F02021869
:1039BC001B8882898374FF12254EE4F02274F61260
:1039CC0017491207E38A828B83E58245836006A33D
:1039DC00A3E0FA80027A007B0080D174F2121749BE
:1039EC008A088B09ECFEEDFF740E12173DE0F50A08
:1039FC00123A2D701CEEFCEFFD7AFF7BFF123A2D74
:103A0C0070047911801688828983E508F0A3E50992
:103A1C00F088828983A3A3E50AF079007F06021857
:103A2C001B1207E38A0C8B0DA80CA90DE849227414
:103A3C00EE121749EAFEEBFF8C088D09890C741203
:103A4C0012173D123B0A741412173D1232D474161D
:103A5C0012173D122F79750D00EC4D6003023AFEE2
:103A6C007402650C6003023AF9888289831232D998
:103A7C00F9EC2400F50EE439F50FEAF4F8EBF4F95F
:103A8C00EC58F8E50F59F9E849705DE5082406F89B
:103A9C00E5093400F9880A890B8882F583122C0E0B
:103AAC001208138A108B11E50E65107004E50F6572
:103ABC00116042780E12195C850A82850B83122CD8
:103ACC000E1208197402121708E9F50D7027780EFA
:103ADC0012195C850882850983A3A3122C0C120889
:103AEC002B7402121708800D750D808008750D0D52
:103AFC008003750D0BA90D0231DF8E828F83123B73
:103B0C000E22E0F8A3E0F9221217087F1002181B0E
:103B1C003400F50D850C82F58322E028FEA3E039F4
:103B2C00FF8E828F83227916850A82850B83122F52
:103B3C007D1207F574082274F2121749EAFEEBFFA6
:103B4C00890B7401650B600E7402650B706379014F
:103B5C00120A05E9705BEEFAEFFB123BC060477589
:103B6C000A00800B7C177D007900121023050A9047
:103B7C0002E5E0F8E50AC3985021E50A75F017A4B0
:103B8C00F8A9F0850882850983A3A3E028FAA3E0AD
:103B9C0039FB8A828B8312263A70C9850882850983
:103BAC008374FFF0A3F07C187D03EEFAEFFB120890
:103BBC000D023A281207DD8A088B09EA450922749E
:103BCC00F21217498A088B09ECFEEDFF740E1217DE
:103BDC003D1233C0900A2AE0F4603D7A097B001252
:103BEC00102FEA4B60328A828B8374B1F0A3E412FB
:103BFC003832A3123830A3E508F0A3E509123C27AC
:103C0C00EEF0A3EF123C27A3A3E50AF0A3E50BF01B
:103C1C00900A2AE0F912103B023A28F08A828B8330
:103C2C00A3A3A3A3A32274F4121749E9FF7E008A6D
:103C3C00088B0978081219A000040DE33D653C813E
:103C4C003C963CAB3CC03CD53CF13C0A3D1C3D4A4F
:103C5C003D6C3D883DA43DC23D74016F70128C8259
:103C6C008D83E0C394035008E0900B41F0023E01B9
:103C7C007E18023E0174026F70F68C828D831245A1
:103C8C003F900B42E8F0A3E980E274016F70E18C85
:103C9C00828D83E0C3940250D7E09007AC80CD7442
:103CAC00016F70CC8C828D83E0C3940550C2E09080
:103CBC0007AD80B874016F70B78C828D83E0C394AC
:103CCC000250ADE09007AE80A374106F70A275081F
:103CDC00108E09780812195C7AAF7B07124903120F
:103CEC001708023E0174016F70868C828D83E0C3CD
:103CFC0094024003023C7CE09007BF023C787401C4
:103D0C006F6003023C7C8C828D83E0900B45808D30
:103D1C0074046F6003023C7C908FEC78081215C21F
:103D2C008D838C8278081213E44003023C7C8C82D5
:103D3C008D831215E09007C11215EC023E01EF6065
:103D4C0003023C7C120687E9700E1211CD795012D9
:103D5C00132F1211C1023E019008547401023C78D9
:103D6C0074016F6003023C7C8C828D83E0C39402EF
:103D7C004003023C7CE09007C0023C7874016F6009
:103D8C0003023C7C8C828D83E0C3940A4003023C8A
:103D9C007CE0900B44023C7874016F6003023C7C25
:103DAC008C828D83E024F9C3940A4003023C7CE0AE
:103DBC00900B46023C7874016F6003023C7C9008C7
:103DCC0053E0F88C828D83E0900853F0E87026E085
:103DDC0064017021023D5EC3EA9426EB94005013FB
:103DEC0074026F700E8C828D83124539120525E991
:103DFC00FE80020E0EEEF9023E0B740E1217087FB7
:103E0C000402181B74F012174974CC1216F28C0AA7
:103E1C008D0B744412173DE0FE742012173DAC82DA
:103E2C00AD8375838F758248740612160574201243
:103E3C00173DAC82AD83121173E9F508C3940A40A7
:103E4C0003023F7475F006E9A4F509742612173DB8
:103E5C00AC82AD837A0E742025091249BB700974AB
:103E6C003212173DE0FF80027F00900B41E06402AC
:103E7C00700474018001E4F50D780D121960EEFDEB
:103E8C00EFFCA908AA0AAB0B1211F7740112170860
:103E9C007C147D007900740C12173DAA82AB83123E
:103EAC001023740C12173DAC82AD837A1074242548
:103EBC00091249BB70377C1079FF740C12173D1234
:103ECC0046E87029741C12173DAC82AD837A0474D9
:103EDC00252509F9121329740C12173DAC82AD83F8
:103EEC00EFA2E0E433F9AA0AAB0B1205AF851882F6
:103EFC00851983AC82AD837A0C747025081249BB8A
:103F0C007055851882851983AA82AB831211A3750B
:103F1C000800E50875F003A4F8A9F0851882851946
:103F2C0083E58228F8E583124724124539EC4D606D
:103F3C001D88828983A3A3E0F50E750F00780E12FD
:103F4C00195CAA0AAB0B12080174021217080508B7
:103F5C00E508C3940440BBEFA2E1500C9007ABE022
:103F6C00F9AA0AAB0B12080774046E702A900B4165
:103F7C00E0640270229007BFE060047A0180027A4C
:103F8C00009007ACE06004780480027800E84AF9FD
:103F9C00AA0AAB0B12066F790074341217087F084B
:103FAC0002181B74F0121749EAFEEBFF8C088D09FE
:103FBC00750A0AE9600C14600914602E14607F0203
:103FCC0040551211B5E9F50AC3940A507CE5084531
:103FDC00096076750E06750F00780E12195CEEFCF2
:103FEC00EFFD1248FF121708805F750B00750E0667
:103FFC00750F00780E12195CEEFCEFFDE50B75F0F9
:10400C000EA4F8A9F074CD28FA740739FB12101D10
:10401C007402121708E9601B850B0AE50AC3940A9F
:10402C005027E50845096021AA08AB09A90A121115
:10403C00AF8016050BE50BC3940A500D80AF12111F
:10404C00BBE9F50AC3940A40D9A90A023FAA74F441
:10405C00121749890875091574FF6A700374FF6B90
:10406C0070277E00AC087A027B00EEF9121191E900
:10407C0060037509000EEEC3940A40E8E508604938
:10408C007AE57B11120A1780401209F98A0A8B0B08
:10409C00AE0AAF0BEE4F602E7C007D00EE2405FACD
:1040AC00EF3400FB8E828F83124151500CAC087A96
:1040BC00027B00121191750900E508600CEEFAEF15
:1040CC00FB1211E58003750914A909023E0B74F269
:1040DC00121749ECFEEDFF740E12173D12452C75AC
:1040EC00081574FF6A700374FF6B7021750900ACBE
:1040FC000AAD0BEEFAEFFBA909121197E9600375F3
:10410C0008000509E509C3940A503580E21209F943
:10411C008A828B83E582458360237C007D00E58267
:10412C002405FAE5833400FB1241515013AC0AAD5F
:10413C000BEEFAEFFB12119775080080037508144B
:10414C00A908024F2AA3A3A3A3E0F9121173E9C390
:10415C00940A22C082C0839007C5EAF0A3EBF090CA
:10416C0007ABE0FC7D007A257B001205259007ABA0
:10417C00E0F9120783D083D08202013574EA12175A
:10418C004974EC1216F2EAFEEBFFEE240CF514EF78
:10419C003400F515EE240AF510EF3400F511EE2479
:1041AC0005F50EEF3400F50FEE2409F50AEF340097
:1041BC00F50BEE2403F508EF3400F5098E828F839E
:1041CC00A3A3E024FA70030244F524FD7003024417
:1041DC002414700302427314601024FD7003024314
:1041EC00F5147003024459024513124558604AE015
:1041FC00F583888212453F880C890DE8450D60399E
:10420C00851482851583E0F50E780E121960EE2464
:10421C000BF582EF3400F583E0F9850A82850B8378
:10422C001245390A0A0AAB09850C82850D831217CF
:10423C00477401121708024513850A82850B8312F5
:10424C0019739007C11215E01205C17402121708F8
:10425C00E970030245137901850A82850B83124D9F
:10426C004F1205BB0245138E828F83A38582128564
:10427C008313E060030243CE850E82850F83E0A298
:10428C00E040030243CE7C0E7D00790085188285C8
:10429C001983AA82AB83121023EE2408F50AEF349B
:1042AC0000F50B850A82F58312455B6019750C06C7
:1042BC00750D00780C12195C850A82850B83E0243D
:1042CC0010FCA3E0801A12451DEA4B700302451343
:1042DC00750C06750D00780C12195CEA2405FCEBC4
:1042EC003400FD740212173DAA82AB8312490312EB
:1042FC001708850E82850F83E0A2E25004D2F0806D
:10430C0002C2F0A2F0E433F8740C12173DE048F04E
:10431C0085108285118312455B601585108285118D
:10432C0083E02410F8A3E03400F9888289838003A9
:10433C00908FD0780C1215C285108285118312458E
:10434C005B600F851082851183E0F510A3E0F511F9
:10435C008006751000751100850A82850B83124545
:10436C005B600B850A82850B8312452C8006750ACF
:10437C0000750B00780C121958781012195C780A19
:10438C0012195C8514828515831219738E828F83A2
:10439C00A3124534740A12173DAA82AB831211A9D9
:1043AC00740A12170885088285098312453F900804
:1043BC0055E8F0A3E9F07A017B009007ABE0F91225
:1043CC00105F1245587003024513124545700302E5
:1043DC004513851282851383E0FC7901124D498EB9
:1043EC00828F8312174702451312455870030245FA
:1043FC0013E0F5838882A3A312453F890BE8450B94
:10440C0070030245138E828F83A3E0FC7902124D58
:10441C00498882850B8380CB7C007D00EE2404FAD6
:10442C00EF3400FB850882850983E0F9121173E9EA
:10443C00F8C3940A4003024513AC10AD117A04750D
:10444C00F006E8A42425F91213230245139007C0A3
:10445C00E0600E900B44E0F98508828509830242E6
:10446C006A900B41E07004790580ED12451D8A0CB1
:10447C008B0DA80CA90DE82404F50CE93400F50DFE
:10448C008E828F83A3A3A3A3A3A3A3E0A2E05036A1
:10449C00E8496073850C82850D83E0FE6028850AEF
:1044AC0082850B83E05410701D740E12173DAC8284
:1044BC00AD83E82405FAE93400FBEEF9121173E937
:1044CC00700479038092AC0EAD0F850C82850D8340
:1044DC00E0F9124D491211F1124558602A12454566
:1044EC0060257C0079000243E8120687E970189079
:1044FC000854E0640170081211CD900854E4F0796E
:10450C005012132F1211C174141217087F0E0218B7
:10451C001B850882850983E0FAA3E0FB1209F922C6
:10452C00E0F50AA3E0F50B22A3A3A3A3A3E0FCA34D
:10453C00E0FD22E0F8A3E0F922E0F5838882A3A352
:10454C00E0F8A3E0F9E8FEE9FFEE4F229007C5E0A2
:10455C00F8A3E0F9E8492274F412174974F2121620
:10456C00F2EAFE8C0B75F006E9A42420F5088518F8
:10457C0082851983AC82AD837A0E1249BB704A7C5A
:10458C00061246E07043740C12173D12453FE8F5D5
:10459C0009E50B6005EE42098004EEF45209850929
:1045AC0082AA82E86A7001E9601B740C12173DEA5A
:1045BC00F0A3E4F0851882851983AC82AD837A0E62
:1045CC00A908121323790180027900023E0674F2C5
:1045DC0012174974E61216F2890A8A088B09ECFE46
:1045EC00EDFF740C12173D1249AE60030246947C29
:1045FC000679FF740C12173D1246E86003024694CC
:10460C007470250AF50B851882851983AC82AD83ED
:10461C007A0C1249BB60030246D98518828519832E
:10462C00AA82AB831211A3E508450970217C0C7991
:10463C00001246E260030246D97C0C7D00790085AD
:10464C001882851983AA82AB831210238061851886
:10465C0082851983AC82AD83AA08AB0912119D8A9D
:10466C000C8B0DA80CA90DE849702CEE4F60198528
:10467C001882851983AC82AD837A007B0012119D60
:10468C00EAF8EBF9EA4B700479008043888289835D
:10469C00E508F0A3E509F0124760FAEE6A7001EF45
:1046AC00602BEEF04F700888828983E4F0A3F085CC
:1046BC001882851983AA82AB831211A3851882856F
:1046CC001983AC82AD837A0CA90B12132379017474
:1046DC001A024F2779FF851882851983AA82AB832A
:1046EC00121083E92274F71217497F00EF75F0035B
:1046FC00A4F8A9F0EC28F8ED124724E06A7003A3A3
:10470C00E06B7006E8FAE9FB800B0FEFC3940440F2
:10471C00DB7A007B00024A5939F98882898322743A
:10472C00F71217497E00EE75F003A4F8A9F0EA28F9
:10473C00F8EB124724E0F4FCA3E0F4FD88828983B3
:10474C00ECF0A3EDF0124760F4F00EEEC3940440CD
:10475C00D5024A59E82402F582E93400F583E022B7
:10476C0074EE12174974F41216F2EAFEEBFF8C0A7F
:10477C008D0B741E12173DE0F50CA3E0F50D7420A3
:10478C0012173DE0F508A3E0F509742212173DE07D
:10479C00F510A3E0F511EE4F7005790A024891125D
:1047AC0011B5E9F50EC3940A4023750F007C067908
:1047BC00FFE50F75F00EA4FAABF074C72AFA740774
:1047CC003BFB1246EC700302489B850F0EE50EC3B3
:1047DC00940A400302488F75F006E50EA4F50FEE1F
:1047EC00FCEFFD7A0E74201248ACE50A450B600B09
:1047FC00AC0AAD0B7A1B74211248ACE50C450D606C
:10480C000BAC0CAD0D7A1B74221248ACE5084509B3
:10481C00600BAC08AD097A1074231248ACE5104556
:10482C0011601BAC10AD117A1074241248AC7424B6
:10483C0012173DAC82AD837A0474251248AC7C0C03
:10484C007D0079FF124FB87A0C7470250EF9121393
:10485C002375080E750900780812195CEEFCEFFD43
:10486C00E50E75F00EA4F8A9F074C728FA74073990
:10487C00FB124903121708900853E060031211FD54
:10488C001211EBA90E740C1217087F0A02181B05E3
:10489C000FE50FC3940A50030247B9750E0A80E363
:1048AC00250FF91213232274F412174974F21216FD
:1048BC00F2EAFEEBFFE9C3940A5004EE4F70047960
:1048CC0002802D8518828519831249AEF508701E59
:1048DC00750A06750B00780A12195C740212173DE2
:1048EC00AC82AD83EEFAEFFB124903121708A9084C
:1048FC00023E06AA08AB0912100B74022274F412C1
:10490C001749EAFEEBFF750800750A06750B00786F
:10491C000A12195CEEFCEFFDE50875F00EA4F8A97F
:10492C00F074C728FA740739FB12101D74021217A1
:10493C0008E96004A908800B0508E508C3940A403F
:10494C00C8790A023E0B74F712174974F01216F26A
:10495C00EAFEEBFF750800851882851983AC82ADE1
:10496C00837A1075F006E508A424231249BB701F46
:10497C007C101246E07018EEFCEFFD85188285194C
:10498C0083AA82AB83120591E97004A908800B05F8
:10499C0008E508C3940A40BF790A7410121708027C
:1049AC004A59AC82AD837A0E75F006E9A42420F93D
:1049BC00121329E92274F7121749750800E50875D6
:1049CC00F00EA4F8A9F074C728FE740739FFEEFCAA
:1049DC00EFFD7A0E75F006E5081249B8602C7C06DE
:1049EC007D0079FFEEFAEFFB1210237C067D007937
:1049FC00FFEE2406FAEF3400FB121023EE240CF524
:104A0C0082EF3400F583E4F0A3F00508E508C394C5
:104A1C000A40AA900853E060031211FD1211EB80BA
:104A2C002C74F71217497E007F007C0679FFEF7516
:104A3C00F00EA4FAABF074C72AFA74073BFB1246CB
:104A4C00EC70010E0FEFC3940A40DFEEF97F010208
:104A5C00181B74F71217497E00EEF91211D30EEEE3
:104A6C00C3940A5003E960F180E374F3121749749C
:104A7C00CB1216F2E9FF75F006A4F5087420250890
:104A8C00FE742712173DAC82AD837A0EEE1249BB31
:104A9C006003024B787C0679FF742712173D12468F
:104AAC00E86003024B787C0E7D0079FF74271217A7
:104ABC003DAA82AB831210237C1B7D0079FF740C02
:104ACC0012173DAA82AB831210237C0C7D0079FF58
:104ADC00851882851983AA82AB831210237427123E
:104AEC00173DAC82AD837A0EEEF9121323E9F5096A
:104AFC00740C12173DAC82AD837A1B7421124B8758
:104B0C00FE740C12173DAC82AD837A1B7422124BCF
:104B1C0087F50A740C12173DAC82AD837A1074239E
:104B2C00124B87F50B740C12173DAC82AD837A10C7
:104B3C007424124B87F50C740C12173DAC82AD83A8
:104B4C007A047425124B87F508851882851983AC75
:104B5C0082AD837A0C74702FF9121323E9F8EE45A9
:104B6C000A450B450C45084842098003750900A904
:104B7C000974351217087F0502181B2508F9121342
:104B8C0023E92274F7121749E99007ABF01211C10F
:104B9C00024A5974F212174974FB1216F28A088BE6
:104BAC0009EB54807003024C439007ABE0F91210F0
:104BBC00478A0A8B0BA80AA90BE8FEE9FFE84960B3
:104BCC006CEE2404F8EF3400F98E828F83E02450CD
:104BDC00603814600624E1604A804B88828983E047
:104BEC0070448E828F83A3A3A3A3A3A3A3121973D0
:104BFC008E828F831245348E828F83A3A3124D4FE6
:104C0C0012117F7402121708801C88828983E06459
:104C1C001E701379008E828F83A3A3124D4F121135
:104C2C0079800312118BEEFAEFFB121035AA08E50E
:104C3C00096480FB024D44EAA2E04003024D40901F
:104C4C00085512452C740312173D85820C85830D73
:104C5C00780C12195C750C02750D00780C12195C2D
:104C6C00750C16750D90780C12195C7CFF7DFF7A13
:104C7C00017B001206E17406121708024D28E4F5B8
:104C8C000CF50D780C12195C740412173D85820C0E
:104C9C0085830D780C12195C740412173D85820CF7
:104CAC0085830D780C12195C740912173D12197357
:104CBC007902EEFCEFFDAA0AAB0B1207F574081291
:104CCC001708E97035851882851983E0FA7401128A
:104CDC00173DE0F9EA2400F50CE439F50DEA450D31
:104CEC006018780C12195C8E828F83124535AA0AD3
:104CFC00AB0B12117F7402121708E4F50CF50D784A
:104D0C000C12195C740512173D1219737CFF7DFF90
:104D1C00EEFAEFFB1206ED74041217088A0C8B0DD9
:104D2C00AE0CAF0DEE4F6003024C8AE5086401FA3D
:104D3C00AB0980047A007B007405024F278508823A
:104D4C00850983E0FAA3E0FB22C082C0839007AB05
:104D5C00E0F98A828B83A3124D4F1208070241811E
:104D6C00C082C08374FF1216F21211C7E9C39402F9
:104D7C00851882851983400474028002740AF0AC91
:104D8C0082AD837A01790512069F7401121708020D
:104D9C00418174F212174974E81216F2EAFEEBFF25
:104DAC00890A8C088D097C187D007900124FC0EEA1
:104DBC00F0A3EFF09007ADE0C0E0740212173DD005
:104DCC00E0F09007AEE0C0E0740312173DD0E0F0C5
:104DDC00900B46E0C0E0741712173DD0E0F074154C
:104DEC0012173DE054FEF8A3E0F9900B45E0A2E069
:104DFC00E433FAE84AF8741512173D124F36A2E163
:104E0C005004D2F08002C2F0E854FDFAA2F0E43370
:104E1C0033F8EA48F8741512173D124F36A2E350D6
:104E2C0004D2F08002C2F0E854F7FAA2F0E433F5B1
:104E3C000C750D007403780C1216DF124F2F12171D
:104E4C003D124F36A2E45004D2F08002C2F0E85476
:104E5C00EFFAA2F0E433F50C7404780C1216DF129E
:104E6C004F2F12173D124F36A2E55004D2F080029C
:104E7C00C2F0E854DFFAA2F0E433F50C7405780CB8
:104E8C001216DF124F2F12173D124F36A2E25004AA
:104E9C00D2F08002C2F0E854FBFAA2F0E433F50C35
:104EAC007402780C1216DF124F2F12173DE8F0A384
:104EBC00E9F09007AEE0601B750C10780C12195CD1
:104ECC007CAF7D07740612173DAA82AB831249038F
:104EDC001217089007BFE06011E50A6009741512FB
:104EEC00173DE04402F07801800278007414121728
:104EFC003DE048F09007ACE0600478048002780054
:104F0C00741412173DE048F0AC08AD098518828581
:104F1C001983AA82AB831205B574181217087F0681
:104F2C0002181BEA450CF8741522E8F0A3E9F0907E
:104F3C000B45E02274F312174974E51216F2EAFEDF
:104F4C00EBFF8C098D0A742812173DE0F50C75F0F7
:104F5C0006E9A4F87408650A7004742280027421AE
:104F6C0028F50B7C1B7D007900124FB87A1BA90B1E
:104F7C001249BC7032741A12173DE024F9C3940A1A
:104F8C005025E50CF50B780B121960740112173DC6
:104F9C00AC82AD83E509A2E0E433F9EEFAEFFB1243
:104FAC0005C77401121708741B024B7F124FC0AC5B
:104FBC0082AD8322851882851983AA82AB83121055
:104FCC00238518828519832274F7121749120873E6
:104FDC00750800E50875F00EA4F8A9F074C728FE52
:104FEC00740739FF7C0679FFEEFAEFFB1246EC7082
:104FFC0009EEFAEFFB79001208790508E508C3946D
:10500C000A40D0024A59C082C0839061907404F067
:10501C00A37448F0A3E4F09061807440F09061BCFC
:10502C007407F09061877469F09061B67416F0792A
:10503C0000120AF57902120AFB90240CE493F46036
:10504C0006E493F9120AD17905120DEF025454C0FB
:10505C0082C083E9540FF9906185E0696012E5C65E
:10506C0054804449F5C6E59E547F644970F8E9F0D4
:10507C0053C680E59E547F70FA02545474F712178D
:10508C0049E5A8FE53A87E120ADDC2BA539AFEC2A5
:10509C0089759B00C2C2120AE375A91175B9051274
:1050AC000AE9D2BA439A0174805E42A80259E1C05F
:1050BC0082C083906181E4F0A302545175E90075BC
:1050CC00910075BF00020135C082C083906181E4FC
:1050DC00F0A374C0F0A3E4025453C082C08374F8EC
:1050EC001216F29003C41258C3E849700302519D82
:1050FC009003C4E054406023790885188285198395
:10510C00AA82AB83120BEB851882851983AA82AB1A
:10511C00831208979003C4E054BFF0E054806010F1
:10512C00790C7A807B05120BEB9003C4E0547FF072
:10513C00E0A2E0500879001251A554FEF0E05402B0
:10514C00600879011251A554FDF0E054046008790F
:10515C00001251B054FBF0E0540860087901125170
:10516C00B054F7F0E05410600879021251B054EFCB
:10517C00F0E05420600879031251B054DFF0A3E042
:10518C005401600D120B071208A99003C5E054FEE0
:10519C00F07408121708025454120AF512089D9064
:1051AC0003C4E022120AFB1208A39003C4E022C03D
:1051BC0082C083E9600514602A804F90619A743331
:1051CC00F0A37455F09061A0743AF090055CE06423
:1051DC00017009C2919003C67467802D9003C67448
:1051EC0061802690619A743FF0A3745AF09061A08C
:1051FC00747FF090055CE064017009D2919003C655
:10520C00747180059003C6746AF0025454C082C055
:10521C0083E9600B14600D14600F146011802090F2
:10522C00241080159024118010902412800B90056E
:10523C005CE0640160F3902413E493906186F002C7
:10524C00545474EE12174974F41216F285188285B0
:10525C001983AC82AD8375838F7582D47404121656
:10526C000590241093F460030253E0907808E0C397
:10527C00940250030253C0740412173DAC82AD83E8
:10528C0075838F75823A7408121605F97AFF7BFFC5
:10529C007FFF7E008982858210801874086E7003EF
:1052AC0002537574096E7003025375740A6E7003A1
:1052BC00025375E510C333FCE433FD740412173D3F
:1052CC00E5822CF582E5833DF583E0F50EA3E0F550
:1052DC000F8E08750900740278081216DF744825C1
:1052EC0008FC74783509FD8C828D8378081215C200
:1052FC007408780812150385080C85090D8C828DAD
:10530C008378081215C274187808121503E50C4539
:10531C0008F508E50DF509C3E50E9508E50F9509A7
:10532C008C828D8378081215C28C828D837808123A
:10533C0015C2741878084014121503E50C4508FCC6
:10534C00AD0DE50EC39CFCE50F9D800F121503E51A
:10535C000C4508C3950EFCE50D950FFDC3EC9AEDBD
:10536C009B5006ECFAEDFBEEFF0EEEC394135003CC
:10537C000252A774FF6A700374FF6B602D8F087460
:10538C000278081216DF744812606F74783509F5CC
:10539C008378081215C2851882851983E582251039
:1053AC00F582E583125DFCE508F009E9C39404502D
:1053BC0003025298750801750900780812195C747B
:1053CC000212173DAC82AD837A047B091212397438
:1053DC0002121708740C1217087F0A02181BC082DD
:1053EC00C083906186E0F8902413E4936870099070
:1053FC002412E493906186F09061AE7468F0A3740B
:10540C006AF090624574FBF0A304F053F4FD43FE84
:10541C000290055C7401F09061A0E0643A7004792C
:10542C000080027901120AF5025454C082C08390A4
:10543C00050EE06401700A900513E06004790C809D
:10544C000279008003F0A3F0D083D082020135C032
:10545C0082C08375E1F1900511E0604D1460081471
:10546C0060511460498051120B19900507E0F97ACC
:10547C00087B05120D71908FC41215E0120DA790C8
:10548C008FE41215E0120D7D900512E0F9120D89D2
:10549C007901120DE3900505E024161255E97431DB
:1054AC00F0A3740BF07900809F120B1F80BC120BC1
:1054BC002580B7120B2B80B2791280EB74F4121783
:1054CC004975D90D9004F6E0A2E0E4331313F812F9
:1054DC005555484401F5D978001255D340FB780056
:1054EC00880874F712606F74041255DD40F275E190
:1054FC00959004F6E0F97AF77B04120D77900A4C3C
:10550C0074A7F0A3740A1255F812561812560F12FB
:10551C00575012555F78081215C2908F9878081260
:10552C00154E908FDC780812159C1255E3780812F2
:10553C0015D1900505E024141255E97413F090036D
:10554C00C27402F07F0402181B900507E0C43333C9
:10555C0054C022900505E0F8A3E0F5838882A3A34C
:10556C002274F61217491257218AD978001255D392
:10557C0040FB780080061256871257D3E8C3994037
:10558C00F51257131255D340FB7800800812606B4C
:10559C0074051257D3E8C39940F375E195900A4C02
:1055AC0074B3F0A3740A1255F81256021215E012D5
:1055BC0055E31215EC900505E024141255E974120C
:1055CC00F09003C20259BE880874082508F582744D
:1055DC000512592F940622900505E0240EF8A3E03D
:1055EC001255F0223400F9888289832212573974BB
:1055FC00ADF0A3740A2212561812560F125754907B
:10560C008FD022F0A374C5F0A3740A2212561C2268
:10561C0012562022F0A37457F0A3740C2274F612C5
:10562C00174912567C1255554402F5D9780012557B
:10563C00D340FB780080061256871257D3E8C399E3
:10564C0040F575E195900A4C125692F0A3125692C1
:10565C001256051215E01255E31215EC900505E0F3
:10566C0024141255E97414F09003C274040259C046
:10567C00900517E0F9740729F5D9228808741825C4
:10568C0008F58274052274BF12569F12569FF0A320
:10569C00740A22F0A3740AF0A374BF2274F61217D2
:1056AC004912572174064AF5D978001255D340FB9C
:1056BC00780080061256871257D3E8C39940F5122A
:1056CC0057131255D340FB7800800812606B740599
:1056DC001257D3E8C39940F375E195900A4C74B90D
:1056EC00F0A3740A12572F1256021215E01255E34A
:1056FC001215EC900505E024141255E97415F09080
:10570C0003C274030259C090053712567F74044AC1
:10571C00F5D978002212567C900507E0C433335437
:10572C00C0FA221257397457F0A3740C2212573D49
:10573C002212574A7457F0A3740C12574A2212566D
:10574C0020F0A32212575422F0900A5A7457F0A357
:10575C00740C12573D7457F0A3740C12561CF022A3
:10576C00C082C08312555FA3A3A3A3E40254517457
:10577C00F71217491262B1F8740339F9E82405FAE3
:10578C00E93400FB8A828B8312602088828983A390
:10579C00A3A3A3A3A3A3A3A3ECF0A3EDF0888289F6
:1057AC0083A3A3A3A3A3A3A3E024FFF8A3E034FF44
:1057BC00F98A828B83E8F0A3E9F00259E188087436
:1057CC00602508F5827405125F47F5D90822EAFEB8
:1057DC00EBFF9061D0E0F87480C398FAEE2483223A
:1057EC001257F2940422125E0AE0F5D90AEAC32297
:1057FC0074F6121749EAFEEBFF9061D0E0707575F4
:10580C00D90E75D90375D9047A008A08EE250812C9
:10581C00637F248C12589540F17A008A08EE250893
:10582C0012637F24841257EC40F175E1957908EEF0
:10583C00248C12588E24841258857C008C82AA8267
:10584C00C3E49AF895E0F9EE28F8EF39F9E8248BDF
:10585C00F582E9125F43C0E0EE2A12637F24ABF5B8
:10586C0082E9125DFCD0E0F00CECC3940840CD1240
:10587C00594B800279000259C1FAEF3400FB120B2C
:10588C00DF221258857904EE221257F2940822C0B6
:10589C0082C08375D90275D90375D90575E195EA6E
:1058AC002470F582EB1258C0EA2472F582EB12597F
:1058BC005D025454125E0D1258C722E0F8A3E0F9B1
:1058CC002274F6121749EAFEEBFF9005607406127B
:1058DC00593912195C7C017903125C651217087531
:1058EC00D90675D903780012591F40FB75E19590C4
:1058FC0003C2E064087017EE2470F582EF1258C0F2
:10590C00EE2472F582EF125DFCE8F0A3E9F0790168
:10591C000259C1880874602508F582740512592F44
:10592C00940522125E0DE0F5D908E8C322F0750843
:10593C006075090578082275E1957904120DADEEB4
:10594C002470F582EF125E0D1258C7EE2472F582A8
:10595C00EF125E0DE8F0A3E9F079012274F612174C
:10596C0049EAFEEBFF9061D0E0704379019005604D
:10597C00740BF09003C2E06407701775086075092A
:10598C0005780812195C7C010909125C651217086C
:10599C007905740129F5D975D9037800800312575C
:1059AC00C9E8C39940F875E19512594B800279000A
:1059BC0080037401F07F0202181B74F7121749EA76
:1059CC00FEEBFF75D90375D90375D90DEE24DE12E4
:1059DC0059E61259437F0102181BF582EF125F47FB
:1059EC00F5D9227F0302181B7401250AF5D975D944
:1059FC000378002274F5121749125A756004780462
:105A0C0080027800E8240BF8EAC3984041750A0933
:105A1C009005607409F07908125A5E60147508607C
:105A2C00750905780812195C125C5D121708750A65
:105A3C000D1259F480031257C9E8C3950A40F77543
:105A4C00E1957904120DAD125BDA790180027900CF
:105A5C008091EE24E3FCEF3400FD7A617B05120BA0
:105A6C00D9850882850983E0221257DAF8EF126093
:105A7C0014F583E02274F31217498A088B09125C1F
:105A8C0070FAE5082483F50AEB125B3F6004780496
:105A9C0080027800E82408F8EAC3985003025B38C7
:105AAC00750C06900560740CF09003DFE0900561B6
:105ABC00F07402C0E0F97CE07D037A627B05120B86
:105ACC00D9D0E0F97CE27D03120BD9850A82850BD3
:105ADC0083E0601C750A60750B05780A12195C7CF2
:105AEC00067903AA08AB09125C65121708750C0A33
:105AFC007401250CF5D975D90378008009880A74CE
:105B0C0060250A1257CFE8C3950C40F175E19579E1
:105B1C0004120DADE5082470F582E5091258C0E5B4
:105B2C00082472F582E50912595D800279007F051F
