:020000040000FA
:0600000002011D021D4675
:03002B000223B0FD
:03005300021DBCCF
:03006B000223CCA1
:10008300021C37E5C754F84401F5C7790122000083
:100093000080FB120086B90003020107E47921788E
:1000A30008B800028004F709D8FCE479297802B87B
:1000B30000028004F709D8FCE490028178ED790707
:1000C3008002F0A3D8FCD9FA781A90014D7A01BACC
:1000D30000028007E493A3F608DAF990096DAA8277
:1000E300AB8390014E78F479038015E493A3AC823B
:1000F300AD838A828B83F0A3AA82AB838C828D83A8
:10010300D8E9D9E7758212758396740312012F75A6
:100113008291758300740012012F75D00075813FA1
:10012300751881751902759F00020096C09FF59F8F
:10013300E473D09F22D083D082C09FE493C0E07445
:100143000193C0E0740293F59F2201FF0000B40005
:100153000028002800283075A000A000A000A000FF
:1001630000080008E001F00010001000100010006B
:100173001000100050005000500010001000D00775
:100183000000000000000F000100050030750700AB
:100193001000010081FF0000FF390657063F06FFEC
:1001A30002020208025000A0000000E803020E90C1
:1001B3000100000090021290010000C20902189091
:1001C300010000B202021290010000C309021A905A
:1001D300010000C802021290010000C40902369017
:1001E300010000CA02021290010000C509021E901C
:1001F300080000CB02021290010000C60902209001
:10020300010000C709FF0100FF20020E900100005A
:1002130003900212900100002B0A022290000000BA
:1002230000000216900300001803570C570C570CDC
:10023300570C570C570C570C570C570C570C570CA3
:10024300570C570C2D0F450F270FFFFF0202020219
:100253000202020202010D0000001001020E9001D1
:10026300000006900212900100006E0A0232900113
:10027300000077070212900100006F0A023090011C
:100283000000138F021290010000700A022E9001E9
:100293000000F78E021290010000710A022C9001F7
:1002A30000007F8E021290010000720A022A900160
:1002B3000000A38E021290010000730A022890012D
:1002C3000000B58E021290010000740A02469001EC
:1002D3000000918E021290010000750A022690011F
:1002E3000000058F021290010000760A022490019B
:1002F3000000770AEA59595F69426561636F6E00CE
:100303000000000000000000FDA50693A4E24FB129
:10031300AFCFC6EB07647825000A0007120001017E
:10032300E803053F10FF00013075030201060000DA
:1003330000000000000000000000000000000000BA
:1003430000000000000000000000FFFF0600800C1A
:10035300E803616161706C6520424C452050657211
:100363006970686572616C891300008F130A61629A
:100373006364736565656565000000000000000047
:10038300004445565F4E414D4500000AFDA50693C6
:10039300A4E24FB1AFCFC6EB076478255555494466
:1003A30000000A00034D414A4F5200000A00044D69
:1003B300494E4F5200000A124D6561207000020E33
:1003C3009001000009900212900100008F0B023C83
:1003D30090030000900B021490010000A30B021283
:1003E30090010000AD0B023E90030000AE0B02141F
:1003F30090010000BE0B021290010000C40B0240EA
:1004030090030000C50B021490010000C70B0212F9
:1004130090010000CE0B024290030000CF0B0214A8
:1004230090010000D10B021290010000D80B02448E
:1004330090030000D90B021490010000DA0B1201A3
:1004430038818A03120138988A03120138C78A0354
:10045300120138008B03120138288B03120138561E
:100463008B031201386D8B03120138848B03120145
:10047300389A8B03120138C18B03120138D48B03D2
:10048300120138EA8B03120138128C031201381E51
:100493008B021201381D8C02120138528C02120198
:1004A30038738C02120138838C02120138A48C0237
:1004B300120138B08D021201387D8E02120138F01C
:1004C3008E02120138768F02120138B98F0212019F
:1004D30038F08F02120138769002120138489102E7
:1004E300120138A69102120138BE91021201383866
:1004F30092021201383B92021201383E920212011B
:1005030038E59202120138FD92021201382D93024E
:100513001201384D93021201383B9402120138F153
:10052300940212013834D6021201385CD602120149
:10053300388AD602120138C1D60212013829D702ED
:1005430012013872D702120138BDD702120138FBEB
:10055300D70212013838D80212013866D8021201C4
:10056300380DD90212013817D90212013824D902E1
:1005730012013857D90212013819DA02120138254B
:10058300DA021201383DDA0212013847DA021201A7
:10059300388F92031201389D9203120138B59203EA
:1005A300120138CD920312013881AE011201381FB6
:1005B300AF0112013897AF01120138ACB00112013B
:1005C30038E6B0011201388FB10112013864B2016B
:1005D300120138C8B3011201381FB401120138A641
:1005E300B4011201388DB501120138DAB5011201D7
:1005F3003868B6011201388CB60112013861B801AE
:10060300120138A2B801120138C4B80112013845E9
:10061300B9011201382FBA01120138F5BA011201DA
:100623003820B602120138F2B6021201389BB70223
:10063300120138DEB7021201386BB802120138F723
:10064300B802120138D8B90212013807BA021201EE
:100653003803BB021201384BBB021201384DBC02F6
:1006630012013891BC02120138B7BC02120138AD35
:1006730094031201381BF00212013831F002120107
:100683003857F0021201387FF10212013889F10262
:10069300120138E2F202120138E2F302120138B316
:1006A300C202120138E8C3021201381BC40212014C
:1006B3003865C40212013823C602120138719F0142
:1006C300120138D49F0112013819A10112013829EE
:1006D300A1011201384CA10112013897A1011201A5
:1006E300383CA20112013832A301120138FCA301E4
:1006F30012013874A501120138B6A501120138544C
:10070300A6011201387AA60112013868A801120164
:10071300386DA8011201384EAA01120138A2AA01AC
:1007230012013804AB011201382CAB01120138D08D
:10073300AB0112013892AC01120138C3AC011201B2
:1007430038C6AC011201380EAD0112013850AD01AB
:10075300120138B7AD0112013800800312013813BA
:1007630080031201382C80031201387780031201B1
:1007730038528103120138E181031201382C8203BC
:100783001201382024001201382C2400120138658C
:100793002400120138AA2400120138612500120135
:1007A30038E725001201381326001201384C2600C1
:1007B3001201386028001201383C2A001201382740
:1007C3002C001201385E2D00120138BE2F001201D9
:1007D30038AA3000120138F03100120138FD32001E
:1007E3001201381A33001201385233001201386CE7
:1007F3003300120138D433001201386E380012016D
:10080300380F390012013860390012013887390076
:10081300120138D53900120138F339001201384773
:100823003A001201384F3B00120138D73B00120146
:10083300388AD10212013894D1021201385FD202F0
:100843001201387AD202120138A0D202120138E41E
:10085300D2021201381CD30212013845D30212010D
:1008630038BED302120138D3D302120138E8D302BF
:100873001201381FD40212013833D4021201386432
:10088300D4021201389ED402120138CAD4021201D2
:100893003820D50212013874D502120138BDD502B1
:1008A300120138E7D5021201380CD6021201382F93
:1008B300EC02120138F9EC02120138DCED021201EC
:1008C3003852EE0212013894EE02120138C1EF02DF
:1008D3001201380CF30112013835F3011201384EBD
:1008E300F30112013893F40112013871F501120179
:1008F3003890F5011201381DF60112013860F60136
:10090300120138ADF7011201384CF801120138CB4E
:10091300FA0112013862FB0112013836FC0112019F
:100923003818FD0112013884FE0112013817FF0146
:10093300120138BC8D03120138258E031201387958
:100943008E03120138A08E031201387DDF021201DB
:1009530038EADF0212013835E0021201382AE102D7
:1009630012013826E20212013810E3021201385F45
:100973009E02120138A19E021201387B9F021201CE
:100983003854A0021201384FA1021201382EA202DC
:100993001201389AA20212013861A302120138CC63
:1009A300A30212013833A4021201385EA402120119
:1009B30038CFA40212013862A502120138CBA50276
:1009C300120138E0A50212013828A60212013841AB
:1009D300A602120138A6A602120138A9A602120124
:1009E3003882F702120138AAF702120138E8F70237
:1009F300120138A6F80212013811F9021201382D3A
:100A0300F90212013855F90212013885F90212016F
:100A13003894F9021201380EFA0212013834FA023C
:100A2300120138499001120138E69101120138CCC4
:100A33009301120138969401120138DD94011201D9
:100A43003824950112013836950112013876950143
:100A5300120138A59501120138F1950112013829C7
:100A63009601120138579601120138A89601120116
:100A730038379701120138259A01120138FF9B017B
:100A83001201383B9C01120138959D01120138DC9B
:100A93009D01120138519E011201389F9E011201DE
:100AA30038D69E011201385C9502120138799502FD
:100AB300120138139B02120138159C021201388F60
:100AC3009D021201383D9E021201381E5000120190
:100AD30038675000120138945000120138C7500093
:100AE300120138D45000120138E05000120138F2DC
:100AF3005000120138C7510012013825520012016B
:100B0300385A5200120138F6530012013843540088
:100B1300120138675400120138D454001201387995
:100B23005500120138355600120138B4560012012F
:100B330038785700120138875700120138085800D7
:100B4300120138A75800120138D95800120138741D
:100B53005900120138D259001201380C5A001201FF
:100B6300388D5A00120138565B00120138FF5B00C2
:100B7300120138865C00120138DE5C001201383F36
:100B83005D00120138685D001201381E5E0012011B
:100B930038685F00120138AB5F00120138C85F008C
:100BA300120138E75F001201383260001201385732
:100BB3006000120138806000120138EF60001201FA
:100BC30038316100120138356200120138CF6200FA
:100BD3001201389B6300120138B4630012013836E6
:100BE30076001201388976001201389576001201D9
:100BF300386A7700120138917700120138CC7700F8
:100C03001201383878001201386C7800120138A5C7
:100C13007800120138BD78001201381679001201EC
:100C2300382F79001201387879001201388B790056
:100C3300120138A57900120138BB7900120138D7A7
:100C43007A00120138E87B00120138357D00120169
:100C5300381A7E00120138F57F0012013826E601AA
:100C63001201385AE601120138C5E9011201380FA1
:100C7300EB01120138D9EB0112013863ED011201C6
:100C8300383EEE0112013878EE011201389BEE0175
:100C9300120138DDEE01120138E6EE01120138309F
:100CA300EF011201383AEF01120138E6EF011201A8
:100CB30038BAF0011201380EF10112013870F10156
:100CC300120138C3F101120138F2F1011201383176
:100CD300F201120138E66300120138406C00120180
:100CE30038466C00120138017200120138E77500B2
:100CF300120138ECF30212013862F402120138785F
:100D0300F402120138B5F402120138EDF4021201B3
:100D1300386AF502120138A5F50212013820F602ED
:100D23001201385CF60212013865F60212013871BD
:100D3300F6021201388BF602120138B0F6021201E4
:100D430038C6F602120138EFF60212013852F702E2
:100D5300120138C8CC02120138DBCC02120138F57B
:100D6300CC021201381ECD0212013861CD021201EC
:100D730038A0CD02120138DECD0212013843CE0273
:100D830012013858CE0212013863CE0212013870B4
:100D9300CE0212013887CE0212013895CE0212011B
:100DA30038A0CE02120138ACCE02120138BFCE02F7
:100DB300120138CACE02120138EDCE021201389662
:100DC300CF02120138A6CF02120138C0CF0212019E
:100DD30038DDCF02120138F9CF021201381ED002DA
:100DE30012013828D0021201383CD0021201385BBC
:100DF300D002120138BCD002120138C2D002120153
:100E030038C8D002120138CED002120138DAD0022B
:100E13001201380DD102120138ADCB011201382F66
:100E2300CC01120138D8CC0112013820CE011201B5
:100E3300382ED00112013814D10112013849D101E1
:100E43001201386BD10112013814D201120138E4B6
:100E5300D3011201380DD40112013885D4011201D6
:100E630038B7D401120138C4D4011201380FD501A7
:100E730012013833D50112013884D7011201388E9B
:100E8300D801120138EAD8011201382ABD01120132
:100E9300383BBE011201381FBF0112013829BF01BF
:100EA3001201384BBF0112013857BF01120138FB41
:100EB300C00112013828C1011201383EC2011201DA
:100EC3003893C201120138E2C301120138B7C401D9
:100ED30012013813C5011201387EC501120138B35E
:100EE300C501120138F6C501120138C0C80112014B
:100EF30038D8C80112013869C90112013877C9010C
:100F0300120138C4C901120138D2C9011201383E95
:100F1300CA01120138B9CA0112013810CB011201FA
:100F23003800800212013822800212013833820213
:100F3300120138F284021201381C8602120138DAD7
:100F43008602120138C68702120138C888031201CB
:100F530038ED880312013863890312013803AF02A5
:100F63001201380CAF0212013815AF02120138ED2D
:100F7300AF021201389EB102120138CEB102120142
:100F830038F9B10212013829B20212013854B202FF
:100F930012013888B202120138B4B202120138F7D2
:100FA300B20212013822B30212013869B3021201EC
:100FB30038BEB30212013800B4021201385AB40227
:100FC30012013885B402120138D4B4021201380474
:100FD300B5021201382FB5021201385DB5021201B4
:100FE3003880B50212013836950312013862950331
:100FF3001201388F9503120138999503120138A90C
:1010030095031201382CBD0212013836BD021201BC
:101013003877BD02120138C0BD02120138FABD0291
:1010230012013850BE0212013871BE021201387A21
:10103300BE02120138CEBE02120138F7BE021201FF
:101043003801BF021201386FBF02120138FFBF021D
:101053001201385AC00212013888C0021201381036
:10106300C1021201384FC10212013884C1021201B8
:101073003896C102120138B5C102120138BEC1024D
:1010830012013885C202120138D38F03120138D7F7
:1010930086031201380D87031201384187031201B9
:1010A300388E88031201381794031201382D9403E4
:1010B300120138379403120138819403120138B3B3
:1010C3009503120138DCDA02120138EFDA02120159
:1010D30038B0DB02120138EFDB021201380CDC02FC
:1010E30012013845DC0212013892DC02120138C4C5
:1010F300DC02120138FBDC0212013804DF021201A8
:101103003870DF021201388EFF01120138A7FF0188
:10111300120138D6FF011201387CFA02120138A1FC
:10112300FA02120138CBFA0212013860FD021201F1
:101133003878FD021201388EFD021201389EFD023D
:10114300120138CEFD02120138A4FE0212013871D9
:10115300FF02120138B3FF02120138CFFF0212015E
:10116300386896031201383E3C001201381C3E00D9
:10117300120138BB3F00120138664000120138E605
:1011830040001201386B41001201389441001201F2
:10119300386F4500120138E64500120138FD46005C
:1011A300120138374700120138784700120138BF5F
:1011B30048001201381549001201385E4900120136
:1011C30038CD4900120138394A001201386A4A0001
:1011D300120138824A001201389B4B00120138ABCE
:1011E3004B00120138614D00120138784D00120195
:1011F30038AA4D001201384C4F00120138E04F005D
:10120300120138669303120138779303120138BE33
:101213009603120138FD9603120138EEFF01120105
:1012230038B09103120138C09103120138D59103EC
:10123300120138899203120138D18E0312013856F4
:101243008F03120138BA8F03120138CA90031201B7
:1012530038EA9003120138F59003120138499103DB
:10126300120138A39103120138A691031201381316
:10127300E8021201382AE802120138A4E802120136
:101283003888E9021201385FEB02120138C4EB021D
:101293001201381BEC02120138F87F001201389D4D
:1012A30084031201382D86031201388E860312013E
:1012B30038D48603120138248C03120138768C0348
:1012C300120138E98C03120138568D031201385686
:1012D30082031201388082031201384F8303120103
:1012E300382B8403120138CDA60212013899A702C4
:1012F300120138DAA70212013814A8021201387257
:10130300A802120138C6A80212013824A902120148
:1013130038BAA902120138C2AA021201384CAC022F
:10132300120138EAAC0212013851AD0212013864DD
:10133300AD0212013858AE02120138A1AE021201F9
:101343003837D90112013869DC01120138FADD019D
:1013530012013851DE011201386EDE01120138EE3E
:10136300DE011201386AE00112013839E10112018C
:1013730038A6E40112013890E501120138D9C702F9
:1013830012013840CA021201381BCB02120138D3B2
:10139300CB02120138D2E3021201380CE40212012B
:1013A3003829E402120138BAE4021201382CE502AA
:1013B30012013821E602120138EEE7021201380762
:1013C3009703120138D77F00E066701008A3E06628
:1013D300700A08A3E066700408A3E06622C3E796D8
:1013E3000809E7960809E7960809E79622C3E096F5
:1013F30008A3E09608A3E09608A3E09622C008C3DA
:10140300E096F50808A3E096420808A3E096420890
:1014130008A3E09645087001D3D00822080808EA1B
:10142300C0E0EBC0E086F0E7A4FA180986F0E7A471
:101433002AFA180986F0E7A42AFA180986F0E7A41D
:101443002AFA1986F0E7A4FBE5F02AFA190886F0D0
:10145300E7A42BFBE5F03AFA190886F0E7A42BFB87
:10146300E5F03AFA18180986F0E7A4C5F02BFBE477
:101473003AFA1908E7C5F0C6A426F6E5F03BFBE403
:101483003AFA1886F0E7A4F6E5F00826F6E43B08F6
:10149300F6E43A08F6D0E0FBD0E0FA22E4CFC0E06D
:1014A300E4CEC0E0E4CDC0E0E4CCC0E075F020C3FE
:1014B300E633F608E633F608E633F608E633F618BD
:1014C3001818EC33FCED33FDEE33FEEF33FFC3ECC2
:1014D3009709ED9709EE9709EF97191919400FFF2F
:1014E300EC97FC09ED97FD09EE97FE191906D5F067
:1014F300BEECF709EDF709EEF709EFF7191919D063
:10150300E0FCD0E0FDD0E0FED0E0FF22601608084A
:1015130008C6C313C618C613C618C613C618C613FF
:10152300C6D5E0EA227009080808226016181818C0
:10153300C6C333C608C633C608C633C608C633C6D1
:10154300D5E0EA22E627F60809E637F60809E63782
:10155300F60809E637F622E026F608A3E036F60891
:10156300A3E036F608A3E036F622E026F008A3E06F
:1015730036F008A3E036F008A3E036F022C3E6977E
:10158300F60809E697F60809E697F60809E697F6D6
:1015930022C3E096F008A3E096F008A3E096F008D3
:1015A300A3E096F022E056F608A3E056F608A3E07F
:1015B30056F608A3E056F622E056F008A3E056F0EC
:1015C30008A3E056F008A3E056F022E0F608A3E0F3
:1015D300F608A3E0F608A3E0F622E6F008A3E6F097
:1015E30008A3E6F008A3E6F022E0FAA3E0FBA3E0F9
:1015F300FCA3E0FD22EAF0A3EBF0A3ECF0A3EDF0F3
:1016030022CAC0E0E6F0A308DAFAD0E0FA22CAC0A0
:10161300E0E0A3C582CCC582C583CDC583F0A3C555
:1016230082CCC582C583CDC583DAE6D0E0CA22C3A6
:10163300E498F8E499F91216738026C3E49AFAE45D
:101643009BFBE920E7E9121673E498F8E499F92281
:10165300C3E498F8E499F9121673E498F8E499F955
:10166300C3E49AFAE49BFB22EB20E7CFE920E7E00F
:10167300B90010BB0008E88AF084F8AAF022E4FB62
:10168300C8FA22EB70227B10C833C8C933C9335060
:1016930007C39AC3DBF280069A50012ADBEAC833F8
:1016A300F4C8C933F4C9FA2275F008E4C833C8C9C9
:1016B30033C933C99AC99B5004C92AC93BD5F0EC35
:1016C300FBC833F4C8E4C9FA22600D08C6A2E713C5
:1016D300C618C613C6D5E0F322600C08C6C313C6EA
:1016E30018C613C6D5E0F422700422600D18C6C3D1
:1016F30033C608C633C6D5E0F41822251810AF0840
:10170300F518400215198008F51840021519D2AFD3
:1017130022C0D0251810AF08F5185002051980080B
:10172300F51850020519D2AFD0D0222518F5821032
:10173300AF08F518400215198008F518400215196D
:10174300D2AF851983222518F582E43519F5832252
:10175300E4732518C582C0E0E51934FFC583C0E0F2
:10176300E518C3958224F810AF088583198582187C
:101773008008858319858218D2AFCEF0A3E520F0C7
:10178300A37808E608F0A3DEFAEFF0A3E58124FAD4
:10179300F8E608F0A3E608F0A3E608F0A30808E6D5
:1017A30008F0A3E608F0A315811581D0E0FED0E090
:1017B300F8158115811581E8C0E0EEC0E0222518F7
:1017C300C582C0E0E51934FFC583C0E0E518C395C1
:1017D3008224F910AF0885831985821880088583D0
:1017E30019858218D2AFCEF0A3E520F0A37808E6DE
:1017F30008F0A3DEFAEFF0A3E58124FBF8E608F096
:10180300A3E608F0A30808E608F0A3E608F0A3158A
:10181300811581D0E0FED0E0F815811581E8C0E0A4
:10182300EEC0E022851983851882E0A3FEE0A3F5CC
:10183300207808E0A3F608DFFAE0A3FFE0A3C0E006
:10184300E0A3C0E0E0A3C0E0E0A3C0E0E0A3C0E009
:1018530010AF0885821885831980088582188583CF
:1018630019D2AFD083D082020135851983851882BE
:10187300E0A3FEE0A3F5207808E0A3F608DFFAE092
:10188300A3FFE0A3C0E0E0A3C0E0E0A3C0E0E0A3C7
:10189300C0E010AF088582188583198008858218F7
:1018A300858319D2AFD083D08222C0D02518C582B8
:1018B300C0E0E51934FFC583C0E0E518C395822471
:1018C300F310AF08858319858218800885831985ED
:1018D3008218D2AFC8F0A3E9F0A3EAF0A3EBF0A318
:1018E3007908E709F0A3D8FAECF0A3EDF0A3EEF042
:1018F300A3EFF0A3D0E0F0A3D0E0F0A3D0E0F0A3F7
:10190300E520F0A3E5F0F0A322851983851882E092
:10191300C0E0A3E0F9A3E0FAA3E0FBA37808E0F6B4
:1019230008A3DFFAE0FCA3E0FDA3E0FEA3E0FFA32E
:10193300E0C0E0A3E0C0E0A3E0F5D0A3E0F520A37E
:10194300E0A3F5F010AF0885831985821880088518
:101953008319858218D2AFD082D083D0E0F8D0E04B
:101963003274048006740280027401C0E0F404122D
:10197300172ED0E01216042274048004740280002F
:10198300CCC0E0EDC0E0E518C39CCCAD1950011DFF
:1019930010AF068C188D1980068C188D19D2AF12D2
:1019A3001611D0E0FDD0E0FC22D083D082E9C0E064
:1019B300E493A3C386F0C5F095F0F908E493A386F6
:1019C300F0C5F095F0700BE493A3C3994005E904C7
:1019D3008002A3E475F002A42582F582E5F0358345
:1019E300F583D0E0F9E493A3C0E0E493C0E022D010
:1019F30083D082ECC0E0EDC0E0E493A3FCE493A3C6
:101A0300FDED4C600D121A3EEC24FFFCED34FFFD9E
:101A130080EFE493A3FCE493A3FDED4C600D121A55
:101A23007DEC24FFFCED34FFFD80EFD0E0FDD0E042
:101A3300FCE493A3C0E0E493C0E022C0E0C3E493DA
:101A430096087401939618400FE49366700808741F
:101A53000193661870007019A3A3C3E493960874E6
:101A630001939618A3A3400DD0E0D0E0D0E0021A72
:101A73002EA3A3A3A3A3A3D0E022C0E0C0F088F0C9
:101A8300E4936670080874019366187000A8F0A3C5
:101A9300A3700BD0F0D0E0D0E0D0E0021A2EA3A3C5
:101AA300D0F0D0E02274F51217C1EAFEEBFFEE246A
:101AB30034F8EF3400F988088909EE2435121BE065
:101AC300F8EE2437121BE0F50AEC850AF0A4FCAA11
:101AD300F0850AF0EDA42AFDE82CF8E43DF97A2517
:101AE3007B00121673EA850882850983F05407F890
:101AF3007401B800028004C333D8FCC0E0E01313C0
:101B030013541FF8EE28F8EF3400F9E8245DF5824A
:101B1300E93400F583D0E0F8E05860088508828551
:101B23000983801DEE2436121BE0F5F0EA84A8F049
:101B3300EE28F8EF3400F9E82438F582E93400F5AB
:101B430083E0F97F0402186D74F51217C1EAFEEB06
:101B5300FFEE2434121BE0C0E0EE2435F582EF34AF
:101B630000F583D0E0F08E828F83A3A3A3A3A3E029
:101B7300FAA3E0FB8E828F83A3A3A3A3A3A3A3E073
:101B8300FCA3E0FDECC39AF50AED9BF50BEE248074
:101B9300F508EF3400F509850882F583E0640170E8
:101BA3002BEE2481F582EF3400F58312197F121B8B
:101BB300E97402121714E960137CFD7D04EEFAEF59
:101BC300FB120B85850882850983E4F0AC0AAD0B13
:101BD300EEFAEFFB121AA81223A2021B46F582EFBC
:101BE3003400F583E022C082C0838518828519837F
:101BF300E0F8A3E0F9C3EA9CEB9D5012C3EC98ED27
:101C0300994019C3EA98EB99501279018010C3EAFD
:101C130098EB9940F5C3EC98ED9950EE7900D08399
:101C2300D08222EAC39CFAEB9DFB22000085218728
:101C33008522C622C0E074EF1218AD759B00906137
:101C430082E0A2E64003021CF8E591A2E64003020B
:101C53001CF87591BF9003C2E064057008120D2350
:101C6300120D2F8003120D29752100120D9BE9908F
:101C730003C3F07900120D8F120AEF7A017B0090F3
:101C830003C1E0F912105F907803E064426003023D
:101C93001D4190055FE014F06003021D41C2AF12C5
:101CA3001CA500782AD0E0F618D0E0F6E59F54078B
:101CB300F97005908F8C8003908F8878081215CE69
:101CC300E9C4C0E07829E65508F50808E65509F5A2
:101CD30009740B78081216DCD0E02508F8906270BE
:101CE300E0A2E740F8E8C333906272F0906270E0DC
:101CF300D2E0F08049E0A2E55024E591A2E5501E30
:101D03007591DF9003C2E0640D70139003E4E00467
:101D1300F064287002E4F07A00E0F9120E0D90618D
:101D230081E0A2E35009E5E9A2E3500375E9F7A3D3
:101D3300E0A2E75009E591A2E7500375917F7F0484
:101D430002190CC0E0C0D0C082C083906183E0A2BE
:101D5300E05009E5BFA2E0500375BFFEE0A2E150E9
:101D630009E5BFA2E1500375BFFDE0A2E25009E51A
:101D7300BFA2E2500375BFFBE0A2E35009E5BFA297
:101D8300E3500375BFF7E0A2E45009E5BFA2E450B6
:101D93000375BFEFE0A2E55009E5BFA2E550037567
:101DA300BFDFE0A2E65009E5BFA2E6500375BFBF5F
:101DB300D083D082D0D0D0E032C0E074F21218AD1C
:101DC300E5A7A2E4500FE5A1A2E4500953A7EF75DC
:101DD300A1EF121E10E5A7A2E5500CE5A1A2E55064
:101DE3000653A7DF75A1DFE5A7A2E15009E5A1A28C
:101DF300E1500375A1FDE5A7A2E2500CE5A1A2E223
:101E0300500653A7FB75A1FB7F0102190C74F8124E
:101E130017C17521019003C2E0640670077A007B45
:101E230000120D0BA2AFE433FED2AF9003C8E064FF
:101E33000170187A207B009003C1E0F91210E97A4F
:101E4300207B009003C1E0F9121065906182E0D21B
:101E5300E6F090055EE0602185C62280169003C7F8
:101E6300E064017008E5C654F84405F5C653BEFCAA
:101E7300121C307401652160E4EEA2E092AF7F0191
:101E830002186D00008E238F248582288583278581
:101E93001882851983E0CEA3E0CF85288285278326
:101EA300EBC9EAC8EDCBECCA75F010C3E833C8E957
:101EB30033C9EA33CAEB33CBC3EA9EF526EB9FF56E
:101EC30025B35004AB25AA26EC33CCED33CDD5F0A6
:101ED300DAAE23AF242274E91217C174FA1216FE84
:101EE300EAFEEBFF8C088D099003C2E024F7C3944C
:101EF300055006908FF4022000120C878A0A8B0B80
:101F0300EA450B7003021FFD120D418A0C8B0D1263
:101F13000D41EA650C7003EB650D60ECEEFCEFFD23
:101F2300851882851983AA82AB83120D47850A829D
:101F3300850B83A3A3780C1215CE908FDC780C123B
:101F430015A885188285198378141215CE908FDC15
:101F530078141215A8780C79141213E0501F780C1A
:101F63007914121580908F74780C121400404785F1
:101F73000C10850D11850E12850F138041851410E9
:101F83008515118516128517137810790C12158093
:101F9300908F747810121400501C75100075110086
:101FA3007512007513017810791412158078107961
:101FB3000C1215478008908FF478101215CE74090F
:101FC3007810121528908FC8780C1215CE781079D6
:101FD3000C12149F9003C2E06408600AE064066078
:101FE30005E06405701C908FE07810121400501205
:101FF300908F78781012155A8008908FA07810125D
:1020030015CE85088285098378101215DD740612B2
:1020130017147F1002186D74F71217C1120D59901F
:10202300055CE064017010906245E4F0A3F053F4A2
:10203300F343FE0C5390F3120CF9E5C65480444964
:10204300F5C6E59E547F644970F8906185740FF07E
:1020530090055AE0F47002A3E0602C75080175093D
:102063000090055AE078081216EBE508F4FAA3E0AD
:10207300600814600A14600C800DEA52808008EA3C
:1020830052908003EA52A079007F0202186D74F720
:102093001217C1E9FEEAFF74016E700C7A807B00AF
:1020A3009003C1E0F912105F902418E493F46008E0
:1020B300E493F9120AD1800953C680E59E547F70D8
:1020C300FA120CFF90055CE064017003120B079099
:1020D300055AE0F47002A3E0602A7508017509004F
:1020E30090055AE078081216EBAA08A3E0600814DA
:1020F300600A14600C800DEA42808008EA429080F6
:1021030003EA42A0120C878A088B09A808A909E8E8
:10211300496017E5E170FCE82414F582E93400F521
:1021230083E0F874FF68600288E174016F700A7AD3
:10213300019003C1E0F91210B302208C74F112175D
:10214300C18A088B098C0A8D0B740F121749780CFE
:102153001215CE908FDC78081215A8908FDC780CBE
:102163001215A87808790C1213E050157808790C29
:10217300121580908F74780812140040157901802D
:1021830013780C7908121580908F74780C12140050
:1021930040EB79007F0802186D74ED1217C18A08AD
:1021A3008B098C0A8D0B7413121749780C1215CEF8
:1021B300908FDC78081215A8908FDC780C1215A884
:1021C300780C79081213E040117808790C12158005
:1021D300AA08AB09AC0AAD0B80227510007511007B
:1021E3007512007513017810790C12158078107927
:1021F30008121547AA10AB11AC12AD137F0C0218CD
:102203006D908FDC78081215CE8A828B8378081242
:1022130015BB7F0402186D74F51217C18C828D8370
:1022230078081215CE8A828B8378081215941222AD
:102233006EC3E098F0A3E099122260401E908FD005
:1022430078081215CE8A828B83780812156D8E82D8
:102253008F83E02420F0A3E0344EF080A4F08E823C
:102263008F83C3E09420A3E0944E22EA2404F8EB86
:102273003400F9E8FEE9FF8C828D83A3A3A3A3E0D6
:10228300F8A3E0F98E828F832274F51217C1E9FE59
:10229300900514E0FAA3E0FBEEC333F8E433F974DA
:1022A300E728F582748E39F583E02AF508A3E03B2D
:1022B300F5097808121968908FEC1215EC121E8834
:1022C30074021217148A088B098C0A8D0B74107808
:1022D3000812150FAA08AB097F0402186D74F112D6
:1022E30017C18A0C8B0D8C0E8D0F740F121749E0DA
:1022F300FAA3E0FB7411121749E0F508A3E0F5090E
:102303007413121749E0FEA3E0FF7808121968EA74
:102313002401F508EB3400F509E4F50AF50B780C14
:10232300790812141F908F8478081215CE780C79CF
:102333000812141FAA0CAB0DAC0EAD0F121E88743D
:10234300021217148B09EA450960047A0180027AA4
:1023530000EC2AFCED3400FDECF8EDF97A717B0218
:1023630012167388088909E4F50AF50B8E828F83A8
:1023730078081215DDECF8EDF97A717B0212167309
:102383008A088B09740578081216EB8E828F83A353
:10239300A3A3A3E508F0A3E509F07F0802186DC025
:1023A30082C083E9906000F0D083D08222C0E0C075
:1023B300D0E8C0E0E5A8D2AFC2C7751A00A2E79281
:1023C300AFD0E0F8D0D0D0E032C0E074F21218AD54
:1023D3007A0F7B0012112BA281501B900B40E060FF
:1023E3001F7900121131A28140FC7A087B00900909
:1023F3005FE0F912105F758900C2C57F0102190CF5
:1024030079FF12106BA28140FCC2AF75C9AB75C9CD
:032413005B80FEED
:10241800FFFFFFFFFFFFFFFFC082C083E9900A2A8A
:10242800F002263F74F7121755E99002E0F07C1885
:102438007D037AFF7BFF12080D9002E174FFF0A381
:10244800F0A3E4F0A3F0790512079B9002E0E0F90D
:102458001206C97A257B081209E702334D74F41273
:1024680017558A088B09EB548060309002E0E0F938
:102478001210478A0A8B0BAE0AAF0BEE4F60138E11
:10248800828F83E064B070031207ADEEFAEFFB129F
:102498001035AA08E5096480FB80047A007B0002F5
:1024A800260E74F212175574FC1216FEEAFEEBFFA4
:1024B8007412121749123834EE4F700302254D7406
:1024C80002121749EEF0A3EF122849ECF0A3ED121F
:1024D8002849AA82AB831206C3E9F50A706AE5089F
:1024E800450960648E828F8312381AEE4F60567ADF
:1024F800067B0012109B8A0C8B0DA80CA90DE849CD
:102508007005750A13804188828983E412255AEE82
:10251800F0A3EF123845E508F0A3E509F09002E6CC
:102528001225E19002E670051232F7801B1232E59F
:102538008003EAFCEBFD8C828D831225E170F38C1D
:10254800828D8380E3750A02A90A740412171402A3
:102558003A34F0A31237EBA32274F2121755890A02
:10256800E975F017A4FEAFF09002E5E4F09002E3FD
:102578001225E1600A1210A19002E3E4F0A3F0EE44
:10258800FAEFFB12109B8A088B09EA4509602FEEC7
:10259800FCEFFD79001210239002E3E508F0A3E5B3
:1025A80009F07B0080081225CBE4F0A3F00BEBC305
:1025B800950A40F2E50A9002E5F079008002791365
:1025C800023A34EB75F017A4F8A9F09002E3E0287A
:1025D800FAA3E0398A82F58322122F89EA4B227402
:1025E800F41217557900EAA2E0501B75085A7509CC
:1025F8008F78081219687C047D007A2C7B0A1207F0
:102608009574021217147F04021827C082C08390A1
:1026180002E6122646601C88828983A3A3E06A70BA
:1026280003A3E06B8882898370E8A3A3A3A3122F76
:102638008580047A007B00D083D082020135123B6A
:102648001AE8492274EE12175574FC1216FEEAFEB7
:10265800EBFF851882851983E4F0A3F0EE240212BB
:1026680032D7EE24051237F2EE2404F50EEF122BC2
:10267800FEE024FE603924FC604624FE605224FEFD
:10268800605E24FE700302275F24FE70030227C3E6
:1026980024FE70030227D224FE70030227E124FCE3
:1026A80070030227F024FE70030227FF02283C90E3
:1026B80002FF7417F0A3E412285112044702283CC1
:1026C800851882851983AC82AD831207B302280C62
:1026D800851882851983AC82AD831207B902280C4C
:1026E800850C08850D097402121749AC82AD8385E3
:1026F8000882850983122F851206E78A0C8B0DAC98
:102708000CAD0DEC4D603BE4F50CF50D780C121991
:1027180068750CFF750D02780C121968750C007538
:102728000D03780C121968740812174912197F12D0
:102738003B3E121714E9F50C700B122F7B12045F45
:10274800800F750C0185088285098312283F123293
:10275800F7850C0802280F7402121749AC82AD8362
:10276800850C82850D83122D50603C850C82850D69
:1027780083A3A312197F7510FF751102781012191F
:10278800687510007511037810121968740812170B
:102798004912197F123B3E121714E9F509700B1202
:1027A8002F7B120465800F750901850C82850D83C6
:1027B80012283F1232F7850908804C85188285193E
:1027C80083AC82AD831207BF803A8518828519834E
:1027D800AC82AD831207C5802B851882851983AC1E
:1027E80082AD831207CB801C851882851983AC8241
:1027F800AD831207D1800D851882851983AC82AD0F
:10280800831207D7E9F508E50860298E828F83A32C
:10281800E06414601F850E82850F83E09002FF122A
:102828002849123B169003001232F7E508A3122834
:10283800511204410231E6123B1A85188285198328
:1028480022F085188285198322F07CFF7D02850A93
:1028580082850B83122F892274EE12175574FC128D
:1028680016FE8A0A8B0B8C0E8D0FEA2405F508EBF1
:102878003400F5097C157D0079007AFF7B0212107F
:1028880023E5082402F50CE5091237F58518828539
:10289800198385821085831178101219688508823A
:1028A800850983A3A3A3A3122D47121968E5082459
:1028B80005F510E5093400F5117810121968850C32
:1028C80082850D8312309C1206E174061217148A51
:1028D800108B11AE10AF11E50A2402F50AE50B12B0
:1028E80032DAEE4F7003022A1E801774021217495B
:1028F800122F8588828983EAF0A3EBF09002FFE02B
:1029080004F09002FFE0C394054003022A1EE4F598
:1029180010F51178101219687510E8751102781001
:102928001219687510E97511027810121968740681
:1029380012174912197F7910EEFCEFFD123B401275
:102948001714E9705E850882850983A3A3A3A3A34E
:10295800A3A3E0F89002E8E0687048122D47121926
:10296800687CE97D02E5082408FAE5093400FB12D1
:10297800101D7402121714E960298E828F83A3A395
:10298800A3A3122F859002FFE0F5107402781012AD
:1029980016EB74002510F58274033511F583EAF0FF
:1029A800A3EBF07402121749858210858311781001
:1029B800121968740212174912197F850C82850D45
:1029C80083122FAB1217148A108B11AE10AF11900F
:1029D80002FFE0F510751100740278101216EB74FE
:1029E800FF2510F874023511F988828983A312250E
:1029F800E170030228EAE82403080808E93400F92A
:102A0800EE4F60030228F38882898374FFF0A3F0F5
:102A18009002FFE004F09002FFE0600A122F7B12A0
:102A280004537900800B8508828509831232EE7978
:102A38000A0231E674EA12175574FE1216FE8C1259
:102A48008D13EA2405F50CEB123B2812381E750885
:102A580000750900EA2402F510EB3400F511851819
:102A68008285198385820A85830B780A12196885FD
:102A78000C82850D83A3A3A3A3122C14121968E555
:102A88000C2405F50AE50D1232DA780A1219688560
:102A98000C82850D83122C181206E1740612171485
:102AA8008A0A8B0BEA450B7003022BB9EA2404F55A
:102AB8000EEB122BFE12381E8A828B83A3A3A3E08F
:102AC800F9851082851183122F8F6003022BB9E4D8
:102AD800F514F51578141219687514E87515027847
:102AE800141219687514E9751502781412196874A6
:102AF8000612174912197F7913AC0AAD0B8510829B
:102B0800851183123B46121714E9F5096003022B5D
:102B1800B99002E8E0F8E5087009E02402900300A3
:102B2800F08014900300E0FCE82402FAE43400FB8F
:102B3800EA6C7001EB707E850882AA82122D3E94A1
:102B480014122D36506B850E82850F83E0C0E07419
:102B5800012A122BF5D0E0F00508850E82850F8337
:102B6800A3E0C0E085080A7401250A122BF5D0E01D
:102B7800F005089002E8122C141219687CE97D020D
:102B880085080A7401250A122C081217149002E805
:102B9800E02508F50874FF6E700374FF6F6012EE8D
:102BA80024010EEF3400FFE508C394145003022AF1
:102BB80066E5086013122F99851082851183122FFC
:102BC8008512045979008014E509700375090A858E
:102BD8001282851383EEF0A3EFF0A909740212178D
:102BE800147F0E02182785080C7401250CF58274D1
:102BF800033400F583223400F50F850E82F5832215
:102C0800FA74033400FB12100B7402221238542297
:102C1800A3A3122C1E221232E5FDEEFAEFFB22745A
:102C2800EE12175574FE1216FE8C0E8D0FEA24054F
:102C3800F50CEB1237F5750B009002FFE4F0F50A7E
:102C4800EA2402F508EB3400F50980449002FFE01D
:102C5800FA9002E8E0F8122D3E9417122D36400D36
:102C68009002FFE0F87416C3989002E8F0122D471E
:102C78001219687CE97D0274002AFA7403122C0B7D
:102C88001217149002E8E0F89002FFE028F0050A15
:102C9800E50C2416F582E50D122BF9E0F8E50AC3D8
:102CA8009850749002FFE0C39416506BE50AC33342
:102CB800F8E433F9E50C28FEE50D39FF851882851F
:102CC8001983AC82AD838E828F83122D5070087564
:102CD8000B011232EA8050E4F510F5117810121940
:102CE800687510E875110278101219687510E97581
:102CF80011027810121968740612174912197F798F
:102D080016850882850983123B46121714E9F50BCC
:102D18007003022C5480BB7CFF7D028508828509E4
:102D280083122F8512046BA90B74020231E8E9940F
:102D380000C365D03322EA28F8E43400F9E822E039
:102D4800F5107511007810221231DD8A108B11AC44
:102D580010AD11EC4D2274EA12175574FC1216FED0
:102D68008A0C8B0D8C128D13EA2405F50AEB1232AE
:102D7800DA750800750900E50A2402F510E50B3438
:102D880000F511740212174985820E85830F780E9B
:102D9800121968850A82850B83A3A3A3A31237FAA5
:102DA800121968E50A2405F50EE50B3400F50F78CD
:102DB8000E1219688510828511831232E0122F7F56
:102DC8001206E174061217148A0E8B0FAE0EAF0F9F
:102DD800E50C2402F50EE50D3400F50F80388882E5
:102DE800898374FFF00508122BEE74FFF005089034
:102DF80002E8E0F50C750D00780C1219687CE97D85
:102E08000285080C7401250C122C08121714900264
:102E1800E8E02508F508EE4F60278E828F83A3A38C
:102E2800A3E0F9850E82850F83122F8FEE240412FA
:102E380037F2E96027850C82850D83122F711232D3
:102E4800F7E5087003022F57122F99850E82850F18
:102E580083122F851204717900022F6CE4F514F5A2
:102E68001578141219687514E87515027814121972
:102E7800687514E975150278141219687408121720
:102E88004912197F7911EEFCEFFD850E82850F83BB
:102E9800123B46121714E9F509709A850882AA822E
:102EA800EA9002E87009E02404900300F08025E02D
:102EB800F8900300E0F514E82404FCE43400FDEC89
:102EC80065147001ED7081122D3E9412122D36405A
:102ED80003022E50850C82850D83E0C0E074012A20
:102EE800122BF5D0E0F00508850C82850D83A3E050
:102EF800C0E0122BEED0E0122FB485820C85830D32
:102F0800780C121968740412174912197F851082F7
:102F1800851183122FAB1217148A0C8B0DAE0CAFD0
:102F28000D85080C7401250CF874033400F9EE4F74
:102F38007003022DE6851882851983E088828983CB
:102F4800122FB4A3E0C0E0122BEED0E0022DF4E57E
:102F580009700375090A850A82850B83122F71127D
:102F680032F7A9097404022BE6123B1A85128285EE
:102F78001383227CFF7D02850A82850B83122F89A9
:102F880022E0FAA3E0FB22122F891206CFE9F50905
:102F980022900300E0F5F0E508849002FFF07CFF42
:102FA8007D0222122C1E1206ED740422F0050885FB
:102FB80018828519832274EC12175574FE1216FEB6
:102FC8008A088B098C0E8D0FEA2405FEEB3400FF6E
:102FD8001231C7EE24181237F2EA450B700302309B
:102FE8006A1231B0502912308F8A108B11EA4511BC
:102FF800606B7912AC0AAD0B850882850983122FA4
:1030080085851082851183121753E9F50A7058E4F3
:10301800F50AF50B780A1219688E828F83A3A3E04C
:10302800F50A780A121968EE24031232D7780A12C0
:1030380019688E828F8312309C1207FB7406121750
:1030480014E9F50A7021850C82850D83E0701F85CF
:103058000882850983122F851204778011750A0E5C
:103068008009750A018004E50A60031232EA850CBA
:1030780082850D83E0600479008002A90A74021237
:1030880017147F0C021827851882851983122F8937
:103098001207E9221232E5FD850882850983122F7D
:1030A800892274EE12175574FE1216FE8A088B09CF
:1030B8008C0C8D0DEA2405FEEB3400FF750E001212
:1030C80031C7EA450B700302318E1231B0502C1211
:1030D800308F8A0E8B0FEA450F604A7912AC0AAD21
:1030E8000B850882850983122F85850E82850F83BB
:1030F800121753E9F50E600302319185088285099C
:10310800831233CCAA0AFB1231A270147AFF7BFF18
:103118001231A2606C88828983E50AF0A3E50BF07E
:10312800750A008007750E0E805F050A9002E5E0BB
:10313800FAE50AC39A504AE50A75F017A4FAABF003
:1031480088828983A3A3E02AFAA3E03BFB8A828BC7
:10315800831232E0EC4D70D2750A17750B00780AAD
:10316800121968EEFCEFFD12100B7402121714EE20
:10317800FCEFFD850882850983122F8512047D8066
:1031880014750E098003750E01123B12850C828599
:103198000D831232F7A90E022D311207DD8A108B2A
:1031A80011A810A911E84922E5082402F508E50943
:1031B8003400F5098A828B83A3A3A3E0A2E52285C4
:1031C8001882851983AC82AD838E828F831231DD9C
:1031D8008A0A8B0B22E0FAA3E0FB1206E7227404AA
:1031E8001217147F0A02182774EC1217558C108DC9
:1031F80011EA2405F50CEB1237F5750F00EA2402E5
:10320800F50AEB1232DA850A82F583122F85123B12
:10321800CC70030232CC750E008071850C82850D4E
:1032280083E06401704F8E828F83A3A312197F8E6F
:10323800828F83A3A3A3A3E0F5127513007812125B
:103248001968EE2405F512EF3400F51378121219F7
:1032580068122F7F1207FB7406121714E9F50F6026
:1032680014850C82850D83E4F0123B12851082854B
:1032780011831232F77C177D007900EEFAEFFB120A
:1032880010238E828F83E4F0A3F0050E9002E5E010
:10329800F8E50EC398501EE50E75F017A4F8A9F0CE
:1032A800850882850983A3A3123B321232E0EC4DD4
:1032B800600302322385088285098374FFF0A3F036
:1032C800E50F7006122F7F120483A90F02308AF5CA
:1032D8000AEF3400F50B22A31232E5FD22E0FCA32D
:1032E800E0228E828F83123B1A850E82850F83E837
:1032F800F0A3E9F022C082C0839002E1E06A700383
:10330800A3E06B70067AE17B0280047A007B0002FE
:10331800263F74F71217557F00EF75F003A4F8A93C
:10332800F0EC28F8ED39F988828983E06A7003A304
:10333800E06B7006E8FAE9FB800B0FEFC3940240DC
:10334800D87A007B007F0102182774F612175512ED
:10335800390370067A007B008007A3A3A3A3122F6A
:10336800850239C474F2121755E9FE740E12174912
:103378001233CC74101217491238348C828D83E0C2
:103388006402703BA3123B1688828983E0F50CA384
:10339800E0F9A80C74026870037429697021750C2F
:1033A80002750D00780C1219687808121968780AE5
:1033B800121968EEF912081F7406121714800279A0
:1033C80001023A34E0F50AA3E0F50B2274E812177B
:1033D8005574FB1216FEE9851882851983F08A1642
:1033E8008B178C0E8D0F741F1217491238347421E5
:1033F8001217491233CC742312174912381E75104C
:10340800008C828D83A3A3A3E0A2E4502A741D122A
:1034180017491230958A828B83E5824583700302AF
:1034280034E0790AAC0EAD0FAA16AB17121753E9A0
:10343800F51060030234E3850E82850F83E0640291
:103448006003023799A3123B16850882850983A376
:10345800858212858313E50E2406F50CE50F1237D5
:10346800F588828983E0FAA3E0F9EA2400F514E4F8
:1034780039F51578141219F2010000280128A8342A
:10348800070002287F350328EF340029A9360129CF
:10349800D136022978360329A93604293A379937CB
:1034A800EE4F703E850C82850D8312380FFAE9FBCA
:1034B8008A828B83E0850A82850B8312384B121926
:1034C800688A828B83A31232E5FDAA08AB09121021
:1034D8000B7402121714800375100EA910740502DC
:1034E8003B2075100B80F4EE4F70F7850A82850B30
:1034F800837401F0123824850882850983F07C00E2
:103508007D00850E82850F83A3A3A3A3E02401FA7F
:10351800A3E03400FB1206E7EA4B60418A828B8302
:10352800E02402F8850A82850B83E028F0EA240467
:10353800F8EB3400F988828983E085128285138349
:1035480012385D12384B1219688A828B831232DF67
:10355800E5082403FAE5093400FB0234D6850A821B
:10356800850B83E02404F07C047D007900AA12AB6B
:10357800131210230234E3EE4F60030234EA1238C8
:1035880024FEA3E0FF850A82850B837404F0EE8590
:103598000882850983F0EF851282851383F074030E
:1035A800121749AC82AD83EEFAEFFB1238F17003C3
:1035B8000236558A828B83A3A312381A7401121714
:1035C8004985820E85830F780E12196874051217C3
:1035D8004912197F7CFF7DFF1206ED74041217143F
:1035E8008B0FEA450F7033850C82850D831237FAED
:1035F800121968850C82850D83A312197F7C027DC0
:10360800007A107B901205197404121714E9700AD5
:10361800740112174974FFF0A3F08E828F83E0645F
:10362800027034750C02750D00780C1219688E82C0
:103638008F831232DFE5082404FAE509122C0B12F5
:103648001714850A82850B83E0240280097401120D
:103658001749EEF0A3EFF0740112174912380BF076
:103668007401121749A3123803A3A3A3F00234E389
:10367800EE4F60030234EA850C82850D831232E036
:10368800AA16AB17120813850A82850B837402F0F9
:10369800EA850882850983F0851282851383EB8089
:1036A800CBEE4F60030234EA123824F8A3E0F98520
:1036B8000A82850B837402F0E8850882850983F005
:1036C800E985128285138380A3850C82850D831278
:1036D8002F85121005EAFC8C82A882C39EE49F40C5
:1036E8004BE86E7001EF70047C00801F851882859E
:1036F8001983E0FAEE2AFAEF3400FBC3EA98EB9458
:10370800005003E08004EECCC39CFCEC850A828563
:103718000B83F08C0A750B00780A121968850C82E5
:10372800850D83E02EFCA3E03F0234D1751007021B
:1037380034E3EE4F60030234EA850C82850D831270
:103748003B16850A82850B837407F0888289831269
:1037580038031237EBE0851282851383F0E82402E0
:10376800FAE93400FB8A828B8312380312383C1240
:10377800380BA3123845123814F0E82405F8E93458
:1037880000F988828983123814A312385DA302369F
:1037980071741D1217491238FC70030234E0123B91
:1037A80016880C890DE8450D70030234E08E108FE1
:1037B800117810121968780A1219687808121968AD
:1037C8007406121749E0F9AC0EAD0FAA16AB1785AF
:1037D8000C82850D831217537406121714E9F5101D
:1037E8000234E3F088828983A322F50CEF3400F5D4
:1037F8000D22E0F50E750F00780E22E0850882850F
:1038080009832212386422123B1AE822123864A370
:10381800A322A3A3A3A3E0FEA3E0FF22850C828535
:103828000D83E0F8A3E0F5838882E022E0F508A3A1
:10383800E0F50922A3A3F08A828B83A32212255CD8
:10384800A3A322F08A828B8312385422E0F50A75EA
:103858000B00780A221237EB12386422E0850882BE
:10386800850983A3A32274EE12175574FE1216FE5F
:103878008A0A8B0BECFAEDFB7414121749E0F51069
:10388800A3E0F5117416121749E0FE7418121749CF
:10389800E0F50EA3E0F50F851882851983AC82AD9B
:1038A800831238F1603E8518828519831238FC60CE
:1038B8002FA3A3123834E50845096024780E12199D
:1038C800687810121968EEF9AC0CAD0DAA0AAB0BAA
:1038D8008508828509831217537404121714800609
:1038E800790E80027901022D311206E78A0C8B0DC0
:1038F800EA450D22122F89123903221207A78A825C
:103908008B83E58245832274F612175574FE1216CE
:10391800FE740C12174912380F851882851983F026
:103928007401121749E9F0E4F508F5097808121945
:103938006875080278081219687404121749858294
:103948000885830978081219681207FB740612178C
:10395800147402121714806474F7121755EAFEEBF8
:10396800FF89087C187D03120813EA5402600BA92A
:1039780008EEFAEFFB1206DB8002790102334D7480
:10398800F612175574FF6A700374FF6B701C7B0086
:10399800EB75F003A4F8A9F0EC28F8ED39F9123921
:1039A800C90BEBC39402501480E61207E38A088B14
:1039B80009A808A909E84960031239C97F02021851
:1039C800278882898374FF12255AE4F02274F6123C
:1039D80017551207E38A828B83E58245836006A325
:1039E800A3E0FA80027A007B0080D174F2121755A6
:1039F8008A088B09ECFEEDFF740E121749E0F50AF0
:103A0800123A39701CEEFCEFFD7AFF7BFF123A394F
:103A180070047911801688828983E508F0A3E50986
:103A2800F088828983A3A3E50AF079007F0602184B
:103A3800271207E38A0C8B0DA80CA90DE8492274FC
:103A4800EE121755EAFEEBFF8C088D09890C7412EB
:103A5800121749123B1674141217491232E07416E1
:103A6800121749122F85750D00EC4D6003023B0AB1
:103A78007402650C6003023B05888289831232E573
:103A8800F9EC2400F50EE439F50FEAF4F8EBF4F953
:103A9800EC58F8E50F59F9E849705DE5082406F88F
:103AA800E5093400F9880A890B8882F583122C1AF3
:103AB8001208138A108B11E50E65107004E50F6566
:103AC800116042780E121968850A82850B83122CC0
:103AD8001A1208197402121714E9F50D7027780ED6
:103AE800121968850882850983A3A3122C18120865
:103AF8002B7402121714800D750D808008750D0D3A
:103B08008003750D0BA90D0231EB8E828F83123B5A
:103B18001A22E0F8A3E0F9221217147F10021827DE
:103B28003400F50D850C82F58322E028FEA3E039E8
:103B3800FF8E828F83227916850A82850B83122F46
:103B4800891207F574082274F2121755EAFEEBFF82
:103B5800890B7401650B600E7402650B7063790143
:103B6800120A05E9705BEEFAEFFB123BCC60477571
:103B78000A00800B7C177D007900121023050A903B
:103B880002E5E0F8E50AC3985021E50A75F017A4A4
:103B9800F8A9F0850882850983A3A3E028FAA3E0A1
:103BA80039FB8A828B8312264670C985088285096B
:103BB8008374FFF0A3F07C187D03EEFAEFFB120884
:103BC8000D023A341207DD8A088B09EA4509227486
:103BD800F21217558A088B09ECFEEDFF740E1217C6
:103BE800491233CC900A2AE0F4603D7A097B00122E
:103BF800102FEA4B60328A828B8374B1F0A3E412EF
:103C0800383EA312383CA3E508F0A3E509123C337B
:103C1800EEF0A3EF123C33A3A3E50AF0A3E50BF003
:103C2800900A2AE0F912103B023A34F08A828B8318
:103C3800A3A3A3A3A32274F4121755E9FF7E008A55
:103C4800088B0978081219AC00040DEF3D713C8D02
:103C58003CA23CB73CCC3CE13CFD3C163D283D56E3
:103C68003D783D943DB03DCE3D74016F70128C821D
:103C78008D83E0C394035008E0900B41F0023E0DA1
:103C88007E18023E0D74026F70F68C828D83124589
:103C98004B900B42E8F0A3E980E274016F70E18C6D
:103CA800828D83E0C3940250D7E09007AC80CD7436
:103CB800016F70CC8C828D83E0C3940550C2E09074
:103CC80007AD80B874016F70B78C828D83E0C394A0
:103CD8000250ADE09007AE80A374106F70A2750813
:103CE800108E0978081219687AAF7B0712490F12EB
:103CF8001714023E0D74016F70868C828D83E0C3A9
:103D080094024003023C88E09007BF023C8474019F
:103D18006F6003023C888C828D83E0900B45808D18
:103D280074046F6003023C88908FEC78081215CEFB
:103D38008D838C8278081213F04003023C888C82B1
:103D48008D831215EC9007C11215F8023E0DEF6035
:103D580003023C88120687E9700E1211CD795012C1
:103D6800133B1211C1023E0D9008547401023C84A9
:103D780074016F6003023C888C828D83E0C39402D7
:103D88004003023C88E09007C0023C8474016F60E5
:103D980003023C888C828D83E0C3940A4003023C72
:103DA80088E0900B44023C8474016F6003023C88F5
:103DB8008C828D83E024F9C3940A4003023C88E096
:103DC800900B46023C8474016F6003023C889008A3
:103DD80053E0F88C828D83E0900853F0E87026E079
:103DE80064017021023D6AC3EA9426EB94005013E3
:103DF80074026F700E8C828D83124545120525E979
:103E0800FE80020E0EEEF9023E17740E1217147F92
:103E18000402182774F012175574CC1216FE8C0A77
:103E28008D0B7444121749E0FE7420121749AC82B6
:103E3800AD8375838F75824874061216117420122B
:103E48001749AC82AD83121173E9F508C3940A408F
:103E580003023F8075F006E9A4F509742612174994
:103E6800AC82AD837A0E742025091249C770097493
:103E780032121749E0FF80027F00900B41E0640294
:103E8800700474018001E4F50D780D12196CEEFDD3
:103E9800EFFCA908AA0AAB0B1211F7740112171448
:103EA8007C147D007900740C121749AA82AB831226
:103EB8001023740C121749AC82AD837A1074242530
:103EC800091249C770377C1079FF740C1217491210
:103ED80046F47029741C121749AC82AD837A0474B5
:103EE800252509F9121335740C121749AC82AD83D4
:103EF800EFA2E0E433F9AA0AAB0B1205AF851882EA
:103F0800851983AC82AD837A0C747025081249C771
:103F18007055851882851983AA82AB831211A375FF
:103F28000800E50875F003A4F8A9F085188285193A
:103F380083E58228F8E583124730124545EC4D6049
:103F48001D88828983A3A3E0F50E750F00780E12F1
:103F58001968AA0AAB0B1208017402121714050893
:103F6800E508C3940440BBEFA2E1500C9007ABE016
:103F7800F9AA0AAB0B12080774046E702A900B4159
:103F8800E0640270229007BFE060047A0180027A40
:103F9800009007ACE06004780480027800E84AF9F1
:103FA800AA0AAB0B12066F790074341217147F0833
:103FB80002182774F0121755EAFEEBFF8C088D09DA
:103FC800750A0AE9600C14600914602E14607F02F7
:103FD80040611211B5E9F50AC3940A507CE5084519
:103FE800096076750E06750F00780E121968EEFCDA
:103FF800EFFD12490B121714805F750B00750E0642
:10400800750F00780E121968EEFCEFFDE50B75F0E0
:104018000EA4F8A9F074CD28FA740739FB12101D04
:104028007402121714E9601B850B0AE50AC3940A87
:104038005027E50845096021AA08AB09A90A121109
:10404800AF8016050BE50BC3940A500D80AF121113
:10405800BBE9F50AC3940A40D9A90A023FB674F429
:10406800121755890875091574FF6A700374FF6B78
:1040780070277E00AC087A027B00EEF9121191E9F4
:1040880060037509000EEEC3940A40E8E50860492C
:104098007AE57B11120A1780401209F98A0A8B0BFC
:1040A800AE0AAF0BEE4F602E7C007D00EE2405FAC1
:1040B800EF3400FB8E828F8312415D500CAC087A7E
:1040C800027B00121191750900E508600CEEFAEF09
:1040D800FB1211E58003750914A909023E1774F251
:1040E800121755ECFEEDFF740E121749124538757C
:1040F800081574FF6A700374FF6B7021750900ACB2
:104108000AAD0BEEFAEFFBA909121197E9600375E6
:1041180008000509E509C3940A503580E21209F937
:104128008A828B83E582458360237C007D00E5825B
:104138002405FAE5833400FB12415D5013AC0AAD47
:104148000BEEFAEFFB12119775080080037508143F
:10415800A908024F36A3A3A3A3E0F9121173E9C378
:10416800940A22C082C0839007C5EAF0A3EBF090BE
:1041780007ABE0FC7D007A257B001205259007AB94
:10418800E0F9120783D083D08202013574EA12174E
:104198005574EC1216FEEAFEEBFFEE240CF514EF54
:1041A8003400F515EE240AF510EF3400F511EE246D
:1041B80005F50EEF3400F50FEE2409F50AEF34008B
:1041C800F50BEE2403F508EF3400F5098E828F8392
:1041D800A3A3E024FA700302450124FD70030244FE
:1041E8003014700302427F14601024FD70030244EF
:1041F8000114700302446502451F124564604AE0D9
:10420800F583888212454B880C890DE8450D603985
:10421800851482851583E0F50E780E12196CEE244C
:104228000BF582EF3400F583E0F9850A82850B836C
:104238001245450A0A0AAB09850C82850D831217B7
:1042480053740112171402451F850A82850B8312C5
:10425800197F9007C11215EC1205C17402121714C8
:10426800E9700302451F7901850A82850B83124D87
:104278005B1205BB02451F8E828F83A38582128540
:104288008313E060030243DA850E82850F83E0A280
:10429800E040030243DA7C0E7D00790085188285B0
:1042A8001983AA82AB83121023EE2408F50AEF348F
:1042B80000F50B850A82F5831245676019750C06AF
:1042C800750D00780C121968850A82850B83E02425
:1042D80010FCA3E0801A124529EA4B700302451F1F
:1042E800750C06750D00780C121968EA2405FCEBAC
:1042F8003400FD7402121749AA82AB8312490F12C7
:104308001714850E82850F83E0A2E25004D2F08054
:1043180002C2F0A2F0E433F8740C121749E048F036
:104328008510828511831245676015851082851175
:1043380083E02410F8A3E03400F98882898380039D
:10434800908FD0780C1215CE851082851183124576
:1043580067600F851082851183E0F510A3E0F511E1
:104368008006751000751100850A82850B83124539
:1043780067600B850A82850B831245388006750AAB
:1043880000750B00780C1219647810121968780AF5
:1043980012196885148285158312197F8E828F837E
:1043A800A3124540740A121749AA82AB831211A9B5
:1043B800740A12171485088285098312454B9008E0
:1043C80055E8F0A3E9F07A017B009007ABE0F91219
:1043D800105F124564700302451F124551700302B5
:1043E800451F851282851383E0FC7901124D558E95
:1043F800828F8312175302451F12456470030245CA
:104408001FE0F5838882A3A312454B890BE8450B6F
:10441800700302451F8E828F83A3E0FC7902124D40
:10442800558882850B8380CB7C007D00EE2404FABE
:10443800EF3400FB850882850983E0F9121173E9DE
:10444800F8C3940A400302451FAC10AD117A0475F5
:10445800F006E8A42425F912132F02451F9007C07F
:10446800E0600E900B44E0F98508828509830242DA
:1044780076900B41E07004790580ED1245298A0C8D
:104488008B0DA80CA90DE82404F50CE93400F50DF2
:104498008E828F83A3A3A3A3A3A3A3E0A2E0503695
:1044A800E8496073850C82850D83E0FE6028850AE3
:1044B80082850B83E05410701D740E121749AC826C
:1044C800AD83E82405FAE93400FBEEF9121173E92B
:1044D800700479038092AC0EAD0F850C82850D8334
:1044E800E0F9124D551211F1124564602A12455136
:1044F80060257C0079000243F4120687E970189061
:104508000854E0640170081211CD900854E4F07961
:104518005012133B1211C174141217147F0E021893
:1045280027850882850983E0FAA3E0FB1209F922AE
:10453800E0F50AA3E0F50B22A3A3A3A3A3E0FCA341
:10454800E0FD22E0F8A3E0F922E0F5838882A3A346
:10455800E0F8A3E0F9E8FEE9FFEE4F229007C5E096
:10456800F8A3E0F9E8492274F412175574F2121608
:10457800FEEAFE8C0B75F006E9A42420F5088518E0
:1045880082851983AC82AD837A0E1249C7704A7C42
:10459800061246EC7043740C12174912454BE8F5A5
:1045A80009E50B6005EE42098004EEF4520985091D
:1045B80082AA82E86A7001E9601B740C121749EA42
:1045C800F0A3E4F0851882851983AC82AD837A0E56
:1045D800A90812132F790180027900023E1274F2A1
:1045E80012175574E61216FE890A8A088B09ECFE22
:1045F800EDFF740C1217491249BA60030246A07CF9
:104608000679FF740C1217491246F460030246A09B
:104618007470250AF50B851882851983AC82AD83E1
:104628007A0C1249C760030246E58518828519830A
:10463800AA82AB831211A3E508450970217C0C7985
:10464800001246EE60030246E57C0C7D0079008589
:104658001882851983AA82AB83121023806185187A
:1046680082851983AC82AD83AA08AB0912119D8A91
:104678000C8B0DA80CA90DE849702CEE4F6019851C
:104688001882851983AC82AD837A007B0012119D54
:10469800EAF8EBF9EA4B7004790080438882898351
:1046A800E508F0A3E509F012476CFAEE6A7001EF2D
:1046B800602BEEF04F700888828983E4F0A3F085C0
:1046C8001882851983AA82AB831211A38518828563
:1046D8001983AC82AD837A0CA90B12132F7901745C
:1046E8001A024F3379FF851882851983AA82AB8312
:1046F800121083E92274F71217557F00EF75F00343
:10470800A4F8A9F0EC28F8ED124730E06A7003A38A
:10471800E06B7006E8FAE9FB800B0FEFC3940440E6
:10472800DB7A007B00024A6539F988828983227422
:10473800F71217557E00EE75F003A4F8A9F0EA28E1
:10474800F8EB124730E0F4FCA3E0F4FD888289839B
:10475800ECF0A3EDF012476CF4F00EEEC3940440B5
:10476800D5024A65E82402F582E93400F583E0229F
:1047780074EE12175574F41216FEEAFEEBFF8C0A5B
:104788008D0B741E121749E0F50CA3E0F50D74208B
:10479800121749E0F508A3E0F5097422121749E059
:1047A800F510A3E0F511EE4F7005790A02489D1245
:1047B80011B5E9F50EC3940A4023750F007C0679FC
:1047C800FFE50F75F00EA4FAABF074C72AFA740768
:1047D8003BFB1246F870030248A7850F0EE50EC38F
:1047E800940A400302489B75F006E50EA4F50FEE07
:1047F800FCEFFD7A0E74201248B8E50A450B600BF1
:10480800AC0AAD0B7A1B74211248B8E50C450D6053
:104818000BAC0CAD0D7A1B74221248B8E50845099B
:10482800600BAC08AD097A1074231248B8E510453E
:1048380011601BAC10AD117A1074241248B874249E
:10484800121749AC82AD837A0474251248B87C0CDF
:104858007D0079FF124FC47A0C7470250EF912137B
:104868002F75080E7509007808121968EEFCEFFD1F
:10487800E50E75F00EA4F8A9F074C728FA74073984
:10488800FB12490F121714900853E060031211FD30
:104898001211EBA90E740C1217147F0A02182705BF
:1048A8000FE50FC3940A50030247C5750E0A80E34B
:1048B800250FF912132F2274F412175574F21216D9
:1048C800FEEAFEEBFFE9C3940A5004EE4F70047948
:1048D80002802D8518828519831249BAF508701E41
:1048E800750A06750B00780A1219687402121749BE
:1048F800AC82AD83EEFAEFFB12490F121714A90828
:10490800023E12AA08AB0912100B74022274F412A8
:104918001755EAFEEBFF750800750A06750B007857
:104928000A121968EEFCEFFDE50875F00EA4F8A967
:10493800F074C728FA740739FB12101D7402121795
:1049480014E96004A908800B0508E508C3940A4027
:10495800C8790A023E1774F712175574F01216FE3A
:10496800EAFEEBFF750800851882851983AC82ADD5
:10497800837A1075F006E508A424231249C7701F2E
:104988007C101246EC7018EEFCEFFD851882851934
:1049980083AA82AB83120591E97004A908800B05EC
:1049A80008E508C3940A40BF790A74101217140264
:1049B8004A65AC82AD837A0E75F006E9A42420F925
:1049C800121335E92274F7121755750800E50875B2
:1049D800F00EA4F8A9F074C728FE740739FFEEFC9E
:1049E800EFFD7A0E75F006E5081249C4602C7C06C6
:1049F8007D0079FFEEFAEFFB1210237C067D00792B
:104A0800FFEE2406FAEF3400FB121023EE240CF517
:104A180082EF3400F583E4F0A3F00508E508C394B9
:104A28000A40AA900853E060031211FD1211EB80AE
:104A38002C74F71217557E007F007C0679FFEF75FE
:104A4800F00EA4FAABF074C72AFA74073BFB1246BF
:104A5800F870010E0FEFC3940A40DFEEF97F0102F0
:104A6800182774F71217557E00EEF91211D30EEEBF
:104A7800C3940A5003E960F180E374F31217557484
:104A8800CB1216FEE9FF75F006A4F5087420250878
:104A9800FE7427121749AC82AD837A0EEE1249C70D
:104AA8006003024B847C0679FF742712174912466B
:104AB800F46003024B847C0E7D0079FF7427121783
:104AC80049AA82AB831210237C1B7D0079FF740CEA
:104AD800121749AA82AB831210237C0C7D0079FF40
:104AE800851882851983AA82AB8312102374271232
:104AF8001749AC82AD837A0EEEF912132FE9F50946
:104B0800740C121749AC82AD837A1B7421124B9333
:104B1800FE740C121749AC82AD837A1B7422124BB7
:104B280093F50A740C121749AC82AD837A1074237A
:104B3800124B93F50B740C121749AC82AD837A10A3
:104B48007424124B93F50C740C121749AC82AD8384
:104B58007A047425124B93F508851882851983AC5D
:104B680082AD837A0C74702FF912132FE9F8EE4591
:104B78000A450B450C45084842098003750900A9F8
:104B88000974351217147F050218272508F912131E
:104B98002FE92274F7121755E99007ABF01211C1EB
:104BA800024A6574F212175574FB1216FE8A088BB6
:104BB80009EB54807003024C4F9007ABE0F91210D8
:104BC800478A0A8B0BA80AA90BE8FEE9FFE84960A7
:104BD8006CEE2404F8EF3400F98E828F83E02450C1
:104BE800603814600624E1604A804B88828983E03B
:104BF80070448E828F83A3A3A3A3A3A3A312197FB8
:104C08008E828F831245408E828F83A3A3124D5BC1
:104C180012117F7402121714801C88828983E06441
:104C28001E701379008E828F83A3A3124D5B12111D
:104C380079800312118BEEFAEFFB121035AA08E502
:104C4800096480FB024D50EAA2E04003024D4C90FB
:104C58000855124538740312174985820C85830D4F
:104C6800780C121968750C02750D00780C12196809
:104C7800750C16750D90780C1219687CFF7DFF7AFB
:104C8800017B001206E17406121714024D34E4F594
:104C98000CF50D780C121968740412174985820CEA
:104CA80085830D780C121968740412174985820CD3
:104CB80085830D780C121968740912174912197F27
:104CC8007902EEFCEFFDAA0AAB0B1207F574081285
:104CD8001714E97035851882851983E0FA74011272
:104CE8001749E0F9EA2400F50CE439F50DEA450D19
:104CF8006018780C1219688E828F83124541AA0AAF
:104D0800AB0B12117F7402121714E4F50CF50D7831
:104D18000C121968740512174912197F7CFF7DFF60
:104D2800EEFAEFFB1206ED74041217148A0C8B0DC1
:104D3800AE0CAF0DEE4F6003024C96E5086401FA25
:104D4800AB0980047A007B007405024F3385088222
:104D5800850983E0FAA3E0FB22C082C0839007ABF9
:104D6800E0F98A828B83A3124D5B12080702418DFA
:104D7800C082C08374FF1216FE1211C7E9C39402E1
:104D8800851882851983400474028002740AF0AC85
:104D980082AD837A01790512069F740112171402F5
:104DA800418D74F212175574E81216FEEAFEEBFFF5
:104DB800890A8C088D097C187D007900124FCCEE89
:104DC800F0A3EFF09007ADE0C0E07402121749D0ED
:104DD800E0F09007AEE0C0E07403121749D0E0F0AD
:104DE800900B46E0C0E07417121749D0E0F0741534
:104DF800121749E054FEF8A3E0F9900B45E0A2E051
:104E0800E433FAE84AF87415121749124F42A2E13E
:104E18005004D2F08002C2F0E854FDFAA2F0E43364
:104E280033F8EA48F87415121749124F42A2E350B2
:104E380004D2F08002C2F0E854F7FAA2F0E433F5A5
:104E48000C750D007403780C1216EB124F3B1217F9
:104E580049124F42A2E45004D2F08002C2F0E85452
:104E6800EFFAA2F0E433F50C7404780C1216EB1286
:104E78004F3B121749124F42A2E55004D2F080026C
:104E8800C2F0E854DFFAA2F0E433F50C7405780CAC
:104E98001216EB124F3B121749124F42A2E250046E
:104EA800D2F08002C2F0E854FBFAA2F0E433F50C29
:104EB8007402780C1216EB124F3B121749E8F0A354
:104EC800E9F09007AEE0601B750C10780C121968B9
:104ED8007CAF7D077406121749AA82AB8312490F6B
:104EE8001217149007BFE06011E50A6009741512E3
:104EF8001749E04402F07801800278007414121710
:104F080049E048F09007ACE060047804800278003B
:104F18007414121749E048F0AC08AD098518828569
:104F28001983AA82AB831205B574181217147F0669
:104F3800021827EA450CF8741522E8F0A3E9F09066
:104F48000B45E02274F312175574E51216FEEAFEBB
:104F5800EBFF8C098D0A7428121749E0F50C75F0DF
:104F680006E9A4F87408650A7004742280027421A2
:104F780028F50B7C1B7D007900124FC47A1BA90B06
:104F88001249C87032741A121749E024F9C3940AF6
:104F98005025E50CF50B780B12196C7401121749A2
:104FA800AC82AD83E509A2E0E433F9EEFAEFFB1237
:104FB80005C77401121714741B024B8B124FCCAC2B
:104FC80082AD8322851882851983AA82AB83121049
:104FD800238518828519832274F7121755120873CE
:104FE800750800E50875F00EA4F8A9F074C728FE46
:104FF800740739FF7C0679FFEEFAEFFB1246F8706A
:1050080009EEFAEFFB79001208790508E508C39460
:105018000A40D0024A65C082C0839061907404F04F
:10502800A37448F0A3E4F09061807440F09061BCF0
:105038007407F09061877469F09061B67416F0791E
:1050480000120AF57902120AFB902418E493F4601E
:1050580006E493F9120AD17905120DEF025460C0E3
:1050680082C083E9540FF9906185E0696012E5C652
:1050780054804449F5C6E59E547F644970F8E9F0C8
:1050880053C680E59E547F70FA02546074F7121775
:1050980055E5A8FE53A87E120ADDC2BA539AFEC28D
:1050A80089759B00C2C2120AE375A91175B9051268
:1050B8000AE9D2BA439A0174805E42A80259EDC047
:1050C80082C083906181E4F0A302545D75E90075A4
:1050D800910075BF00020135C082C083906181E4F0
:1050E800F0A374C0F0A3E402545FC082C08374F8D4
:1050F8001216FE9003C41258CFE84970030251A952
:105108009003C4E054406023790885188285198388
:10511800AA82AB83120BEB851882851983AA82AB0E
:10512800831208979003C4E054BFF0E054806010E5
:10513800790C7A807B05120BEB9003C4E0547FF066
:10514800E0A2E0500879001251B154FEF0E0540298
:10515800600879011251B154FDF0E05404600879F7
:10516800001251BC54FBF0E0540860087901125158
:10517800BC54F7F0E05410600879021251BC54EFA7
:10518800F0E05420600879031251BC54DFF0A3E02A
:105198005401600D120B071208A99003C5E054FED4
:1051A800F07408121714025460120AF512089D9040
:1051B80003C4E022120AFB1208A39003C4E022C031
:1051C80082C083E9600514602A804F90619A743325
:1051D800F0A37455F09061A0743AF090055CE06417
:1051E800017009C2919003C67467802D9003C6743C
:1051F80061802690619A743FF0A3745AF09061A080
:10520800747FF090055CE064017009D2919003C648
:10521800747180059003C6746AF0025460C082C03D
:1052280083E9600B14600D14600F146011802090E6
:10523800241C801590241D801090241E800B90053E
:105248005CE0640160F390241FE493906186F002AF
:10525800546074EE12175574F41216FE8518828580
:105268001983AC82AD8375838F7582D4740412164A
:105278001190241C93F460030253EC907808E0C367
:10528800940250030253CC7404121749AC82AD83C4
:1052980075838F75823A7408121611F97AFF7BFFAD
:1052A8007FFF7E008982858210801874086E7003E3
:1052B80002538174096E7003025381740A6E70037D
:1052C800025381E510C333FCE433FD74041217491B
:1052D800E5822CF582E5833DF583E0F50EA3E0F544
:1052E8000F8E08750900740278081216EB744825A9
:1052F80008FC74783509FD8C828D8378081215CEE8
:105308007408780812150F85080C85090D8C828D94
:105318008378081215CE7418780812150FE50C4515
:1053280008F508E50DF509C3E50E9508E50F95099B
:105338008C828D8378081215CE8C828D8378081222
:1053480015CE74187808401412150FE50C4508FCA2
:10535800AD0DE50EC39CFCE50F9D800F12150FE502
:105368000C4508C3950EFCE50D950FFDC3EC9AEDB1
:105378009B5006ECFAEDFBEEFF0EEEC394135003C0
:105388000252B374FF6A700374FF6B602D8F087448
:105398000278081216EB744812607B74783509F5A8
:1053A8008378081215CE851882851983E582251021
:1053B800F582E583125E08E508F009E9C394045014
:1053C800030252A475080175090078081219687457
:1053D80002121749AC82AD837A077B0912123F7417
:1053E80002121714740C1217147F0A021827C082AD
:1053F800C083906186E0F890241FE4936870099058
:10540800241EE493906186F09061AE7468F0A374F2
:105418006AF090624574FBF0A304F053F4FD43FE78
:105428000290055C7401F09061A0E0643A70047920
:105438000080027901120AF5025460C082C083908C
:10544800050EE06401700A900513E06004790C8091
:105458000279008003F0A3F0D083D082020135C026
:1054680082C08375E1F1900511E0604D1460081465
:1054780060511460498051120B19900507E0F97AC0
:10548800087B05120D71908FC41215EC120DA790B0
:105498008FE41215EC120D7D900512E0F9120D89BA
:1054A8007901120DE3900505E024161255F57431C3
:1054B800F0A3740BF07900809F120B1F80BC120BB5
:1054C8002580B7120B2B80B2791280EB74F4121777
:1054D8005575D90D9004F6E0A2E0E4331313F812E1
:1054E8005561484401F5D978001255DF40FB780032
:1054F800880874F712607B74041255E940F275E16C
:10550800959004F6E0F97AF77B04120D77900A4C2F
:1055180074A7F0A3740A12560412562412561B12CA
:10552800575C12556B78081215CE908F9878081230
:10553800155A908FDC78081215A81255EF780812C2
:1055480015DD900505E024141255F57413F0900349
:10555800C27402F07F04021827900507E0C43333B1
:1055680054C022900505E0F8A3E0F5838882A3A340
:105578002274F612175512572D8AD978001255DF62
:1055880040FB780080061256931257DFE8C3994013
:10559800F512571F1255DF40FB780080081260771C
:1055A80074051257DFE8C39940F375E195900A4CEA
:1055B80074B3F0A3740A12560412560E1215EC12A4
:1055C80055EF1215F8900505E024141255F57412DC
:1055D800F09003C20259CA880874082508F5827435
:1055E8000512593B940622900505E0240EF8A3E025
:1055F8001255FC223400F988828983221257457497
:10560800ADF0A3740A2212562412561B125760904A
:105618008FD022F0A374C5F0A3740A221256282250
:1056280012562C22F0A37457F0A3740C2274F612AD
:1056380017551256881255614402F5D9780012554B
:10564800DF40FB780080061256931257DFE8C399B3
:1056580040F575E195900A4C12569EF0A312569E9D
:105668001256111215EC1255EF1215F8900505E0B7
:1056780024141255F57414F09003C274040259CC22
:10568800900517E0F9740729F5D9228808741825B8
:1056980008F58274052274BF1256AB1256ABF0A3FC
:1056A800740A22F0A3740AF0A374BF2274F61217C6
:1056B8005512572D74064AF5D978001255DF40FB6C
:1056C800780080061256931257DFE8C39940F51206
:1056D800571F1255DF40FB78008008126077740569
:1056E8001257DFE8C39940F375E195900A4C74B9F5
:1056F800F0A3740A12573B12560E1215EC1255EF0E
:105708001215F8900505E024141255F57415F0905B
:1057180003C274030259CC90053712568B74044A9D
:10572800F5D9780022125688900507E0C43333541F
:10573800C0FA221257457457F0A3740C2212574925
:10574800221257567457F0A3740C12575622125649
:105758002CF0A32212576022F0900A5A7457F0A333
:10576800740C1257497457F0A3740C125628F0227F
:10577800C082C08312556BA3A3A3A3E402545D7433
:10578800F71217551262BDF8740339F9E82405FABF
:10579800E93400FB8A828B8312602C88828983A378
:1057A800A3A3A3A3A3A3A3A3ECF0A3EDF0888289EA
:1057B80083A3A3A3A3A3A3A3E024FFF8A3E034FF38
:1057C800F98A828B83E8F0A3E9F00259ED8808741E
:1057D800602508F5827405125F53F5D90822EAFEA0
:1057E800EBFF9061D0E0F87480C398FAEE2483222E
:1057F8001257FE940422125E16E0F5D90AEAC32273
:1058080074F6121755EAFEEBFF9061D0E0707575DB
:10581800D90E75D90375D9047A008A08EE250812BD
:10582800638B248C1258A140F17A008A08EE25086F
:1058380012638B24841257F840F175E1957908EECC
:10584800248C12589A24841258917C008C82AA8243
:10585800C3E49AF895E0F9EE28F8EF39F9E8248BD3
:10586800F582E9125F4FC0E0EE2A12638B24ABF594
:1058780082E9125E08D0E0F00CECC3940840CD1227
:105888005957800279000259CDFAEF3400FB120B08
:10589800DF221258917904EE221257FE940822C092
:1058A80082C08375D90275D90375D90575E195EA62
:1058B8002470F582EB1258CCEA2472F582EB125967
:1058C80069025460125E191258D322E0F8A3E0F975
:1058D8002274F6121755EAFEEBFF90056074061263
:1058E80059451219687C017903125C7112171475F5
:1058F800D90675D903780012592B40FB75E19590AC
:1059080003C2E064087017EE2470F582EF1258CCD9
:10591800EE2472F582EF125E08E8F0A3E9F079014F
:105928000259CD880874602508F582740512593B20
:10593800940522125E19E0F5D908E8C322F075082B
:105948006075090578082275E1957904120DADEEA8
:105958002470F582EF125E191258D3EE2472F58284
:10596800EF125E19E8F0A3E9F079012274F6121734
:1059780055EAFEEBFF9061D0E07043790190056035
:10598800740BF09003C2E06407701775086075091E
:105998000578081219687C010909125C711217143C
:1059A8007905740129F5D975D90378008003125750
:1059B800D5E8C39940F875E19512595780027900E6
:1059C80080037401F07F0202182774F7121755EA52
:1059D800FEEBFF75D90375D90375D90DEE24DE12D8
:1059E80059F212594F7F01021827F582EF125F53BF
:1059F800F5D9227F030218277401250AF5D975D92C
:105A08000378002274F5121755125A81600478043D
:105A180080027800E8240BF8EAC3984041750A0927
:105A28009005607409F07908125A6A601475086064
:105A38007509057808121968125C69121714750A35
:105A48000D125A0080031257D5E8C3950A40F7751E
:105A5800E1957904120DAD125BE6790180027900B7
:105A68008091EE24E3FCEF3400FD7A617B05120B94
:105A7800D9850882850983E0221257E6F8EF12607B
:105A880020F583E02274F31217558A088B09125CFB
:105A98007CFAE5082483F50AEB125B4B6004780472
:105AA80080027800E82408F8EAC3985003025B44AF
:105AB800750C06900560740CF09003DFE0900561AA
:105AC800F07402C0E0F97CE07D037A627B05120B7A
:105AD800D9D0E0F97CE27D03120BD9850A82850BC7
:105AE80083E0601C750A60750B05780A1219687CDA
:105AF800067903AA08AB09125C71121714750C0A0F
:105B08007401250CF5D975D90378008009880A74C1
:105B180060250A1257DBE8C3950C40F175E19579C9
:105B280004120DADE5082470F582E5091258CCE59C
:105B3800082472F582E509125969800279007F0507
